{
	"dynamicArr.sol": {
		"cons": {
			"abi": [
				{
					"inputs": [
						{
							"internalType": "uint256",
							"name": "",
							"type": "uint256"
						}
					],
					"name": "arr",
					"outputs": [
						{
							"internalType": "uint256",
							"name": "",
							"type": "uint256"
						}
					],
					"stateMutability": "view",
					"type": "function"
				},
				{
					"inputs": [],
					"name": "length",
					"outputs": [
						{
							"internalType": "uint256",
							"name": "",
							"type": "uint256"
						}
					],
					"stateMutability": "view",
					"type": "function"
				},
				{
					"inputs": [
						{
							"internalType": "uint256",
							"name": "i",
							"type": "uint256"
						},
						{
							"internalType": "uint256",
							"name": "value",
							"type": "uint256"
						}
					],
					"name": "pus",
					"outputs": [],
					"stateMutability": "nonpayable",
					"type": "function"
				}
			],
			"devdoc": {
				"kind": "dev",
				"methods": {},
				"version": 1
			},
			"evm": {
				"assembly": "    /* \"dynamicArr.sol\":27:237  contract cons{\r... */\n  mstore(0x40, 0x80)\n  callvalue\n  dup1\n  iszero\n  tag_1\n  jumpi\n  0x00\n  dup1\n  revert\ntag_1:\n  pop\n  dataSize(sub_0)\n  dup1\n  dataOffset(sub_0)\n  0x00\n  codecopy\n  0x00\n  return\nstop\n\nsub_0: assembly {\n        /* \"dynamicArr.sol\":27:237  contract cons{\r... */\n      mstore(0x40, 0x80)\n      callvalue\n      dup1\n      iszero\n      tag_1\n      jumpi\n      0x00\n      dup1\n      revert\n    tag_1:\n      pop\n      jumpi(tag_2, lt(calldatasize, 0x04))\n      shr(0xe0, calldataload(0x00))\n      dup1\n      0x0a16c136\n      eq\n      tag_3\n      jumpi\n      dup1\n      0x1f7b6d32\n      eq\n      tag_4\n      jumpi\n      dup1\n      0x71e5ee5f\n      eq\n      tag_5\n      jumpi\n    tag_2:\n      0x00\n      dup1\n      revert\n        /* \"dynamicArr.sol\":79:149  function pus(uint i, uint value) public{\r... */\n    tag_3:\n      tag_6\n      0x04\n      dup1\n      calldatasize\n      sub\n      dup2\n      add\n      swap1\n      tag_7\n      swap2\n      swap1\n      tag_8\n      jump\t// in\n    tag_7:\n      tag_9\n      jump\t// in\n    tag_6:\n      stop\n        /* \"dynamicArr.sol\":155:234  function length() public view returns(uint){\r... */\n    tag_4:\n      tag_10\n      tag_11\n      jump\t// in\n    tag_10:\n      mload(0x40)\n      tag_12\n      swap2\n      swap1\n      tag_13\n      jump\t// in\n    tag_12:\n      mload(0x40)\n      dup1\n      swap2\n      sub\n      swap1\n      return\n        /* \"dynamicArr.sol\":53:70  uint[] public arr */\n    tag_5:\n      tag_14\n      0x04\n      dup1\n      calldatasize\n      sub\n      dup2\n      add\n      swap1\n      tag_15\n      swap2\n      swap1\n      tag_16\n      jump\t// in\n    tag_15:\n      tag_17\n      jump\t// in\n    tag_14:\n      mload(0x40)\n      tag_18\n      swap2\n      swap1\n      tag_13\n      jump\t// in\n    tag_18:\n      mload(0x40)\n      dup1\n      swap2\n      sub\n      swap1\n      return\n        /* \"dynamicArr.sol\":79:149  function pus(uint i, uint value) public{\r... */\n    tag_9:\n        /* \"dynamicArr.sol\":136:141  value */\n      dup1\n        /* \"dynamicArr.sol\":129:132  arr */\n      0x00\n        /* \"dynamicArr.sol\":133:134  i */\n      dup4\n        /* \"dynamicArr.sol\":129:135  arr[i] */\n      dup2\n      sload\n      dup2\n      lt\n      tag_20\n      jumpi\n      mstore(0x00, 0x4e487b7100000000000000000000000000000000000000000000000000000000)\n      mstore(0x04, 0x32)\n      revert(0x00, 0x24)\n    tag_20:\n      swap1\n      0x00\n      mstore\n      keccak256(0x00, 0x20)\n      add\n        /* \"dynamicArr.sol\":129:141  arr[i]=value */\n      dup2\n      swap1\n      sstore\n      pop\n        /* \"dynamicArr.sol\":79:149  function pus(uint i, uint value) public{\r... */\n      pop\n      pop\n      jump\t// out\n        /* \"dynamicArr.sol\":155:234  function length() public view returns(uint){\r... */\n    tag_11:\n        /* \"dynamicArr.sol\":193:197  uint */\n      0x00\n        /* \"dynamicArr.sol\":216:219  arr */\n      dup1\n        /* \"dynamicArr.sol\":216:226  arr.length */\n      dup1\n      sload\n      swap1\n      pop\n        /* \"dynamicArr.sol\":209:226  return arr.length */\n      swap1\n      pop\n        /* \"dynamicArr.sol\":155:234  function length() public view returns(uint){\r... */\n      swap1\n      jump\t// out\n        /* \"dynamicArr.sol\":53:70  uint[] public arr */\n    tag_17:\n      0x00\n      dup2\n      dup2\n      sload\n      dup2\n      lt\n      tag_23\n      jumpi\n      0x00\n      dup1\n      revert\n    tag_23:\n      swap1\n      0x00\n      mstore\n      keccak256(0x00, 0x20)\n      add\n      0x00\n      swap2\n      pop\n      swap1\n      pop\n      sload\n      dup2\n      jump\t// out\n        /* \"#utility.yul\":7:146   */\n    tag_26:\n      0x00\n        /* \"#utility.yul\":91:97   */\n      dup2\n        /* \"#utility.yul\":78:98   */\n      calldataload\n        /* \"#utility.yul\":69:98   */\n      swap1\n      pop\n        /* \"#utility.yul\":107:140   */\n      tag_28\n        /* \"#utility.yul\":134:139   */\n      dup2\n        /* \"#utility.yul\":107:140   */\n      tag_29\n      jump\t// in\n    tag_28:\n        /* \"#utility.yul\":59:146   */\n      swap3\n      swap2\n      pop\n      pop\n      jump\t// out\n        /* \"#utility.yul\":152:414   */\n    tag_16:\n      0x00\n        /* \"#utility.yul\":260:262   */\n      0x20\n        /* \"#utility.yul\":248:257   */\n      dup3\n        /* \"#utility.yul\":239:246   */\n      dup5\n        /* \"#utility.yul\":235:258   */\n      sub\n        /* \"#utility.yul\":231:263   */\n      slt\n        /* \"#utility.yul\":228:230   */\n      iszero\n      tag_31\n      jumpi\n        /* \"#utility.yul\":276:277   */\n      0x00\n        /* \"#utility.yul\":273:274   */\n      dup1\n        /* \"#utility.yul\":266:278   */\n      revert\n        /* \"#utility.yul\":228:230   */\n    tag_31:\n        /* \"#utility.yul\":319:320   */\n      0x00\n        /* \"#utility.yul\":344:397   */\n      tag_32\n        /* \"#utility.yul\":389:396   */\n      dup5\n        /* \"#utility.yul\":380:386   */\n      dup3\n        /* \"#utility.yul\":369:378   */\n      dup6\n        /* \"#utility.yul\":365:387   */\n      add\n        /* \"#utility.yul\":344:397   */\n      tag_26\n      jump\t// in\n    tag_32:\n        /* \"#utility.yul\":334:397   */\n      swap2\n      pop\n        /* \"#utility.yul\":290:407   */\n      pop\n        /* \"#utility.yul\":218:414   */\n      swap3\n      swap2\n      pop\n      pop\n      jump\t// out\n        /* \"#utility.yul\":420:827   */\n    tag_8:\n      0x00\n      dup1\n        /* \"#utility.yul\":545:547   */\n      0x40\n        /* \"#utility.yul\":533:542   */\n      dup4\n        /* \"#utility.yul\":524:531   */\n      dup6\n        /* \"#utility.yul\":520:543   */\n      sub\n        /* \"#utility.yul\":516:548   */\n      slt\n        /* \"#utility.yul\":513:515   */\n      iszero\n      tag_34\n      jumpi\n        /* \"#utility.yul\":561:562   */\n      0x00\n        /* \"#utility.yul\":558:559   */\n      dup1\n        /* \"#utility.yul\":551:563   */\n      revert\n        /* \"#utility.yul\":513:515   */\n    tag_34:\n        /* \"#utility.yul\":604:605   */\n      0x00\n        /* \"#utility.yul\":629:682   */\n      tag_35\n        /* \"#utility.yul\":674:681   */\n      dup6\n        /* \"#utility.yul\":665:671   */\n      dup3\n        /* \"#utility.yul\":654:663   */\n      dup7\n        /* \"#utility.yul\":650:672   */\n      add\n        /* \"#utility.yul\":629:682   */\n      tag_26\n      jump\t// in\n    tag_35:\n        /* \"#utility.yul\":619:682   */\n      swap3\n      pop\n        /* \"#utility.yul\":575:692   */\n      pop\n        /* \"#utility.yul\":731:733   */\n      0x20\n        /* \"#utility.yul\":757:810   */\n      tag_36\n        /* \"#utility.yul\":802:809   */\n      dup6\n        /* \"#utility.yul\":793:799   */\n      dup3\n        /* \"#utility.yul\":782:791   */\n      dup7\n        /* \"#utility.yul\":778:800   */\n      add\n        /* \"#utility.yul\":757:810   */\n      tag_26\n      jump\t// in\n    tag_36:\n        /* \"#utility.yul\":747:810   */\n      swap2\n      pop\n        /* \"#utility.yul\":702:820   */\n      pop\n        /* \"#utility.yul\":503:827   */\n      swap3\n      pop\n      swap3\n      swap1\n      pop\n      jump\t// out\n        /* \"#utility.yul\":833:951   */\n    tag_37:\n        /* \"#utility.yul\":920:944   */\n      tag_39\n        /* \"#utility.yul\":938:943   */\n      dup2\n        /* \"#utility.yul\":920:944   */\n      tag_40\n      jump\t// in\n    tag_39:\n        /* \"#utility.yul\":915:918   */\n      dup3\n        /* \"#utility.yul\":908:945   */\n      mstore\n        /* \"#utility.yul\":898:951   */\n      pop\n      pop\n      jump\t// out\n        /* \"#utility.yul\":957:1179   */\n    tag_13:\n      0x00\n        /* \"#utility.yul\":1088:1090   */\n      0x20\n        /* \"#utility.yul\":1077:1086   */\n      dup3\n        /* \"#utility.yul\":1073:1091   */\n      add\n        /* \"#utility.yul\":1065:1091   */\n      swap1\n      pop\n        /* \"#utility.yul\":1101:1172   */\n      tag_42\n        /* \"#utility.yul\":1169:1170   */\n      0x00\n        /* \"#utility.yul\":1158:1167   */\n      dup4\n        /* \"#utility.yul\":1154:1171   */\n      add\n        /* \"#utility.yul\":1145:1151   */\n      dup5\n        /* \"#utility.yul\":1101:1172   */\n      tag_37\n      jump\t// in\n    tag_42:\n        /* \"#utility.yul\":1055:1179   */\n      swap3\n      swap2\n      pop\n      pop\n      jump\t// out\n        /* \"#utility.yul\":1185:1262   */\n    tag_40:\n      0x00\n        /* \"#utility.yul\":1251:1256   */\n      dup2\n        /* \"#utility.yul\":1240:1256   */\n      swap1\n      pop\n        /* \"#utility.yul\":1230:1262   */\n      swap2\n      swap1\n      pop\n      jump\t// out\n        /* \"#utility.yul\":1268:1390   */\n    tag_29:\n        /* \"#utility.yul\":1341:1365   */\n      tag_45\n        /* \"#utility.yul\":1359:1364   */\n      dup2\n        /* \"#utility.yul\":1341:1365   */\n      tag_40\n      jump\t// in\n    tag_45:\n        /* \"#utility.yul\":1334:1339   */\n      dup2\n        /* \"#utility.yul\":1331:1366   */\n      eq\n        /* \"#utility.yul\":1321:1323   */\n      tag_46\n      jumpi\n        /* \"#utility.yul\":1380:1381   */\n      0x00\n        /* \"#utility.yul\":1377:1378   */\n      dup1\n        /* \"#utility.yul\":1370:1382   */\n      revert\n        /* \"#utility.yul\":1321:1323   */\n    tag_46:\n        /* \"#utility.yul\":1311:1390   */\n      pop\n      jump\t// out\n\n    auxdata: 0xa264697066735822122093e2d66fc116fa33d5423fbd1a3625002b7572e70d21fd598855afd4a9d92e5064736f6c63430008000033\n}\n",
				"bytecode": {
					"linkReferences": {},
					"object": "608060405234801561001057600080fd5b50610228806100206000396000f3fe608060405234801561001057600080fd5b50600436106100415760003560e01c80630a16c136146100465780631f7b6d321461006257806371e5ee5f14610080575b600080fd5b610060600480360381019061005b919061016b565b6100b0565b005b61006a6100fd565b60405161007791906101b6565b60405180910390f35b61009a60048036038101906100959190610142565b610109565b6040516100a791906101b6565b60405180910390f35b80600083815481106100eb577f4e487b7100000000000000000000000000000000000000000000000000000000600052603260045260246000fd5b90600052602060002001819055505050565b60008080549050905090565b6000818154811061011957600080fd5b906000526020600020016000915090505481565b60008135905061013c816101db565b92915050565b60006020828403121561015457600080fd5b60006101628482850161012d565b91505092915050565b6000806040838503121561017e57600080fd5b600061018c8582860161012d565b925050602061019d8582860161012d565b9150509250929050565b6101b0816101d1565b82525050565b60006020820190506101cb60008301846101a7565b92915050565b6000819050919050565b6101e4816101d1565b81146101ef57600080fd5b5056fea264697066735822122093e2d66fc116fa33d5423fbd1a3625002b7572e70d21fd598855afd4a9d92e5064736f6c63430008000033",
					"opcodes": "PUSH1 0x80 PUSH1 0x40 MSTORE CALLVALUE DUP1 ISZERO PUSH2 0x10 JUMPI PUSH1 0x0 DUP1 REVERT JUMPDEST POP PUSH2 0x228 DUP1 PUSH2 0x20 PUSH1 0x0 CODECOPY PUSH1 0x0 RETURN INVALID PUSH1 0x80 PUSH1 0x40 MSTORE CALLVALUE DUP1 ISZERO PUSH2 0x10 JUMPI PUSH1 0x0 DUP1 REVERT JUMPDEST POP PUSH1 0x4 CALLDATASIZE LT PUSH2 0x41 JUMPI PUSH1 0x0 CALLDATALOAD PUSH1 0xE0 SHR DUP1 PUSH4 0xA16C136 EQ PUSH2 0x46 JUMPI DUP1 PUSH4 0x1F7B6D32 EQ PUSH2 0x62 JUMPI DUP1 PUSH4 0x71E5EE5F EQ PUSH2 0x80 JUMPI JUMPDEST PUSH1 0x0 DUP1 REVERT JUMPDEST PUSH2 0x60 PUSH1 0x4 DUP1 CALLDATASIZE SUB DUP2 ADD SWAP1 PUSH2 0x5B SWAP2 SWAP1 PUSH2 0x16B JUMP JUMPDEST PUSH2 0xB0 JUMP JUMPDEST STOP JUMPDEST PUSH2 0x6A PUSH2 0xFD JUMP JUMPDEST PUSH1 0x40 MLOAD PUSH2 0x77 SWAP2 SWAP1 PUSH2 0x1B6 JUMP JUMPDEST PUSH1 0x40 MLOAD DUP1 SWAP2 SUB SWAP1 RETURN JUMPDEST PUSH2 0x9A PUSH1 0x4 DUP1 CALLDATASIZE SUB DUP2 ADD SWAP1 PUSH2 0x95 SWAP2 SWAP1 PUSH2 0x142 JUMP JUMPDEST PUSH2 0x109 JUMP JUMPDEST PUSH1 0x40 MLOAD PUSH2 0xA7 SWAP2 SWAP1 PUSH2 0x1B6 JUMP JUMPDEST PUSH1 0x40 MLOAD DUP1 SWAP2 SUB SWAP1 RETURN JUMPDEST DUP1 PUSH1 0x0 DUP4 DUP2 SLOAD DUP2 LT PUSH2 0xEB JUMPI PUSH32 0x4E487B7100000000000000000000000000000000000000000000000000000000 PUSH1 0x0 MSTORE PUSH1 0x32 PUSH1 0x4 MSTORE PUSH1 0x24 PUSH1 0x0 REVERT JUMPDEST SWAP1 PUSH1 0x0 MSTORE PUSH1 0x20 PUSH1 0x0 KECCAK256 ADD DUP2 SWAP1 SSTORE POP POP POP JUMP JUMPDEST PUSH1 0x0 DUP1 DUP1 SLOAD SWAP1 POP SWAP1 POP SWAP1 JUMP JUMPDEST PUSH1 0x0 DUP2 DUP2 SLOAD DUP2 LT PUSH2 0x119 JUMPI PUSH1 0x0 DUP1 REVERT JUMPDEST SWAP1 PUSH1 0x0 MSTORE PUSH1 0x20 PUSH1 0x0 KECCAK256 ADD PUSH1 0x0 SWAP2 POP SWAP1 POP SLOAD DUP2 JUMP JUMPDEST PUSH1 0x0 DUP2 CALLDATALOAD SWAP1 POP PUSH2 0x13C DUP2 PUSH2 0x1DB JUMP JUMPDEST SWAP3 SWAP2 POP POP JUMP JUMPDEST PUSH1 0x0 PUSH1 0x20 DUP3 DUP5 SUB SLT ISZERO PUSH2 0x154 JUMPI PUSH1 0x0 DUP1 REVERT JUMPDEST PUSH1 0x0 PUSH2 0x162 DUP5 DUP3 DUP6 ADD PUSH2 0x12D JUMP JUMPDEST SWAP2 POP POP SWAP3 SWAP2 POP POP JUMP JUMPDEST PUSH1 0x0 DUP1 PUSH1 0x40 DUP4 DUP6 SUB SLT ISZERO PUSH2 0x17E JUMPI PUSH1 0x0 DUP1 REVERT JUMPDEST PUSH1 0x0 PUSH2 0x18C DUP6 DUP3 DUP7 ADD PUSH2 0x12D JUMP JUMPDEST SWAP3 POP POP PUSH1 0x20 PUSH2 0x19D DUP6 DUP3 DUP7 ADD PUSH2 0x12D JUMP JUMPDEST SWAP2 POP POP SWAP3 POP SWAP3 SWAP1 POP JUMP JUMPDEST PUSH2 0x1B0 DUP2 PUSH2 0x1D1 JUMP JUMPDEST DUP3 MSTORE POP POP JUMP JUMPDEST PUSH1 0x0 PUSH1 0x20 DUP3 ADD SWAP1 POP PUSH2 0x1CB PUSH1 0x0 DUP4 ADD DUP5 PUSH2 0x1A7 JUMP JUMPDEST SWAP3 SWAP2 POP POP JUMP JUMPDEST PUSH1 0x0 DUP2 SWAP1 POP SWAP2 SWAP1 POP JUMP JUMPDEST PUSH2 0x1E4 DUP2 PUSH2 0x1D1 JUMP JUMPDEST DUP2 EQ PUSH2 0x1EF JUMPI PUSH1 0x0 DUP1 REVERT JUMPDEST POP JUMP INVALID LOG2 PUSH5 0x6970667358 0x22 SLT KECCAK256 SWAP4 0xE2 0xD6 PUSH16 0xC116FA33D5423FBD1A3625002B7572E7 0xD 0x21 REVERT MSIZE DUP9 SSTORE 0xAF 0xD4 0xA9 0xD9 0x2E POP PUSH5 0x736F6C6343 STOP ADDMOD STOP STOP CALLER "
				},
				"gasEstimates": {
					"creation": {
						"codeDepositCost": "110400",
						"executionCost": "159",
						"totalCost": "110559"
					},
					"external": {
						"arr(uint256)": "infinite",
						"length()": "1145",
						"pus(uint256,uint256)": "infinite"
					}
				},
				"methodIdentifiers": {
					"arr(uint256)": "71e5ee5f",
					"length()": "1f7b6d32",
					"pus(uint256,uint256)": "0a16c136"
				}
			},
			"storageLayout": {
				"storage": [
					{
						"astId": 4,
						"contract": "dynamicArr.sol:cons",
						"label": "arr",
						"offset": 0,
						"slot": "0",
						"type": "t_array(t_uint256)dyn_storage"
					}
				],
				"types": {
					"t_array(t_uint256)dyn_storage": {
						"base": "t_uint256",
						"encoding": "dynamic_array",
						"label": "uint256[]",
						"numberOfBytes": "32"
					},
					"t_uint256": {
						"encoding": "inplace",
						"label": "uint256",
						"numberOfBytes": "32"
					}
				}
			},
			"userdoc": {
				"kind": "user",
				"methods": {},
				"version": 1
			}
		}
	}
}