{
	"enum.sol": {
		"structure": {
			"abi": [
				{
					"inputs": [],
					"name": "User",
					"outputs": [],
					"stateMutability": "nonpayable",
					"type": "function"
				},
				{
					"inputs": [],
					"name": "changeUser",
					"outputs": [],
					"stateMutability": "nonpayable",
					"type": "function"
				},
				{
					"inputs": [],
					"name": "lottery",
					"outputs": [
						{
							"internalType": "uint256",
							"name": "",
							"type": "uint256"
						}
					],
					"stateMutability": "view",
					"type": "function"
				},
				{
					"inputs": [],
					"name": "u1",
					"outputs": [
						{
							"internalType": "enum structure.user",
							"name": "",
							"type": "uint8"
						}
					],
					"stateMutability": "view",
					"type": "function"
				}
			],
			"devdoc": {
				"kind": "dev",
				"methods": {},
				"version": 1
			},
			"evm": {
				"assembly": "    /* \"enum.sol\":29:336  contract structure {\r... */\n  mstore(0x40, 0x80)\n    /* \"enum.sol\":113:125  user.allowed */\n  0x00\n    /* \"enum.sol\":98:125  user public u1=user.allowed */\n  dup1\n  exp(0x0100, 0x00)\n  dup2\n  sload\n  dup2\n  0xff\n  mul\n  not\n  and\n  swap1\n  dup4\n  0x02\n  dup2\n  gt\n  iszero\n  tag_1\n  jumpi\n  mstore(0x00, 0x4e487b7100000000000000000000000000000000000000000000000000000000)\n  mstore(0x04, 0x21)\n  revert(0x00, 0x24)\ntag_1:\n  mul\n  or\n  swap1\n  sstore\n  pop\n    /* \"enum.sol\":154:158  1000 */\n  0x03e8\n    /* \"enum.sol\":132:158  uint public lottery = 1000 */\n  0x01\n  sstore\n    /* \"enum.sol\":29:336  contract structure {\r... */\n  callvalue\n  dup1\n  iszero\n  tag_2\n  jumpi\n  0x00\n  dup1\n  revert\ntag_2:\n  pop\n  dataSize(sub_0)\n  dup1\n  dataOffset(sub_0)\n  0x00\n  codecopy\n  0x00\n  return\nstop\n\nsub_0: assembly {\n        /* \"enum.sol\":29:336  contract structure {\r... */\n      mstore(0x40, 0x80)\n      callvalue\n      dup1\n      iszero\n      tag_1\n      jumpi\n      0x00\n      dup1\n      revert\n    tag_1:\n      pop\n      jumpi(tag_2, lt(calldatasize, 0x04))\n      shr(0xe0, calldataload(0x00))\n      dup1\n      0x1429e26c\n      eq\n      tag_3\n      jumpi\n      dup1\n      0x1aa35610\n      eq\n      tag_4\n      jumpi\n      dup1\n      0xba13a572\n      eq\n      tag_5\n      jumpi\n      dup1\n      0xc68b524d\n      eq\n      tag_6\n      jumpi\n    tag_2:\n      0x00\n      dup1\n      revert\n        /* \"enum.sol\":167:262  function User()public{\r... */\n    tag_3:\n      tag_7\n      tag_8\n      jump\t// in\n    tag_7:\n      stop\n        /* \"enum.sol\":98:125  user public u1=user.allowed */\n    tag_4:\n      tag_9\n      tag_10\n      jump\t// in\n    tag_9:\n      mload(0x40)\n      tag_11\n      swap2\n      swap1\n      tag_12\n      jump\t// in\n    tag_11:\n      mload(0x40)\n      dup1\n      swap2\n      sub\n      swap1\n      return\n        /* \"enum.sol\":132:158  uint public lottery = 1000 */\n    tag_5:\n      tag_13\n      tag_14\n      jump\t// in\n    tag_13:\n      mload(0x40)\n      tag_15\n      swap2\n      swap1\n      tag_16\n      jump\t// in\n    tag_15:\n      mload(0x40)\n      dup1\n      swap2\n      sub\n      swap1\n      return\n        /* \"enum.sol\":268:333  function changeUser()public{\r... */\n    tag_6:\n      tag_17\n      tag_18\n      jump\t// in\n    tag_17:\n      stop\n        /* \"enum.sol\":167:262  function User()public{\r... */\n    tag_8:\n        /* \"enum.sol\":206:218  user.allowed */\n      0x00\n        /* \"enum.sol\":202:218  u1==user.allowed */\n      0x02\n      dup2\n      gt\n      iszero\n      tag_20\n      jumpi\n      mstore(0x00, 0x4e487b7100000000000000000000000000000000000000000000000000000000)\n      mstore(0x04, 0x21)\n      revert(0x00, 0x24)\n    tag_20:\n        /* \"enum.sol\":202:204  u1 */\n      0x00\n      dup1\n      sload\n      swap1\n      0x0100\n      exp\n      swap1\n      div\n      0xff\n      and\n        /* \"enum.sol\":202:218  u1==user.allowed */\n      0x02\n      dup2\n      gt\n      iszero\n      tag_21\n      jumpi\n      mstore(0x00, 0x4e487b7100000000000000000000000000000000000000000000000000000000)\n      mstore(0x04, 0x21)\n      revert(0x00, 0x24)\n    tag_21:\n      eq\n        /* \"enum.sol\":199:255  if(u1==user.allowed){\r... */\n      iszero\n      tag_22\n      jumpi\n        /* \"enum.sol\":242:243  0 */\n      0x00\n        /* \"enum.sol\":234:241  lottery */\n      0x01\n        /* \"enum.sol\":234:243  lottery=0 */\n      dup2\n      swap1\n      sstore\n      pop\n        /* \"enum.sol\":199:255  if(u1==user.allowed){\r... */\n    tag_22:\n        /* \"enum.sol\":167:262  function User()public{\r... */\n      jump\t// out\n        /* \"enum.sol\":98:125  user public u1=user.allowed */\n    tag_10:\n      0x00\n      dup1\n      sload\n      swap1\n      0x0100\n      exp\n      swap1\n      div\n      0xff\n      and\n      dup2\n      jump\t// out\n        /* \"enum.sol\":132:158  uint public lottery = 1000 */\n    tag_14:\n      sload(0x01)\n      dup2\n      jump\t// out\n        /* \"enum.sol\":268:333  function changeUser()public{\r... */\n    tag_18:\n        /* \"enum.sol\":309:325  user.not_allowed */\n      0x01\n        /* \"enum.sol\":306:308  u1 */\n      0x00\n      dup1\n        /* \"enum.sol\":306:325  u1=user.not_allowed */\n      0x0100\n      exp\n      dup2\n      sload\n      dup2\n      0xff\n      mul\n      not\n      and\n      swap1\n      dup4\n      0x02\n      dup2\n      gt\n      iszero\n      tag_24\n      jumpi\n      mstore(0x00, 0x4e487b7100000000000000000000000000000000000000000000000000000000)\n      mstore(0x04, 0x21)\n      revert(0x00, 0x24)\n    tag_24:\n      mul\n      or\n      swap1\n      sstore\n      pop\n        /* \"enum.sol\":268:333  function changeUser()public{\r... */\n      jump\t// out\n        /* \"#utility.yul\":7:146   */\n    tag_26:\n        /* \"#utility.yul\":98:139   */\n      tag_28\n        /* \"#utility.yul\":133:138   */\n      dup2\n        /* \"#utility.yul\":98:139   */\n      tag_29\n      jump\t// in\n    tag_28:\n        /* \"#utility.yul\":93:96   */\n      dup3\n        /* \"#utility.yul\":86:140   */\n      mstore\n        /* \"#utility.yul\":76:146   */\n      pop\n      pop\n      jump\t// out\n        /* \"#utility.yul\":152:270   */\n    tag_30:\n        /* \"#utility.yul\":239:263   */\n      tag_32\n        /* \"#utility.yul\":257:262   */\n      dup2\n        /* \"#utility.yul\":239:263   */\n      tag_33\n      jump\t// in\n    tag_32:\n        /* \"#utility.yul\":234:237   */\n      dup3\n        /* \"#utility.yul\":227:264   */\n      mstore\n        /* \"#utility.yul\":217:270   */\n      pop\n      pop\n      jump\t// out\n        /* \"#utility.yul\":276:506   */\n    tag_12:\n      0x00\n        /* \"#utility.yul\":411:413   */\n      0x20\n        /* \"#utility.yul\":400:409   */\n      dup3\n        /* \"#utility.yul\":396:414   */\n      add\n        /* \"#utility.yul\":388:414   */\n      swap1\n      pop\n        /* \"#utility.yul\":424:499   */\n      tag_35\n        /* \"#utility.yul\":496:497   */\n      0x00\n        /* \"#utility.yul\":485:494   */\n      dup4\n        /* \"#utility.yul\":481:498   */\n      add\n        /* \"#utility.yul\":472:478   */\n      dup5\n        /* \"#utility.yul\":424:499   */\n      tag_26\n      jump\t// in\n    tag_35:\n        /* \"#utility.yul\":378:506   */\n      swap3\n      swap2\n      pop\n      pop\n      jump\t// out\n        /* \"#utility.yul\":512:734   */\n    tag_16:\n      0x00\n        /* \"#utility.yul\":643:645   */\n      0x20\n        /* \"#utility.yul\":632:641   */\n      dup3\n        /* \"#utility.yul\":628:646   */\n      add\n        /* \"#utility.yul\":620:646   */\n      swap1\n      pop\n        /* \"#utility.yul\":656:727   */\n      tag_37\n        /* \"#utility.yul\":724:725   */\n      0x00\n        /* \"#utility.yul\":713:722   */\n      dup4\n        /* \"#utility.yul\":709:726   */\n      add\n        /* \"#utility.yul\":700:706   */\n      dup5\n        /* \"#utility.yul\":656:727   */\n      tag_30\n      jump\t// in\n    tag_37:\n        /* \"#utility.yul\":610:734   */\n      swap3\n      swap2\n      pop\n      pop\n      jump\t// out\n        /* \"#utility.yul\":740:863   */\n    tag_38:\n      0x00\n        /* \"#utility.yul\":812:817   */\n      dup2\n        /* \"#utility.yul\":801:817   */\n      swap1\n      pop\n        /* \"#utility.yul\":818:857   */\n      tag_40\n        /* \"#utility.yul\":851:856   */\n      dup3\n        /* \"#utility.yul\":818:857   */\n      tag_41\n      jump\t// in\n    tag_40:\n        /* \"#utility.yul\":791:863   */\n      swap2\n      swap1\n      pop\n      jump\t// out\n        /* \"#utility.yul\":869:946   */\n    tag_33:\n      0x00\n        /* \"#utility.yul\":935:940   */\n      dup2\n        /* \"#utility.yul\":924:940   */\n      swap1\n      pop\n        /* \"#utility.yul\":914:946   */\n      swap2\n      swap1\n      pop\n      jump\t// out\n        /* \"#utility.yul\":952:1075   */\n    tag_29:\n      0x00\n        /* \"#utility.yul\":1039:1069   */\n      tag_44\n        /* \"#utility.yul\":1063:1068   */\n      dup3\n        /* \"#utility.yul\":1039:1069   */\n      tag_38\n      jump\t// in\n    tag_44:\n        /* \"#utility.yul\":1026:1069   */\n      swap1\n      pop\n        /* \"#utility.yul\":1016:1075   */\n      swap2\n      swap1\n      pop\n      jump\t// out\n        /* \"#utility.yul\":1081:1261   */\n    tag_45:\n        /* \"#utility.yul\":1129:1206   */\n      0x4e487b7100000000000000000000000000000000000000000000000000000000\n        /* \"#utility.yul\":1126:1127   */\n      0x00\n        /* \"#utility.yul\":1119:1207   */\n      mstore\n        /* \"#utility.yul\":1226:1230   */\n      0x21\n        /* \"#utility.yul\":1223:1224   */\n      0x04\n        /* \"#utility.yul\":1216:1231   */\n      mstore\n        /* \"#utility.yul\":1250:1254   */\n      0x24\n        /* \"#utility.yul\":1247:1248   */\n      0x00\n        /* \"#utility.yul\":1240:1255   */\n      revert\n        /* \"#utility.yul\":1267:1378   */\n    tag_41:\n        /* \"#utility.yul\":1346:1347   */\n      0x03\n        /* \"#utility.yul\":1339:1344   */\n      dup2\n        /* \"#utility.yul\":1336:1348   */\n      lt\n        /* \"#utility.yul\":1326:1328   */\n      tag_48\n      jumpi\n        /* \"#utility.yul\":1352:1370   */\n      tag_49\n      tag_45\n      jump\t// in\n    tag_49:\n        /* \"#utility.yul\":1326:1328   */\n    tag_48:\n        /* \"#utility.yul\":1316:1378   */\n      pop\n      jump\t// out\n\n    auxdata: 0xa2646970667358221220763d505e2825c3daf23909d1496fb9e26bb5e5200ee4331750a4e5e10b9139af64736f6c63430008000033\n}\n",
				"bytecode": {
					"linkReferences": {},
					"object": "608060405260008060006101000a81548160ff0219169083600281111561004f577f4e487b7100000000000000000000000000000000000000000000000000000000600052602160045260246000fd5b02179055506103e860015534801561006657600080fd5b50610297806100766000396000f3fe608060405234801561001057600080fd5b506004361061004c5760003560e01c80631429e26c146100515780631aa356101461005b578063ba13a57214610079578063c68b524d14610097575b600080fd5b6100596100a1565b005b610063610132565b60405161007091906101b9565b60405180910390f35b610081610143565b60405161008e91906101d4565b60405180910390f35b61009f610149565b005b600060028111156100db577f4e487b7100000000000000000000000000000000000000000000000000000000600052602160045260246000fd5b60008054906101000a900460ff166002811115610121577f4e487b7100000000000000000000000000000000000000000000000000000000600052602160045260246000fd5b14156101305760006001819055505b565b60008054906101000a900460ff1681565b60015481565b60016000806101000a81548160ff02191690836002811115610194577f4e487b7100000000000000000000000000000000000000000000000000000000600052602160045260246000fd5b0217905550565b6101a48161020c565b82525050565b6101b381610202565b82525050565b60006020820190506101ce600083018461019b565b92915050565b60006020820190506101e960008301846101aa565b92915050565b60008190506101fd8261024d565b919050565b6000819050919050565b6000610217826101ef565b9050919050565b7f4e487b7100000000000000000000000000000000000000000000000000000000600052602160045260246000fd5b6003811061025e5761025d61021e565b5b5056fea2646970667358221220763d505e2825c3daf23909d1496fb9e26bb5e5200ee4331750a4e5e10b9139af64736f6c63430008000033",
					"opcodes": "PUSH1 0x80 PUSH1 0x40 MSTORE PUSH1 0x0 DUP1 PUSH1 0x0 PUSH2 0x100 EXP DUP2 SLOAD DUP2 PUSH1 0xFF MUL NOT AND SWAP1 DUP4 PUSH1 0x2 DUP2 GT ISZERO PUSH2 0x4F JUMPI PUSH32 0x4E487B7100000000000000000000000000000000000000000000000000000000 PUSH1 0x0 MSTORE PUSH1 0x21 PUSH1 0x4 MSTORE PUSH1 0x24 PUSH1 0x0 REVERT JUMPDEST MUL OR SWAP1 SSTORE POP PUSH2 0x3E8 PUSH1 0x1 SSTORE CALLVALUE DUP1 ISZERO PUSH2 0x66 JUMPI PUSH1 0x0 DUP1 REVERT JUMPDEST POP PUSH2 0x297 DUP1 PUSH2 0x76 PUSH1 0x0 CODECOPY PUSH1 0x0 RETURN INVALID PUSH1 0x80 PUSH1 0x40 MSTORE CALLVALUE DUP1 ISZERO PUSH2 0x10 JUMPI PUSH1 0x0 DUP1 REVERT JUMPDEST POP PUSH1 0x4 CALLDATASIZE LT PUSH2 0x4C JUMPI PUSH1 0x0 CALLDATALOAD PUSH1 0xE0 SHR DUP1 PUSH4 0x1429E26C EQ PUSH2 0x51 JUMPI DUP1 PUSH4 0x1AA35610 EQ PUSH2 0x5B JUMPI DUP1 PUSH4 0xBA13A572 EQ PUSH2 0x79 JUMPI DUP1 PUSH4 0xC68B524D EQ PUSH2 0x97 JUMPI JUMPDEST PUSH1 0x0 DUP1 REVERT JUMPDEST PUSH2 0x59 PUSH2 0xA1 JUMP JUMPDEST STOP JUMPDEST PUSH2 0x63 PUSH2 0x132 JUMP JUMPDEST PUSH1 0x40 MLOAD PUSH2 0x70 SWAP2 SWAP1 PUSH2 0x1B9 JUMP JUMPDEST PUSH1 0x40 MLOAD DUP1 SWAP2 SUB SWAP1 RETURN JUMPDEST PUSH2 0x81 PUSH2 0x143 JUMP JUMPDEST PUSH1 0x40 MLOAD PUSH2 0x8E SWAP2 SWAP1 PUSH2 0x1D4 JUMP JUMPDEST PUSH1 0x40 MLOAD DUP1 SWAP2 SUB SWAP1 RETURN JUMPDEST PUSH2 0x9F PUSH2 0x149 JUMP JUMPDEST STOP JUMPDEST PUSH1 0x0 PUSH1 0x2 DUP2 GT ISZERO PUSH2 0xDB JUMPI PUSH32 0x4E487B7100000000000000000000000000000000000000000000000000000000 PUSH1 0x0 MSTORE PUSH1 0x21 PUSH1 0x4 MSTORE PUSH1 0x24 PUSH1 0x0 REVERT JUMPDEST PUSH1 0x0 DUP1 SLOAD SWAP1 PUSH2 0x100 EXP SWAP1 DIV PUSH1 0xFF AND PUSH1 0x2 DUP2 GT ISZERO PUSH2 0x121 JUMPI PUSH32 0x4E487B7100000000000000000000000000000000000000000000000000000000 PUSH1 0x0 MSTORE PUSH1 0x21 PUSH1 0x4 MSTORE PUSH1 0x24 PUSH1 0x0 REVERT JUMPDEST EQ ISZERO PUSH2 0x130 JUMPI PUSH1 0x0 PUSH1 0x1 DUP2 SWAP1 SSTORE POP JUMPDEST JUMP JUMPDEST PUSH1 0x0 DUP1 SLOAD SWAP1 PUSH2 0x100 EXP SWAP1 DIV PUSH1 0xFF AND DUP2 JUMP JUMPDEST PUSH1 0x1 SLOAD DUP2 JUMP JUMPDEST PUSH1 0x1 PUSH1 0x0 DUP1 PUSH2 0x100 EXP DUP2 SLOAD DUP2 PUSH1 0xFF MUL NOT AND SWAP1 DUP4 PUSH1 0x2 DUP2 GT ISZERO PUSH2 0x194 JUMPI PUSH32 0x4E487B7100000000000000000000000000000000000000000000000000000000 PUSH1 0x0 MSTORE PUSH1 0x21 PUSH1 0x4 MSTORE PUSH1 0x24 PUSH1 0x0 REVERT JUMPDEST MUL OR SWAP1 SSTORE POP JUMP JUMPDEST PUSH2 0x1A4 DUP2 PUSH2 0x20C JUMP JUMPDEST DUP3 MSTORE POP POP JUMP JUMPDEST PUSH2 0x1B3 DUP2 PUSH2 0x202 JUMP JUMPDEST DUP3 MSTORE POP POP JUMP JUMPDEST PUSH1 0x0 PUSH1 0x20 DUP3 ADD SWAP1 POP PUSH2 0x1CE PUSH1 0x0 DUP4 ADD DUP5 PUSH2 0x19B JUMP JUMPDEST SWAP3 SWAP2 POP POP JUMP JUMPDEST PUSH1 0x0 PUSH1 0x20 DUP3 ADD SWAP1 POP PUSH2 0x1E9 PUSH1 0x0 DUP4 ADD DUP5 PUSH2 0x1AA JUMP JUMPDEST SWAP3 SWAP2 POP POP JUMP JUMPDEST PUSH1 0x0 DUP2 SWAP1 POP PUSH2 0x1FD DUP3 PUSH2 0x24D JUMP JUMPDEST SWAP2 SWAP1 POP JUMP JUMPDEST PUSH1 0x0 DUP2 SWAP1 POP SWAP2 SWAP1 POP JUMP JUMPDEST PUSH1 0x0 PUSH2 0x217 DUP3 PUSH2 0x1EF JUMP JUMPDEST SWAP1 POP SWAP2 SWAP1 POP JUMP JUMPDEST PUSH32 0x4E487B7100000000000000000000000000000000000000000000000000000000 PUSH1 0x0 MSTORE PUSH1 0x21 PUSH1 0x4 MSTORE PUSH1 0x24 PUSH1 0x0 REVERT JUMPDEST PUSH1 0x3 DUP2 LT PUSH2 0x25E JUMPI PUSH2 0x25D PUSH2 0x21E JUMP JUMPDEST JUMPDEST POP JUMP INVALID LOG2 PUSH5 0x6970667358 0x22 SLT KECCAK256 PUSH23 0x3D505E2825C3DAF23909D1496FB9E26BB5E5200EE43317 POP LOG4 0xE5 0xE1 SIGNEXTEND SWAP2 CODECOPY 0xAF PUSH5 0x736F6C6343 STOP ADDMOD STOP STOP CALLER "
				},
				"gasEstimates": {
					"creation": {
						"codeDepositCost": "132600",
						"executionCost": "41070",
						"totalCost": "173670"
					},
					"external": {
						"User()": "6047",
						"changeUser()": "21075",
						"lottery()": "1151",
						"u1()": "1257"
					}
				},
				"methodIdentifiers": {
					"User()": "1429e26c",
					"changeUser()": "c68b524d",
					"lottery()": "ba13a572",
					"u1()": "1aa35610"
				}
			},
			"storageLayout": {
				"storage": [
					{
						"astId": 10,
						"contract": "enum.sol:structure",
						"label": "u1",
						"offset": 0,
						"slot": "0",
						"type": "t_enum(user)5"
					},
					{
						"astId": 13,
						"contract": "enum.sol:structure",
						"label": "lottery",
						"offset": 0,
						"slot": "1",
						"type": "t_uint256"
					}
				],
				"types": {
					"t_enum(user)5": {
						"encoding": "inplace",
						"label": "enum structure.user",
						"numberOfBytes": "1"
					},
					"t_uint256": {
						"encoding": "inplace",
						"label": "uint256",
						"numberOfBytes": "32"
					}
				}
			},
			"userdoc": {
				"kind": "user",
				"methods": {},
				"version": 1
			}
		}
	}
}