{
	"bytesInDynamicArr.sol": {
		"bytesInDynamicArr": {
			"abi": [
				{
					"inputs": [],
					"name": "b1",
					"outputs": [
						{
							"internalType": "bytes",
							"name": "",
							"type": "bytes"
						}
					],
					"stateMutability": "view",
					"type": "function"
				},
				{
					"inputs": [],
					"name": "getter",
					"outputs": [
						{
							"internalType": "uint256",
							"name": "",
							"type": "uint256"
						}
					],
					"stateMutability": "view",
					"type": "function"
				},
				{
					"inputs": [],
					"name": "length",
					"outputs": [
						{
							"internalType": "uint256",
							"name": "",
							"type": "uint256"
						}
					],
					"stateMutability": "view",
					"type": "function"
				},
				{
					"inputs": [],
					"name": "setter",
					"outputs": [],
					"stateMutability": "nonpayable",
					"type": "function"
				}
			],
			"devdoc": {
				"kind": "dev",
				"methods": {},
				"version": 1
			},
			"evm": {
				"assembly": "    /* \"bytesInDynamicArr.sol\":25:308  contract bytesInDynamicArr {... */\n  mstore(0x40, 0x80)\n    /* \"bytesInDynamicArr.sol\":58:81  bytes public b1 = \"abc\" */\n  mload(0x40)\n  dup1\n  0x40\n  add\n  0x40\n  mstore\n  dup1\n  0x03\n  dup2\n  mstore\n  0x20\n  add\n  0x6162630000000000000000000000000000000000000000000000000000000000\n  dup2\n  mstore\n  pop\n  0x00\n  swap1\n  dup1\n  mload\n  swap1\n  0x20\n  add\n  swap1\n  tag_1\n  swap3\n  swap2\n  swap1\n  tag_2\n  jump\t// in\ntag_1:\n  pop\n    /* \"bytesInDynamicArr.sol\":25:308  contract bytesInDynamicArr {... */\n  callvalue\n  dup1\n  iszero\n  tag_3\n  jumpi\n  0x00\n  dup1\n  revert\ntag_3:\n  pop\n  jump(tag_4)\ntag_2:\n  dup3\n  dup1\n  sload\n  tag_5\n  swap1\n  tag_6\n  jump\t// in\ntag_5:\n  swap1\n  0x00\n  mstore\n  keccak256(0x00, 0x20)\n  swap1\n  0x1f\n  add\n  0x20\n  swap1\n  div\n  dup2\n  add\n  swap3\n  dup3\n  tag_8\n  jumpi\n  0x00\n  dup6\n  sstore\n  jump(tag_7)\ntag_8:\n  dup3\n  0x1f\n  lt\n  tag_9\n  jumpi\n  dup1\n  mload\n  not(0xff)\n  and\n  dup4\n  dup1\n  add\n  or\n  dup6\n  sstore\n  jump(tag_7)\ntag_9:\n  dup3\n  dup1\n  add\n  0x01\n  add\n  dup6\n  sstore\n  dup3\n  iszero\n  tag_7\n  jumpi\n  swap2\n  dup3\n  add\ntag_10:\n  dup3\n  dup2\n  gt\n  iszero\n  tag_11\n  jumpi\n  dup3\n  mload\n  dup3\n  sstore\n  swap2\n  0x20\n  add\n  swap2\n  swap1\n  0x01\n  add\n  swap1\n  jump(tag_10)\ntag_11:\ntag_7:\n  pop\n  swap1\n  pop\n  tag_12\n  swap2\n  swap1\n  tag_13\n  jump\t// in\ntag_12:\n  pop\n  swap1\n  jump\t// out\ntag_13:\ntag_14:\n  dup1\n  dup3\n  gt\n  iszero\n  tag_15\n  jumpi\n  0x00\n  dup2\n  0x00\n  swap1\n  sstore\n  pop\n  0x01\n  add\n  jump(tag_14)\ntag_15:\n  pop\n  swap1\n  jump\t// out\n    /* \"#utility.yul\":7:327   */\ntag_6:\n  0x00\n    /* \"#utility.yul\":88:89   */\n  0x02\n    /* \"#utility.yul\":82:86   */\n  dup3\n    /* \"#utility.yul\":78:90   */\n  div\n    /* \"#utility.yul\":68:90   */\n  swap1\n  pop\n    /* \"#utility.yul\":135:136   */\n  0x01\n    /* \"#utility.yul\":129:133   */\n  dup3\n    /* \"#utility.yul\":125:137   */\n  and\n    /* \"#utility.yul\":156:174   */\n  dup1\n    /* \"#utility.yul\":146:148   */\n  tag_18\n  jumpi\n    /* \"#utility.yul\":212:216   */\n  0x7f\n    /* \"#utility.yul\":204:210   */\n  dup3\n    /* \"#utility.yul\":200:217   */\n  and\n    /* \"#utility.yul\":190:217   */\n  swap2\n  pop\n    /* \"#utility.yul\":146:148   */\ntag_18:\n    /* \"#utility.yul\":274:276   */\n  0x20\n    /* \"#utility.yul\":266:272   */\n  dup3\n    /* \"#utility.yul\":263:277   */\n  lt\n    /* \"#utility.yul\":243:261   */\n  dup2\n    /* \"#utility.yul\":240:278   */\n  eq\n    /* \"#utility.yul\":237:239   */\n  iszero\n  tag_19\n  jumpi\n    /* \"#utility.yul\":293:311   */\n  tag_20\n  tag_21\n  jump\t// in\ntag_20:\n    /* \"#utility.yul\":237:239   */\ntag_19:\n    /* \"#utility.yul\":58:327   */\n  pop\n  swap2\n  swap1\n  pop\n  jump\t// out\n    /* \"#utility.yul\":333:513   */\ntag_21:\n    /* \"#utility.yul\":381:458   */\n  0x4e487b7100000000000000000000000000000000000000000000000000000000\n    /* \"#utility.yul\":378:379   */\n  0x00\n    /* \"#utility.yul\":371:459   */\n  mstore\n    /* \"#utility.yul\":478:482   */\n  0x22\n    /* \"#utility.yul\":475:476   */\n  0x04\n    /* \"#utility.yul\":468:483   */\n  mstore\n    /* \"#utility.yul\":502:506   */\n  0x24\n    /* \"#utility.yul\":499:500   */\n  0x00\n    /* \"#utility.yul\":492:507   */\n  revert\n    /* \"bytesInDynamicArr.sol\":25:308  contract bytesInDynamicArr {... */\ntag_4:\n  dataSize(sub_0)\n  dup1\n  dataOffset(sub_0)\n  0x00\n  codecopy\n  0x00\n  return\nstop\n\nsub_0: assembly {\n        /* \"bytesInDynamicArr.sol\":25:308  contract bytesInDynamicArr {... */\n      mstore(0x40, 0x80)\n      callvalue\n      dup1\n      iszero\n      tag_1\n      jumpi\n      0x00\n      dup1\n      revert\n    tag_1:\n      pop\n      jumpi(tag_2, lt(calldatasize, 0x04))\n      shr(0xe0, calldataload(0x00))\n      dup1\n      0x1f7b6d32\n      eq\n      tag_3\n      jumpi\n      dup1\n      0x3f3108f7\n      eq\n      tag_4\n      jumpi\n      dup1\n      0x993a04b7\n      eq\n      tag_5\n      jumpi\n      dup1\n      0xee495002\n      eq\n      tag_6\n      jumpi\n    tag_2:\n      0x00\n      dup1\n      revert\n        /* \"bytesInDynamicArr.sol\":229:306  function length() public view returns(uint) {... */\n    tag_3:\n      tag_7\n      tag_8\n      jump\t// in\n    tag_7:\n      mload(0x40)\n      tag_9\n      swap2\n      swap1\n      tag_10\n      jump\t// in\n    tag_9:\n      mload(0x40)\n      dup1\n      swap2\n      sub\n      swap1\n      return\n        /* \"bytesInDynamicArr.sol\":88:142  function setter() public {... */\n    tag_4:\n      tag_11\n      tag_12\n      jump\t// in\n    tag_11:\n      stop\n        /* \"bytesInDynamicArr.sol\":147:224  function getter() public view returns(uint) {... */\n    tag_5:\n      tag_13\n      tag_14\n      jump\t// in\n    tag_13:\n      mload(0x40)\n      tag_15\n      swap2\n      swap1\n      tag_10\n      jump\t// in\n    tag_15:\n      mload(0x40)\n      dup1\n      swap2\n      sub\n      swap1\n      return\n        /* \"bytesInDynamicArr.sol\":58:81  bytes public b1 = \"abc\" */\n    tag_6:\n      tag_16\n      tag_17\n      jump\t// in\n    tag_16:\n      mload(0x40)\n      tag_18\n      swap2\n      swap1\n      tag_19\n      jump\t// in\n    tag_18:\n      mload(0x40)\n      dup1\n      swap2\n      sub\n      swap1\n      return\n        /* \"bytesInDynamicArr.sol\":229:306  function length() public view returns(uint) {... */\n    tag_8:\n        /* \"bytesInDynamicArr.sol\":267:271  uint */\n      0x00\n        /* \"bytesInDynamicArr.sol\":290:292  b1 */\n      dup1\n        /* \"bytesInDynamicArr.sol\":290:299  b1.length */\n      dup1\n      sload\n      tag_21\n      swap1\n      tag_22\n      jump\t// in\n    tag_21:\n      swap1\n      pop\n        /* \"bytesInDynamicArr.sol\":283:299  return b1.length */\n      swap1\n      pop\n        /* \"bytesInDynamicArr.sol\":229:306  function length() public view returns(uint) {... */\n      swap1\n      jump\t// out\n        /* \"bytesInDynamicArr.sol\":88:142  function setter() public {... */\n    tag_12:\n        /* \"bytesInDynamicArr.sol\":123:125  b1 */\n      0x00\n        /* \"bytesInDynamicArr.sol\":123:135  b1.push('d') */\n      dup1\n      dup1\n      sload\n      dup1\n      tag_24\n      swap1\n      tag_22\n      jump\t// in\n    tag_24:\n      dup1\n      0x1f\n      dup2\n      eq\n      tag_26\n      jumpi\n      jump(tag_25)\n    tag_26:\n      dup4\n      0x00\n      mstore\n      keccak256(0x00, 0x20)\n      not(0xff)\n      dup5\n      and\n      dup2\n      sstore\n      0x3f\n      swap4\n      pop\n      pop\n    tag_25:\n      pop\n      0x02\n      dup3\n      add\n      dup4\n      sstore\n      0x01\n      dup2\n      add\n      swap3\n      pop\n      pop\n      pop\n      0x01\n      swap1\n      sub\n      dup2\n      sload\n      0x01\n      and\n      iszero\n      tag_27\n      jumpi\n      swap1\n      0x00\n      mstore\n      keccak256(0x00, 0x20)\n      swap1\n      0x20\n      swap2\n      dup3\n      dup3\n      div\n      add\n      swap2\n      swap1\n      mod\n    tag_27:\n      0x6400000000000000000000000000000000000000000000000000000000000000\n      swap1\n      swap2\n      swap1\n      swap2\n      0x1f\n      sub\n      0x0100\n      exp\n      dup2\n      sload\n      dup2\n      0xff\n      mul\n      not\n      and\n      swap1\n      0x0100000000000000000000000000000000000000000000000000000000000000\n      dup5\n      div\n      mul\n      or\n      swap1\n      sstore\n      pop\n        /* \"bytesInDynamicArr.sol\":88:142  function setter() public {... */\n      jump\t// out\n        /* \"bytesInDynamicArr.sol\":147:224  function getter() public view returns(uint) {... */\n    tag_14:\n        /* \"bytesInDynamicArr.sol\":185:189  uint */\n      0x00\n        /* \"bytesInDynamicArr.sol\":208:210  b1 */\n      dup1\n        /* \"bytesInDynamicArr.sol\":208:217  b1.length */\n      dup1\n      sload\n      tag_29\n      swap1\n      tag_22\n      jump\t// in\n    tag_29:\n      swap1\n      pop\n        /* \"bytesInDynamicArr.sol\":201:217  return b1.length */\n      swap1\n      pop\n        /* \"bytesInDynamicArr.sol\":147:224  function getter() public view returns(uint) {... */\n      swap1\n      jump\t// out\n        /* \"bytesInDynamicArr.sol\":58:81  bytes public b1 = \"abc\" */\n    tag_17:\n      0x00\n      dup1\n      sload\n      tag_30\n      swap1\n      tag_22\n      jump\t// in\n    tag_30:\n      dup1\n      0x1f\n      add\n      0x20\n      dup1\n      swap2\n      div\n      mul\n      0x20\n      add\n      mload(0x40)\n      swap1\n      dup2\n      add\n      0x40\n      mstore\n      dup1\n      swap3\n      swap2\n      swap1\n      dup2\n      dup2\n      mstore\n      0x20\n      add\n      dup3\n      dup1\n      sload\n      tag_31\n      swap1\n      tag_22\n      jump\t// in\n    tag_31:\n      dup1\n      iszero\n      tag_32\n      jumpi\n      dup1\n      0x1f\n      lt\n      tag_33\n      jumpi\n      0x0100\n      dup1\n      dup4\n      sload\n      div\n      mul\n      dup4\n      mstore\n      swap2\n      0x20\n      add\n      swap2\n      jump(tag_32)\n    tag_33:\n      dup3\n      add\n      swap2\n      swap1\n      0x00\n      mstore\n      keccak256(0x00, 0x20)\n      swap1\n    tag_34:\n      dup2\n      sload\n      dup2\n      mstore\n      swap1\n      0x01\n      add\n      swap1\n      0x20\n      add\n      dup1\n      dup4\n      gt\n      tag_34\n      jumpi\n      dup3\n      swap1\n      sub\n      0x1f\n      and\n      dup3\n      add\n      swap2\n    tag_32:\n      pop\n      pop\n      pop\n      pop\n      pop\n      dup2\n      jump\t// out\n        /* \"#utility.yul\":7:367   */\n    tag_36:\n      0x00\n        /* \"#utility.yul\":121:159   */\n      tag_38\n        /* \"#utility.yul\":153:158   */\n      dup3\n        /* \"#utility.yul\":121:159   */\n      tag_39\n      jump\t// in\n    tag_38:\n        /* \"#utility.yul\":175:245   */\n      tag_40\n        /* \"#utility.yul\":238:244   */\n      dup2\n        /* \"#utility.yul\":233:236   */\n      dup6\n        /* \"#utility.yul\":175:245   */\n      tag_41\n      jump\t// in\n    tag_40:\n        /* \"#utility.yul\":168:245   */\n      swap4\n      pop\n        /* \"#utility.yul\":254:306   */\n      tag_42\n        /* \"#utility.yul\":299:305   */\n      dup2\n        /* \"#utility.yul\":294:297   */\n      dup6\n        /* \"#utility.yul\":287:291   */\n      0x20\n        /* \"#utility.yul\":280:285   */\n      dup7\n        /* \"#utility.yul\":276:292   */\n      add\n        /* \"#utility.yul\":254:306   */\n      tag_43\n      jump\t// in\n    tag_42:\n        /* \"#utility.yul\":331:360   */\n      tag_44\n        /* \"#utility.yul\":353:359   */\n      dup2\n        /* \"#utility.yul\":331:360   */\n      tag_45\n      jump\t// in\n    tag_44:\n        /* \"#utility.yul\":326:329   */\n      dup5\n        /* \"#utility.yul\":322:361   */\n      add\n        /* \"#utility.yul\":315:361   */\n      swap2\n      pop\n        /* \"#utility.yul\":97:367   */\n      pop\n      swap3\n      swap2\n      pop\n      pop\n      jump\t// out\n        /* \"#utility.yul\":373:491   */\n    tag_46:\n        /* \"#utility.yul\":460:484   */\n      tag_48\n        /* \"#utility.yul\":478:483   */\n      dup2\n        /* \"#utility.yul\":460:484   */\n      tag_49\n      jump\t// in\n    tag_48:\n        /* \"#utility.yul\":455:458   */\n      dup3\n        /* \"#utility.yul\":448:485   */\n      mstore\n        /* \"#utility.yul\":438:491   */\n      pop\n      pop\n      jump\t// out\n        /* \"#utility.yul\":497:806   */\n    tag_19:\n      0x00\n        /* \"#utility.yul\":646:648   */\n      0x20\n        /* \"#utility.yul\":635:644   */\n      dup3\n        /* \"#utility.yul\":631:649   */\n      add\n        /* \"#utility.yul\":623:649   */\n      swap1\n      pop\n        /* \"#utility.yul\":695:704   */\n      dup2\n        /* \"#utility.yul\":689:693   */\n      dup2\n        /* \"#utility.yul\":685:705   */\n      sub\n        /* \"#utility.yul\":681:682   */\n      0x00\n        /* \"#utility.yul\":670:679   */\n      dup4\n        /* \"#utility.yul\":666:683   */\n      add\n        /* \"#utility.yul\":659:706   */\n      mstore\n        /* \"#utility.yul\":723:799   */\n      tag_51\n        /* \"#utility.yul\":794:798   */\n      dup2\n        /* \"#utility.yul\":785:791   */\n      dup5\n        /* \"#utility.yul\":723:799   */\n      tag_36\n      jump\t// in\n    tag_51:\n        /* \"#utility.yul\":715:799   */\n      swap1\n      pop\n        /* \"#utility.yul\":613:806   */\n      swap3\n      swap2\n      pop\n      pop\n      jump\t// out\n        /* \"#utility.yul\":812:1034   */\n    tag_10:\n      0x00\n        /* \"#utility.yul\":943:945   */\n      0x20\n        /* \"#utility.yul\":932:941   */\n      dup3\n        /* \"#utility.yul\":928:946   */\n      add\n        /* \"#utility.yul\":920:946   */\n      swap1\n      pop\n        /* \"#utility.yul\":956:1027   */\n      tag_53\n        /* \"#utility.yul\":1024:1025   */\n      0x00\n        /* \"#utility.yul\":1013:1022   */\n      dup4\n        /* \"#utility.yul\":1009:1026   */\n      add\n        /* \"#utility.yul\":1000:1006   */\n      dup5\n        /* \"#utility.yul\":956:1027   */\n      tag_46\n      jump\t// in\n    tag_53:\n        /* \"#utility.yul\":910:1034   */\n      swap3\n      swap2\n      pop\n      pop\n      jump\t// out\n        /* \"#utility.yul\":1040:1138   */\n    tag_39:\n      0x00\n        /* \"#utility.yul\":1125:1130   */\n      dup2\n        /* \"#utility.yul\":1119:1131   */\n      mload\n        /* \"#utility.yul\":1109:1131   */\n      swap1\n      pop\n        /* \"#utility.yul\":1098:1138   */\n      swap2\n      swap1\n      pop\n      jump\t// out\n        /* \"#utility.yul\":1144:1312   */\n    tag_41:\n      0x00\n        /* \"#utility.yul\":1261:1267   */\n      dup3\n        /* \"#utility.yul\":1256:1259   */\n      dup3\n        /* \"#utility.yul\":1249:1268   */\n      mstore\n        /* \"#utility.yul\":1301:1305   */\n      0x20\n        /* \"#utility.yul\":1296:1299   */\n      dup3\n        /* \"#utility.yul\":1292:1306   */\n      add\n        /* \"#utility.yul\":1277:1306   */\n      swap1\n      pop\n        /* \"#utility.yul\":1239:1312   */\n      swap3\n      swap2\n      pop\n      pop\n      jump\t// out\n        /* \"#utility.yul\":1318:1395   */\n    tag_49:\n      0x00\n        /* \"#utility.yul\":1384:1389   */\n      dup2\n        /* \"#utility.yul\":1373:1389   */\n      swap1\n      pop\n        /* \"#utility.yul\":1363:1395   */\n      swap2\n      swap1\n      pop\n      jump\t// out\n        /* \"#utility.yul\":1401:1708   */\n    tag_43:\n        /* \"#utility.yul\":1469:1470   */\n      0x00\n        /* \"#utility.yul\":1479:1592   */\n    tag_58:\n        /* \"#utility.yul\":1493:1499   */\n      dup4\n        /* \"#utility.yul\":1490:1491   */\n      dup2\n        /* \"#utility.yul\":1487:1500   */\n      lt\n        /* \"#utility.yul\":1479:1592   */\n      iszero\n      tag_60\n      jumpi\n        /* \"#utility.yul\":1578:1579   */\n      dup1\n        /* \"#utility.yul\":1573:1576   */\n      dup3\n        /* \"#utility.yul\":1569:1580   */\n      add\n        /* \"#utility.yul\":1563:1581   */\n      mload\n        /* \"#utility.yul\":1559:1560   */\n      dup2\n        /* \"#utility.yul\":1554:1557   */\n      dup5\n        /* \"#utility.yul\":1550:1561   */\n      add\n        /* \"#utility.yul\":1543:1582   */\n      mstore\n        /* \"#utility.yul\":1515:1517   */\n      0x20\n        /* \"#utility.yul\":1512:1513   */\n      dup2\n        /* \"#utility.yul\":1508:1518   */\n      add\n        /* \"#utility.yul\":1503:1518   */\n      swap1\n      pop\n        /* \"#utility.yul\":1479:1592   */\n      jump(tag_58)\n    tag_60:\n        /* \"#utility.yul\":1610:1616   */\n      dup4\n        /* \"#utility.yul\":1607:1608   */\n      dup2\n        /* \"#utility.yul\":1604:1617   */\n      gt\n        /* \"#utility.yul\":1601:1603   */\n      iszero\n      tag_61\n      jumpi\n        /* \"#utility.yul\":1690:1691   */\n      0x00\n        /* \"#utility.yul\":1681:1687   */\n      dup5\n        /* \"#utility.yul\":1676:1679   */\n      dup5\n        /* \"#utility.yul\":1672:1688   */\n      add\n        /* \"#utility.yul\":1665:1692   */\n      mstore\n        /* \"#utility.yul\":1601:1603   */\n    tag_61:\n        /* \"#utility.yul\":1450:1708   */\n      pop\n      pop\n      pop\n      pop\n      jump\t// out\n        /* \"#utility.yul\":1714:2034   */\n    tag_22:\n      0x00\n        /* \"#utility.yul\":1795:1796   */\n      0x02\n        /* \"#utility.yul\":1789:1793   */\n      dup3\n        /* \"#utility.yul\":1785:1797   */\n      div\n        /* \"#utility.yul\":1775:1797   */\n      swap1\n      pop\n        /* \"#utility.yul\":1842:1843   */\n      0x01\n        /* \"#utility.yul\":1836:1840   */\n      dup3\n        /* \"#utility.yul\":1832:1844   */\n      and\n        /* \"#utility.yul\":1863:1881   */\n      dup1\n        /* \"#utility.yul\":1853:1855   */\n      tag_63\n      jumpi\n        /* \"#utility.yul\":1919:1923   */\n      0x7f\n        /* \"#utility.yul\":1911:1917   */\n      dup3\n        /* \"#utility.yul\":1907:1924   */\n      and\n        /* \"#utility.yul\":1897:1924   */\n      swap2\n      pop\n        /* \"#utility.yul\":1853:1855   */\n    tag_63:\n        /* \"#utility.yul\":1981:1983   */\n      0x20\n        /* \"#utility.yul\":1973:1979   */\n      dup3\n        /* \"#utility.yul\":1970:1984   */\n      lt\n        /* \"#utility.yul\":1950:1968   */\n      dup2\n        /* \"#utility.yul\":1947:1985   */\n      eq\n        /* \"#utility.yul\":1944:1946   */\n      iszero\n      tag_64\n      jumpi\n        /* \"#utility.yul\":2000:2018   */\n      tag_65\n      tag_66\n      jump\t// in\n    tag_65:\n        /* \"#utility.yul\":1944:1946   */\n    tag_64:\n        /* \"#utility.yul\":1765:2034   */\n      pop\n      swap2\n      swap1\n      pop\n      jump\t// out\n        /* \"#utility.yul\":2040:2220   */\n    tag_66:\n        /* \"#utility.yul\":2088:2165   */\n      0x4e487b7100000000000000000000000000000000000000000000000000000000\n        /* \"#utility.yul\":2085:2086   */\n      0x00\n        /* \"#utility.yul\":2078:2166   */\n      mstore\n        /* \"#utility.yul\":2185:2189   */\n      0x22\n        /* \"#utility.yul\":2182:2183   */\n      0x04\n        /* \"#utility.yul\":2175:2190   */\n      mstore\n        /* \"#utility.yul\":2209:2213   */\n      0x24\n        /* \"#utility.yul\":2206:2207   */\n      0x00\n        /* \"#utility.yul\":2199:2214   */\n      revert\n        /* \"#utility.yul\":2226:2328   */\n    tag_45:\n      0x00\n        /* \"#utility.yul\":2318:2320   */\n      0x1f\n        /* \"#utility.yul\":2314:2321   */\n      not\n        /* \"#utility.yul\":2309:2311   */\n      0x1f\n        /* \"#utility.yul\":2302:2307   */\n      dup4\n        /* \"#utility.yul\":2298:2312   */\n      add\n        /* \"#utility.yul\":2294:2322   */\n      and\n        /* \"#utility.yul\":2284:2322   */\n      swap1\n      pop\n        /* \"#utility.yul\":2274:2328   */\n      swap2\n      swap1\n      pop\n      jump\t// out\n\n    auxdata: 0xa26469706673582212200cad6d03ce9ffdfe490207c8345ca6116a22346be861660d30b05075e5de37c364736f6c63430008000033\n}\n",
				"bytecode": {
					"linkReferences": {},
					"object": "60806040526040518060400160405280600381526020017f61626300000000000000000000000000000000000000000000000000000000008152506000908051906020019061004f929190610062565b5034801561005c57600080fd5b50610166565b82805461006e90610105565b90600052602060002090601f01602090048101928261009057600085556100d7565b82601f106100a957805160ff19168380011785556100d7565b828001600101855582156100d7579182015b828111156100d65782518255916020019190600101906100bb565b5b5090506100e491906100e8565b5090565b5b808211156101015760008160009055506001016100e9565b5090565b6000600282049050600182168061011d57607f821691505b6020821081141561013157610130610137565b5b50919050565b7f4e487b7100000000000000000000000000000000000000000000000000000000600052602260045260246000fd5b6103b7806101756000396000f3fe608060405234801561001057600080fd5b506004361061004c5760003560e01c80631f7b6d32146100515780633f3108f71461006f578063993a04b714610079578063ee49500214610097575b600080fd5b6100596100b5565b604051610066919061029b565b60405180910390f35b6100776100ca565b005b61008161018e565b60405161008e919061029b565b60405180910390f35b61009f6101a3565b6040516100ac9190610279565b60405180910390f35b60008080546100c39061030f565b9050905090565b6000808054806100d99061030f565b80601f81146100e7576100fd565b83600052602060002060ff1984168155603f9350505b5060028201835560018101925050506001900381546001161561012f5790600052602060002090602091828204019190065b7f640000000000000000000000000000000000000000000000000000000000000090919091601f036101000a81548160ff021916907f010000000000000000000000000000000000000000000000000000000000000084040217905550565b600080805461019c9061030f565b9050905090565b600080546101b09061030f565b80601f01602080910402602001604051908101604052809291908181526020018280546101dc9061030f565b80156102295780601f106101fe57610100808354040283529160200191610229565b820191906000526020600020905b81548152906001019060200180831161020c57829003601f168201915b505050505081565b600061023c826102b6565b61024681856102c1565b93506102568185602086016102dc565b61025f81610370565b840191505092915050565b610273816102d2565b82525050565b600060208201905081810360008301526102938184610231565b905092915050565b60006020820190506102b0600083018461026a565b92915050565b600081519050919050565b600082825260208201905092915050565b6000819050919050565b60005b838110156102fa5780820151818401526020810190506102df565b83811115610309576000848401525b50505050565b6000600282049050600182168061032757607f821691505b6020821081141561033b5761033a610341565b5b50919050565b7f4e487b7100000000000000000000000000000000000000000000000000000000600052602260045260246000fd5b6000601f19601f830116905091905056fea26469706673582212200cad6d03ce9ffdfe490207c8345ca6116a22346be861660d30b05075e5de37c364736f6c63430008000033",
					"opcodes": "PUSH1 0x80 PUSH1 0x40 MSTORE PUSH1 0x40 MLOAD DUP1 PUSH1 0x40 ADD PUSH1 0x40 MSTORE DUP1 PUSH1 0x3 DUP2 MSTORE PUSH1 0x20 ADD PUSH32 0x6162630000000000000000000000000000000000000000000000000000000000 DUP2 MSTORE POP PUSH1 0x0 SWAP1 DUP1 MLOAD SWAP1 PUSH1 0x20 ADD SWAP1 PUSH2 0x4F SWAP3 SWAP2 SWAP1 PUSH2 0x62 JUMP JUMPDEST POP CALLVALUE DUP1 ISZERO PUSH2 0x5C JUMPI PUSH1 0x0 DUP1 REVERT JUMPDEST POP PUSH2 0x166 JUMP JUMPDEST DUP3 DUP1 SLOAD PUSH2 0x6E SWAP1 PUSH2 0x105 JUMP JUMPDEST SWAP1 PUSH1 0x0 MSTORE PUSH1 0x20 PUSH1 0x0 KECCAK256 SWAP1 PUSH1 0x1F ADD PUSH1 0x20 SWAP1 DIV DUP2 ADD SWAP3 DUP3 PUSH2 0x90 JUMPI PUSH1 0x0 DUP6 SSTORE PUSH2 0xD7 JUMP JUMPDEST DUP3 PUSH1 0x1F LT PUSH2 0xA9 JUMPI DUP1 MLOAD PUSH1 0xFF NOT AND DUP4 DUP1 ADD OR DUP6 SSTORE PUSH2 0xD7 JUMP JUMPDEST DUP3 DUP1 ADD PUSH1 0x1 ADD DUP6 SSTORE DUP3 ISZERO PUSH2 0xD7 JUMPI SWAP2 DUP3 ADD JUMPDEST DUP3 DUP2 GT ISZERO PUSH2 0xD6 JUMPI DUP3 MLOAD DUP3 SSTORE SWAP2 PUSH1 0x20 ADD SWAP2 SWAP1 PUSH1 0x1 ADD SWAP1 PUSH2 0xBB JUMP JUMPDEST JUMPDEST POP SWAP1 POP PUSH2 0xE4 SWAP2 SWAP1 PUSH2 0xE8 JUMP JUMPDEST POP SWAP1 JUMP JUMPDEST JUMPDEST DUP1 DUP3 GT ISZERO PUSH2 0x101 JUMPI PUSH1 0x0 DUP2 PUSH1 0x0 SWAP1 SSTORE POP PUSH1 0x1 ADD PUSH2 0xE9 JUMP JUMPDEST POP SWAP1 JUMP JUMPDEST PUSH1 0x0 PUSH1 0x2 DUP3 DIV SWAP1 POP PUSH1 0x1 DUP3 AND DUP1 PUSH2 0x11D JUMPI PUSH1 0x7F DUP3 AND SWAP2 POP JUMPDEST PUSH1 0x20 DUP3 LT DUP2 EQ ISZERO PUSH2 0x131 JUMPI PUSH2 0x130 PUSH2 0x137 JUMP JUMPDEST JUMPDEST POP SWAP2 SWAP1 POP JUMP JUMPDEST PUSH32 0x4E487B7100000000000000000000000000000000000000000000000000000000 PUSH1 0x0 MSTORE PUSH1 0x22 PUSH1 0x4 MSTORE PUSH1 0x24 PUSH1 0x0 REVERT JUMPDEST PUSH2 0x3B7 DUP1 PUSH2 0x175 PUSH1 0x0 CODECOPY PUSH1 0x0 RETURN INVALID PUSH1 0x80 PUSH1 0x40 MSTORE CALLVALUE DUP1 ISZERO PUSH2 0x10 JUMPI PUSH1 0x0 DUP1 REVERT JUMPDEST POP PUSH1 0x4 CALLDATASIZE LT PUSH2 0x4C JUMPI PUSH1 0x0 CALLDATALOAD PUSH1 0xE0 SHR DUP1 PUSH4 0x1F7B6D32 EQ PUSH2 0x51 JUMPI DUP1 PUSH4 0x3F3108F7 EQ PUSH2 0x6F JUMPI DUP1 PUSH4 0x993A04B7 EQ PUSH2 0x79 JUMPI DUP1 PUSH4 0xEE495002 EQ PUSH2 0x97 JUMPI JUMPDEST PUSH1 0x0 DUP1 REVERT JUMPDEST PUSH2 0x59 PUSH2 0xB5 JUMP JUMPDEST PUSH1 0x40 MLOAD PUSH2 0x66 SWAP2 SWAP1 PUSH2 0x29B JUMP JUMPDEST PUSH1 0x40 MLOAD DUP1 SWAP2 SUB SWAP1 RETURN JUMPDEST PUSH2 0x77 PUSH2 0xCA JUMP JUMPDEST STOP JUMPDEST PUSH2 0x81 PUSH2 0x18E JUMP JUMPDEST PUSH1 0x40 MLOAD PUSH2 0x8E SWAP2 SWAP1 PUSH2 0x29B JUMP JUMPDEST PUSH1 0x40 MLOAD DUP1 SWAP2 SUB SWAP1 RETURN JUMPDEST PUSH2 0x9F PUSH2 0x1A3 JUMP JUMPDEST PUSH1 0x40 MLOAD PUSH2 0xAC SWAP2 SWAP1 PUSH2 0x279 JUMP JUMPDEST PUSH1 0x40 MLOAD DUP1 SWAP2 SUB SWAP1 RETURN JUMPDEST PUSH1 0x0 DUP1 DUP1 SLOAD PUSH2 0xC3 SWAP1 PUSH2 0x30F JUMP JUMPDEST SWAP1 POP SWAP1 POP SWAP1 JUMP JUMPDEST PUSH1 0x0 DUP1 DUP1 SLOAD DUP1 PUSH2 0xD9 SWAP1 PUSH2 0x30F JUMP JUMPDEST DUP1 PUSH1 0x1F DUP2 EQ PUSH2 0xE7 JUMPI PUSH2 0xFD JUMP JUMPDEST DUP4 PUSH1 0x0 MSTORE PUSH1 0x20 PUSH1 0x0 KECCAK256 PUSH1 0xFF NOT DUP5 AND DUP2 SSTORE PUSH1 0x3F SWAP4 POP POP JUMPDEST POP PUSH1 0x2 DUP3 ADD DUP4 SSTORE PUSH1 0x1 DUP2 ADD SWAP3 POP POP POP PUSH1 0x1 SWAP1 SUB DUP2 SLOAD PUSH1 0x1 AND ISZERO PUSH2 0x12F JUMPI SWAP1 PUSH1 0x0 MSTORE PUSH1 0x20 PUSH1 0x0 KECCAK256 SWAP1 PUSH1 0x20 SWAP2 DUP3 DUP3 DIV ADD SWAP2 SWAP1 MOD JUMPDEST PUSH32 0x6400000000000000000000000000000000000000000000000000000000000000 SWAP1 SWAP2 SWAP1 SWAP2 PUSH1 0x1F SUB PUSH2 0x100 EXP DUP2 SLOAD DUP2 PUSH1 0xFF MUL NOT AND SWAP1 PUSH32 0x100000000000000000000000000000000000000000000000000000000000000 DUP5 DIV MUL OR SWAP1 SSTORE POP JUMP JUMPDEST PUSH1 0x0 DUP1 DUP1 SLOAD PUSH2 0x19C SWAP1 PUSH2 0x30F JUMP JUMPDEST SWAP1 POP SWAP1 POP SWAP1 JUMP JUMPDEST PUSH1 0x0 DUP1 SLOAD PUSH2 0x1B0 SWAP1 PUSH2 0x30F JUMP JUMPDEST DUP1 PUSH1 0x1F ADD PUSH1 0x20 DUP1 SWAP2 DIV MUL PUSH1 0x20 ADD PUSH1 0x40 MLOAD SWAP1 DUP2 ADD PUSH1 0x40 MSTORE DUP1 SWAP3 SWAP2 SWAP1 DUP2 DUP2 MSTORE PUSH1 0x20 ADD DUP3 DUP1 SLOAD PUSH2 0x1DC SWAP1 PUSH2 0x30F JUMP JUMPDEST DUP1 ISZERO PUSH2 0x229 JUMPI DUP1 PUSH1 0x1F LT PUSH2 0x1FE JUMPI PUSH2 0x100 DUP1 DUP4 SLOAD DIV MUL DUP4 MSTORE SWAP2 PUSH1 0x20 ADD SWAP2 PUSH2 0x229 JUMP JUMPDEST DUP3 ADD SWAP2 SWAP1 PUSH1 0x0 MSTORE PUSH1 0x20 PUSH1 0x0 KECCAK256 SWAP1 JUMPDEST DUP2 SLOAD DUP2 MSTORE SWAP1 PUSH1 0x1 ADD SWAP1 PUSH1 0x20 ADD DUP1 DUP4 GT PUSH2 0x20C JUMPI DUP3 SWAP1 SUB PUSH1 0x1F AND DUP3 ADD SWAP2 JUMPDEST POP POP POP POP POP DUP2 JUMP JUMPDEST PUSH1 0x0 PUSH2 0x23C DUP3 PUSH2 0x2B6 JUMP JUMPDEST PUSH2 0x246 DUP2 DUP6 PUSH2 0x2C1 JUMP JUMPDEST SWAP4 POP PUSH2 0x256 DUP2 DUP6 PUSH1 0x20 DUP7 ADD PUSH2 0x2DC JUMP JUMPDEST PUSH2 0x25F DUP2 PUSH2 0x370 JUMP JUMPDEST DUP5 ADD SWAP2 POP POP SWAP3 SWAP2 POP POP JUMP JUMPDEST PUSH2 0x273 DUP2 PUSH2 0x2D2 JUMP JUMPDEST DUP3 MSTORE POP POP JUMP JUMPDEST PUSH1 0x0 PUSH1 0x20 DUP3 ADD SWAP1 POP DUP2 DUP2 SUB PUSH1 0x0 DUP4 ADD MSTORE PUSH2 0x293 DUP2 DUP5 PUSH2 0x231 JUMP JUMPDEST SWAP1 POP SWAP3 SWAP2 POP POP JUMP JUMPDEST PUSH1 0x0 PUSH1 0x20 DUP3 ADD SWAP1 POP PUSH2 0x2B0 PUSH1 0x0 DUP4 ADD DUP5 PUSH2 0x26A JUMP JUMPDEST SWAP3 SWAP2 POP POP JUMP JUMPDEST PUSH1 0x0 DUP2 MLOAD SWAP1 POP SWAP2 SWAP1 POP JUMP JUMPDEST PUSH1 0x0 DUP3 DUP3 MSTORE PUSH1 0x20 DUP3 ADD SWAP1 POP SWAP3 SWAP2 POP POP JUMP JUMPDEST PUSH1 0x0 DUP2 SWAP1 POP SWAP2 SWAP1 POP JUMP JUMPDEST PUSH1 0x0 JUMPDEST DUP4 DUP2 LT ISZERO PUSH2 0x2FA JUMPI DUP1 DUP3 ADD MLOAD DUP2 DUP5 ADD MSTORE PUSH1 0x20 DUP2 ADD SWAP1 POP PUSH2 0x2DF JUMP JUMPDEST DUP4 DUP2 GT ISZERO PUSH2 0x309 JUMPI PUSH1 0x0 DUP5 DUP5 ADD MSTORE JUMPDEST POP POP POP POP JUMP JUMPDEST PUSH1 0x0 PUSH1 0x2 DUP3 DIV SWAP1 POP PUSH1 0x1 DUP3 AND DUP1 PUSH2 0x327 JUMPI PUSH1 0x7F DUP3 AND SWAP2 POP JUMPDEST PUSH1 0x20 DUP3 LT DUP2 EQ ISZERO PUSH2 0x33B JUMPI PUSH2 0x33A PUSH2 0x341 JUMP JUMPDEST JUMPDEST POP SWAP2 SWAP1 POP JUMP JUMPDEST PUSH32 0x4E487B7100000000000000000000000000000000000000000000000000000000 PUSH1 0x0 MSTORE PUSH1 0x22 PUSH1 0x4 MSTORE PUSH1 0x24 PUSH1 0x0 REVERT JUMPDEST PUSH1 0x0 PUSH1 0x1F NOT PUSH1 0x1F DUP4 ADD AND SWAP1 POP SWAP2 SWAP1 POP JUMP INVALID LOG2 PUSH5 0x6970667358 0x22 SLT KECCAK256 0xC 0xAD PUSH14 0x3CE9FFDFE490207C8345CA6116A 0x22 CALLVALUE PUSH12 0xE861660D30B05075E5DE37C3 PUSH5 0x736F6C6343 STOP ADDMOD STOP STOP CALLER "
				},
				"gasEstimates": {
					"creation": {
						"codeDepositCost": "190200",
						"executionCost": "infinite",
						"totalCost": "infinite"
					},
					"external": {
						"b1()": "infinite",
						"getter()": "1295",
						"length()": "1251",
						"setter()": "64620"
					}
				},
				"methodIdentifiers": {
					"b1()": "ee495002",
					"getter()": "993a04b7",
					"length()": "1f7b6d32",
					"setter()": "3f3108f7"
				}
			},
			"storageLayout": {
				"storage": [
					{
						"astId": 4,
						"contract": "bytesInDynamicArr.sol:bytesInDynamicArr",
						"label": "b1",
						"offset": 0,
						"slot": "0",
						"type": "t_bytes_storage"
					}
				],
				"types": {
					"t_bytes_storage": {
						"encoding": "bytes",
						"label": "bytes",
						"numberOfBytes": "32"
					}
				}
			},
			"userdoc": {
				"kind": "user",
				"methods": {},
				"version": 1
			}
		}
	}
}