{
	"ifElse.sol": {
		"bytesInDynamicArr": {
			"abi": [
				{
					"inputs": [
						{
							"internalType": "uint256",
							"name": "a",
							"type": "uint256"
						}
					],
					"name": "check",
					"outputs": [
						{
							"internalType": "string",
							"name": "",
							"type": "string"
						}
					],
					"stateMutability": "pure",
					"type": "function"
				}
			],
			"devdoc": {
				"kind": "dev",
				"methods": {},
				"version": 1
			},
			"evm": {
				"assembly": "    /* \"ifElse.sol\":27:221  contract bytesInDynamicArr {\r... */\n  mstore(0x40, 0x80)\n  callvalue\n  dup1\n  iszero\n  tag_1\n  jumpi\n  0x00\n  dup1\n  revert\ntag_1:\n  pop\n  dataSize(sub_0)\n  dup1\n  dataOffset(sub_0)\n  0x00\n  codecopy\n  0x00\n  return\nstop\n\nsub_0: assembly {\n        /* \"ifElse.sol\":27:221  contract bytesInDynamicArr {\r... */\n      mstore(0x40, 0x80)\n      callvalue\n      dup1\n      iszero\n      tag_1\n      jumpi\n      0x00\n      dup1\n      revert\n    tag_1:\n      pop\n      jumpi(tag_2, lt(calldatasize, 0x04))\n      shr(0xe0, calldataload(0x00))\n      dup1\n      0x5f72f450\n      eq\n      tag_3\n      jumpi\n    tag_2:\n      0x00\n      dup1\n      revert\n        /* \"ifElse.sol\":67:218  function check(uint a) public pure returns(string memory) {\r... */\n    tag_3:\n      tag_4\n      0x04\n      dup1\n      calldatasize\n      sub\n      dup2\n      add\n      swap1\n      tag_5\n      swap2\n      swap1\n      tag_6\n      jump\t// in\n    tag_5:\n      tag_7\n      jump\t// in\n    tag_4:\n      mload(0x40)\n      tag_8\n      swap2\n      swap1\n      tag_9\n      jump\t// in\n    tag_8:\n      mload(0x40)\n      dup1\n      swap2\n      sub\n      swap1\n      return\n    tag_7:\n        /* \"ifElse.sol\":110:123  string memory */\n      0x60\n        /* \"ifElse.sol\":136:155  string memory value */\n      dup1\n        /* \"ifElse.sol\":171:172  0 */\n      0x00\n        /* \"ifElse.sol\":169:170  a */\n      dup4\n        /* \"ifElse.sol\":169:172  a>0 */\n      gt\n        /* \"ifElse.sol\":166:211  if(a>0){\r... */\n      iszero\n      tag_11\n      jumpi\n        /* \"ifElse.sol\":188:199  value=\"yes\" */\n      mload(0x40)\n      dup1\n      0x40\n      add\n      0x40\n      mstore\n      dup1\n      0x03\n      dup2\n      mstore\n      0x20\n      add\n      0x7965730000000000000000000000000000000000000000000000000000000000\n      dup2\n      mstore\n      pop\n      swap1\n      pop\n        /* \"ifElse.sol\":166:211  if(a>0){\r... */\n    tag_11:\n        /* \"ifElse.sol\":67:218  function check(uint a) public pure returns(string memory) {\r... */\n      pop\n      swap2\n      swap1\n      pop\n      jump\t// out\n        /* \"#utility.yul\":7:146   */\n    tag_13:\n      0x00\n        /* \"#utility.yul\":91:97   */\n      dup2\n        /* \"#utility.yul\":78:98   */\n      calldataload\n        /* \"#utility.yul\":69:98   */\n      swap1\n      pop\n        /* \"#utility.yul\":107:140   */\n      tag_15\n        /* \"#utility.yul\":134:139   */\n      dup2\n        /* \"#utility.yul\":107:140   */\n      tag_16\n      jump\t// in\n    tag_15:\n        /* \"#utility.yul\":59:146   */\n      swap3\n      swap2\n      pop\n      pop\n      jump\t// out\n        /* \"#utility.yul\":152:414   */\n    tag_6:\n      0x00\n        /* \"#utility.yul\":260:262   */\n      0x20\n        /* \"#utility.yul\":248:257   */\n      dup3\n        /* \"#utility.yul\":239:246   */\n      dup5\n        /* \"#utility.yul\":235:258   */\n      sub\n        /* \"#utility.yul\":231:263   */\n      slt\n        /* \"#utility.yul\":228:230   */\n      iszero\n      tag_18\n      jumpi\n        /* \"#utility.yul\":276:277   */\n      0x00\n        /* \"#utility.yul\":273:274   */\n      dup1\n        /* \"#utility.yul\":266:278   */\n      revert\n        /* \"#utility.yul\":228:230   */\n    tag_18:\n        /* \"#utility.yul\":319:320   */\n      0x00\n        /* \"#utility.yul\":344:397   */\n      tag_19\n        /* \"#utility.yul\":389:396   */\n      dup5\n        /* \"#utility.yul\":380:386   */\n      dup3\n        /* \"#utility.yul\":369:378   */\n      dup6\n        /* \"#utility.yul\":365:387   */\n      add\n        /* \"#utility.yul\":344:397   */\n      tag_13\n      jump\t// in\n    tag_19:\n        /* \"#utility.yul\":334:397   */\n      swap2\n      pop\n        /* \"#utility.yul\":290:407   */\n      pop\n        /* \"#utility.yul\":218:414   */\n      swap3\n      swap2\n      pop\n      pop\n      jump\t// out\n        /* \"#utility.yul\":420:784   */\n    tag_20:\n      0x00\n        /* \"#utility.yul\":536:575   */\n      tag_22\n        /* \"#utility.yul\":569:574   */\n      dup3\n        /* \"#utility.yul\":536:575   */\n      tag_23\n      jump\t// in\n    tag_22:\n        /* \"#utility.yul\":591:662   */\n      tag_24\n        /* \"#utility.yul\":655:661   */\n      dup2\n        /* \"#utility.yul\":650:653   */\n      dup6\n        /* \"#utility.yul\":591:662   */\n      tag_25\n      jump\t// in\n    tag_24:\n        /* \"#utility.yul\":584:662   */\n      swap4\n      pop\n        /* \"#utility.yul\":671:723   */\n      tag_26\n        /* \"#utility.yul\":716:722   */\n      dup2\n        /* \"#utility.yul\":711:714   */\n      dup6\n        /* \"#utility.yul\":704:708   */\n      0x20\n        /* \"#utility.yul\":697:702   */\n      dup7\n        /* \"#utility.yul\":693:709   */\n      add\n        /* \"#utility.yul\":671:723   */\n      tag_27\n      jump\t// in\n    tag_26:\n        /* \"#utility.yul\":748:777   */\n      tag_28\n        /* \"#utility.yul\":770:776   */\n      dup2\n        /* \"#utility.yul\":748:777   */\n      tag_29\n      jump\t// in\n    tag_28:\n        /* \"#utility.yul\":743:746   */\n      dup5\n        /* \"#utility.yul\":739:778   */\n      add\n        /* \"#utility.yul\":732:778   */\n      swap2\n      pop\n        /* \"#utility.yul\":512:784   */\n      pop\n      swap3\n      swap2\n      pop\n      pop\n      jump\t// out\n        /* \"#utility.yul\":790:1103   */\n    tag_9:\n      0x00\n        /* \"#utility.yul\":941:943   */\n      0x20\n        /* \"#utility.yul\":930:939   */\n      dup3\n        /* \"#utility.yul\":926:944   */\n      add\n        /* \"#utility.yul\":918:944   */\n      swap1\n      pop\n        /* \"#utility.yul\":990:999   */\n      dup2\n        /* \"#utility.yul\":984:988   */\n      dup2\n        /* \"#utility.yul\":980:1000   */\n      sub\n        /* \"#utility.yul\":976:977   */\n      0x00\n        /* \"#utility.yul\":965:974   */\n      dup4\n        /* \"#utility.yul\":961:978   */\n      add\n        /* \"#utility.yul\":954:1001   */\n      mstore\n        /* \"#utility.yul\":1018:1096   */\n      tag_31\n        /* \"#utility.yul\":1091:1095   */\n      dup2\n        /* \"#utility.yul\":1082:1088   */\n      dup5\n        /* \"#utility.yul\":1018:1096   */\n      tag_20\n      jump\t// in\n    tag_31:\n        /* \"#utility.yul\":1010:1096   */\n      swap1\n      pop\n        /* \"#utility.yul\":908:1103   */\n      swap3\n      swap2\n      pop\n      pop\n      jump\t// out\n        /* \"#utility.yul\":1109:1208   */\n    tag_23:\n      0x00\n        /* \"#utility.yul\":1195:1200   */\n      dup2\n        /* \"#utility.yul\":1189:1201   */\n      mload\n        /* \"#utility.yul\":1179:1201   */\n      swap1\n      pop\n        /* \"#utility.yul\":1168:1208   */\n      swap2\n      swap1\n      pop\n      jump\t// out\n        /* \"#utility.yul\":1214:1383   */\n    tag_25:\n      0x00\n        /* \"#utility.yul\":1332:1338   */\n      dup3\n        /* \"#utility.yul\":1327:1330   */\n      dup3\n        /* \"#utility.yul\":1320:1339   */\n      mstore\n        /* \"#utility.yul\":1372:1376   */\n      0x20\n        /* \"#utility.yul\":1367:1370   */\n      dup3\n        /* \"#utility.yul\":1363:1377   */\n      add\n        /* \"#utility.yul\":1348:1377   */\n      swap1\n      pop\n        /* \"#utility.yul\":1310:1383   */\n      swap3\n      swap2\n      pop\n      pop\n      jump\t// out\n        /* \"#utility.yul\":1389:1466   */\n    tag_34:\n      0x00\n        /* \"#utility.yul\":1455:1460   */\n      dup2\n        /* \"#utility.yul\":1444:1460   */\n      swap1\n      pop\n        /* \"#utility.yul\":1434:1466   */\n      swap2\n      swap1\n      pop\n      jump\t// out\n        /* \"#utility.yul\":1472:1779   */\n    tag_27:\n        /* \"#utility.yul\":1540:1541   */\n      0x00\n        /* \"#utility.yul\":1550:1663   */\n    tag_37:\n        /* \"#utility.yul\":1564:1570   */\n      dup4\n        /* \"#utility.yul\":1561:1562   */\n      dup2\n        /* \"#utility.yul\":1558:1571   */\n      lt\n        /* \"#utility.yul\":1550:1663   */\n      iszero\n      tag_39\n      jumpi\n        /* \"#utility.yul\":1649:1650   */\n      dup1\n        /* \"#utility.yul\":1644:1647   */\n      dup3\n        /* \"#utility.yul\":1640:1651   */\n      add\n        /* \"#utility.yul\":1634:1652   */\n      mload\n        /* \"#utility.yul\":1630:1631   */\n      dup2\n        /* \"#utility.yul\":1625:1628   */\n      dup5\n        /* \"#utility.yul\":1621:1632   */\n      add\n        /* \"#utility.yul\":1614:1653   */\n      mstore\n        /* \"#utility.yul\":1586:1588   */\n      0x20\n        /* \"#utility.yul\":1583:1584   */\n      dup2\n        /* \"#utility.yul\":1579:1589   */\n      add\n        /* \"#utility.yul\":1574:1589   */\n      swap1\n      pop\n        /* \"#utility.yul\":1550:1663   */\n      jump(tag_37)\n    tag_39:\n        /* \"#utility.yul\":1681:1687   */\n      dup4\n        /* \"#utility.yul\":1678:1679   */\n      dup2\n        /* \"#utility.yul\":1675:1688   */\n      gt\n        /* \"#utility.yul\":1672:1674   */\n      iszero\n      tag_40\n      jumpi\n        /* \"#utility.yul\":1761:1762   */\n      0x00\n        /* \"#utility.yul\":1752:1758   */\n      dup5\n        /* \"#utility.yul\":1747:1750   */\n      dup5\n        /* \"#utility.yul\":1743:1759   */\n      add\n        /* \"#utility.yul\":1736:1763   */\n      mstore\n        /* \"#utility.yul\":1672:1674   */\n    tag_40:\n        /* \"#utility.yul\":1521:1779   */\n      pop\n      pop\n      pop\n      pop\n      jump\t// out\n        /* \"#utility.yul\":1785:1887   */\n    tag_29:\n      0x00\n        /* \"#utility.yul\":1877:1879   */\n      0x1f\n        /* \"#utility.yul\":1873:1880   */\n      not\n        /* \"#utility.yul\":1868:1870   */\n      0x1f\n        /* \"#utility.yul\":1861:1866   */\n      dup4\n        /* \"#utility.yul\":1857:1871   */\n      add\n        /* \"#utility.yul\":1853:1881   */\n      and\n        /* \"#utility.yul\":1843:1881   */\n      swap1\n      pop\n        /* \"#utility.yul\":1833:1887   */\n      swap2\n      swap1\n      pop\n      jump\t// out\n        /* \"#utility.yul\":1893:2015   */\n    tag_16:\n        /* \"#utility.yul\":1966:1990   */\n      tag_43\n        /* \"#utility.yul\":1984:1989   */\n      dup2\n        /* \"#utility.yul\":1966:1990   */\n      tag_34\n      jump\t// in\n    tag_43:\n        /* \"#utility.yul\":1959:1964   */\n      dup2\n        /* \"#utility.yul\":1956:1991   */\n      eq\n        /* \"#utility.yul\":1946:1948   */\n      tag_44\n      jumpi\n        /* \"#utility.yul\":2005:2006   */\n      0x00\n        /* \"#utility.yul\":2002:2003   */\n      dup1\n        /* \"#utility.yul\":1995:2007   */\n      revert\n        /* \"#utility.yul\":1946:1948   */\n    tag_44:\n        /* \"#utility.yul\":1936:2015   */\n      pop\n      jump\t// out\n\n    auxdata: 0xa26469706673582212208a736eb80e19104611828e1a0c6bb3b501d635b28a10b8dbd9402339363b570264736f6c63430008000033\n}\n",
				"bytecode": {
					"linkReferences": {},
					"object": "608060405234801561001057600080fd5b506101fb806100206000396000f3fe608060405234801561001057600080fd5b506004361061002b5760003560e01c80635f72f45014610030575b600080fd5b61004a600480360381019061004591906100c0565b610060565b6040516100579190610122565b60405180910390f35b60608060008311156100a5576040518060400160405280600381526020017f796573000000000000000000000000000000000000000000000000000000000081525090505b50919050565b6000813590506100ba816101ae565b92915050565b6000602082840312156100d257600080fd5b60006100e0848285016100ab565b91505092915050565b60006100f482610144565b6100fe818561014f565b935061010e81856020860161016a565b6101178161019d565b840191505092915050565b6000602082019050818103600083015261013c81846100e9565b905092915050565b600081519050919050565b600082825260208201905092915050565b6000819050919050565b60005b8381101561018857808201518184015260208101905061016d565b83811115610197576000848401525b50505050565b6000601f19601f8301169050919050565b6101b781610160565b81146101c257600080fd5b5056fea26469706673582212208a736eb80e19104611828e1a0c6bb3b501d635b28a10b8dbd9402339363b570264736f6c63430008000033",
					"opcodes": "PUSH1 0x80 PUSH1 0x40 MSTORE CALLVALUE DUP1 ISZERO PUSH2 0x10 JUMPI PUSH1 0x0 DUP1 REVERT JUMPDEST POP PUSH2 0x1FB DUP1 PUSH2 0x20 PUSH1 0x0 CODECOPY PUSH1 0x0 RETURN INVALID PUSH1 0x80 PUSH1 0x40 MSTORE CALLVALUE DUP1 ISZERO PUSH2 0x10 JUMPI PUSH1 0x0 DUP1 REVERT JUMPDEST POP PUSH1 0x4 CALLDATASIZE LT PUSH2 0x2B JUMPI PUSH1 0x0 CALLDATALOAD PUSH1 0xE0 SHR DUP1 PUSH4 0x5F72F450 EQ PUSH2 0x30 JUMPI JUMPDEST PUSH1 0x0 DUP1 REVERT JUMPDEST PUSH2 0x4A PUSH1 0x4 DUP1 CALLDATASIZE SUB DUP2 ADD SWAP1 PUSH2 0x45 SWAP2 SWAP1 PUSH2 0xC0 JUMP JUMPDEST PUSH2 0x60 JUMP JUMPDEST PUSH1 0x40 MLOAD PUSH2 0x57 SWAP2 SWAP1 PUSH2 0x122 JUMP JUMPDEST PUSH1 0x40 MLOAD DUP1 SWAP2 SUB SWAP1 RETURN JUMPDEST PUSH1 0x60 DUP1 PUSH1 0x0 DUP4 GT ISZERO PUSH2 0xA5 JUMPI PUSH1 0x40 MLOAD DUP1 PUSH1 0x40 ADD PUSH1 0x40 MSTORE DUP1 PUSH1 0x3 DUP2 MSTORE PUSH1 0x20 ADD PUSH32 0x7965730000000000000000000000000000000000000000000000000000000000 DUP2 MSTORE POP SWAP1 POP JUMPDEST POP SWAP2 SWAP1 POP JUMP JUMPDEST PUSH1 0x0 DUP2 CALLDATALOAD SWAP1 POP PUSH2 0xBA DUP2 PUSH2 0x1AE JUMP JUMPDEST SWAP3 SWAP2 POP POP JUMP JUMPDEST PUSH1 0x0 PUSH1 0x20 DUP3 DUP5 SUB SLT ISZERO PUSH2 0xD2 JUMPI PUSH1 0x0 DUP1 REVERT JUMPDEST PUSH1 0x0 PUSH2 0xE0 DUP5 DUP3 DUP6 ADD PUSH2 0xAB JUMP JUMPDEST SWAP2 POP POP SWAP3 SWAP2 POP POP JUMP JUMPDEST PUSH1 0x0 PUSH2 0xF4 DUP3 PUSH2 0x144 JUMP JUMPDEST PUSH2 0xFE DUP2 DUP6 PUSH2 0x14F JUMP JUMPDEST SWAP4 POP PUSH2 0x10E DUP2 DUP6 PUSH1 0x20 DUP7 ADD PUSH2 0x16A JUMP JUMPDEST PUSH2 0x117 DUP2 PUSH2 0x19D JUMP JUMPDEST DUP5 ADD SWAP2 POP POP SWAP3 SWAP2 POP POP JUMP JUMPDEST PUSH1 0x0 PUSH1 0x20 DUP3 ADD SWAP1 POP DUP2 DUP2 SUB PUSH1 0x0 DUP4 ADD MSTORE PUSH2 0x13C DUP2 DUP5 PUSH2 0xE9 JUMP JUMPDEST SWAP1 POP SWAP3 SWAP2 POP POP JUMP JUMPDEST PUSH1 0x0 DUP2 MLOAD SWAP1 POP SWAP2 SWAP1 POP JUMP JUMPDEST PUSH1 0x0 DUP3 DUP3 MSTORE PUSH1 0x20 DUP3 ADD SWAP1 POP SWAP3 SWAP2 POP POP JUMP JUMPDEST PUSH1 0x0 DUP2 SWAP1 POP SWAP2 SWAP1 POP JUMP JUMPDEST PUSH1 0x0 JUMPDEST DUP4 DUP2 LT ISZERO PUSH2 0x188 JUMPI DUP1 DUP3 ADD MLOAD DUP2 DUP5 ADD MSTORE PUSH1 0x20 DUP2 ADD SWAP1 POP PUSH2 0x16D JUMP JUMPDEST DUP4 DUP2 GT ISZERO PUSH2 0x197 JUMPI PUSH1 0x0 DUP5 DUP5 ADD MSTORE JUMPDEST POP POP POP POP JUMP JUMPDEST PUSH1 0x0 PUSH1 0x1F NOT PUSH1 0x1F DUP4 ADD AND SWAP1 POP SWAP2 SWAP1 POP JUMP JUMPDEST PUSH2 0x1B7 DUP2 PUSH2 0x160 JUMP JUMPDEST DUP2 EQ PUSH2 0x1C2 JUMPI PUSH1 0x0 DUP1 REVERT JUMPDEST POP JUMP INVALID LOG2 PUSH5 0x6970667358 0x22 SLT KECCAK256 DUP11 PUSH20 0x6EB80E19104611828E1A0C6BB3B501D635B28A10 0xB8 0xDB 0xD9 BLOCKHASH 0x23 CODECOPY CALLDATASIZE EXTCODESIZE JUMPI MUL PUSH5 0x736F6C6343 STOP ADDMOD STOP STOP CALLER "
				},
				"gasEstimates": {
					"creation": {
						"codeDepositCost": "101400",
						"executionCost": "147",
						"totalCost": "101547"
					},
					"external": {
						"check(uint256)": "infinite"
					}
				},
				"methodIdentifiers": {
					"check(uint256)": "5f72f450"
				}
			},
			"storageLayout": {
				"storage": [],
				"types": null
			},
			"userdoc": {
				"kind": "user",
				"methods": {},
				"version": 1
			}
		}
	}
}