{
	"overflow.sol": {
		"cons": {
			"abi": [
				{
					"inputs": [],
					"name": "money",
					"outputs": [
						{
							"internalType": "uint8",
							"name": "",
							"type": "uint8"
						}
					],
					"stateMutability": "view",
					"type": "function"
				},
				{
					"inputs": [],
					"name": "setter",
					"outputs": [],
					"stateMutability": "nonpayable",
					"type": "function"
				}
			],
			"devdoc": {
				"kind": "dev",
				"methods": {},
				"version": 1
			},
			"evm": {
				"assembly": "    /* \"overflow.sol\":27:138  contract cons{\r... */\n  mstore(0x40, 0x80)\n    /* \"overflow.sol\":72:75  255 */\n  0xff\n    /* \"overflow.sol\":53:75  uint8 public money=255 */\n  0x00\n  dup1\n  0x0100\n  exp\n  dup2\n  sload\n  dup2\n  0xff\n  mul\n  not\n  and\n  swap1\n  dup4\n  0xff\n  and\n  mul\n  or\n  swap1\n  sstore\n  pop\n    /* \"overflow.sol\":27:138  contract cons{\r... */\n  callvalue\n  dup1\n  iszero\n  tag_1\n  jumpi\n  0x00\n  dup1\n  revert\ntag_1:\n  pop\n  dataSize(sub_0)\n  dup1\n  dataOffset(sub_0)\n  0x00\n  codecopy\n  0x00\n  return\nstop\n\nsub_0: assembly {\n        /* \"overflow.sol\":27:138  contract cons{\r... */\n      mstore(0x40, 0x80)\n      callvalue\n      dup1\n      iszero\n      tag_1\n      jumpi\n      0x00\n      dup1\n      revert\n    tag_1:\n      pop\n      jumpi(tag_2, lt(calldatasize, 0x04))\n      shr(0xe0, calldataload(0x00))\n      dup1\n      0x3f3108f7\n      eq\n      tag_3\n      jumpi\n      dup1\n      0x4ddd108a\n      eq\n      tag_4\n      jumpi\n    tag_2:\n      0x00\n      dup1\n      revert\n        /* \"overflow.sol\":84:135  function setter() public{\r... */\n    tag_3:\n      tag_5\n      tag_6\n      jump\t// in\n    tag_5:\n      stop\n        /* \"overflow.sol\":53:75  uint8 public money=255 */\n    tag_4:\n      tag_7\n      tag_8\n      jump\t// in\n    tag_7:\n      mload(0x40)\n      tag_9\n      swap2\n      swap1\n      tag_10\n      jump\t// in\n    tag_9:\n      mload(0x40)\n      dup1\n      swap2\n      sub\n      swap1\n      return\n        /* \"overflow.sol\":84:135  function setter() public{\r... */\n    tag_6:\n        /* \"overflow.sol\":126:127  1 */\n      0x01\n        /* \"overflow.sol\":119:124  money */\n      0x00\n      dup1\n        /* \"overflow.sol\":119:127  money+=1 */\n      dup3\n      dup3\n      dup3\n      swap1\n      sload\n      swap1\n      0x0100\n      exp\n      swap1\n      div\n      0xff\n      and\n      tag_12\n      swap2\n      swap1\n      tag_13\n      jump\t// in\n    tag_12:\n      swap3\n      pop\n      0x0100\n      exp\n      dup2\n      sload\n      dup2\n      0xff\n      mul\n      not\n      and\n      swap1\n      dup4\n      0xff\n      and\n      mul\n      or\n      swap1\n      sstore\n      pop\n        /* \"overflow.sol\":84:135  function setter() public{\r... */\n      jump\t// out\n        /* \"overflow.sol\":53:75  uint8 public money=255 */\n    tag_8:\n      0x00\n      dup1\n      sload\n      swap1\n      0x0100\n      exp\n      swap1\n      div\n      0xff\n      and\n      dup2\n      jump\t// out\n        /* \"#utility.yul\":7:119   */\n    tag_15:\n        /* \"#utility.yul\":90:112   */\n      tag_17\n        /* \"#utility.yul\":106:111   */\n      dup2\n        /* \"#utility.yul\":90:112   */\n      tag_18\n      jump\t// in\n    tag_17:\n        /* \"#utility.yul\":85:88   */\n      dup3\n        /* \"#utility.yul\":78:113   */\n      mstore\n        /* \"#utility.yul\":68:119   */\n      pop\n      pop\n      jump\t// out\n        /* \"#utility.yul\":125:339   */\n    tag_10:\n      0x00\n        /* \"#utility.yul\":252:254   */\n      0x20\n        /* \"#utility.yul\":241:250   */\n      dup3\n        /* \"#utility.yul\":237:255   */\n      add\n        /* \"#utility.yul\":229:255   */\n      swap1\n      pop\n        /* \"#utility.yul\":265:332   */\n      tag_20\n        /* \"#utility.yul\":329:330   */\n      0x00\n        /* \"#utility.yul\":318:327   */\n      dup4\n        /* \"#utility.yul\":314:331   */\n      add\n        /* \"#utility.yul\":305:311   */\n      dup5\n        /* \"#utility.yul\":265:332   */\n      tag_15\n      jump\t// in\n    tag_20:\n        /* \"#utility.yul\":219:339   */\n      swap3\n      swap2\n      pop\n      pop\n      jump\t// out\n        /* \"#utility.yul\":345:582   */\n    tag_13:\n      0x00\n        /* \"#utility.yul\":402:420   */\n      tag_22\n        /* \"#utility.yul\":418:419   */\n      dup3\n        /* \"#utility.yul\":402:420   */\n      tag_18\n      jump\t// in\n    tag_22:\n        /* \"#utility.yul\":397:420   */\n      swap2\n      pop\n        /* \"#utility.yul\":434:452   */\n      tag_23\n        /* \"#utility.yul\":450:451   */\n      dup4\n        /* \"#utility.yul\":434:452   */\n      tag_18\n      jump\t// in\n    tag_23:\n        /* \"#utility.yul\":429:452   */\n      swap3\n      pop\n        /* \"#utility.yul\":524:525   */\n      dup3\n        /* \"#utility.yul\":518:522   */\n      0xff\n        /* \"#utility.yul\":514:526   */\n      sub\n        /* \"#utility.yul\":511:512   */\n      dup3\n        /* \"#utility.yul\":508:527   */\n      gt\n        /* \"#utility.yul\":505:507   */\n      iszero\n      tag_24\n      jumpi\n        /* \"#utility.yul\":530:548   */\n      tag_25\n      tag_26\n      jump\t// in\n    tag_25:\n        /* \"#utility.yul\":505:507   */\n    tag_24:\n        /* \"#utility.yul\":574:575   */\n      dup3\n        /* \"#utility.yul\":571:572   */\n      dup3\n        /* \"#utility.yul\":567:576   */\n      add\n        /* \"#utility.yul\":560:576   */\n      swap1\n      pop\n        /* \"#utility.yul\":387:582   */\n      swap3\n      swap2\n      pop\n      pop\n      jump\t// out\n        /* \"#utility.yul\":588:674   */\n    tag_18:\n      0x00\n        /* \"#utility.yul\":663:667   */\n      0xff\n        /* \"#utility.yul\":656:661   */\n      dup3\n        /* \"#utility.yul\":652:668   */\n      and\n        /* \"#utility.yul\":641:668   */\n      swap1\n      pop\n        /* \"#utility.yul\":631:674   */\n      swap2\n      swap1\n      pop\n      jump\t// out\n        /* \"#utility.yul\":680:860   */\n    tag_26:\n        /* \"#utility.yul\":728:805   */\n      0x4e487b7100000000000000000000000000000000000000000000000000000000\n        /* \"#utility.yul\":725:726   */\n      0x00\n        /* \"#utility.yul\":718:806   */\n      mstore\n        /* \"#utility.yul\":825:829   */\n      0x11\n        /* \"#utility.yul\":822:823   */\n      0x04\n        /* \"#utility.yul\":815:830   */\n      mstore\n        /* \"#utility.yul\":849:853   */\n      0x24\n        /* \"#utility.yul\":846:847   */\n      0x00\n        /* \"#utility.yul\":839:854   */\n      revert\n\n    auxdata: 0xa2646970667358221220dde90686c8e79233c08026b7d890241105744e4d2bcad59c5d1bad46601a0d8364736f6c63430008000033\n}\n",
				"bytecode": {
					"linkReferences": {},
					"object": "608060405260ff6000806101000a81548160ff021916908360ff16021790555034801561002b57600080fd5b5061017f8061003b6000396000f3fe608060405234801561001057600080fd5b50600436106100365760003560e01c80633f3108f71461003b5780634ddd108a14610045575b600080fd5b610043610063565b005b61004d61009b565b60405161005a91906100bb565b60405180910390f35b60016000808282829054906101000a900460ff1661008191906100d6565b92506101000a81548160ff021916908360ff160217905550565b60008054906101000a900460ff1681565b6100b58161010d565b82525050565b60006020820190506100d060008301846100ac565b92915050565b60006100e18261010d565b91506100ec8361010d565b92508260ff038211156101025761010161011a565b5b828201905092915050565b600060ff82169050919050565b7f4e487b7100000000000000000000000000000000000000000000000000000000600052601160045260246000fdfea2646970667358221220dde90686c8e79233c08026b7d890241105744e4d2bcad59c5d1bad46601a0d8364736f6c63430008000033",
					"opcodes": "PUSH1 0x80 PUSH1 0x40 MSTORE PUSH1 0xFF PUSH1 0x0 DUP1 PUSH2 0x100 EXP DUP2 SLOAD DUP2 PUSH1 0xFF MUL NOT AND SWAP1 DUP4 PUSH1 0xFF AND MUL OR SWAP1 SSTORE POP CALLVALUE DUP1 ISZERO PUSH2 0x2B JUMPI PUSH1 0x0 DUP1 REVERT JUMPDEST POP PUSH2 0x17F DUP1 PUSH2 0x3B PUSH1 0x0 CODECOPY PUSH1 0x0 RETURN INVALID PUSH1 0x80 PUSH1 0x40 MSTORE CALLVALUE DUP1 ISZERO PUSH2 0x10 JUMPI PUSH1 0x0 DUP1 REVERT JUMPDEST POP PUSH1 0x4 CALLDATASIZE LT PUSH2 0x36 JUMPI PUSH1 0x0 CALLDATALOAD PUSH1 0xE0 SHR DUP1 PUSH4 0x3F3108F7 EQ PUSH2 0x3B JUMPI DUP1 PUSH4 0x4DDD108A EQ PUSH2 0x45 JUMPI JUMPDEST PUSH1 0x0 DUP1 REVERT JUMPDEST PUSH2 0x43 PUSH2 0x63 JUMP JUMPDEST STOP JUMPDEST PUSH2 0x4D PUSH2 0x9B JUMP JUMPDEST PUSH1 0x40 MLOAD PUSH2 0x5A SWAP2 SWAP1 PUSH2 0xBB JUMP JUMPDEST PUSH1 0x40 MLOAD DUP1 SWAP2 SUB SWAP1 RETURN JUMPDEST PUSH1 0x1 PUSH1 0x0 DUP1 DUP3 DUP3 DUP3 SWAP1 SLOAD SWAP1 PUSH2 0x100 EXP SWAP1 DIV PUSH1 0xFF AND PUSH2 0x81 SWAP2 SWAP1 PUSH2 0xD6 JUMP JUMPDEST SWAP3 POP PUSH2 0x100 EXP DUP2 SLOAD DUP2 PUSH1 0xFF MUL NOT AND SWAP1 DUP4 PUSH1 0xFF AND MUL OR SWAP1 SSTORE POP JUMP JUMPDEST PUSH1 0x0 DUP1 SLOAD SWAP1 PUSH2 0x100 EXP SWAP1 DIV PUSH1 0xFF AND DUP2 JUMP JUMPDEST PUSH2 0xB5 DUP2 PUSH2 0x10D JUMP JUMPDEST DUP3 MSTORE POP POP JUMP JUMPDEST PUSH1 0x0 PUSH1 0x20 DUP3 ADD SWAP1 POP PUSH2 0xD0 PUSH1 0x0 DUP4 ADD DUP5 PUSH2 0xAC JUMP JUMPDEST SWAP3 SWAP2 POP POP JUMP JUMPDEST PUSH1 0x0 PUSH2 0xE1 DUP3 PUSH2 0x10D JUMP JUMPDEST SWAP2 POP PUSH2 0xEC DUP4 PUSH2 0x10D JUMP JUMPDEST SWAP3 POP DUP3 PUSH1 0xFF SUB DUP3 GT ISZERO PUSH2 0x102 JUMPI PUSH2 0x101 PUSH2 0x11A JUMP JUMPDEST JUMPDEST DUP3 DUP3 ADD SWAP1 POP SWAP3 SWAP2 POP POP JUMP JUMPDEST PUSH1 0x0 PUSH1 0xFF DUP3 AND SWAP1 POP SWAP2 SWAP1 POP JUMP JUMPDEST PUSH32 0x4E487B7100000000000000000000000000000000000000000000000000000000 PUSH1 0x0 MSTORE PUSH1 0x11 PUSH1 0x4 MSTORE PUSH1 0x24 PUSH1 0x0 REVERT INVALID LOG2 PUSH5 0x6970667358 0x22 SLT KECCAK256 0xDD 0xE9 MOD DUP7 0xC8 0xE7 SWAP3 CALLER 0xC0 DUP1 0x26 0xB7 0xD8 SWAP1 0x24 GT SDIV PUSH21 0x4E4D2BCAD59C5D1BAD46601A0D8364736F6C634300 ADDMOD STOP STOP CALLER "
				},
				"gasEstimates": {
					"creation": {
						"codeDepositCost": "76600",
						"executionCost": "20990",
						"totalCost": "97590"
					},
					"external": {
						"money()": "1168",
						"setter()": "infinite"
					}
				},
				"methodIdentifiers": {
					"money()": "4ddd108a",
					"setter()": "3f3108f7"
				}
			},
			"storageLayout": {
				"storage": [
					{
						"astId": 4,
						"contract": "overflow.sol:cons",
						"label": "money",
						"offset": 0,
						"slot": "0",
						"type": "t_uint8"
					}
				],
				"types": {
					"t_uint8": {
						"encoding": "inplace",
						"label": "uint8",
						"numberOfBytes": "1"
					}
				}
			},
			"userdoc": {
				"kind": "user",
				"methods": {},
				"version": 1
			}
		}
	}
}