{
	"blockNoTImeStamp.sol": {
		"structure": {
			"abi": [
				{
					"inputs": [
						{
							"internalType": "uint256",
							"name": "",
							"type": "uint256"
						}
					],
					"name": "data",
					"outputs": [
						{
							"internalType": "string",
							"name": "name",
							"type": "string"
						},
						{
							"internalType": "uint256",
							"name": "class",
							"type": "uint256"
						}
					],
					"stateMutability": "view",
					"type": "function"
				},
				{
					"inputs": [
						{
							"internalType": "uint256",
							"name": "_roll",
							"type": "uint256"
						},
						{
							"internalType": "string",
							"name": "_name",
							"type": "string"
						},
						{
							"internalType": "uint256",
							"name": "_class",
							"type": "uint256"
						}
					],
					"name": "setter",
					"outputs": [],
					"stateMutability": "nonpayable",
					"type": "function"
				}
			],
			"devdoc": {
				"kind": "dev",
				"methods": {},
				"version": 1
			},
			"evm": {
				"assembly": "    /* \"blockNoTImeStamp.sol\":27:459  contract structure {\r... */\n  mstore(0x40, 0x80)\n  callvalue\n  dup1\n  iszero\n  tag_1\n  jumpi\n  0x00\n  dup1\n  revert\ntag_1:\n  pop\n  dataSize(sub_0)\n  dup1\n  dataOffset(sub_0)\n  0x00\n  codecopy\n  0x00\n  return\nstop\n\nsub_0: assembly {\n        /* \"blockNoTImeStamp.sol\":27:459  contract structure {\r... */\n      mstore(0x40, 0x80)\n      callvalue\n      dup1\n      iszero\n      tag_1\n      jumpi\n      0x00\n      dup1\n      revert\n    tag_1:\n      pop\n      jumpi(tag_2, lt(calldatasize, 0x04))\n      shr(0xe0, calldataload(0x00))\n      dup1\n      0x0c22cf41\n      eq\n      tag_3\n      jumpi\n      dup1\n      0xf0ba8440\n      eq\n      tag_4\n      jumpi\n    tag_2:\n      0x00\n      dup1\n      revert\n        /* \"blockNoTImeStamp.sol\":332:456  function setter(uint _roll, string memory _name, uint _class) public {\r... */\n    tag_3:\n      tag_5\n      0x04\n      dup1\n      calldatasize\n      sub\n      dup2\n      add\n      swap1\n      tag_6\n      swap2\n      swap1\n      tag_7\n      jump\t// in\n    tag_6:\n      tag_8\n      jump\t// in\n    tag_5:\n      stop\n        /* \"blockNoTImeStamp.sol\":284:323  mapping(uint256 => student) public data */\n    tag_4:\n      tag_9\n      0x04\n      dup1\n      calldatasize\n      sub\n      dup2\n      add\n      swap1\n      tag_10\n      swap2\n      swap1\n      tag_11\n      jump\t// in\n    tag_10:\n      tag_12\n      jump\t// in\n    tag_9:\n      mload(0x40)\n      tag_13\n      swap3\n      swap2\n      swap1\n      tag_14\n      jump\t// in\n    tag_13:\n      mload(0x40)\n      dup1\n      swap2\n      sub\n      swap1\n      return\n        /* \"blockNoTImeStamp.sol\":332:456  function setter(uint _roll, string memory _name, uint _class) public {\r... */\n    tag_8:\n        /* \"blockNoTImeStamp.sol\":426:448  student(_name, _class) */\n      mload(0x40)\n      dup1\n      0x40\n      add\n      0x40\n      mstore\n      dup1\n        /* \"blockNoTImeStamp.sol\":434:439  _name */\n      dup4\n        /* \"blockNoTImeStamp.sol\":426:448  student(_name, _class) */\n      dup2\n      mstore\n      0x20\n      add\n        /* \"blockNoTImeStamp.sol\":441:447  _class */\n      dup3\n        /* \"blockNoTImeStamp.sol\":426:448  student(_name, _class) */\n      dup2\n      mstore\n      pop\n        /* \"blockNoTImeStamp.sol\":412:416  data */\n      0x00\n        /* \"blockNoTImeStamp.sol\":412:423  data[_roll] */\n      dup1\n        /* \"blockNoTImeStamp.sol\":417:422  _roll */\n      dup6\n        /* \"blockNoTImeStamp.sol\":412:423  data[_roll] */\n      dup2\n      mstore\n      0x20\n      add\n      swap1\n      dup2\n      mstore\n      0x20\n      add\n      0x00\n      keccak256\n        /* \"blockNoTImeStamp.sol\":412:448  data[_roll] = student(_name, _class) */\n      0x00\n      dup3\n      add\n      mload\n      dup2\n      0x00\n      add\n      swap1\n      dup1\n      mload\n      swap1\n      0x20\n      add\n      swap1\n      tag_16\n      swap3\n      swap2\n      swap1\n      tag_17\n      jump\t// in\n    tag_16:\n      pop\n      0x20\n      dup3\n      add\n      mload\n      dup2\n      0x01\n      add\n      sstore\n      swap1\n      pop\n      pop\n        /* \"blockNoTImeStamp.sol\":332:456  function setter(uint _roll, string memory _name, uint _class) public {\r... */\n      pop\n      pop\n      pop\n      jump\t// out\n        /* \"blockNoTImeStamp.sol\":284:323  mapping(uint256 => student) public data */\n    tag_12:\n      mstore(0x20, 0x00)\n      dup1\n      0x00\n      mstore\n      keccak256(0x00, 0x40)\n      0x00\n      swap2\n      pop\n      swap1\n      pop\n      dup1\n      0x00\n      add\n      dup1\n      sload\n      tag_18\n      swap1\n      tag_19\n      jump\t// in\n    tag_18:\n      dup1\n      0x1f\n      add\n      0x20\n      dup1\n      swap2\n      div\n      mul\n      0x20\n      add\n      mload(0x40)\n      swap1\n      dup2\n      add\n      0x40\n      mstore\n      dup1\n      swap3\n      swap2\n      swap1\n      dup2\n      dup2\n      mstore\n      0x20\n      add\n      dup3\n      dup1\n      sload\n      tag_20\n      swap1\n      tag_19\n      jump\t// in\n    tag_20:\n      dup1\n      iszero\n      tag_21\n      jumpi\n      dup1\n      0x1f\n      lt\n      tag_22\n      jumpi\n      0x0100\n      dup1\n      dup4\n      sload\n      div\n      mul\n      dup4\n      mstore\n      swap2\n      0x20\n      add\n      swap2\n      jump(tag_21)\n    tag_22:\n      dup3\n      add\n      swap2\n      swap1\n      0x00\n      mstore\n      keccak256(0x00, 0x20)\n      swap1\n    tag_23:\n      dup2\n      sload\n      dup2\n      mstore\n      swap1\n      0x01\n      add\n      swap1\n      0x20\n      add\n      dup1\n      dup4\n      gt\n      tag_23\n      jumpi\n      dup3\n      swap1\n      sub\n      0x1f\n      and\n      dup3\n      add\n      swap2\n    tag_21:\n      pop\n      pop\n      pop\n      pop\n      pop\n      swap1\n      dup1\n      0x01\n      add\n      sload\n      swap1\n      pop\n      dup3\n      jump\t// out\n    tag_17:\n      dup3\n      dup1\n      sload\n      tag_24\n      swap1\n      tag_19\n      jump\t// in\n    tag_24:\n      swap1\n      0x00\n      mstore\n      keccak256(0x00, 0x20)\n      swap1\n      0x1f\n      add\n      0x20\n      swap1\n      div\n      dup2\n      add\n      swap3\n      dup3\n      tag_26\n      jumpi\n      0x00\n      dup6\n      sstore\n      jump(tag_25)\n    tag_26:\n      dup3\n      0x1f\n      lt\n      tag_27\n      jumpi\n      dup1\n      mload\n      not(0xff)\n      and\n      dup4\n      dup1\n      add\n      or\n      dup6\n      sstore\n      jump(tag_25)\n    tag_27:\n      dup3\n      dup1\n      add\n      0x01\n      add\n      dup6\n      sstore\n      dup3\n      iszero\n      tag_25\n      jumpi\n      swap2\n      dup3\n      add\n    tag_28:\n      dup3\n      dup2\n      gt\n      iszero\n      tag_29\n      jumpi\n      dup3\n      mload\n      dup3\n      sstore\n      swap2\n      0x20\n      add\n      swap2\n      swap1\n      0x01\n      add\n      swap1\n      jump(tag_28)\n    tag_29:\n    tag_25:\n      pop\n      swap1\n      pop\n      tag_30\n      swap2\n      swap1\n      tag_31\n      jump\t// in\n    tag_30:\n      pop\n      swap1\n      jump\t// out\n    tag_31:\n    tag_32:\n      dup1\n      dup3\n      gt\n      iszero\n      tag_33\n      jumpi\n      0x00\n      dup2\n      0x00\n      swap1\n      sstore\n      pop\n      0x01\n      add\n      jump(tag_32)\n    tag_33:\n      pop\n      swap1\n      jump\t// out\n        /* \"#utility.yul\":7:351   */\n    tag_35:\n      0x00\n        /* \"#utility.yul\":110:175   */\n      tag_37\n        /* \"#utility.yul\":125:174   */\n      tag_38\n        /* \"#utility.yul\":167:173   */\n      dup5\n        /* \"#utility.yul\":125:174   */\n      tag_39\n      jump\t// in\n    tag_38:\n        /* \"#utility.yul\":110:175   */\n      tag_40\n      jump\t// in\n    tag_37:\n        /* \"#utility.yul\":101:175   */\n      swap1\n      pop\n        /* \"#utility.yul\":198:204   */\n      dup3\n        /* \"#utility.yul\":191:196   */\n      dup2\n        /* \"#utility.yul\":184:205   */\n      mstore\n        /* \"#utility.yul\":236:240   */\n      0x20\n        /* \"#utility.yul\":229:234   */\n      dup2\n        /* \"#utility.yul\":225:241   */\n      add\n        /* \"#utility.yul\":274:277   */\n      dup5\n        /* \"#utility.yul\":265:271   */\n      dup5\n        /* \"#utility.yul\":260:263   */\n      dup5\n        /* \"#utility.yul\":256:272   */\n      add\n        /* \"#utility.yul\":253:278   */\n      gt\n        /* \"#utility.yul\":250:252   */\n      iszero\n      tag_41\n      jumpi\n        /* \"#utility.yul\":291:292   */\n      0x00\n        /* \"#utility.yul\":288:289   */\n      dup1\n        /* \"#utility.yul\":281:293   */\n      revert\n        /* \"#utility.yul\":250:252   */\n    tag_41:\n        /* \"#utility.yul\":304:345   */\n      tag_42\n        /* \"#utility.yul\":338:344   */\n      dup5\n        /* \"#utility.yul\":333:336   */\n      dup3\n        /* \"#utility.yul\":328:331   */\n      dup6\n        /* \"#utility.yul\":304:345   */\n      tag_43\n      jump\t// in\n    tag_42:\n        /* \"#utility.yul\":91:351   */\n      pop\n      swap4\n      swap3\n      pop\n      pop\n      pop\n      jump\t// out\n        /* \"#utility.yul\":371:644   */\n    tag_44:\n      0x00\n        /* \"#utility.yul\":476:479   */\n      dup3\n        /* \"#utility.yul\":469:473   */\n      0x1f\n        /* \"#utility.yul\":461:467   */\n      dup4\n        /* \"#utility.yul\":457:474   */\n      add\n        /* \"#utility.yul\":453:480   */\n      slt\n        /* \"#utility.yul\":443:445   */\n      tag_46\n      jumpi\n        /* \"#utility.yul\":494:495   */\n      0x00\n        /* \"#utility.yul\":491:492   */\n      dup1\n        /* \"#utility.yul\":484:496   */\n      revert\n        /* \"#utility.yul\":443:445   */\n    tag_46:\n        /* \"#utility.yul\":534:540   */\n      dup2\n        /* \"#utility.yul\":521:541   */\n      calldataload\n        /* \"#utility.yul\":559:638   */\n      tag_47\n        /* \"#utility.yul\":634:637   */\n      dup5\n        /* \"#utility.yul\":626:632   */\n      dup3\n        /* \"#utility.yul\":619:623   */\n      0x20\n        /* \"#utility.yul\":611:617   */\n      dup7\n        /* \"#utility.yul\":607:624   */\n      add\n        /* \"#utility.yul\":559:638   */\n      tag_35\n      jump\t// in\n    tag_47:\n        /* \"#utility.yul\":550:638   */\n      swap2\n      pop\n        /* \"#utility.yul\":433:644   */\n      pop\n      swap3\n      swap2\n      pop\n      pop\n      jump\t// out\n        /* \"#utility.yul\":650:789   */\n    tag_48:\n      0x00\n        /* \"#utility.yul\":734:740   */\n      dup2\n        /* \"#utility.yul\":721:741   */\n      calldataload\n        /* \"#utility.yul\":712:741   */\n      swap1\n      pop\n        /* \"#utility.yul\":750:783   */\n      tag_50\n        /* \"#utility.yul\":777:782   */\n      dup2\n        /* \"#utility.yul\":750:783   */\n      tag_51\n      jump\t// in\n    tag_50:\n        /* \"#utility.yul\":702:789   */\n      swap3\n      swap2\n      pop\n      pop\n      jump\t// out\n        /* \"#utility.yul\":795:1057   */\n    tag_11:\n      0x00\n        /* \"#utility.yul\":903:905   */\n      0x20\n        /* \"#utility.yul\":891:900   */\n      dup3\n        /* \"#utility.yul\":882:889   */\n      dup5\n        /* \"#utility.yul\":878:901   */\n      sub\n        /* \"#utility.yul\":874:906   */\n      slt\n        /* \"#utility.yul\":871:873   */\n      iszero\n      tag_53\n      jumpi\n        /* \"#utility.yul\":919:920   */\n      0x00\n        /* \"#utility.yul\":916:917   */\n      dup1\n        /* \"#utility.yul\":909:921   */\n      revert\n        /* \"#utility.yul\":871:873   */\n    tag_53:\n        /* \"#utility.yul\":962:963   */\n      0x00\n        /* \"#utility.yul\":987:1040   */\n      tag_54\n        /* \"#utility.yul\":1032:1039   */\n      dup5\n        /* \"#utility.yul\":1023:1029   */\n      dup3\n        /* \"#utility.yul\":1012:1021   */\n      dup6\n        /* \"#utility.yul\":1008:1030   */\n      add\n        /* \"#utility.yul\":987:1040   */\n      tag_48\n      jump\t// in\n    tag_54:\n        /* \"#utility.yul\":977:1040   */\n      swap2\n      pop\n        /* \"#utility.yul\":933:1050   */\n      pop\n        /* \"#utility.yul\":861:1057   */\n      swap3\n      swap2\n      pop\n      pop\n      jump\t// out\n        /* \"#utility.yul\":1063:1728   */\n    tag_7:\n      0x00\n      dup1\n      0x00\n        /* \"#utility.yul\":1215:1217   */\n      0x60\n        /* \"#utility.yul\":1203:1212   */\n      dup5\n        /* \"#utility.yul\":1194:1201   */\n      dup7\n        /* \"#utility.yul\":1190:1213   */\n      sub\n        /* \"#utility.yul\":1186:1218   */\n      slt\n        /* \"#utility.yul\":1183:1185   */\n      iszero\n      tag_56\n      jumpi\n        /* \"#utility.yul\":1231:1232   */\n      0x00\n        /* \"#utility.yul\":1228:1229   */\n      dup1\n        /* \"#utility.yul\":1221:1233   */\n      revert\n        /* \"#utility.yul\":1183:1185   */\n    tag_56:\n        /* \"#utility.yul\":1274:1275   */\n      0x00\n        /* \"#utility.yul\":1299:1352   */\n      tag_57\n        /* \"#utility.yul\":1344:1351   */\n      dup7\n        /* \"#utility.yul\":1335:1341   */\n      dup3\n        /* \"#utility.yul\":1324:1333   */\n      dup8\n        /* \"#utility.yul\":1320:1342   */\n      add\n        /* \"#utility.yul\":1299:1352   */\n      tag_48\n      jump\t// in\n    tag_57:\n        /* \"#utility.yul\":1289:1352   */\n      swap4\n      pop\n        /* \"#utility.yul\":1245:1362   */\n      pop\n        /* \"#utility.yul\":1429:1431   */\n      0x20\n        /* \"#utility.yul\":1418:1427   */\n      dup5\n        /* \"#utility.yul\":1414:1432   */\n      add\n        /* \"#utility.yul\":1401:1433   */\n      calldataload\n        /* \"#utility.yul\":1460:1478   */\n      0xffffffffffffffff\n        /* \"#utility.yul\":1452:1458   */\n      dup2\n        /* \"#utility.yul\":1449:1479   */\n      gt\n        /* \"#utility.yul\":1446:1448   */\n      iszero\n      tag_58\n      jumpi\n        /* \"#utility.yul\":1492:1493   */\n      0x00\n        /* \"#utility.yul\":1489:1490   */\n      dup1\n        /* \"#utility.yul\":1482:1494   */\n      revert\n        /* \"#utility.yul\":1446:1448   */\n    tag_58:\n        /* \"#utility.yul\":1520:1583   */\n      tag_59\n        /* \"#utility.yul\":1575:1582   */\n      dup7\n        /* \"#utility.yul\":1566:1572   */\n      dup3\n        /* \"#utility.yul\":1555:1564   */\n      dup8\n        /* \"#utility.yul\":1551:1573   */\n      add\n        /* \"#utility.yul\":1520:1583   */\n      tag_44\n      jump\t// in\n    tag_59:\n        /* \"#utility.yul\":1510:1583   */\n      swap3\n      pop\n        /* \"#utility.yul\":1372:1593   */\n      pop\n        /* \"#utility.yul\":1632:1634   */\n      0x40\n        /* \"#utility.yul\":1658:1711   */\n      tag_60\n        /* \"#utility.yul\":1703:1710   */\n      dup7\n        /* \"#utility.yul\":1694:1700   */\n      dup3\n        /* \"#utility.yul\":1683:1692   */\n      dup8\n        /* \"#utility.yul\":1679:1701   */\n      add\n        /* \"#utility.yul\":1658:1711   */\n      tag_48\n      jump\t// in\n    tag_60:\n        /* \"#utility.yul\":1648:1711   */\n      swap2\n      pop\n        /* \"#utility.yul\":1603:1721   */\n      pop\n        /* \"#utility.yul\":1173:1728   */\n      swap3\n      pop\n      swap3\n      pop\n      swap3\n      jump\t// out\n        /* \"#utility.yul\":1734:2098   */\n    tag_61:\n      0x00\n        /* \"#utility.yul\":1850:1889   */\n      tag_63\n        /* \"#utility.yul\":1883:1888   */\n      dup3\n        /* \"#utility.yul\":1850:1889   */\n      tag_64\n      jump\t// in\n    tag_63:\n        /* \"#utility.yul\":1905:1976   */\n      tag_65\n        /* \"#utility.yul\":1969:1975   */\n      dup2\n        /* \"#utility.yul\":1964:1967   */\n      dup6\n        /* \"#utility.yul\":1905:1976   */\n      tag_66\n      jump\t// in\n    tag_65:\n        /* \"#utility.yul\":1898:1976   */\n      swap4\n      pop\n        /* \"#utility.yul\":1985:2037   */\n      tag_67\n        /* \"#utility.yul\":2030:2036   */\n      dup2\n        /* \"#utility.yul\":2025:2028   */\n      dup6\n        /* \"#utility.yul\":2018:2022   */\n      0x20\n        /* \"#utility.yul\":2011:2016   */\n      dup7\n        /* \"#utility.yul\":2007:2023   */\n      add\n        /* \"#utility.yul\":1985:2037   */\n      tag_68\n      jump\t// in\n    tag_67:\n        /* \"#utility.yul\":2062:2091   */\n      tag_69\n        /* \"#utility.yul\":2084:2090   */\n      dup2\n        /* \"#utility.yul\":2062:2091   */\n      tag_70\n      jump\t// in\n    tag_69:\n        /* \"#utility.yul\":2057:2060   */\n      dup5\n        /* \"#utility.yul\":2053:2092   */\n      add\n        /* \"#utility.yul\":2046:2092   */\n      swap2\n      pop\n        /* \"#utility.yul\":1826:2098   */\n      pop\n      swap3\n      swap2\n      pop\n      pop\n      jump\t// out\n        /* \"#utility.yul\":2104:2222   */\n    tag_71:\n        /* \"#utility.yul\":2191:2215   */\n      tag_73\n        /* \"#utility.yul\":2209:2214   */\n      dup2\n        /* \"#utility.yul\":2191:2215   */\n      tag_74\n      jump\t// in\n    tag_73:\n        /* \"#utility.yul\":2186:2189   */\n      dup3\n        /* \"#utility.yul\":2179:2216   */\n      mstore\n        /* \"#utility.yul\":2169:2222   */\n      pop\n      pop\n      jump\t// out\n        /* \"#utility.yul\":2228:2651   */\n    tag_14:\n      0x00\n        /* \"#utility.yul\":2407:2409   */\n      0x40\n        /* \"#utility.yul\":2396:2405   */\n      dup3\n        /* \"#utility.yul\":2392:2410   */\n      add\n        /* \"#utility.yul\":2384:2410   */\n      swap1\n      pop\n        /* \"#utility.yul\":2456:2465   */\n      dup2\n        /* \"#utility.yul\":2450:2454   */\n      dup2\n        /* \"#utility.yul\":2446:2466   */\n      sub\n        /* \"#utility.yul\":2442:2443   */\n      0x00\n        /* \"#utility.yul\":2431:2440   */\n      dup4\n        /* \"#utility.yul\":2427:2444   */\n      add\n        /* \"#utility.yul\":2420:2467   */\n      mstore\n        /* \"#utility.yul\":2484:2562   */\n      tag_76\n        /* \"#utility.yul\":2557:2561   */\n      dup2\n        /* \"#utility.yul\":2548:2554   */\n      dup6\n        /* \"#utility.yul\":2484:2562   */\n      tag_61\n      jump\t// in\n    tag_76:\n        /* \"#utility.yul\":2476:2562   */\n      swap1\n      pop\n        /* \"#utility.yul\":2572:2644   */\n      tag_77\n        /* \"#utility.yul\":2640:2642   */\n      0x20\n        /* \"#utility.yul\":2629:2638   */\n      dup4\n        /* \"#utility.yul\":2625:2643   */\n      add\n        /* \"#utility.yul\":2616:2622   */\n      dup5\n        /* \"#utility.yul\":2572:2644   */\n      tag_71\n      jump\t// in\n    tag_77:\n        /* \"#utility.yul\":2374:2651   */\n      swap4\n      swap3\n      pop\n      pop\n      pop\n      jump\t// out\n        /* \"#utility.yul\":2657:2940   */\n    tag_40:\n      0x00\n        /* \"#utility.yul\":2723:2725   */\n      0x40\n        /* \"#utility.yul\":2717:2726   */\n      mload\n        /* \"#utility.yul\":2707:2726   */\n      swap1\n      pop\n        /* \"#utility.yul\":2765:2769   */\n      dup2\n        /* \"#utility.yul\":2757:2763   */\n      dup2\n        /* \"#utility.yul\":2753:2770   */\n      add\n        /* \"#utility.yul\":2872:2878   */\n      dup2\n        /* \"#utility.yul\":2860:2870   */\n      dup2\n        /* \"#utility.yul\":2857:2879   */\n      lt\n        /* \"#utility.yul\":2836:2854   */\n      0xffffffffffffffff\n        /* \"#utility.yul\":2824:2834   */\n      dup3\n        /* \"#utility.yul\":2821:2855   */\n      gt\n        /* \"#utility.yul\":2818:2880   */\n      or\n        /* \"#utility.yul\":2815:2817   */\n      iszero\n      tag_79\n      jumpi\n        /* \"#utility.yul\":2883:2901   */\n      tag_80\n      tag_81\n      jump\t// in\n    tag_80:\n        /* \"#utility.yul\":2815:2817   */\n    tag_79:\n        /* \"#utility.yul\":2923:2933   */\n      dup1\n        /* \"#utility.yul\":2919:2921   */\n      0x40\n        /* \"#utility.yul\":2912:2934   */\n      mstore\n        /* \"#utility.yul\":2697:2940   */\n      pop\n      swap2\n      swap1\n      pop\n      jump\t// out\n        /* \"#utility.yul\":2946:3278   */\n    tag_39:\n      0x00\n        /* \"#utility.yul\":3098:3116   */\n      0xffffffffffffffff\n        /* \"#utility.yul\":3090:3096   */\n      dup3\n        /* \"#utility.yul\":3087:3117   */\n      gt\n        /* \"#utility.yul\":3084:3086   */\n      iszero\n      tag_83\n      jumpi\n        /* \"#utility.yul\":3120:3138   */\n      tag_84\n      tag_81\n      jump\t// in\n    tag_84:\n        /* \"#utility.yul\":3084:3086   */\n    tag_83:\n        /* \"#utility.yul\":3205:3209   */\n      0x1f\n        /* \"#utility.yul\":3201:3210   */\n      not\n        /* \"#utility.yul\":3194:3198   */\n      0x1f\n        /* \"#utility.yul\":3186:3192   */\n      dup4\n        /* \"#utility.yul\":3182:3199   */\n      add\n        /* \"#utility.yul\":3178:3211   */\n      and\n        /* \"#utility.yul\":3170:3211   */\n      swap1\n      pop\n        /* \"#utility.yul\":3266:3270   */\n      0x20\n        /* \"#utility.yul\":3260:3264   */\n      dup2\n        /* \"#utility.yul\":3256:3271   */\n      add\n        /* \"#utility.yul\":3248:3271   */\n      swap1\n      pop\n        /* \"#utility.yul\":3013:3278   */\n      swap2\n      swap1\n      pop\n      jump\t// out\n        /* \"#utility.yul\":3284:3383   */\n    tag_64:\n      0x00\n        /* \"#utility.yul\":3370:3375   */\n      dup2\n        /* \"#utility.yul\":3364:3376   */\n      mload\n        /* \"#utility.yul\":3354:3376   */\n      swap1\n      pop\n        /* \"#utility.yul\":3343:3383   */\n      swap2\n      swap1\n      pop\n      jump\t// out\n        /* \"#utility.yul\":3389:3558   */\n    tag_66:\n      0x00\n        /* \"#utility.yul\":3507:3513   */\n      dup3\n        /* \"#utility.yul\":3502:3505   */\n      dup3\n        /* \"#utility.yul\":3495:3514   */\n      mstore\n        /* \"#utility.yul\":3547:3551   */\n      0x20\n        /* \"#utility.yul\":3542:3545   */\n      dup3\n        /* \"#utility.yul\":3538:3552   */\n      add\n        /* \"#utility.yul\":3523:3552   */\n      swap1\n      pop\n        /* \"#utility.yul\":3485:3558   */\n      swap3\n      swap2\n      pop\n      pop\n      jump\t// out\n        /* \"#utility.yul\":3564:3641   */\n    tag_74:\n      0x00\n        /* \"#utility.yul\":3630:3635   */\n      dup2\n        /* \"#utility.yul\":3619:3635   */\n      swap1\n      pop\n        /* \"#utility.yul\":3609:3641   */\n      swap2\n      swap1\n      pop\n      jump\t// out\n        /* \"#utility.yul\":3647:3801   */\n    tag_43:\n        /* \"#utility.yul\":3731:3737   */\n      dup3\n        /* \"#utility.yul\":3726:3729   */\n      dup2\n        /* \"#utility.yul\":3721:3724   */\n      dup4\n        /* \"#utility.yul\":3708:3738   */\n      calldatacopy\n        /* \"#utility.yul\":3793:3794   */\n      0x00\n        /* \"#utility.yul\":3784:3790   */\n      dup4\n        /* \"#utility.yul\":3779:3782   */\n      dup4\n        /* \"#utility.yul\":3775:3791   */\n      add\n        /* \"#utility.yul\":3768:3795   */\n      mstore\n        /* \"#utility.yul\":3698:3801   */\n      pop\n      pop\n      pop\n      jump\t// out\n        /* \"#utility.yul\":3807:4114   */\n    tag_68:\n        /* \"#utility.yul\":3875:3876   */\n      0x00\n        /* \"#utility.yul\":3885:3998   */\n    tag_90:\n        /* \"#utility.yul\":3899:3905   */\n      dup4\n        /* \"#utility.yul\":3896:3897   */\n      dup2\n        /* \"#utility.yul\":3893:3906   */\n      lt\n        /* \"#utility.yul\":3885:3998   */\n      iszero\n      tag_92\n      jumpi\n        /* \"#utility.yul\":3984:3985   */\n      dup1\n        /* \"#utility.yul\":3979:3982   */\n      dup3\n        /* \"#utility.yul\":3975:3986   */\n      add\n        /* \"#utility.yul\":3969:3987   */\n      mload\n        /* \"#utility.yul\":3965:3966   */\n      dup2\n        /* \"#utility.yul\":3960:3963   */\n      dup5\n        /* \"#utility.yul\":3956:3967   */\n      add\n        /* \"#utility.yul\":3949:3988   */\n      mstore\n        /* \"#utility.yul\":3921:3923   */\n      0x20\n        /* \"#utility.yul\":3918:3919   */\n      dup2\n        /* \"#utility.yul\":3914:3924   */\n      add\n        /* \"#utility.yul\":3909:3924   */\n      swap1\n      pop\n        /* \"#utility.yul\":3885:3998   */\n      jump(tag_90)\n    tag_92:\n        /* \"#utility.yul\":4016:4022   */\n      dup4\n        /* \"#utility.yul\":4013:4014   */\n      dup2\n        /* \"#utility.yul\":4010:4023   */\n      gt\n        /* \"#utility.yul\":4007:4009   */\n      iszero\n      tag_93\n      jumpi\n        /* \"#utility.yul\":4096:4097   */\n      0x00\n        /* \"#utility.yul\":4087:4093   */\n      dup5\n        /* \"#utility.yul\":4082:4085   */\n      dup5\n        /* \"#utility.yul\":4078:4094   */\n      add\n        /* \"#utility.yul\":4071:4098   */\n      mstore\n        /* \"#utility.yul\":4007:4009   */\n    tag_93:\n        /* \"#utility.yul\":3856:4114   */\n      pop\n      pop\n      pop\n      pop\n      jump\t// out\n        /* \"#utility.yul\":4120:4440   */\n    tag_19:\n      0x00\n        /* \"#utility.yul\":4201:4202   */\n      0x02\n        /* \"#utility.yul\":4195:4199   */\n      dup3\n        /* \"#utility.yul\":4191:4203   */\n      div\n        /* \"#utility.yul\":4181:4203   */\n      swap1\n      pop\n        /* \"#utility.yul\":4248:4249   */\n      0x01\n        /* \"#utility.yul\":4242:4246   */\n      dup3\n        /* \"#utility.yul\":4238:4250   */\n      and\n        /* \"#utility.yul\":4269:4287   */\n      dup1\n        /* \"#utility.yul\":4259:4261   */\n      tag_95\n      jumpi\n        /* \"#utility.yul\":4325:4329   */\n      0x7f\n        /* \"#utility.yul\":4317:4323   */\n      dup3\n        /* \"#utility.yul\":4313:4330   */\n      and\n        /* \"#utility.yul\":4303:4330   */\n      swap2\n      pop\n        /* \"#utility.yul\":4259:4261   */\n    tag_95:\n        /* \"#utility.yul\":4387:4389   */\n      0x20\n        /* \"#utility.yul\":4379:4385   */\n      dup3\n        /* \"#utility.yul\":4376:4390   */\n      lt\n        /* \"#utility.yul\":4356:4374   */\n      dup2\n        /* \"#utility.yul\":4353:4391   */\n      eq\n        /* \"#utility.yul\":4350:4352   */\n      iszero\n      tag_96\n      jumpi\n        /* \"#utility.yul\":4406:4424   */\n      tag_97\n      tag_98\n      jump\t// in\n    tag_97:\n        /* \"#utility.yul\":4350:4352   */\n    tag_96:\n        /* \"#utility.yul\":4171:4440   */\n      pop\n      swap2\n      swap1\n      pop\n      jump\t// out\n        /* \"#utility.yul\":4446:4626   */\n    tag_98:\n        /* \"#utility.yul\":4494:4571   */\n      0x4e487b7100000000000000000000000000000000000000000000000000000000\n        /* \"#utility.yul\":4491:4492   */\n      0x00\n        /* \"#utility.yul\":4484:4572   */\n      mstore\n        /* \"#utility.yul\":4591:4595   */\n      0x22\n        /* \"#utility.yul\":4588:4589   */\n      0x04\n        /* \"#utility.yul\":4581:4596   */\n      mstore\n        /* \"#utility.yul\":4615:4619   */\n      0x24\n        /* \"#utility.yul\":4612:4613   */\n      0x00\n        /* \"#utility.yul\":4605:4620   */\n      revert\n        /* \"#utility.yul\":4632:4812   */\n    tag_81:\n        /* \"#utility.yul\":4680:4757   */\n      0x4e487b7100000000000000000000000000000000000000000000000000000000\n        /* \"#utility.yul\":4677:4678   */\n      0x00\n        /* \"#utility.yul\":4670:4758   */\n      mstore\n        /* \"#utility.yul\":4777:4781   */\n      0x41\n        /* \"#utility.yul\":4774:4775   */\n      0x04\n        /* \"#utility.yul\":4767:4782   */\n      mstore\n        /* \"#utility.yul\":4801:4805   */\n      0x24\n        /* \"#utility.yul\":4798:4799   */\n      0x00\n        /* \"#utility.yul\":4791:4806   */\n      revert\n        /* \"#utility.yul\":4818:4920   */\n    tag_70:\n      0x00\n        /* \"#utility.yul\":4910:4912   */\n      0x1f\n        /* \"#utility.yul\":4906:4913   */\n      not\n        /* \"#utility.yul\":4901:4903   */\n      0x1f\n        /* \"#utility.yul\":4894:4899   */\n      dup4\n        /* \"#utility.yul\":4890:4904   */\n      add\n        /* \"#utility.yul\":4886:4914   */\n      and\n        /* \"#utility.yul\":4876:4914   */\n      swap1\n      pop\n        /* \"#utility.yul\":4866:4920   */\n      swap2\n      swap1\n      pop\n      jump\t// out\n        /* \"#utility.yul\":4926:5048   */\n    tag_51:\n        /* \"#utility.yul\":4999:5023   */\n      tag_103\n        /* \"#utility.yul\":5017:5022   */\n      dup2\n        /* \"#utility.yul\":4999:5023   */\n      tag_74\n      jump\t// in\n    tag_103:\n        /* \"#utility.yul\":4992:4997   */\n      dup2\n        /* \"#utility.yul\":4989:5024   */\n      eq\n        /* \"#utility.yul\":4979:4981   */\n      tag_104\n      jumpi\n        /* \"#utility.yul\":5038:5039   */\n      0x00\n        /* \"#utility.yul\":5035:5036   */\n      dup1\n        /* \"#utility.yul\":5028:5040   */\n      revert\n        /* \"#utility.yul\":4979:4981   */\n    tag_104:\n        /* \"#utility.yul\":4969:5048   */\n      pop\n      jump\t// out\n\n    auxdata: 0xa264697066735822122059e8ab936535ea9674be6620c66705c579da030ace1dca7842cb6b0cc952e61f64736f6c63430008000033\n}\n",
				"bytecode": {
					"linkReferences": {},
					"object": "608060405234801561001057600080fd5b50610569806100206000396000f3fe608060405234801561001057600080fd5b50600436106100365760003560e01c80630c22cf411461003b578063f0ba844014610057575b600080fd5b610055600480360381019061005091906102d3565b610088565b005b610071600480360381019061006c91906102aa565b6100de565b60405161007f929190610382565b60405180910390f35b60405180604001604052808381526020018281525060008085815260200190815260200160002060008201518160000190805190602001906100cb92919061018a565b5060208201518160010155905050505050565b60006020528060005260406000206000915090508060000180546101019061047b565b80601f016020809104026020016040519081016040528092919081815260200182805461012d9061047b565b801561017a5780601f1061014f5761010080835404028352916020019161017a565b820191906000526020600020905b81548152906001019060200180831161015d57829003601f168201915b5050505050908060010154905082565b8280546101969061047b565b90600052602060002090601f0160209004810192826101b857600085556101ff565b82601f106101d157805160ff19168380011785556101ff565b828001600101855582156101ff579182015b828111156101fe5782518255916020019190600101906101e3565b5b50905061020c9190610210565b5090565b5b80821115610229576000816000905550600101610211565b5090565b600061024061023b846103e3565b6103b2565b90508281526020810184848401111561025857600080fd5b610263848285610439565b509392505050565b600082601f83011261027c57600080fd5b813561028c84826020860161022d565b91505092915050565b6000813590506102a48161051c565b92915050565b6000602082840312156102bc57600080fd5b60006102ca84828501610295565b91505092915050565b6000806000606084860312156102e857600080fd5b60006102f686828701610295565b935050602084013567ffffffffffffffff81111561031357600080fd5b61031f8682870161026b565b925050604061033086828701610295565b9150509250925092565b600061034582610413565b61034f818561041e565b935061035f818560208601610448565b6103688161050b565b840191505092915050565b61037c8161042f565b82525050565b6000604082019050818103600083015261039c818561033a565b90506103ab6020830184610373565b9392505050565b6000604051905081810181811067ffffffffffffffff821117156103d9576103d86104dc565b5b8060405250919050565b600067ffffffffffffffff8211156103fe576103fd6104dc565b5b601f19601f8301169050602081019050919050565b600081519050919050565b600082825260208201905092915050565b6000819050919050565b82818337600083830152505050565b60005b8381101561046657808201518184015260208101905061044b565b83811115610475576000848401525b50505050565b6000600282049050600182168061049357607f821691505b602082108114156104a7576104a66104ad565b5b50919050565b7f4e487b7100000000000000000000000000000000000000000000000000000000600052602260045260246000fd5b7f4e487b7100000000000000000000000000000000000000000000000000000000600052604160045260246000fd5b6000601f19601f8301169050919050565b6105258161042f565b811461053057600080fd5b5056fea264697066735822122059e8ab936535ea9674be6620c66705c579da030ace1dca7842cb6b0cc952e61f64736f6c63430008000033",
					"opcodes": "PUSH1 0x80 PUSH1 0x40 MSTORE CALLVALUE DUP1 ISZERO PUSH2 0x10 JUMPI PUSH1 0x0 DUP1 REVERT JUMPDEST POP PUSH2 0x569 DUP1 PUSH2 0x20 PUSH1 0x0 CODECOPY PUSH1 0x0 RETURN INVALID PUSH1 0x80 PUSH1 0x40 MSTORE CALLVALUE DUP1 ISZERO PUSH2 0x10 JUMPI PUSH1 0x0 DUP1 REVERT JUMPDEST POP PUSH1 0x4 CALLDATASIZE LT PUSH2 0x36 JUMPI PUSH1 0x0 CALLDATALOAD PUSH1 0xE0 SHR DUP1 PUSH4 0xC22CF41 EQ PUSH2 0x3B JUMPI DUP1 PUSH4 0xF0BA8440 EQ PUSH2 0x57 JUMPI JUMPDEST PUSH1 0x0 DUP1 REVERT JUMPDEST PUSH2 0x55 PUSH1 0x4 DUP1 CALLDATASIZE SUB DUP2 ADD SWAP1 PUSH2 0x50 SWAP2 SWAP1 PUSH2 0x2D3 JUMP JUMPDEST PUSH2 0x88 JUMP JUMPDEST STOP JUMPDEST PUSH2 0x71 PUSH1 0x4 DUP1 CALLDATASIZE SUB DUP2 ADD SWAP1 PUSH2 0x6C SWAP2 SWAP1 PUSH2 0x2AA JUMP JUMPDEST PUSH2 0xDE JUMP JUMPDEST PUSH1 0x40 MLOAD PUSH2 0x7F SWAP3 SWAP2 SWAP1 PUSH2 0x382 JUMP JUMPDEST PUSH1 0x40 MLOAD DUP1 SWAP2 SUB SWAP1 RETURN JUMPDEST PUSH1 0x40 MLOAD DUP1 PUSH1 0x40 ADD PUSH1 0x40 MSTORE DUP1 DUP4 DUP2 MSTORE PUSH1 0x20 ADD DUP3 DUP2 MSTORE POP PUSH1 0x0 DUP1 DUP6 DUP2 MSTORE PUSH1 0x20 ADD SWAP1 DUP2 MSTORE PUSH1 0x20 ADD PUSH1 0x0 KECCAK256 PUSH1 0x0 DUP3 ADD MLOAD DUP2 PUSH1 0x0 ADD SWAP1 DUP1 MLOAD SWAP1 PUSH1 0x20 ADD SWAP1 PUSH2 0xCB SWAP3 SWAP2 SWAP1 PUSH2 0x18A JUMP JUMPDEST POP PUSH1 0x20 DUP3 ADD MLOAD DUP2 PUSH1 0x1 ADD SSTORE SWAP1 POP POP POP POP POP JUMP JUMPDEST PUSH1 0x0 PUSH1 0x20 MSTORE DUP1 PUSH1 0x0 MSTORE PUSH1 0x40 PUSH1 0x0 KECCAK256 PUSH1 0x0 SWAP2 POP SWAP1 POP DUP1 PUSH1 0x0 ADD DUP1 SLOAD PUSH2 0x101 SWAP1 PUSH2 0x47B JUMP JUMPDEST DUP1 PUSH1 0x1F ADD PUSH1 0x20 DUP1 SWAP2 DIV MUL PUSH1 0x20 ADD PUSH1 0x40 MLOAD SWAP1 DUP2 ADD PUSH1 0x40 MSTORE DUP1 SWAP3 SWAP2 SWAP1 DUP2 DUP2 MSTORE PUSH1 0x20 ADD DUP3 DUP1 SLOAD PUSH2 0x12D SWAP1 PUSH2 0x47B JUMP JUMPDEST DUP1 ISZERO PUSH2 0x17A JUMPI DUP1 PUSH1 0x1F LT PUSH2 0x14F JUMPI PUSH2 0x100 DUP1 DUP4 SLOAD DIV MUL DUP4 MSTORE SWAP2 PUSH1 0x20 ADD SWAP2 PUSH2 0x17A JUMP JUMPDEST DUP3 ADD SWAP2 SWAP1 PUSH1 0x0 MSTORE PUSH1 0x20 PUSH1 0x0 KECCAK256 SWAP1 JUMPDEST DUP2 SLOAD DUP2 MSTORE SWAP1 PUSH1 0x1 ADD SWAP1 PUSH1 0x20 ADD DUP1 DUP4 GT PUSH2 0x15D JUMPI DUP3 SWAP1 SUB PUSH1 0x1F AND DUP3 ADD SWAP2 JUMPDEST POP POP POP POP POP SWAP1 DUP1 PUSH1 0x1 ADD SLOAD SWAP1 POP DUP3 JUMP JUMPDEST DUP3 DUP1 SLOAD PUSH2 0x196 SWAP1 PUSH2 0x47B JUMP JUMPDEST SWAP1 PUSH1 0x0 MSTORE PUSH1 0x20 PUSH1 0x0 KECCAK256 SWAP1 PUSH1 0x1F ADD PUSH1 0x20 SWAP1 DIV DUP2 ADD SWAP3 DUP3 PUSH2 0x1B8 JUMPI PUSH1 0x0 DUP6 SSTORE PUSH2 0x1FF JUMP JUMPDEST DUP3 PUSH1 0x1F LT PUSH2 0x1D1 JUMPI DUP1 MLOAD PUSH1 0xFF NOT AND DUP4 DUP1 ADD OR DUP6 SSTORE PUSH2 0x1FF JUMP JUMPDEST DUP3 DUP1 ADD PUSH1 0x1 ADD DUP6 SSTORE DUP3 ISZERO PUSH2 0x1FF JUMPI SWAP2 DUP3 ADD JUMPDEST DUP3 DUP2 GT ISZERO PUSH2 0x1FE JUMPI DUP3 MLOAD DUP3 SSTORE SWAP2 PUSH1 0x20 ADD SWAP2 SWAP1 PUSH1 0x1 ADD SWAP1 PUSH2 0x1E3 JUMP JUMPDEST JUMPDEST POP SWAP1 POP PUSH2 0x20C SWAP2 SWAP1 PUSH2 0x210 JUMP JUMPDEST POP SWAP1 JUMP JUMPDEST JUMPDEST DUP1 DUP3 GT ISZERO PUSH2 0x229 JUMPI PUSH1 0x0 DUP2 PUSH1 0x0 SWAP1 SSTORE POP PUSH1 0x1 ADD PUSH2 0x211 JUMP JUMPDEST POP SWAP1 JUMP JUMPDEST PUSH1 0x0 PUSH2 0x240 PUSH2 0x23B DUP5 PUSH2 0x3E3 JUMP JUMPDEST PUSH2 0x3B2 JUMP JUMPDEST SWAP1 POP DUP3 DUP2 MSTORE PUSH1 0x20 DUP2 ADD DUP5 DUP5 DUP5 ADD GT ISZERO PUSH2 0x258 JUMPI PUSH1 0x0 DUP1 REVERT JUMPDEST PUSH2 0x263 DUP5 DUP3 DUP6 PUSH2 0x439 JUMP JUMPDEST POP SWAP4 SWAP3 POP POP POP JUMP JUMPDEST PUSH1 0x0 DUP3 PUSH1 0x1F DUP4 ADD SLT PUSH2 0x27C JUMPI PUSH1 0x0 DUP1 REVERT JUMPDEST DUP2 CALLDATALOAD PUSH2 0x28C DUP5 DUP3 PUSH1 0x20 DUP7 ADD PUSH2 0x22D JUMP JUMPDEST SWAP2 POP POP SWAP3 SWAP2 POP POP JUMP JUMPDEST PUSH1 0x0 DUP2 CALLDATALOAD SWAP1 POP PUSH2 0x2A4 DUP2 PUSH2 0x51C JUMP JUMPDEST SWAP3 SWAP2 POP POP JUMP JUMPDEST PUSH1 0x0 PUSH1 0x20 DUP3 DUP5 SUB SLT ISZERO PUSH2 0x2BC JUMPI PUSH1 0x0 DUP1 REVERT JUMPDEST PUSH1 0x0 PUSH2 0x2CA DUP5 DUP3 DUP6 ADD PUSH2 0x295 JUMP JUMPDEST SWAP2 POP POP SWAP3 SWAP2 POP POP JUMP JUMPDEST PUSH1 0x0 DUP1 PUSH1 0x0 PUSH1 0x60 DUP5 DUP7 SUB SLT ISZERO PUSH2 0x2E8 JUMPI PUSH1 0x0 DUP1 REVERT JUMPDEST PUSH1 0x0 PUSH2 0x2F6 DUP7 DUP3 DUP8 ADD PUSH2 0x295 JUMP JUMPDEST SWAP4 POP POP PUSH1 0x20 DUP5 ADD CALLDATALOAD PUSH8 0xFFFFFFFFFFFFFFFF DUP2 GT ISZERO PUSH2 0x313 JUMPI PUSH1 0x0 DUP1 REVERT JUMPDEST PUSH2 0x31F DUP7 DUP3 DUP8 ADD PUSH2 0x26B JUMP JUMPDEST SWAP3 POP POP PUSH1 0x40 PUSH2 0x330 DUP7 DUP3 DUP8 ADD PUSH2 0x295 JUMP JUMPDEST SWAP2 POP POP SWAP3 POP SWAP3 POP SWAP3 JUMP JUMPDEST PUSH1 0x0 PUSH2 0x345 DUP3 PUSH2 0x413 JUMP JUMPDEST PUSH2 0x34F DUP2 DUP6 PUSH2 0x41E JUMP JUMPDEST SWAP4 POP PUSH2 0x35F DUP2 DUP6 PUSH1 0x20 DUP7 ADD PUSH2 0x448 JUMP JUMPDEST PUSH2 0x368 DUP2 PUSH2 0x50B JUMP JUMPDEST DUP5 ADD SWAP2 POP POP SWAP3 SWAP2 POP POP JUMP JUMPDEST PUSH2 0x37C DUP2 PUSH2 0x42F JUMP JUMPDEST DUP3 MSTORE POP POP JUMP JUMPDEST PUSH1 0x0 PUSH1 0x40 DUP3 ADD SWAP1 POP DUP2 DUP2 SUB PUSH1 0x0 DUP4 ADD MSTORE PUSH2 0x39C DUP2 DUP6 PUSH2 0x33A JUMP JUMPDEST SWAP1 POP PUSH2 0x3AB PUSH1 0x20 DUP4 ADD DUP5 PUSH2 0x373 JUMP JUMPDEST SWAP4 SWAP3 POP POP POP JUMP JUMPDEST PUSH1 0x0 PUSH1 0x40 MLOAD SWAP1 POP DUP2 DUP2 ADD DUP2 DUP2 LT PUSH8 0xFFFFFFFFFFFFFFFF DUP3 GT OR ISZERO PUSH2 0x3D9 JUMPI PUSH2 0x3D8 PUSH2 0x4DC JUMP JUMPDEST JUMPDEST DUP1 PUSH1 0x40 MSTORE POP SWAP2 SWAP1 POP JUMP JUMPDEST PUSH1 0x0 PUSH8 0xFFFFFFFFFFFFFFFF DUP3 GT ISZERO PUSH2 0x3FE JUMPI PUSH2 0x3FD PUSH2 0x4DC JUMP JUMPDEST JUMPDEST PUSH1 0x1F NOT PUSH1 0x1F DUP4 ADD AND SWAP1 POP PUSH1 0x20 DUP2 ADD SWAP1 POP SWAP2 SWAP1 POP JUMP JUMPDEST PUSH1 0x0 DUP2 MLOAD SWAP1 POP SWAP2 SWAP1 POP JUMP JUMPDEST PUSH1 0x0 DUP3 DUP3 MSTORE PUSH1 0x20 DUP3 ADD SWAP1 POP SWAP3 SWAP2 POP POP JUMP JUMPDEST PUSH1 0x0 DUP2 SWAP1 POP SWAP2 SWAP1 POP JUMP JUMPDEST DUP3 DUP2 DUP4 CALLDATACOPY PUSH1 0x0 DUP4 DUP4 ADD MSTORE POP POP POP JUMP JUMPDEST PUSH1 0x0 JUMPDEST DUP4 DUP2 LT ISZERO PUSH2 0x466 JUMPI DUP1 DUP3 ADD MLOAD DUP2 DUP5 ADD MSTORE PUSH1 0x20 DUP2 ADD SWAP1 POP PUSH2 0x44B JUMP JUMPDEST DUP4 DUP2 GT ISZERO PUSH2 0x475 JUMPI PUSH1 0x0 DUP5 DUP5 ADD MSTORE JUMPDEST POP POP POP POP JUMP JUMPDEST PUSH1 0x0 PUSH1 0x2 DUP3 DIV SWAP1 POP PUSH1 0x1 DUP3 AND DUP1 PUSH2 0x493 JUMPI PUSH1 0x7F DUP3 AND SWAP2 POP JUMPDEST PUSH1 0x20 DUP3 LT DUP2 EQ ISZERO PUSH2 0x4A7 JUMPI PUSH2 0x4A6 PUSH2 0x4AD JUMP JUMPDEST JUMPDEST POP SWAP2 SWAP1 POP JUMP JUMPDEST PUSH32 0x4E487B7100000000000000000000000000000000000000000000000000000000 PUSH1 0x0 MSTORE PUSH1 0x22 PUSH1 0x4 MSTORE PUSH1 0x24 PUSH1 0x0 REVERT JUMPDEST PUSH32 0x4E487B7100000000000000000000000000000000000000000000000000000000 PUSH1 0x0 MSTORE PUSH1 0x41 PUSH1 0x4 MSTORE PUSH1 0x24 PUSH1 0x0 REVERT JUMPDEST PUSH1 0x0 PUSH1 0x1F NOT PUSH1 0x1F DUP4 ADD AND SWAP1 POP SWAP2 SWAP1 POP JUMP JUMPDEST PUSH2 0x525 DUP2 PUSH2 0x42F JUMP JUMPDEST DUP2 EQ PUSH2 0x530 JUMPI PUSH1 0x0 DUP1 REVERT JUMPDEST POP JUMP INVALID LOG2 PUSH5 0x6970667358 0x22 SLT KECCAK256 MSIZE 0xE8 0xAB SWAP4 PUSH6 0x35EA9674BE66 KECCAK256 0xC6 PUSH8 0x5C579DA030ACE1D 0xCA PUSH25 0x42CB6B0CC952E61F64736F6C63430008000033000000000000 "
				},
				"gasEstimates": {
					"creation": {
						"codeDepositCost": "277000",
						"executionCost": "318",
						"totalCost": "277318"
					},
					"external": {
						"data(uint256)": "infinite",
						"setter(uint256,string,uint256)": "infinite"
					}
				},
				"methodIdentifiers": {
					"data(uint256)": "f0ba8440",
					"setter(uint256,string,uint256)": "0c22cf41"
				}
			},
			"storageLayout": {
				"storage": [
					{
						"astId": 11,
						"contract": "blockNoTImeStamp.sol:structure",
						"label": "data",
						"offset": 0,
						"slot": "0",
						"type": "t_mapping(t_uint256,t_struct(student)6_storage)"
					}
				],
				"types": {
					"t_mapping(t_uint256,t_struct(student)6_storage)": {
						"encoding": "mapping",
						"key": "t_uint256",
						"label": "mapping(uint256 => struct structure.student)",
						"numberOfBytes": "32",
						"value": "t_struct(student)6_storage"
					},
					"t_string_storage": {
						"encoding": "bytes",
						"label": "string",
						"numberOfBytes": "32"
					},
					"t_struct(student)6_storage": {
						"encoding": "inplace",
						"label": "struct structure.student",
						"members": [
							{
								"astId": 3,
								"contract": "blockNoTImeStamp.sol:structure",
								"label": "name",
								"offset": 0,
								"slot": "0",
								"type": "t_string_storage"
							},
							{
								"astId": 5,
								"contract": "blockNoTImeStamp.sol:structure",
								"label": "class",
								"offset": 0,
								"slot": "1",
								"type": "t_uint256"
							}
						],
						"numberOfBytes": "64"
					},
					"t_uint256": {
						"encoding": "inplace",
						"label": "uint256",
						"numberOfBytes": "32"
					}
				}
			},
			"userdoc": {
				"kind": "user",
				"methods": {},
				"version": 1
			}
		}
	}
}