{
	"overflow.sol": {
		"cons": {
			"abi": [
				{
					"inputs": [
						{
							"internalType": "uint256",
							"name": "newAge",
							"type": "uint256"
						}
					],
					"stateMutability": "nonpayable",
					"type": "constructor"
				},
				{
					"inputs": [],
					"name": "age",
					"outputs": [
						{
							"internalType": "uint256",
							"name": "",
							"type": "uint256"
						}
					],
					"stateMutability": "view",
					"type": "function"
				}
			],
			"devdoc": {
				"kind": "dev",
				"methods": {},
				"version": 1
			},
			"evm": {
				"assembly": "    /* \"overflow.sol\":27:133  contract cons{\r... */\n  mstore(0x40, 0x80)\n    /* \"overflow.sol\":77:130  constructor(uint newAge){\r... */\n  callvalue\n  dup1\n  iszero\n  tag_1\n  jumpi\n  0x00\n  dup1\n  revert\ntag_1:\n  pop\n  mload(0x40)\n  sub(codesize, bytecodeSize)\n  dup1\n  bytecodeSize\n  dup4\n  codecopy\n  dup2\n  dup2\n  add\n  0x40\n  mstore\n  dup2\n  add\n  swap1\n  tag_2\n  swap2\n  swap1\n  tag_3\n  jump\t// in\ntag_2:\n    /* \"overflow.sol\":116:122  newAge */\n  dup1\n    /* \"overflow.sol\":112:115  age */\n  0x00\n    /* \"overflow.sol\":112:122  age=newAge */\n  dup2\n  swap1\n  sstore\n  pop\n    /* \"overflow.sol\":77:130  constructor(uint newAge){\r... */\n  pop\n    /* \"overflow.sol\":27:133  contract cons{\r... */\n  jump(tag_6)\n    /* \"#utility.yul\":7:150   */\ntag_8:\n  0x00\n    /* \"#utility.yul\":95:101   */\n  dup2\n    /* \"#utility.yul\":89:102   */\n  mload\n    /* \"#utility.yul\":80:102   */\n  swap1\n  pop\n    /* \"#utility.yul\":111:144   */\n  tag_10\n    /* \"#utility.yul\":138:143   */\n  dup2\n    /* \"#utility.yul\":111:144   */\n  tag_11\n  jump\t// in\ntag_10:\n    /* \"#utility.yul\":70:150   */\n  swap3\n  swap2\n  pop\n  pop\n  jump\t// out\n    /* \"#utility.yul\":156:440   */\ntag_3:\n  0x00\n    /* \"#utility.yul\":275:277   */\n  0x20\n    /* \"#utility.yul\":263:272   */\n  dup3\n    /* \"#utility.yul\":254:261   */\n  dup5\n    /* \"#utility.yul\":250:273   */\n  sub\n    /* \"#utility.yul\":246:278   */\n  slt\n    /* \"#utility.yul\":243:245   */\n  iszero\n  tag_13\n  jumpi\n    /* \"#utility.yul\":291:292   */\n  0x00\n    /* \"#utility.yul\":288:289   */\n  dup1\n    /* \"#utility.yul\":281:293   */\n  revert\n    /* \"#utility.yul\":243:245   */\ntag_13:\n    /* \"#utility.yul\":334:335   */\n  0x00\n    /* \"#utility.yul\":359:423   */\n  tag_14\n    /* \"#utility.yul\":415:422   */\n  dup5\n    /* \"#utility.yul\":406:412   */\n  dup3\n    /* \"#utility.yul\":395:404   */\n  dup6\n    /* \"#utility.yul\":391:413   */\n  add\n    /* \"#utility.yul\":359:423   */\n  tag_8\n  jump\t// in\ntag_14:\n    /* \"#utility.yul\":349:423   */\n  swap2\n  pop\n    /* \"#utility.yul\":305:433   */\n  pop\n    /* \"#utility.yul\":233:440   */\n  swap3\n  swap2\n  pop\n  pop\n  jump\t// out\n    /* \"#utility.yul\":446:523   */\ntag_15:\n  0x00\n    /* \"#utility.yul\":512:517   */\n  dup2\n    /* \"#utility.yul\":501:517   */\n  swap1\n  pop\n    /* \"#utility.yul\":491:523   */\n  swap2\n  swap1\n  pop\n  jump\t// out\n    /* \"#utility.yul\":529:651   */\ntag_11:\n    /* \"#utility.yul\":602:626   */\n  tag_18\n    /* \"#utility.yul\":620:625   */\n  dup2\n    /* \"#utility.yul\":602:626   */\n  tag_15\n  jump\t// in\ntag_18:\n    /* \"#utility.yul\":595:600   */\n  dup2\n    /* \"#utility.yul\":592:627   */\n  eq\n    /* \"#utility.yul\":582:584   */\n  tag_19\n  jumpi\n    /* \"#utility.yul\":641:642   */\n  0x00\n    /* \"#utility.yul\":638:639   */\n  dup1\n    /* \"#utility.yul\":631:643   */\n  revert\n    /* \"#utility.yul\":582:584   */\ntag_19:\n    /* \"#utility.yul\":572:651   */\n  pop\n  jump\t// out\n    /* \"overflow.sol\":27:133  contract cons{\r... */\ntag_6:\n  dataSize(sub_0)\n  dup1\n  dataOffset(sub_0)\n  0x00\n  codecopy\n  0x00\n  return\nstop\n\nsub_0: assembly {\n        /* \"overflow.sol\":27:133  contract cons{\r... */\n      mstore(0x40, 0x80)\n      callvalue\n      dup1\n      iszero\n      tag_1\n      jumpi\n      0x00\n      dup1\n      revert\n    tag_1:\n      pop\n      jumpi(tag_2, lt(calldatasize, 0x04))\n      shr(0xe0, calldataload(0x00))\n      dup1\n      0x262a9dff\n      eq\n      tag_3\n      jumpi\n    tag_2:\n      0x00\n      dup1\n      revert\n        /* \"overflow.sol\":53:68  uint public age */\n    tag_3:\n      tag_4\n      tag_5\n      jump\t// in\n    tag_4:\n      mload(0x40)\n      tag_6\n      swap2\n      swap1\n      tag_7\n      jump\t// in\n    tag_6:\n      mload(0x40)\n      dup1\n      swap2\n      sub\n      swap1\n      return\n    tag_5:\n      sload(0x00)\n      dup2\n      jump\t// out\n        /* \"#utility.yul\":7:125   */\n    tag_9:\n        /* \"#utility.yul\":94:118   */\n      tag_11\n        /* \"#utility.yul\":112:117   */\n      dup2\n        /* \"#utility.yul\":94:118   */\n      tag_12\n      jump\t// in\n    tag_11:\n        /* \"#utility.yul\":89:92   */\n      dup3\n        /* \"#utility.yul\":82:119   */\n      mstore\n        /* \"#utility.yul\":72:125   */\n      pop\n      pop\n      jump\t// out\n        /* \"#utility.yul\":131:353   */\n    tag_7:\n      0x00\n        /* \"#utility.yul\":262:264   */\n      0x20\n        /* \"#utility.yul\":251:260   */\n      dup3\n        /* \"#utility.yul\":247:265   */\n      add\n        /* \"#utility.yul\":239:265   */\n      swap1\n      pop\n        /* \"#utility.yul\":275:346   */\n      tag_14\n        /* \"#utility.yul\":343:344   */\n      0x00\n        /* \"#utility.yul\":332:341   */\n      dup4\n        /* \"#utility.yul\":328:345   */\n      add\n        /* \"#utility.yul\":319:325   */\n      dup5\n        /* \"#utility.yul\":275:346   */\n      tag_9\n      jump\t// in\n    tag_14:\n        /* \"#utility.yul\":229:353   */\n      swap3\n      swap2\n      pop\n      pop\n      jump\t// out\n        /* \"#utility.yul\":359:436   */\n    tag_12:\n      0x00\n        /* \"#utility.yul\":425:430   */\n      dup2\n        /* \"#utility.yul\":414:430   */\n      swap1\n      pop\n        /* \"#utility.yul\":404:436   */\n      swap2\n      swap1\n      pop\n      jump\t// out\n\n    auxdata: 0xa2646970667358221220ddc8a98b99bca9e51748fe6559a16d09fe9bef8795ecf205c4946416286dd7bd64736f6c63430008000033\n}\n",
				"bytecode": {
					"linkReferences": {},
					"object": "608060405234801561001057600080fd5b5060405161015f38038061015f83398181016040528101906100329190610054565b806000819055505061009e565b60008151905061004e81610087565b92915050565b60006020828403121561006657600080fd5b60006100748482850161003f565b91505092915050565b6000819050919050565b6100908161007d565b811461009b57600080fd5b50565b60b3806100ac6000396000f3fe6080604052348015600f57600080fd5b506004361060285760003560e01c8063262a9dff14602d575b600080fd5b60336047565b604051603e9190605a565b60405180910390f35b60005481565b6054816073565b82525050565b6000602082019050606d6000830184604d565b92915050565b600081905091905056fea2646970667358221220ddc8a98b99bca9e51748fe6559a16d09fe9bef8795ecf205c4946416286dd7bd64736f6c63430008000033",
					"opcodes": "PUSH1 0x80 PUSH1 0x40 MSTORE CALLVALUE DUP1 ISZERO PUSH2 0x10 JUMPI PUSH1 0x0 DUP1 REVERT JUMPDEST POP PUSH1 0x40 MLOAD PUSH2 0x15F CODESIZE SUB DUP1 PUSH2 0x15F DUP4 CODECOPY DUP2 DUP2 ADD PUSH1 0x40 MSTORE DUP2 ADD SWAP1 PUSH2 0x32 SWAP2 SWAP1 PUSH2 0x54 JUMP JUMPDEST DUP1 PUSH1 0x0 DUP2 SWAP1 SSTORE POP POP PUSH2 0x9E JUMP JUMPDEST PUSH1 0x0 DUP2 MLOAD SWAP1 POP PUSH2 0x4E DUP2 PUSH2 0x87 JUMP JUMPDEST SWAP3 SWAP2 POP POP JUMP JUMPDEST PUSH1 0x0 PUSH1 0x20 DUP3 DUP5 SUB SLT ISZERO PUSH2 0x66 JUMPI PUSH1 0x0 DUP1 REVERT JUMPDEST PUSH1 0x0 PUSH2 0x74 DUP5 DUP3 DUP6 ADD PUSH2 0x3F JUMP JUMPDEST SWAP2 POP POP SWAP3 SWAP2 POP POP JUMP JUMPDEST PUSH1 0x0 DUP2 SWAP1 POP SWAP2 SWAP1 POP JUMP JUMPDEST PUSH2 0x90 DUP2 PUSH2 0x7D JUMP JUMPDEST DUP2 EQ PUSH2 0x9B JUMPI PUSH1 0x0 DUP1 REVERT JUMPDEST POP JUMP JUMPDEST PUSH1 0xB3 DUP1 PUSH2 0xAC PUSH1 0x0 CODECOPY PUSH1 0x0 RETURN INVALID PUSH1 0x80 PUSH1 0x40 MSTORE CALLVALUE DUP1 ISZERO PUSH1 0xF JUMPI PUSH1 0x0 DUP1 REVERT JUMPDEST POP PUSH1 0x4 CALLDATASIZE LT PUSH1 0x28 JUMPI PUSH1 0x0 CALLDATALOAD PUSH1 0xE0 SHR DUP1 PUSH4 0x262A9DFF EQ PUSH1 0x2D JUMPI JUMPDEST PUSH1 0x0 DUP1 REVERT JUMPDEST PUSH1 0x33 PUSH1 0x47 JUMP JUMPDEST PUSH1 0x40 MLOAD PUSH1 0x3E SWAP2 SWAP1 PUSH1 0x5A JUMP JUMPDEST PUSH1 0x40 MLOAD DUP1 SWAP2 SUB SWAP1 RETURN JUMPDEST PUSH1 0x0 SLOAD DUP2 JUMP JUMPDEST PUSH1 0x54 DUP2 PUSH1 0x73 JUMP JUMPDEST DUP3 MSTORE POP POP JUMP JUMPDEST PUSH1 0x0 PUSH1 0x20 DUP3 ADD SWAP1 POP PUSH1 0x6D PUSH1 0x0 DUP4 ADD DUP5 PUSH1 0x4D JUMP JUMPDEST SWAP3 SWAP2 POP POP JUMP JUMPDEST PUSH1 0x0 DUP2 SWAP1 POP SWAP2 SWAP1 POP JUMP INVALID LOG2 PUSH5 0x6970667358 0x22 SLT KECCAK256 0xDD 0xC8 0xA9 DUP12 SWAP10 0xBC 0xA9 0xE5 OR 0x48 INVALID PUSH6 0x59A16D09FE9B 0xEF DUP8 SWAP6 0xEC CALLCODE SDIV 0xC4 SWAP5 PUSH5 0x16286DD7BD PUSH5 0x736F6C6343 STOP ADDMOD STOP STOP CALLER "
				},
				"gasEstimates": {
					"creation": {
						"codeDepositCost": "35800",
						"executionCost": "infinite",
						"totalCost": "infinite"
					},
					"external": {
						"age()": "1107"
					}
				},
				"methodIdentifiers": {
					"age()": "262a9dff"
				}
			},
			"storageLayout": {
				"storage": [
					{
						"astId": 3,
						"contract": "overflow.sol:cons",
						"label": "age",
						"offset": 0,
						"slot": "0",
						"type": "t_uint256"
					}
				],
				"types": {
					"t_uint256": {
						"encoding": "inplace",
						"label": "uint256",
						"numberOfBytes": "32"
					}
				}
			},
			"userdoc": {
				"kind": "user",
				"methods": {},
				"version": 1
			}
		}
	}
}