{
	"LotterySystem/lottery.sol": {
		"lottery": {
			"abi": [
				{
					"inputs": [],
					"stateMutability": "nonpayable",
					"type": "constructor"
				},
				{
					"inputs": [],
					"name": "manager",
					"outputs": [
						{
							"internalType": "address",
							"name": "",
							"type": "address"
						}
					],
					"stateMutability": "view",
					"type": "function"
				},
				{
					"inputs": [
						{
							"internalType": "uint256",
							"name": "",
							"type": "uint256"
						}
					],
					"name": "participants",
					"outputs": [
						{
							"internalType": "address payable",
							"name": "",
							"type": "address"
						}
					],
					"stateMutability": "view",
					"type": "function"
				},
				{
					"stateMutability": "payable",
					"type": "receive"
				}
			],
			"devdoc": {
				"kind": "dev",
				"methods": {},
				"version": 1
			},
			"evm": {
				"assembly": "    /* \"LotterySystem/lottery.sol\":27:305  contract lottery{\r... */\n  mstore(0x40, 0x80)\n    /* \"LotterySystem/lottery.sol\":125:175  constructor(){\r... */\n  callvalue\n  dup1\n  iszero\n  tag_1\n  jumpi\n  0x00\n  dup1\n  revert\ntag_1:\n  pop\n    /* \"LotterySystem/lottery.sol\":157:167  msg.sender */\n  caller\n    /* \"LotterySystem/lottery.sol\":149:156  manager */\n  0x00\n  dup1\n    /* \"LotterySystem/lottery.sol\":149:167  manager=msg.sender */\n  0x0100\n  exp\n  dup2\n  sload\n  dup2\n  0xffffffffffffffffffffffffffffffffffffffff\n  mul\n  not\n  and\n  swap1\n  dup4\n  0xffffffffffffffffffffffffffffffffffffffff\n  and\n  mul\n  or\n  swap1\n  sstore\n  pop\n    /* \"LotterySystem/lottery.sol\":27:305  contract lottery{\r... */\n  dataSize(sub_0)\n  dup1\n  dataOffset(sub_0)\n  0x00\n  codecopy\n  0x00\n  return\nstop\n\nsub_0: assembly {\n        /* \"LotterySystem/lottery.sol\":27:305  contract lottery{\r... */\n      mstore(0x40, 0x80)\n      jumpi(tag_1, lt(calldatasize, 0x04))\n      shr(0xe0, calldataload(0x00))\n      dup1\n      0x35c1d349\n      eq\n      tag_3\n      jumpi\n      dup1\n      0x481c6a75\n      eq\n      tag_4\n      jumpi\n      jump(tag_2)\n    tag_1:\n      jumpi(tag_2, calldatasize)\n        /* \"LotterySystem/lottery.sol\":237:244  1 ether */\n      0x0de0b6b3a7640000\n        /* \"LotterySystem/lottery.sol\":226:235  msg.value */\n      callvalue\n        /* \"LotterySystem/lottery.sol\":226:244  msg.value==1 ether */\n      eq\n        /* \"LotterySystem/lottery.sol\":218:245  require(msg.value==1 ether) */\n      tag_7\n      jumpi\n      0x00\n      dup1\n      revert\n    tag_7:\n        /* \"LotterySystem/lottery.sol\":256:268  participants */\n      0x01\n        /* \"LotterySystem/lottery.sol\":282:292  msg.sender */\n      caller\n        /* \"LotterySystem/lottery.sol\":256:294  participants.push(payable(msg.sender)) */\n      swap1\n      dup1\n      0x01\n      dup2\n      sload\n      add\n      dup1\n      dup3\n      sstore\n      dup1\n      swap2\n      pop\n      pop\n      0x01\n      swap1\n      sub\n      swap1\n      0x00\n      mstore\n      keccak256(0x00, 0x20)\n      add\n      0x00\n      swap1\n      swap2\n      swap1\n      swap2\n      swap1\n      swap2\n      0x0100\n      exp\n      dup2\n      sload\n      dup2\n      0xffffffffffffffffffffffffffffffffffffffff\n      mul\n      not\n      and\n      swap1\n      dup4\n      0xffffffffffffffffffffffffffffffffffffffff\n      and\n      mul\n      or\n      swap1\n      sstore\n      pop\n        /* \"LotterySystem/lottery.sol\":27:305  contract lottery{\r... */\n      stop\n    tag_2:\n      0x00\n      dup1\n      revert\n        /* \"LotterySystem/lottery.sol\":79:116  address payable[] public participants */\n    tag_3:\n      callvalue\n      dup1\n      iszero\n      tag_9\n      jumpi\n      0x00\n      dup1\n      revert\n    tag_9:\n      pop\n      tag_10\n      0x04\n      dup1\n      calldatasize\n      sub\n      dup2\n      add\n      swap1\n      tag_11\n      swap2\n      swap1\n      tag_12\n      jump\t// in\n    tag_11:\n      tag_13\n      jump\t// in\n    tag_10:\n      mload(0x40)\n      tag_14\n      swap2\n      swap1\n      tag_15\n      jump\t// in\n    tag_14:\n      mload(0x40)\n      dup1\n      swap2\n      sub\n      swap1\n      return\n        /* \"LotterySystem/lottery.sol\":50:72  address public manager */\n    tag_4:\n      callvalue\n      dup1\n      iszero\n      tag_16\n      jumpi\n      0x00\n      dup1\n      revert\n    tag_16:\n      pop\n      tag_17\n      tag_18\n      jump\t// in\n    tag_17:\n      mload(0x40)\n      tag_19\n      swap2\n      swap1\n      tag_20\n      jump\t// in\n    tag_19:\n      mload(0x40)\n      dup1\n      swap2\n      sub\n      swap1\n      return\n        /* \"LotterySystem/lottery.sol\":79:116  address payable[] public participants */\n    tag_13:\n      0x01\n      dup2\n      dup2\n      sload\n      dup2\n      lt\n      tag_21\n      jumpi\n      0x00\n      dup1\n      revert\n    tag_21:\n      swap1\n      0x00\n      mstore\n      keccak256(0x00, 0x20)\n      add\n      0x00\n      swap2\n      pop\n      sload\n      swap1\n      0x0100\n      exp\n      swap1\n      div\n      0xffffffffffffffffffffffffffffffffffffffff\n      and\n      dup2\n      jump\t// out\n        /* \"LotterySystem/lottery.sol\":50:72  address public manager */\n    tag_18:\n      0x00\n      dup1\n      sload\n      swap1\n      0x0100\n      exp\n      swap1\n      div\n      0xffffffffffffffffffffffffffffffffffffffff\n      and\n      dup2\n      jump\t// out\n        /* \"#utility.yul\":7:146   */\n    tag_24:\n      0x00\n        /* \"#utility.yul\":91:97   */\n      dup2\n        /* \"#utility.yul\":78:98   */\n      calldataload\n        /* \"#utility.yul\":69:98   */\n      swap1\n      pop\n        /* \"#utility.yul\":107:140   */\n      tag_26\n        /* \"#utility.yul\":134:139   */\n      dup2\n        /* \"#utility.yul\":107:140   */\n      tag_27\n      jump\t// in\n    tag_26:\n        /* \"#utility.yul\":59:146   */\n      swap3\n      swap2\n      pop\n      pop\n      jump\t// out\n        /* \"#utility.yul\":152:414   */\n    tag_12:\n      0x00\n        /* \"#utility.yul\":260:262   */\n      0x20\n        /* \"#utility.yul\":248:257   */\n      dup3\n        /* \"#utility.yul\":239:246   */\n      dup5\n        /* \"#utility.yul\":235:258   */\n      sub\n        /* \"#utility.yul\":231:263   */\n      slt\n        /* \"#utility.yul\":228:230   */\n      iszero\n      tag_29\n      jumpi\n        /* \"#utility.yul\":276:277   */\n      0x00\n        /* \"#utility.yul\":273:274   */\n      dup1\n        /* \"#utility.yul\":266:278   */\n      revert\n        /* \"#utility.yul\":228:230   */\n    tag_29:\n        /* \"#utility.yul\":319:320   */\n      0x00\n        /* \"#utility.yul\":344:397   */\n      tag_30\n        /* \"#utility.yul\":389:396   */\n      dup5\n        /* \"#utility.yul\":380:386   */\n      dup3\n        /* \"#utility.yul\":369:378   */\n      dup6\n        /* \"#utility.yul\":365:387   */\n      add\n        /* \"#utility.yul\":344:397   */\n      tag_24\n      jump\t// in\n    tag_30:\n        /* \"#utility.yul\":334:397   */\n      swap2\n      pop\n        /* \"#utility.yul\":290:407   */\n      pop\n        /* \"#utility.yul\":218:414   */\n      swap3\n      swap2\n      pop\n      pop\n      jump\t// out\n        /* \"#utility.yul\":420:562   */\n    tag_31:\n        /* \"#utility.yul\":523:555   */\n      tag_33\n        /* \"#utility.yul\":549:554   */\n      dup2\n        /* \"#utility.yul\":523:555   */\n      tag_34\n      jump\t// in\n    tag_33:\n        /* \"#utility.yul\":518:521   */\n      dup3\n        /* \"#utility.yul\":511:556   */\n      mstore\n        /* \"#utility.yul\":501:562   */\n      pop\n      pop\n      jump\t// out\n        /* \"#utility.yul\":568:686   */\n    tag_35:\n        /* \"#utility.yul\":655:679   */\n      tag_37\n        /* \"#utility.yul\":673:678   */\n      dup2\n        /* \"#utility.yul\":655:679   */\n      tag_38\n      jump\t// in\n    tag_37:\n        /* \"#utility.yul\":650:653   */\n      dup3\n        /* \"#utility.yul\":643:680   */\n      mstore\n        /* \"#utility.yul\":633:686   */\n      pop\n      pop\n      jump\t// out\n        /* \"#utility.yul\":692:914   */\n    tag_20:\n      0x00\n        /* \"#utility.yul\":823:825   */\n      0x20\n        /* \"#utility.yul\":812:821   */\n      dup3\n        /* \"#utility.yul\":808:826   */\n      add\n        /* \"#utility.yul\":800:826   */\n      swap1\n      pop\n        /* \"#utility.yul\":836:907   */\n      tag_40\n        /* \"#utility.yul\":904:905   */\n      0x00\n        /* \"#utility.yul\":893:902   */\n      dup4\n        /* \"#utility.yul\":889:906   */\n      add\n        /* \"#utility.yul\":880:886   */\n      dup5\n        /* \"#utility.yul\":836:907   */\n      tag_35\n      jump\t// in\n    tag_40:\n        /* \"#utility.yul\":790:914   */\n      swap3\n      swap2\n      pop\n      pop\n      jump\t// out\n        /* \"#utility.yul\":920:1174   */\n    tag_15:\n      0x00\n        /* \"#utility.yul\":1067:1069   */\n      0x20\n        /* \"#utility.yul\":1056:1065   */\n      dup3\n        /* \"#utility.yul\":1052:1070   */\n      add\n        /* \"#utility.yul\":1044:1070   */\n      swap1\n      pop\n        /* \"#utility.yul\":1080:1167   */\n      tag_42\n        /* \"#utility.yul\":1164:1165   */\n      0x00\n        /* \"#utility.yul\":1153:1162   */\n      dup4\n        /* \"#utility.yul\":1149:1166   */\n      add\n        /* \"#utility.yul\":1140:1146   */\n      dup5\n        /* \"#utility.yul\":1080:1167   */\n      tag_31\n      jump\t// in\n    tag_42:\n        /* \"#utility.yul\":1034:1174   */\n      swap3\n      swap2\n      pop\n      pop\n      jump\t// out\n        /* \"#utility.yul\":1180:1276   */\n    tag_38:\n      0x00\n        /* \"#utility.yul\":1246:1270   */\n      tag_44\n        /* \"#utility.yul\":1264:1269   */\n      dup3\n        /* \"#utility.yul\":1246:1270   */\n      tag_45\n      jump\t// in\n    tag_44:\n        /* \"#utility.yul\":1235:1270   */\n      swap1\n      pop\n        /* \"#utility.yul\":1225:1276   */\n      swap2\n      swap1\n      pop\n      jump\t// out\n        /* \"#utility.yul\":1282:1386   */\n    tag_34:\n      0x00\n        /* \"#utility.yul\":1356:1380   */\n      tag_47\n        /* \"#utility.yul\":1374:1379   */\n      dup3\n        /* \"#utility.yul\":1356:1380   */\n      tag_45\n      jump\t// in\n    tag_47:\n        /* \"#utility.yul\":1345:1380   */\n      swap1\n      pop\n        /* \"#utility.yul\":1335:1386   */\n      swap2\n      swap1\n      pop\n      jump\t// out\n        /* \"#utility.yul\":1392:1518   */\n    tag_45:\n      0x00\n        /* \"#utility.yul\":1469:1511   */\n      0xffffffffffffffffffffffffffffffffffffffff\n        /* \"#utility.yul\":1462:1467   */\n      dup3\n        /* \"#utility.yul\":1458:1512   */\n      and\n        /* \"#utility.yul\":1447:1512   */\n      swap1\n      pop\n        /* \"#utility.yul\":1437:1518   */\n      swap2\n      swap1\n      pop\n      jump\t// out\n        /* \"#utility.yul\":1524:1601   */\n    tag_49:\n      0x00\n        /* \"#utility.yul\":1590:1595   */\n      dup2\n        /* \"#utility.yul\":1579:1595   */\n      swap1\n      pop\n        /* \"#utility.yul\":1569:1601   */\n      swap2\n      swap1\n      pop\n      jump\t// out\n        /* \"#utility.yul\":1607:1729   */\n    tag_27:\n        /* \"#utility.yul\":1680:1704   */\n      tag_52\n        /* \"#utility.yul\":1698:1703   */\n      dup2\n        /* \"#utility.yul\":1680:1704   */\n      tag_49\n      jump\t// in\n    tag_52:\n        /* \"#utility.yul\":1673:1678   */\n      dup2\n        /* \"#utility.yul\":1670:1705   */\n      eq\n        /* \"#utility.yul\":1660:1662   */\n      tag_53\n      jumpi\n        /* \"#utility.yul\":1719:1720   */\n      0x00\n        /* \"#utility.yul\":1716:1717   */\n      dup1\n        /* \"#utility.yul\":1709:1721   */\n      revert\n        /* \"#utility.yul\":1660:1662   */\n    tag_53:\n        /* \"#utility.yul\":1650:1729   */\n      pop\n      jump\t// out\n\n    auxdata: 0xa2646970667358221220888ac7c4e8bb9a10482a9eaae4fa66e71e49795f66e01a6075e50f38ece47d8964736f6c63430008000033\n}\n",
				"bytecode": {
					"linkReferences": {},
					"object": "608060405234801561001057600080fd5b50336000806101000a81548173ffffffffffffffffffffffffffffffffffffffff021916908373ffffffffffffffffffffffffffffffffffffffff1602179055506102a8806100606000396000f3fe60806040526004361061002d5760003560e01c806335c1d349146100b0578063481c6a75146100ed576100ab565b366100ab57670de0b6b3a7640000341461004657600080fd5b6001339080600181540180825580915050600190039060005260206000200160009091909190916101000a81548173ffffffffffffffffffffffffffffffffffffffff021916908373ffffffffffffffffffffffffffffffffffffffff160217905550005b600080fd5b3480156100bc57600080fd5b506100d760048036038101906100d29190610190565b610118565b6040516100e491906101f2565b60405180910390f35b3480156100f957600080fd5b50610102610157565b60405161010f91906101d7565b60405180910390f35b6001818154811061012857600080fd5b906000526020600020016000915054906101000a900473ffffffffffffffffffffffffffffffffffffffff1681565b60008054906101000a900473ffffffffffffffffffffffffffffffffffffffff1681565b60008135905061018a8161025b565b92915050565b6000602082840312156101a257600080fd5b60006101b08482850161017b565b91505092915050565b6101c28161021f565b82525050565b6101d18161020d565b82525050565b60006020820190506101ec60008301846101c8565b92915050565b600060208201905061020760008301846101b9565b92915050565b600061021882610231565b9050919050565b600061022a82610231565b9050919050565b600073ffffffffffffffffffffffffffffffffffffffff82169050919050565b6000819050919050565b61026481610251565b811461026f57600080fd5b5056fea2646970667358221220888ac7c4e8bb9a10482a9eaae4fa66e71e49795f66e01a6075e50f38ece47d8964736f6c63430008000033",
					"opcodes": "PUSH1 0x80 PUSH1 0x40 MSTORE CALLVALUE DUP1 ISZERO PUSH2 0x10 JUMPI PUSH1 0x0 DUP1 REVERT JUMPDEST POP CALLER PUSH1 0x0 DUP1 PUSH2 0x100 EXP DUP2 SLOAD DUP2 PUSH20 0xFFFFFFFFFFFFFFFFFFFFFFFFFFFFFFFFFFFFFFFF MUL NOT AND SWAP1 DUP4 PUSH20 0xFFFFFFFFFFFFFFFFFFFFFFFFFFFFFFFFFFFFFFFF AND MUL OR SWAP1 SSTORE POP PUSH2 0x2A8 DUP1 PUSH2 0x60 PUSH1 0x0 CODECOPY PUSH1 0x0 RETURN INVALID PUSH1 0x80 PUSH1 0x40 MSTORE PUSH1 0x4 CALLDATASIZE LT PUSH2 0x2D JUMPI PUSH1 0x0 CALLDATALOAD PUSH1 0xE0 SHR DUP1 PUSH4 0x35C1D349 EQ PUSH2 0xB0 JUMPI DUP1 PUSH4 0x481C6A75 EQ PUSH2 0xED JUMPI PUSH2 0xAB JUMP JUMPDEST CALLDATASIZE PUSH2 0xAB JUMPI PUSH8 0xDE0B6B3A7640000 CALLVALUE EQ PUSH2 0x46 JUMPI PUSH1 0x0 DUP1 REVERT JUMPDEST PUSH1 0x1 CALLER SWAP1 DUP1 PUSH1 0x1 DUP2 SLOAD ADD DUP1 DUP3 SSTORE DUP1 SWAP2 POP POP PUSH1 0x1 SWAP1 SUB SWAP1 PUSH1 0x0 MSTORE PUSH1 0x20 PUSH1 0x0 KECCAK256 ADD PUSH1 0x0 SWAP1 SWAP2 SWAP1 SWAP2 SWAP1 SWAP2 PUSH2 0x100 EXP DUP2 SLOAD DUP2 PUSH20 0xFFFFFFFFFFFFFFFFFFFFFFFFFFFFFFFFFFFFFFFF MUL NOT AND SWAP1 DUP4 PUSH20 0xFFFFFFFFFFFFFFFFFFFFFFFFFFFFFFFFFFFFFFFF AND MUL OR SWAP1 SSTORE POP STOP JUMPDEST PUSH1 0x0 DUP1 REVERT JUMPDEST CALLVALUE DUP1 ISZERO PUSH2 0xBC JUMPI PUSH1 0x0 DUP1 REVERT JUMPDEST POP PUSH2 0xD7 PUSH1 0x4 DUP1 CALLDATASIZE SUB DUP2 ADD SWAP1 PUSH2 0xD2 SWAP2 SWAP1 PUSH2 0x190 JUMP JUMPDEST PUSH2 0x118 JUMP JUMPDEST PUSH1 0x40 MLOAD PUSH2 0xE4 SWAP2 SWAP1 PUSH2 0x1F2 JUMP JUMPDEST PUSH1 0x40 MLOAD DUP1 SWAP2 SUB SWAP1 RETURN JUMPDEST CALLVALUE DUP1 ISZERO PUSH2 0xF9 JUMPI PUSH1 0x0 DUP1 REVERT JUMPDEST POP PUSH2 0x102 PUSH2 0x157 JUMP JUMPDEST PUSH1 0x40 MLOAD PUSH2 0x10F SWAP2 SWAP1 PUSH2 0x1D7 JUMP JUMPDEST PUSH1 0x40 MLOAD DUP1 SWAP2 SUB SWAP1 RETURN JUMPDEST PUSH1 0x1 DUP2 DUP2 SLOAD DUP2 LT PUSH2 0x128 JUMPI PUSH1 0x0 DUP1 REVERT JUMPDEST SWAP1 PUSH1 0x0 MSTORE PUSH1 0x20 PUSH1 0x0 KECCAK256 ADD PUSH1 0x0 SWAP2 POP SLOAD SWAP1 PUSH2 0x100 EXP SWAP1 DIV PUSH20 0xFFFFFFFFFFFFFFFFFFFFFFFFFFFFFFFFFFFFFFFF AND DUP2 JUMP JUMPDEST PUSH1 0x0 DUP1 SLOAD SWAP1 PUSH2 0x100 EXP SWAP1 DIV PUSH20 0xFFFFFFFFFFFFFFFFFFFFFFFFFFFFFFFFFFFFFFFF AND DUP2 JUMP JUMPDEST PUSH1 0x0 DUP2 CALLDATALOAD SWAP1 POP PUSH2 0x18A DUP2 PUSH2 0x25B JUMP JUMPDEST SWAP3 SWAP2 POP POP JUMP JUMPDEST PUSH1 0x0 PUSH1 0x20 DUP3 DUP5 SUB SLT ISZERO PUSH2 0x1A2 JUMPI PUSH1 0x0 DUP1 REVERT JUMPDEST PUSH1 0x0 PUSH2 0x1B0 DUP5 DUP3 DUP6 ADD PUSH2 0x17B JUMP JUMPDEST SWAP2 POP POP SWAP3 SWAP2 POP POP JUMP JUMPDEST PUSH2 0x1C2 DUP2 PUSH2 0x21F JUMP JUMPDEST DUP3 MSTORE POP POP JUMP JUMPDEST PUSH2 0x1D1 DUP2 PUSH2 0x20D JUMP JUMPDEST DUP3 MSTORE POP POP JUMP JUMPDEST PUSH1 0x0 PUSH1 0x20 DUP3 ADD SWAP1 POP PUSH2 0x1EC PUSH1 0x0 DUP4 ADD DUP5 PUSH2 0x1C8 JUMP JUMPDEST SWAP3 SWAP2 POP POP JUMP JUMPDEST PUSH1 0x0 PUSH1 0x20 DUP3 ADD SWAP1 POP PUSH2 0x207 PUSH1 0x0 DUP4 ADD DUP5 PUSH2 0x1B9 JUMP JUMPDEST SWAP3 SWAP2 POP POP JUMP JUMPDEST PUSH1 0x0 PUSH2 0x218 DUP3 PUSH2 0x231 JUMP JUMPDEST SWAP1 POP SWAP2 SWAP1 POP JUMP JUMPDEST PUSH1 0x0 PUSH2 0x22A DUP3 PUSH2 0x231 JUMP JUMPDEST SWAP1 POP SWAP2 SWAP1 POP JUMP JUMPDEST PUSH1 0x0 PUSH20 0xFFFFFFFFFFFFFFFFFFFFFFFFFFFFFFFFFFFFFFFF DUP3 AND SWAP1 POP SWAP2 SWAP1 POP JUMP JUMPDEST PUSH1 0x0 DUP2 SWAP1 POP SWAP2 SWAP1 POP JUMP JUMPDEST PUSH2 0x264 DUP2 PUSH2 0x251 JUMP JUMPDEST DUP2 EQ PUSH2 0x26F JUMPI PUSH1 0x0 DUP1 REVERT JUMPDEST POP JUMP INVALID LOG2 PUSH5 0x6970667358 0x22 SLT KECCAK256 DUP9 DUP11 0xC7 0xC4 0xE8 0xBB SWAP11 LT 0x48 0x2A SWAP15 0xAA 0xE4 STATICCALL PUSH7 0xE71E49795F66E0 BYTE PUSH1 0x75 0xE5 0xF CODESIZE 0xEC 0xE4 PUSH30 0x8964736F6C63430008000033000000000000000000000000000000000000 "
				},
				"gasEstimates": {
					"creation": {
						"codeDepositCost": "136000",
						"executionCost": "21049",
						"totalCost": "157049"
					},
					"external": {
						"manager()": "1211",
						"participants(uint256)": "2334"
					}
				},
				"methodIdentifiers": {
					"manager()": "481c6a75",
					"participants(uint256)": "35c1d349"
				}
			},
			"storageLayout": {
				"storage": [
					{
						"astId": 3,
						"contract": "LotterySystem/lottery.sol:lottery",
						"label": "manager",
						"offset": 0,
						"slot": "0",
						"type": "t_address"
					},
					{
						"astId": 6,
						"contract": "LotterySystem/lottery.sol:lottery",
						"label": "participants",
						"offset": 0,
						"slot": "1",
						"type": "t_array(t_address_payable)dyn_storage"
					}
				],
				"types": {
					"t_address": {
						"encoding": "inplace",
						"label": "address",
						"numberOfBytes": "20"
					},
					"t_address_payable": {
						"encoding": "inplace",
						"label": "address payable",
						"numberOfBytes": "20"
					},
					"t_array(t_address_payable)dyn_storage": {
						"base": "t_address_payable",
						"encoding": "dynamic_array",
						"label": "address payable[]",
						"numberOfBytes": "32"
					}
				}
			},
			"userdoc": {
				"kind": "user",
				"methods": {},
				"version": 1
			}
		}
	}
}