{
	"tickets/tickets.sol": {
		"ticket": {
			"abi": [
				{
					"inputs": [
						{
							"internalType": "uint256",
							"name": "",
							"type": "uint256"
						}
					],
					"name": "events",
					"outputs": [
						{
							"internalType": "address",
							"name": "organizer",
							"type": "address"
						},
						{
							"internalType": "string",
							"name": "name",
							"type": "string"
						},
						{
							"internalType": "uint256",
							"name": "date",
							"type": "uint256"
						},
						{
							"internalType": "uint256",
							"name": "price",
							"type": "uint256"
						},
						{
							"internalType": "uint256",
							"name": "ticketCount",
							"type": "uint256"
						},
						{
							"internalType": "uint256",
							"name": "ticketRemaining",
							"type": "uint256"
						}
					],
					"stateMutability": "view",
					"type": "function"
				}
			],
			"devdoc": {
				"kind": "dev",
				"methods": {},
				"version": 1
			},
			"evm": {
				"assembly": "    /* \"tickets/tickets.sol\":27:272  contract ticket {\r... */\n  mstore(0x40, 0x80)\n  callvalue\n  dup1\n  iszero\n  tag_1\n  jumpi\n  0x00\n  dup1\n  revert\ntag_1:\n  pop\n  dataSize(sub_0)\n  dup1\n  dataOffset(sub_0)\n  0x00\n  codecopy\n  0x00\n  return\nstop\n\nsub_0: assembly {\n        /* \"tickets/tickets.sol\":27:272  contract ticket {\r... */\n      mstore(0x40, 0x80)\n      callvalue\n      dup1\n      iszero\n      tag_1\n      jumpi\n      0x00\n      dup1\n      revert\n    tag_1:\n      pop\n      jumpi(tag_2, lt(calldatasize, 0x04))\n      shr(0xe0, calldataload(0x00))\n      dup1\n      0x0b791430\n      eq\n      tag_3\n      jumpi\n    tag_2:\n      0x00\n      dup1\n      revert\n        /* \"tickets/tickets.sol\":228:262  mapping(uint=>Event) public events */\n    tag_3:\n      tag_4\n      0x04\n      dup1\n      calldatasize\n      sub\n      dup2\n      add\n      swap1\n      tag_5\n      swap2\n      swap1\n      tag_6\n      jump\t// in\n    tag_5:\n      tag_7\n      jump\t// in\n    tag_4:\n      mload(0x40)\n      tag_8\n      swap7\n      swap6\n      swap5\n      swap4\n      swap3\n      swap2\n      swap1\n      tag_9\n      jump\t// in\n    tag_8:\n      mload(0x40)\n      dup1\n      swap2\n      sub\n      swap1\n      return\n    tag_7:\n      mstore(0x20, 0x00)\n      dup1\n      0x00\n      mstore\n      keccak256(0x00, 0x40)\n      0x00\n      swap2\n      pop\n      swap1\n      pop\n      dup1\n      0x00\n      add\n      0x00\n      swap1\n      sload\n      swap1\n      0x0100\n      exp\n      swap1\n      div\n      0xffffffffffffffffffffffffffffffffffffffff\n      and\n      swap1\n      dup1\n      0x01\n      add\n      dup1\n      sload\n      tag_10\n      swap1\n      tag_11\n      jump\t// in\n    tag_10:\n      dup1\n      0x1f\n      add\n      0x20\n      dup1\n      swap2\n      div\n      mul\n      0x20\n      add\n      mload(0x40)\n      swap1\n      dup2\n      add\n      0x40\n      mstore\n      dup1\n      swap3\n      swap2\n      swap1\n      dup2\n      dup2\n      mstore\n      0x20\n      add\n      dup3\n      dup1\n      sload\n      tag_12\n      swap1\n      tag_11\n      jump\t// in\n    tag_12:\n      dup1\n      iszero\n      tag_13\n      jumpi\n      dup1\n      0x1f\n      lt\n      tag_14\n      jumpi\n      0x0100\n      dup1\n      dup4\n      sload\n      div\n      mul\n      dup4\n      mstore\n      swap2\n      0x20\n      add\n      swap2\n      jump(tag_13)\n    tag_14:\n      dup3\n      add\n      swap2\n      swap1\n      0x00\n      mstore\n      keccak256(0x00, 0x20)\n      swap1\n    tag_15:\n      dup2\n      sload\n      dup2\n      mstore\n      swap1\n      0x01\n      add\n      swap1\n      0x20\n      add\n      dup1\n      dup4\n      gt\n      tag_15\n      jumpi\n      dup3\n      swap1\n      sub\n      0x1f\n      and\n      dup3\n      add\n      swap2\n    tag_13:\n      pop\n      pop\n      pop\n      pop\n      pop\n      swap1\n      dup1\n      0x02\n      add\n      sload\n      swap1\n      dup1\n      0x03\n      add\n      sload\n      swap1\n      dup1\n      0x04\n      add\n      sload\n      swap1\n      dup1\n      0x05\n      add\n      sload\n      swap1\n      pop\n      dup7\n      jump\t// out\n        /* \"#utility.yul\":7:146   */\n    tag_17:\n      0x00\n        /* \"#utility.yul\":91:97   */\n      dup2\n        /* \"#utility.yul\":78:98   */\n      calldataload\n        /* \"#utility.yul\":69:98   */\n      swap1\n      pop\n        /* \"#utility.yul\":107:140   */\n      tag_19\n        /* \"#utility.yul\":134:139   */\n      dup2\n        /* \"#utility.yul\":107:140   */\n      tag_20\n      jump\t// in\n    tag_19:\n        /* \"#utility.yul\":59:146   */\n      swap3\n      swap2\n      pop\n      pop\n      jump\t// out\n        /* \"#utility.yul\":152:414   */\n    tag_6:\n      0x00\n        /* \"#utility.yul\":260:262   */\n      0x20\n        /* \"#utility.yul\":248:257   */\n      dup3\n        /* \"#utility.yul\":239:246   */\n      dup5\n        /* \"#utility.yul\":235:258   */\n      sub\n        /* \"#utility.yul\":231:263   */\n      slt\n        /* \"#utility.yul\":228:230   */\n      iszero\n      tag_22\n      jumpi\n        /* \"#utility.yul\":276:277   */\n      0x00\n        /* \"#utility.yul\":273:274   */\n      dup1\n        /* \"#utility.yul\":266:278   */\n      revert\n        /* \"#utility.yul\":228:230   */\n    tag_22:\n        /* \"#utility.yul\":319:320   */\n      0x00\n        /* \"#utility.yul\":344:397   */\n      tag_23\n        /* \"#utility.yul\":389:396   */\n      dup5\n        /* \"#utility.yul\":380:386   */\n      dup3\n        /* \"#utility.yul\":369:378   */\n      dup6\n        /* \"#utility.yul\":365:387   */\n      add\n        /* \"#utility.yul\":344:397   */\n      tag_17\n      jump\t// in\n    tag_23:\n        /* \"#utility.yul\":334:397   */\n      swap2\n      pop\n        /* \"#utility.yul\":290:407   */\n      pop\n        /* \"#utility.yul\":218:414   */\n      swap3\n      swap2\n      pop\n      pop\n      jump\t// out\n        /* \"#utility.yul\":420:538   */\n    tag_24:\n        /* \"#utility.yul\":507:531   */\n      tag_26\n        /* \"#utility.yul\":525:530   */\n      dup2\n        /* \"#utility.yul\":507:531   */\n      tag_27\n      jump\t// in\n    tag_26:\n        /* \"#utility.yul\":502:505   */\n      dup3\n        /* \"#utility.yul\":495:532   */\n      mstore\n        /* \"#utility.yul\":485:538   */\n      pop\n      pop\n      jump\t// out\n        /* \"#utility.yul\":544:908   */\n    tag_28:\n      0x00\n        /* \"#utility.yul\":660:699   */\n      tag_30\n        /* \"#utility.yul\":693:698   */\n      dup3\n        /* \"#utility.yul\":660:699   */\n      tag_31\n      jump\t// in\n    tag_30:\n        /* \"#utility.yul\":715:786   */\n      tag_32\n        /* \"#utility.yul\":779:785   */\n      dup2\n        /* \"#utility.yul\":774:777   */\n      dup6\n        /* \"#utility.yul\":715:786   */\n      tag_33\n      jump\t// in\n    tag_32:\n        /* \"#utility.yul\":708:786   */\n      swap4\n      pop\n        /* \"#utility.yul\":795:847   */\n      tag_34\n        /* \"#utility.yul\":840:846   */\n      dup2\n        /* \"#utility.yul\":835:838   */\n      dup6\n        /* \"#utility.yul\":828:832   */\n      0x20\n        /* \"#utility.yul\":821:826   */\n      dup7\n        /* \"#utility.yul\":817:833   */\n      add\n        /* \"#utility.yul\":795:847   */\n      tag_35\n      jump\t// in\n    tag_34:\n        /* \"#utility.yul\":872:901   */\n      tag_36\n        /* \"#utility.yul\":894:900   */\n      dup2\n        /* \"#utility.yul\":872:901   */\n      tag_37\n      jump\t// in\n    tag_36:\n        /* \"#utility.yul\":867:870   */\n      dup5\n        /* \"#utility.yul\":863:902   */\n      add\n        /* \"#utility.yul\":856:902   */\n      swap2\n      pop\n        /* \"#utility.yul\":636:908   */\n      pop\n      swap3\n      swap2\n      pop\n      pop\n      jump\t// out\n        /* \"#utility.yul\":914:1032   */\n    tag_38:\n        /* \"#utility.yul\":1001:1025   */\n      tag_40\n        /* \"#utility.yul\":1019:1024   */\n      dup2\n        /* \"#utility.yul\":1001:1025   */\n      tag_41\n      jump\t// in\n    tag_40:\n        /* \"#utility.yul\":996:999   */\n      dup3\n        /* \"#utility.yul\":989:1026   */\n      mstore\n        /* \"#utility.yul\":979:1032   */\n      pop\n      pop\n      jump\t// out\n        /* \"#utility.yul\":1038:1904   */\n    tag_9:\n      0x00\n        /* \"#utility.yul\":1329:1332   */\n      0xc0\n        /* \"#utility.yul\":1318:1327   */\n      dup3\n        /* \"#utility.yul\":1314:1333   */\n      add\n        /* \"#utility.yul\":1306:1333   */\n      swap1\n      pop\n        /* \"#utility.yul\":1343:1414   */\n      tag_43\n        /* \"#utility.yul\":1411:1412   */\n      0x00\n        /* \"#utility.yul\":1400:1409   */\n      dup4\n        /* \"#utility.yul\":1396:1413   */\n      add\n        /* \"#utility.yul\":1387:1393   */\n      dup10\n        /* \"#utility.yul\":1343:1414   */\n      tag_24\n      jump\t// in\n    tag_43:\n        /* \"#utility.yul\":1461:1470   */\n      dup2\n        /* \"#utility.yul\":1455:1459   */\n      dup2\n        /* \"#utility.yul\":1451:1471   */\n      sub\n        /* \"#utility.yul\":1446:1448   */\n      0x20\n        /* \"#utility.yul\":1435:1444   */\n      dup4\n        /* \"#utility.yul\":1431:1449   */\n      add\n        /* \"#utility.yul\":1424:1472   */\n      mstore\n        /* \"#utility.yul\":1489:1567   */\n      tag_44\n        /* \"#utility.yul\":1562:1566   */\n      dup2\n        /* \"#utility.yul\":1553:1559   */\n      dup9\n        /* \"#utility.yul\":1489:1567   */\n      tag_28\n      jump\t// in\n    tag_44:\n        /* \"#utility.yul\":1481:1567   */\n      swap1\n      pop\n        /* \"#utility.yul\":1577:1649   */\n      tag_45\n        /* \"#utility.yul\":1645:1647   */\n      0x40\n        /* \"#utility.yul\":1634:1643   */\n      dup4\n        /* \"#utility.yul\":1630:1648   */\n      add\n        /* \"#utility.yul\":1621:1627   */\n      dup8\n        /* \"#utility.yul\":1577:1649   */\n      tag_38\n      jump\t// in\n    tag_45:\n        /* \"#utility.yul\":1659:1731   */\n      tag_46\n        /* \"#utility.yul\":1727:1729   */\n      0x60\n        /* \"#utility.yul\":1716:1725   */\n      dup4\n        /* \"#utility.yul\":1712:1730   */\n      add\n        /* \"#utility.yul\":1703:1709   */\n      dup7\n        /* \"#utility.yul\":1659:1731   */\n      tag_38\n      jump\t// in\n    tag_46:\n        /* \"#utility.yul\":1741:1814   */\n      tag_47\n        /* \"#utility.yul\":1809:1812   */\n      0x80\n        /* \"#utility.yul\":1798:1807   */\n      dup4\n        /* \"#utility.yul\":1794:1813   */\n      add\n        /* \"#utility.yul\":1785:1791   */\n      dup6\n        /* \"#utility.yul\":1741:1814   */\n      tag_38\n      jump\t// in\n    tag_47:\n        /* \"#utility.yul\":1824:1897   */\n      tag_48\n        /* \"#utility.yul\":1892:1895   */\n      0xa0\n        /* \"#utility.yul\":1881:1890   */\n      dup4\n        /* \"#utility.yul\":1877:1896   */\n      add\n        /* \"#utility.yul\":1868:1874   */\n      dup5\n        /* \"#utility.yul\":1824:1897   */\n      tag_38\n      jump\t// in\n    tag_48:\n        /* \"#utility.yul\":1296:1904   */\n      swap8\n      swap7\n      pop\n      pop\n      pop\n      pop\n      pop\n      pop\n      pop\n      jump\t// out\n        /* \"#utility.yul\":1910:2009   */\n    tag_31:\n      0x00\n        /* \"#utility.yul\":1996:2001   */\n      dup2\n        /* \"#utility.yul\":1990:2002   */\n      mload\n        /* \"#utility.yul\":1980:2002   */\n      swap1\n      pop\n        /* \"#utility.yul\":1969:2009   */\n      swap2\n      swap1\n      pop\n      jump\t// out\n        /* \"#utility.yul\":2015:2184   */\n    tag_33:\n      0x00\n        /* \"#utility.yul\":2133:2139   */\n      dup3\n        /* \"#utility.yul\":2128:2131   */\n      dup3\n        /* \"#utility.yul\":2121:2140   */\n      mstore\n        /* \"#utility.yul\":2173:2177   */\n      0x20\n        /* \"#utility.yul\":2168:2171   */\n      dup3\n        /* \"#utility.yul\":2164:2178   */\n      add\n        /* \"#utility.yul\":2149:2178   */\n      swap1\n      pop\n        /* \"#utility.yul\":2111:2184   */\n      swap3\n      swap2\n      pop\n      pop\n      jump\t// out\n        /* \"#utility.yul\":2190:2286   */\n    tag_27:\n      0x00\n        /* \"#utility.yul\":2256:2280   */\n      tag_52\n        /* \"#utility.yul\":2274:2279   */\n      dup3\n        /* \"#utility.yul\":2256:2280   */\n      tag_53\n      jump\t// in\n    tag_52:\n        /* \"#utility.yul\":2245:2280   */\n      swap1\n      pop\n        /* \"#utility.yul\":2235:2286   */\n      swap2\n      swap1\n      pop\n      jump\t// out\n        /* \"#utility.yul\":2292:2418   */\n    tag_53:\n      0x00\n        /* \"#utility.yul\":2369:2411   */\n      0xffffffffffffffffffffffffffffffffffffffff\n        /* \"#utility.yul\":2362:2367   */\n      dup3\n        /* \"#utility.yul\":2358:2412   */\n      and\n        /* \"#utility.yul\":2347:2412   */\n      swap1\n      pop\n        /* \"#utility.yul\":2337:2418   */\n      swap2\n      swap1\n      pop\n      jump\t// out\n        /* \"#utility.yul\":2424:2501   */\n    tag_41:\n      0x00\n        /* \"#utility.yul\":2490:2495   */\n      dup2\n        /* \"#utility.yul\":2479:2495   */\n      swap1\n      pop\n        /* \"#utility.yul\":2469:2501   */\n      swap2\n      swap1\n      pop\n      jump\t// out\n        /* \"#utility.yul\":2507:2814   */\n    tag_35:\n        /* \"#utility.yul\":2575:2576   */\n      0x00\n        /* \"#utility.yul\":2585:2698   */\n    tag_57:\n        /* \"#utility.yul\":2599:2605   */\n      dup4\n        /* \"#utility.yul\":2596:2597   */\n      dup2\n        /* \"#utility.yul\":2593:2606   */\n      lt\n        /* \"#utility.yul\":2585:2698   */\n      iszero\n      tag_59\n      jumpi\n        /* \"#utility.yul\":2684:2685   */\n      dup1\n        /* \"#utility.yul\":2679:2682   */\n      dup3\n        /* \"#utility.yul\":2675:2686   */\n      add\n        /* \"#utility.yul\":2669:2687   */\n      mload\n        /* \"#utility.yul\":2665:2666   */\n      dup2\n        /* \"#utility.yul\":2660:2663   */\n      dup5\n        /* \"#utility.yul\":2656:2667   */\n      add\n        /* \"#utility.yul\":2649:2688   */\n      mstore\n        /* \"#utility.yul\":2621:2623   */\n      0x20\n        /* \"#utility.yul\":2618:2619   */\n      dup2\n        /* \"#utility.yul\":2614:2624   */\n      add\n        /* \"#utility.yul\":2609:2624   */\n      swap1\n      pop\n        /* \"#utility.yul\":2585:2698   */\n      jump(tag_57)\n    tag_59:\n        /* \"#utility.yul\":2716:2722   */\n      dup4\n        /* \"#utility.yul\":2713:2714   */\n      dup2\n        /* \"#utility.yul\":2710:2723   */\n      gt\n        /* \"#utility.yul\":2707:2709   */\n      iszero\n      tag_60\n      jumpi\n        /* \"#utility.yul\":2796:2797   */\n      0x00\n        /* \"#utility.yul\":2787:2793   */\n      dup5\n        /* \"#utility.yul\":2782:2785   */\n      dup5\n        /* \"#utility.yul\":2778:2794   */\n      add\n        /* \"#utility.yul\":2771:2798   */\n      mstore\n        /* \"#utility.yul\":2707:2709   */\n    tag_60:\n        /* \"#utility.yul\":2556:2814   */\n      pop\n      pop\n      pop\n      pop\n      jump\t// out\n        /* \"#utility.yul\":2820:3140   */\n    tag_11:\n      0x00\n        /* \"#utility.yul\":2901:2902   */\n      0x02\n        /* \"#utility.yul\":2895:2899   */\n      dup3\n        /* \"#utility.yul\":2891:2903   */\n      div\n        /* \"#utility.yul\":2881:2903   */\n      swap1\n      pop\n        /* \"#utility.yul\":2948:2949   */\n      0x01\n        /* \"#utility.yul\":2942:2946   */\n      dup3\n        /* \"#utility.yul\":2938:2950   */\n      and\n        /* \"#utility.yul\":2969:2987   */\n      dup1\n        /* \"#utility.yul\":2959:2961   */\n      tag_62\n      jumpi\n        /* \"#utility.yul\":3025:3029   */\n      0x7f\n        /* \"#utility.yul\":3017:3023   */\n      dup3\n        /* \"#utility.yul\":3013:3030   */\n      and\n        /* \"#utility.yul\":3003:3030   */\n      swap2\n      pop\n        /* \"#utility.yul\":2959:2961   */\n    tag_62:\n        /* \"#utility.yul\":3087:3089   */\n      0x20\n        /* \"#utility.yul\":3079:3085   */\n      dup3\n        /* \"#utility.yul\":3076:3090   */\n      lt\n        /* \"#utility.yul\":3056:3074   */\n      dup2\n        /* \"#utility.yul\":3053:3091   */\n      eq\n        /* \"#utility.yul\":3050:3052   */\n      iszero\n      tag_63\n      jumpi\n        /* \"#utility.yul\":3106:3124   */\n      tag_64\n      tag_65\n      jump\t// in\n    tag_64:\n        /* \"#utility.yul\":3050:3052   */\n    tag_63:\n        /* \"#utility.yul\":2871:3140   */\n      pop\n      swap2\n      swap1\n      pop\n      jump\t// out\n        /* \"#utility.yul\":3146:3326   */\n    tag_65:\n        /* \"#utility.yul\":3194:3271   */\n      0x4e487b7100000000000000000000000000000000000000000000000000000000\n        /* \"#utility.yul\":3191:3192   */\n      0x00\n        /* \"#utility.yul\":3184:3272   */\n      mstore\n        /* \"#utility.yul\":3291:3295   */\n      0x22\n        /* \"#utility.yul\":3288:3289   */\n      0x04\n        /* \"#utility.yul\":3281:3296   */\n      mstore\n        /* \"#utility.yul\":3315:3319   */\n      0x24\n        /* \"#utility.yul\":3312:3313   */\n      0x00\n        /* \"#utility.yul\":3305:3320   */\n      revert\n        /* \"#utility.yul\":3332:3434   */\n    tag_37:\n      0x00\n        /* \"#utility.yul\":3424:3426   */\n      0x1f\n        /* \"#utility.yul\":3420:3427   */\n      not\n        /* \"#utility.yul\":3415:3417   */\n      0x1f\n        /* \"#utility.yul\":3408:3413   */\n      dup4\n        /* \"#utility.yul\":3404:3418   */\n      add\n        /* \"#utility.yul\":3400:3428   */\n      and\n        /* \"#utility.yul\":3390:3428   */\n      swap1\n      pop\n        /* \"#utility.yul\":3380:3434   */\n      swap2\n      swap1\n      pop\n      jump\t// out\n        /* \"#utility.yul\":3440:3562   */\n    tag_20:\n        /* \"#utility.yul\":3513:3537   */\n      tag_69\n        /* \"#utility.yul\":3531:3536   */\n      dup2\n        /* \"#utility.yul\":3513:3537   */\n      tag_41\n      jump\t// in\n    tag_69:\n        /* \"#utility.yul\":3506:3511   */\n      dup2\n        /* \"#utility.yul\":3503:3538   */\n      eq\n        /* \"#utility.yul\":3493:3495   */\n      tag_70\n      jumpi\n        /* \"#utility.yul\":3552:3553   */\n      0x00\n        /* \"#utility.yul\":3549:3550   */\n      dup1\n        /* \"#utility.yul\":3542:3554   */\n      revert\n        /* \"#utility.yul\":3493:3495   */\n    tag_70:\n        /* \"#utility.yul\":3483:3562   */\n      pop\n      jump\t// out\n\n    auxdata: 0xa2646970667358221220fc4999bf6244d1008a6a665b284e7e284c3d80484fa72a83947884248b17c50664736f6c63430008000033\n}\n",
				"bytecode": {
					"linkReferences": {},
					"object": "608060405234801561001057600080fd5b50610390806100206000396000f3fe608060405234801561001057600080fd5b506004361061002b5760003560e01c80630b79143014610030575b600080fd5b61004a6004803603810190610045919061015e565b610065565b60405161005c969594939291906101de565b60405180910390f35b60006020528060005260406000206000915090508060000160009054906101000a900473ffffffffffffffffffffffffffffffffffffffff16908060010180546100ae906102d1565b80601f01602080910402602001604051908101604052809291908181526020018280546100da906102d1565b80156101275780601f106100fc57610100808354040283529160200191610127565b820191906000526020600020905b81548152906001019060200180831161010a57829003601f168201915b5050505050908060020154908060030154908060040154908060050154905086565b60008135905061015881610343565b92915050565b60006020828403121561017057600080fd5b600061017e84828501610149565b91505092915050565b61019081610262565b82525050565b60006101a182610246565b6101ab8185610251565b93506101bb81856020860161029e565b6101c481610332565b840191505092915050565b6101d881610294565b82525050565b600060c0820190506101f36000830189610187565b81810360208301526102058188610196565b905061021460408301876101cf565b61022160608301866101cf565b61022e60808301856101cf565b61023b60a08301846101cf565b979650505050505050565b600081519050919050565b600082825260208201905092915050565b600061026d82610274565b9050919050565b600073ffffffffffffffffffffffffffffffffffffffff82169050919050565b6000819050919050565b60005b838110156102bc5780820151818401526020810190506102a1565b838111156102cb576000848401525b50505050565b600060028204905060018216806102e957607f821691505b602082108114156102fd576102fc610303565b5b50919050565b7f4e487b7100000000000000000000000000000000000000000000000000000000600052602260045260246000fd5b6000601f19601f8301169050919050565b61034c81610294565b811461035757600080fd5b5056fea2646970667358221220fc4999bf6244d1008a6a665b284e7e284c3d80484fa72a83947884248b17c50664736f6c63430008000033",
					"opcodes": "PUSH1 0x80 PUSH1 0x40 MSTORE CALLVALUE DUP1 ISZERO PUSH2 0x10 JUMPI PUSH1 0x0 DUP1 REVERT JUMPDEST POP PUSH2 0x390 DUP1 PUSH2 0x20 PUSH1 0x0 CODECOPY PUSH1 0x0 RETURN INVALID PUSH1 0x80 PUSH1 0x40 MSTORE CALLVALUE DUP1 ISZERO PUSH2 0x10 JUMPI PUSH1 0x0 DUP1 REVERT JUMPDEST POP PUSH1 0x4 CALLDATASIZE LT PUSH2 0x2B JUMPI PUSH1 0x0 CALLDATALOAD PUSH1 0xE0 SHR DUP1 PUSH4 0xB791430 EQ PUSH2 0x30 JUMPI JUMPDEST PUSH1 0x0 DUP1 REVERT JUMPDEST PUSH2 0x4A PUSH1 0x4 DUP1 CALLDATASIZE SUB DUP2 ADD SWAP1 PUSH2 0x45 SWAP2 SWAP1 PUSH2 0x15E JUMP JUMPDEST PUSH2 0x65 JUMP JUMPDEST PUSH1 0x40 MLOAD PUSH2 0x5C SWAP7 SWAP6 SWAP5 SWAP4 SWAP3 SWAP2 SWAP1 PUSH2 0x1DE JUMP JUMPDEST PUSH1 0x40 MLOAD DUP1 SWAP2 SUB SWAP1 RETURN JUMPDEST PUSH1 0x0 PUSH1 0x20 MSTORE DUP1 PUSH1 0x0 MSTORE PUSH1 0x40 PUSH1 0x0 KECCAK256 PUSH1 0x0 SWAP2 POP SWAP1 POP DUP1 PUSH1 0x0 ADD PUSH1 0x0 SWAP1 SLOAD SWAP1 PUSH2 0x100 EXP SWAP1 DIV PUSH20 0xFFFFFFFFFFFFFFFFFFFFFFFFFFFFFFFFFFFFFFFF AND SWAP1 DUP1 PUSH1 0x1 ADD DUP1 SLOAD PUSH2 0xAE SWAP1 PUSH2 0x2D1 JUMP JUMPDEST DUP1 PUSH1 0x1F ADD PUSH1 0x20 DUP1 SWAP2 DIV MUL PUSH1 0x20 ADD PUSH1 0x40 MLOAD SWAP1 DUP2 ADD PUSH1 0x40 MSTORE DUP1 SWAP3 SWAP2 SWAP1 DUP2 DUP2 MSTORE PUSH1 0x20 ADD DUP3 DUP1 SLOAD PUSH2 0xDA SWAP1 PUSH2 0x2D1 JUMP JUMPDEST DUP1 ISZERO PUSH2 0x127 JUMPI DUP1 PUSH1 0x1F LT PUSH2 0xFC JUMPI PUSH2 0x100 DUP1 DUP4 SLOAD DIV MUL DUP4 MSTORE SWAP2 PUSH1 0x20 ADD SWAP2 PUSH2 0x127 JUMP JUMPDEST DUP3 ADD SWAP2 SWAP1 PUSH1 0x0 MSTORE PUSH1 0x20 PUSH1 0x0 KECCAK256 SWAP1 JUMPDEST DUP2 SLOAD DUP2 MSTORE SWAP1 PUSH1 0x1 ADD SWAP1 PUSH1 0x20 ADD DUP1 DUP4 GT PUSH2 0x10A JUMPI DUP3 SWAP1 SUB PUSH1 0x1F AND DUP3 ADD SWAP2 JUMPDEST POP POP POP POP POP SWAP1 DUP1 PUSH1 0x2 ADD SLOAD SWAP1 DUP1 PUSH1 0x3 ADD SLOAD SWAP1 DUP1 PUSH1 0x4 ADD SLOAD SWAP1 DUP1 PUSH1 0x5 ADD SLOAD SWAP1 POP DUP7 JUMP JUMPDEST PUSH1 0x0 DUP2 CALLDATALOAD SWAP1 POP PUSH2 0x158 DUP2 PUSH2 0x343 JUMP JUMPDEST SWAP3 SWAP2 POP POP JUMP JUMPDEST PUSH1 0x0 PUSH1 0x20 DUP3 DUP5 SUB SLT ISZERO PUSH2 0x170 JUMPI PUSH1 0x0 DUP1 REVERT JUMPDEST PUSH1 0x0 PUSH2 0x17E DUP5 DUP3 DUP6 ADD PUSH2 0x149 JUMP JUMPDEST SWAP2 POP POP SWAP3 SWAP2 POP POP JUMP JUMPDEST PUSH2 0x190 DUP2 PUSH2 0x262 JUMP JUMPDEST DUP3 MSTORE POP POP JUMP JUMPDEST PUSH1 0x0 PUSH2 0x1A1 DUP3 PUSH2 0x246 JUMP JUMPDEST PUSH2 0x1AB DUP2 DUP6 PUSH2 0x251 JUMP JUMPDEST SWAP4 POP PUSH2 0x1BB DUP2 DUP6 PUSH1 0x20 DUP7 ADD PUSH2 0x29E JUMP JUMPDEST PUSH2 0x1C4 DUP2 PUSH2 0x332 JUMP JUMPDEST DUP5 ADD SWAP2 POP POP SWAP3 SWAP2 POP POP JUMP JUMPDEST PUSH2 0x1D8 DUP2 PUSH2 0x294 JUMP JUMPDEST DUP3 MSTORE POP POP JUMP JUMPDEST PUSH1 0x0 PUSH1 0xC0 DUP3 ADD SWAP1 POP PUSH2 0x1F3 PUSH1 0x0 DUP4 ADD DUP10 PUSH2 0x187 JUMP JUMPDEST DUP2 DUP2 SUB PUSH1 0x20 DUP4 ADD MSTORE PUSH2 0x205 DUP2 DUP9 PUSH2 0x196 JUMP JUMPDEST SWAP1 POP PUSH2 0x214 PUSH1 0x40 DUP4 ADD DUP8 PUSH2 0x1CF JUMP JUMPDEST PUSH2 0x221 PUSH1 0x60 DUP4 ADD DUP7 PUSH2 0x1CF JUMP JUMPDEST PUSH2 0x22E PUSH1 0x80 DUP4 ADD DUP6 PUSH2 0x1CF JUMP JUMPDEST PUSH2 0x23B PUSH1 0xA0 DUP4 ADD DUP5 PUSH2 0x1CF JUMP JUMPDEST SWAP8 SWAP7 POP POP POP POP POP POP POP JUMP JUMPDEST PUSH1 0x0 DUP2 MLOAD SWAP1 POP SWAP2 SWAP1 POP JUMP JUMPDEST PUSH1 0x0 DUP3 DUP3 MSTORE PUSH1 0x20 DUP3 ADD SWAP1 POP SWAP3 SWAP2 POP POP JUMP JUMPDEST PUSH1 0x0 PUSH2 0x26D DUP3 PUSH2 0x274 JUMP JUMPDEST SWAP1 POP SWAP2 SWAP1 POP JUMP JUMPDEST PUSH1 0x0 PUSH20 0xFFFFFFFFFFFFFFFFFFFFFFFFFFFFFFFFFFFFFFFF DUP3 AND SWAP1 POP SWAP2 SWAP1 POP JUMP JUMPDEST PUSH1 0x0 DUP2 SWAP1 POP SWAP2 SWAP1 POP JUMP JUMPDEST PUSH1 0x0 JUMPDEST DUP4 DUP2 LT ISZERO PUSH2 0x2BC JUMPI DUP1 DUP3 ADD MLOAD DUP2 DUP5 ADD MSTORE PUSH1 0x20 DUP2 ADD SWAP1 POP PUSH2 0x2A1 JUMP JUMPDEST DUP4 DUP2 GT ISZERO PUSH2 0x2CB JUMPI PUSH1 0x0 DUP5 DUP5 ADD MSTORE JUMPDEST POP POP POP POP JUMP JUMPDEST PUSH1 0x0 PUSH1 0x2 DUP3 DIV SWAP1 POP PUSH1 0x1 DUP3 AND DUP1 PUSH2 0x2E9 JUMPI PUSH1 0x7F DUP3 AND SWAP2 POP JUMPDEST PUSH1 0x20 DUP3 LT DUP2 EQ ISZERO PUSH2 0x2FD JUMPI PUSH2 0x2FC PUSH2 0x303 JUMP JUMPDEST JUMPDEST POP SWAP2 SWAP1 POP JUMP JUMPDEST PUSH32 0x4E487B7100000000000000000000000000000000000000000000000000000000 PUSH1 0x0 MSTORE PUSH1 0x22 PUSH1 0x4 MSTORE PUSH1 0x24 PUSH1 0x0 REVERT JUMPDEST PUSH1 0x0 PUSH1 0x1F NOT PUSH1 0x1F DUP4 ADD AND SWAP1 POP SWAP2 SWAP1 POP JUMP JUMPDEST PUSH2 0x34C DUP2 PUSH2 0x294 JUMP JUMPDEST DUP2 EQ PUSH2 0x357 JUMPI PUSH1 0x0 DUP1 REVERT JUMPDEST POP JUMP INVALID LOG2 PUSH5 0x6970667358 0x22 SLT KECCAK256 0xFC 0x49 SWAP10 0xBF PUSH3 0x44D100 DUP11 PUSH11 0x665B284E7E284C3D80484F 0xA7 0x2A DUP4 SWAP5 PUSH25 0x84248B17C50664736F6C634300080000330000000000000000 "
				},
				"gasEstimates": {
					"creation": {
						"codeDepositCost": "182400",
						"executionCost": "226",
						"totalCost": "182626"
					},
					"external": {
						"events(uint256)": "infinite"
					}
				},
				"methodIdentifiers": {
					"events(uint256)": "0b791430"
				}
			},
			"storageLayout": {
				"storage": [
					{
						"astId": 19,
						"contract": "tickets/tickets.sol:ticket",
						"label": "events",
						"offset": 0,
						"slot": "0",
						"type": "t_mapping(t_uint256,t_struct(Event)14_storage)"
					}
				],
				"types": {
					"t_address": {
						"encoding": "inplace",
						"label": "address",
						"numberOfBytes": "20"
					},
					"t_mapping(t_uint256,t_struct(Event)14_storage)": {
						"encoding": "mapping",
						"key": "t_uint256",
						"label": "mapping(uint256 => struct ticket.Event)",
						"numberOfBytes": "32",
						"value": "t_struct(Event)14_storage"
					},
					"t_string_storage": {
						"encoding": "bytes",
						"label": "string",
						"numberOfBytes": "32"
					},
					"t_struct(Event)14_storage": {
						"encoding": "inplace",
						"label": "struct ticket.Event",
						"members": [
							{
								"astId": 3,
								"contract": "tickets/tickets.sol:ticket",
								"label": "organizer",
								"offset": 0,
								"slot": "0",
								"type": "t_address"
							},
							{
								"astId": 5,
								"contract": "tickets/tickets.sol:ticket",
								"label": "name",
								"offset": 0,
								"slot": "1",
								"type": "t_string_storage"
							},
							{
								"astId": 7,
								"contract": "tickets/tickets.sol:ticket",
								"label": "date",
								"offset": 0,
								"slot": "2",
								"type": "t_uint256"
							},
							{
								"astId": 9,
								"contract": "tickets/tickets.sol:ticket",
								"label": "price",
								"offset": 0,
								"slot": "3",
								"type": "t_uint256"
							},
							{
								"astId": 11,
								"contract": "tickets/tickets.sol:ticket",
								"label": "ticketCount",
								"offset": 0,
								"slot": "4",
								"type": "t_uint256"
							},
							{
								"astId": 13,
								"contract": "tickets/tickets.sol:ticket",
								"label": "ticketRemaining",
								"offset": 0,
								"slot": "5",
								"type": "t_uint256"
							}
						],
						"numberOfBytes": "192"
					},
					"t_uint256": {
						"encoding": "inplace",
						"label": "uint256",
						"numberOfBytes": "32"
					}
				}
			},
			"userdoc": {
				"kind": "user",
				"methods": {},
				"version": 1
			}
		}
	}
}