{
	"tickets/tickets.sol": {
		"ticket": {
			"abi": [
				{
					"inputs": [
						{
							"internalType": "uint256",
							"name": "id",
							"type": "uint256"
						},
						{
							"internalType": "uint256",
							"name": "quantity",
							"type": "uint256"
						}
					],
					"name": "buyTicket",
					"outputs": [],
					"stateMutability": "payable",
					"type": "function"
				},
				{
					"inputs": [
						{
							"internalType": "string",
							"name": "name",
							"type": "string"
						},
						{
							"internalType": "uint256",
							"name": "date",
							"type": "uint256"
						},
						{
							"internalType": "uint256",
							"name": "price",
							"type": "uint256"
						},
						{
							"internalType": "uint256",
							"name": "ticketCount",
							"type": "uint256"
						}
					],
					"name": "createEvent",
					"outputs": [],
					"stateMutability": "nonpayable",
					"type": "function"
				},
				{
					"inputs": [
						{
							"internalType": "uint256",
							"name": "",
							"type": "uint256"
						}
					],
					"name": "events",
					"outputs": [
						{
							"internalType": "address",
							"name": "organizer",
							"type": "address"
						},
						{
							"internalType": "string",
							"name": "name",
							"type": "string"
						},
						{
							"internalType": "uint256",
							"name": "date",
							"type": "uint256"
						},
						{
							"internalType": "uint256",
							"name": "price",
							"type": "uint256"
						},
						{
							"internalType": "uint256",
							"name": "ticketCount",
							"type": "uint256"
						},
						{
							"internalType": "uint256",
							"name": "ticketRemaining",
							"type": "uint256"
						}
					],
					"stateMutability": "view",
					"type": "function"
				},
				{
					"inputs": [],
					"name": "nextId",
					"outputs": [
						{
							"internalType": "uint256",
							"name": "",
							"type": "uint256"
						}
					],
					"stateMutability": "view",
					"type": "function"
				},
				{
					"inputs": [
						{
							"internalType": "address",
							"name": "",
							"type": "address"
						},
						{
							"internalType": "uint256",
							"name": "",
							"type": "uint256"
						}
					],
					"name": "tickets",
					"outputs": [
						{
							"internalType": "uint256",
							"name": "",
							"type": "uint256"
						}
					],
					"stateMutability": "view",
					"type": "function"
				},
				{
					"inputs": [
						{
							"internalType": "uint256",
							"name": "id",
							"type": "uint256"
						},
						{
							"internalType": "uint256",
							"name": "quantity",
							"type": "uint256"
						},
						{
							"internalType": "address",
							"name": "to",
							"type": "address"
						}
					],
					"name": "transferTickets",
					"outputs": [],
					"stateMutability": "nonpayable",
					"type": "function"
				}
			],
			"devdoc": {
				"kind": "dev",
				"methods": {},
				"version": 1
			},
			"evm": {
				"assembly": "    /* \"tickets/tickets.sol\":27:1629  contract ticket {\r... */\n  mstore(0x40, 0x80)\n  callvalue\n  dup1\n  iszero\n  tag_1\n  jumpi\n  0x00\n  dup1\n  revert\ntag_1:\n  pop\n  dataSize(sub_0)\n  dup1\n  dataOffset(sub_0)\n  0x00\n  codecopy\n  0x00\n  return\nstop\n\nsub_0: assembly {\n        /* \"tickets/tickets.sol\":27:1629  contract ticket {\r... */\n      mstore(0x40, 0x80)\n      jumpi(tag_1, lt(calldatasize, 0x04))\n      shr(0xe0, calldataload(0x00))\n      dup1\n      0x0374ab0b\n      eq\n      tag_2\n      jumpi\n      dup1\n      0x0b791430\n      eq\n      tag_3\n      jumpi\n      dup1\n      0x298ec208\n      eq\n      tag_4\n      jumpi\n      dup1\n      0x3d23eed9\n      eq\n      tag_5\n      jumpi\n      dup1\n      0x61b8ce8c\n      eq\n      tag_6\n      jumpi\n      dup1\n      0xdae7a13c\n      eq\n      tag_7\n      jumpi\n    tag_1:\n      0x00\n      dup1\n      revert\n        /* \"tickets/tickets.sol\":355:737  function createEvent(string memory name, uint date, uint price, uint ticketCount) external{\r... */\n    tag_2:\n      callvalue\n      dup1\n      iszero\n      tag_8\n      jumpi\n      0x00\n      dup1\n      revert\n    tag_8:\n      pop\n      tag_9\n      0x04\n      dup1\n      calldatasize\n      sub\n      dup2\n      add\n      swap1\n      tag_10\n      swap2\n      swap1\n      tag_11\n      jump\t// in\n    tag_10:\n      tag_12\n      jump\t// in\n    tag_9:\n      stop\n        /* \"tickets/tickets.sol\":228:262  mapping(uint=>Event) public events */\n    tag_3:\n      callvalue\n      dup1\n      iszero\n      tag_13\n      jumpi\n      0x00\n      dup1\n      revert\n    tag_13:\n      pop\n      tag_14\n      0x04\n      dup1\n      calldatasize\n      sub\n      dup2\n      add\n      swap1\n      tag_15\n      swap2\n      swap1\n      tag_16\n      jump\t// in\n    tag_15:\n      tag_17\n      jump\t// in\n    tag_14:\n      mload(0x40)\n      tag_18\n      swap7\n      swap6\n      swap5\n      swap4\n      swap3\n      swap2\n      swap1\n      tag_19\n      jump\t// in\n    tag_18:\n      mload(0x40)\n      dup1\n      swap2\n      sub\n      swap1\n      return\n        /* \"tickets/tickets.sol\":745:1236  function buyTicket(uint id, uint quantity) external payable{\r... */\n    tag_4:\n      tag_20\n      0x04\n      dup1\n      calldatasize\n      sub\n      dup2\n      add\n      swap1\n      tag_21\n      swap2\n      swap1\n      tag_22\n      jump\t// in\n    tag_21:\n      tag_23\n      jump\t// in\n    tag_20:\n      stop\n        /* \"tickets/tickets.sol\":1242:1626  function transferTickets(uint id, uint quantity, address to)external{\r... */\n    tag_5:\n      callvalue\n      dup1\n      iszero\n      tag_24\n      jumpi\n      0x00\n      dup1\n      revert\n    tag_24:\n      pop\n      tag_25\n      0x04\n      dup1\n      calldatasize\n      sub\n      dup2\n      add\n      swap1\n      tag_26\n      swap2\n      swap1\n      tag_27\n      jump\t// in\n    tag_26:\n      tag_28\n      jump\t// in\n    tag_25:\n      stop\n        /* \"tickets/tickets.sol\":328:346  uint public nextId */\n    tag_6:\n      callvalue\n      dup1\n      iszero\n      tag_29\n      jumpi\n      0x00\n      dup1\n      revert\n    tag_29:\n      pop\n      tag_30\n      tag_31\n      jump\t// in\n    tag_30:\n      mload(0x40)\n      tag_32\n      swap2\n      swap1\n      tag_33\n      jump\t// in\n    tag_32:\n      mload(0x40)\n      dup1\n      swap2\n      sub\n      swap1\n      return\n        /* \"tickets/tickets.sol\":269:321  mapping(address=>mapping(uint=>uint)) public tickets */\n    tag_7:\n      callvalue\n      dup1\n      iszero\n      tag_34\n      jumpi\n      0x00\n      dup1\n      revert\n    tag_34:\n      pop\n      tag_35\n      0x04\n      dup1\n      calldatasize\n      sub\n      dup2\n      add\n      swap1\n      tag_36\n      swap2\n      swap1\n      tag_37\n      jump\t// in\n    tag_36:\n      tag_38\n      jump\t// in\n    tag_35:\n      mload(0x40)\n      tag_39\n      swap2\n      swap1\n      tag_33\n      jump\t// in\n    tag_39:\n      mload(0x40)\n      dup1\n      swap2\n      sub\n      swap1\n      return\n        /* \"tickets/tickets.sol\":355:737  function createEvent(string memory name, uint date, uint price, uint ticketCount) external{\r... */\n    tag_12:\n        /* \"tickets/tickets.sol\":469:484  block.timestamp */\n      timestamp\n        /* \"tickets/tickets.sol\":464:468  date */\n      dup4\n        /* \"tickets/tickets.sol\":464:484  date>block.timestamp */\n      gt\n        /* \"tickets/tickets.sol\":456:527  require(date>block.timestamp, \"You can organize event for future date\") */\n      tag_41\n      jumpi\n      mload(0x40)\n      0x08c379a000000000000000000000000000000000000000000000000000000000\n      dup2\n      mstore\n      0x04\n      add\n      tag_42\n      swap1\n      tag_43\n      jump\t// in\n    tag_42:\n      mload(0x40)\n      dup1\n      swap2\n      sub\n      swap1\n      revert\n    tag_41:\n        /* \"tickets/tickets.sol\":558:559  0 */\n      0x00\n        /* \"tickets/tickets.sol\":546:557  ticketCount */\n      dup2\n        /* \"tickets/tickets.sol\":546:559  ticketCount>0 */\n      gt\n        /* \"tickets/tickets.sol\":538:625  require(ticketCount>0, \"You can organize event only if you create more than 0 tickets\") */\n      tag_44\n      jumpi\n      mload(0x40)\n      0x08c379a000000000000000000000000000000000000000000000000000000000\n      dup2\n      mstore\n      0x04\n      add\n      tag_45\n      swap1\n      tag_46\n      jump\t// in\n    tag_45:\n      mload(0x40)\n      dup1\n      swap2\n      sub\n      swap1\n      revert\n    tag_44:\n        /* \"tickets/tickets.sol\":653:710  Event(msg.sender,name,date,price,ticketCount,ticketCount) */\n      mload(0x40)\n      dup1\n      0xc0\n      add\n      0x40\n      mstore\n      dup1\n        /* \"tickets/tickets.sol\":659:669  msg.sender */\n      caller\n        /* \"tickets/tickets.sol\":653:710  Event(msg.sender,name,date,price,ticketCount,ticketCount) */\n      0xffffffffffffffffffffffffffffffffffffffff\n      and\n      dup2\n      mstore\n      0x20\n      add\n        /* \"tickets/tickets.sol\":670:674  name */\n      dup6\n        /* \"tickets/tickets.sol\":653:710  Event(msg.sender,name,date,price,ticketCount,ticketCount) */\n      dup2\n      mstore\n      0x20\n      add\n        /* \"tickets/tickets.sol\":675:679  date */\n      dup5\n        /* \"tickets/tickets.sol\":653:710  Event(msg.sender,name,date,price,ticketCount,ticketCount) */\n      dup2\n      mstore\n      0x20\n      add\n        /* \"tickets/tickets.sol\":680:685  price */\n      dup4\n        /* \"tickets/tickets.sol\":653:710  Event(msg.sender,name,date,price,ticketCount,ticketCount) */\n      dup2\n      mstore\n      0x20\n      add\n        /* \"tickets/tickets.sol\":686:697  ticketCount */\n      dup3\n        /* \"tickets/tickets.sol\":653:710  Event(msg.sender,name,date,price,ticketCount,ticketCount) */\n      dup2\n      mstore\n      0x20\n      add\n        /* \"tickets/tickets.sol\":698:709  ticketCount */\n      dup3\n        /* \"tickets/tickets.sol\":653:710  Event(msg.sender,name,date,price,ticketCount,ticketCount) */\n      dup2\n      mstore\n      pop\n        /* \"tickets/tickets.sol\":636:642  events */\n      0x00\n        /* \"tickets/tickets.sol\":636:650  events[nextId] */\n      dup1\n        /* \"tickets/tickets.sol\":643:649  nextId */\n      sload(0x02)\n        /* \"tickets/tickets.sol\":636:650  events[nextId] */\n      dup2\n      mstore\n      0x20\n      add\n      swap1\n      dup2\n      mstore\n      0x20\n      add\n      0x00\n      keccak256\n        /* \"tickets/tickets.sol\":636:710  events[nextId] = Event(msg.sender,name,date,price,ticketCount,ticketCount) */\n      0x00\n      dup3\n      add\n      mload\n      dup2\n      0x00\n      add\n      exp(0x0100, 0x00)\n      dup2\n      sload\n      dup2\n      0xffffffffffffffffffffffffffffffffffffffff\n      mul\n      not\n      and\n      swap1\n      dup4\n      0xffffffffffffffffffffffffffffffffffffffff\n      and\n      mul\n      or\n      swap1\n      sstore\n      pop\n      0x20\n      dup3\n      add\n      mload\n      dup2\n      0x01\n      add\n      swap1\n      dup1\n      mload\n      swap1\n      0x20\n      add\n      swap1\n      tag_47\n      swap3\n      swap2\n      swap1\n      tag_48\n      jump\t// in\n    tag_47:\n      pop\n      0x40\n      dup3\n      add\n      mload\n      dup2\n      0x02\n      add\n      sstore\n      0x60\n      dup3\n      add\n      mload\n      dup2\n      0x03\n      add\n      sstore\n      0x80\n      dup3\n      add\n      mload\n      dup2\n      0x04\n      add\n      sstore\n      0xa0\n      dup3\n      add\n      mload\n      dup2\n      0x05\n      add\n      sstore\n      swap1\n      pop\n      pop\n        /* \"tickets/tickets.sol\":721:727  nextId */\n      0x02\n      0x00\n        /* \"tickets/tickets.sol\":721:729  nextId++ */\n      dup2\n      sload\n      dup1\n      swap3\n      swap2\n      swap1\n      tag_49\n      swap1\n      tag_50\n      jump\t// in\n    tag_49:\n      swap2\n      swap1\n      pop\n      sstore\n      pop\n        /* \"tickets/tickets.sol\":355:737  function createEvent(string memory name, uint date, uint price, uint ticketCount) external{\r... */\n      pop\n      pop\n      pop\n      pop\n      jump\t// out\n        /* \"tickets/tickets.sol\":228:262  mapping(uint=>Event) public events */\n    tag_17:\n      mstore(0x20, 0x00)\n      dup1\n      0x00\n      mstore\n      keccak256(0x00, 0x40)\n      0x00\n      swap2\n      pop\n      swap1\n      pop\n      dup1\n      0x00\n      add\n      0x00\n      swap1\n      sload\n      swap1\n      0x0100\n      exp\n      swap1\n      div\n      0xffffffffffffffffffffffffffffffffffffffff\n      and\n      swap1\n      dup1\n      0x01\n      add\n      dup1\n      sload\n      tag_51\n      swap1\n      tag_52\n      jump\t// in\n    tag_51:\n      dup1\n      0x1f\n      add\n      0x20\n      dup1\n      swap2\n      div\n      mul\n      0x20\n      add\n      mload(0x40)\n      swap1\n      dup2\n      add\n      0x40\n      mstore\n      dup1\n      swap3\n      swap2\n      swap1\n      dup2\n      dup2\n      mstore\n      0x20\n      add\n      dup3\n      dup1\n      sload\n      tag_53\n      swap1\n      tag_52\n      jump\t// in\n    tag_53:\n      dup1\n      iszero\n      tag_54\n      jumpi\n      dup1\n      0x1f\n      lt\n      tag_55\n      jumpi\n      0x0100\n      dup1\n      dup4\n      sload\n      div\n      mul\n      dup4\n      mstore\n      swap2\n      0x20\n      add\n      swap2\n      jump(tag_54)\n    tag_55:\n      dup3\n      add\n      swap2\n      swap1\n      0x00\n      mstore\n      keccak256(0x00, 0x20)\n      swap1\n    tag_56:\n      dup2\n      sload\n      dup2\n      mstore\n      swap1\n      0x01\n      add\n      swap1\n      0x20\n      add\n      dup1\n      dup4\n      gt\n      tag_56\n      jumpi\n      dup3\n      swap1\n      sub\n      0x1f\n      and\n      dup3\n      add\n      swap2\n    tag_54:\n      pop\n      pop\n      pop\n      pop\n      pop\n      swap1\n      dup1\n      0x02\n      add\n      sload\n      swap1\n      dup1\n      0x03\n      add\n      sload\n      swap1\n      dup1\n      0x04\n      add\n      sload\n      swap1\n      dup1\n      0x05\n      add\n      sload\n      swap1\n      pop\n      dup7\n      jump\t// out\n        /* \"tickets/tickets.sol\":745:1236  function buyTicket(uint id, uint quantity) external payable{\r... */\n    tag_23:\n        /* \"tickets/tickets.sol\":840:841  0 */\n      0x00\n        /* \"tickets/tickets.sol\":823:829  events */\n      dup1\n        /* \"tickets/tickets.sol\":823:833  events[id] */\n      0x00\n        /* \"tickets/tickets.sol\":830:832  id */\n      dup5\n        /* \"tickets/tickets.sol\":823:833  events[id] */\n      dup2\n      mstore\n      0x20\n      add\n      swap1\n      dup2\n      mstore\n      0x20\n      add\n      0x00\n      keccak256\n        /* \"tickets/tickets.sol\":823:838  events[id].date */\n      0x02\n      add\n      sload\n        /* \"tickets/tickets.sol\":823:841  events[id].date!=0 */\n      eq\n      iszero\n        /* \"tickets/tickets.sol\":815:865  require(events[id].date!=0,\"Event does not exist\") */\n      tag_58\n      jumpi\n      mload(0x40)\n      0x08c379a000000000000000000000000000000000000000000000000000000000\n      dup2\n      mstore\n      0x04\n      add\n      tag_59\n      swap1\n      tag_60\n      jump\t// in\n    tag_59:\n      mload(0x40)\n      dup1\n      swap2\n      sub\n      swap1\n      revert\n    tag_58:\n        /* \"tickets/tickets.sol\":900:915  block.timestamp */\n      timestamp\n        /* \"tickets/tickets.sol\":884:890  events */\n      0x00\n        /* \"tickets/tickets.sol\":884:894  events[id] */\n      dup1\n        /* \"tickets/tickets.sol\":891:893  id */\n      dup5\n        /* \"tickets/tickets.sol\":884:894  events[id] */\n      dup2\n      mstore\n      0x20\n      add\n      swap1\n      dup2\n      mstore\n      0x20\n      add\n      0x00\n      keccak256\n        /* \"tickets/tickets.sol\":884:899  events[id].date */\n      0x02\n      add\n      sload\n        /* \"tickets/tickets.sol\":884:915  events[id].date>block.timestamp */\n      gt\n        /* \"tickets/tickets.sol\":876:946  require(events[id].date>block.timestamp, \"Event has already occurred\") */\n      tag_61\n      jumpi\n      mload(0x40)\n      0x08c379a000000000000000000000000000000000000000000000000000000000\n      dup2\n      mstore\n      0x04\n      add\n      tag_62\n      swap1\n      tag_63\n      jump\t// in\n    tag_62:\n      mload(0x40)\n      dup1\n      swap2\n      sub\n      swap1\n      revert\n    tag_61:\n        /* \"tickets/tickets.sol\":957:977  Event storage _event */\n      0x00\n        /* \"tickets/tickets.sol\":980:986  events */\n      dup1\n        /* \"tickets/tickets.sol\":980:990  events[id] */\n      0x00\n        /* \"tickets/tickets.sol\":987:989  id */\n      dup5\n        /* \"tickets/tickets.sol\":980:990  events[id] */\n      dup2\n      mstore\n      0x20\n      add\n      swap1\n      dup2\n      mstore\n      0x20\n      add\n      0x00\n      keccak256\n        /* \"tickets/tickets.sol\":957:990  Event storage _event = events[id] */\n      swap1\n      pop\n        /* \"tickets/tickets.sol\":1034:1042  quantity */\n      dup2\n        /* \"tickets/tickets.sol\":1021:1027  _event */\n      dup2\n        /* \"tickets/tickets.sol\":1021:1033  _event.price */\n      0x03\n      add\n      sload\n        /* \"tickets/tickets.sol\":1021:1042  _event.price*quantity */\n      tag_64\n      swap2\n      swap1\n      tag_65\n      jump\t// in\n    tag_64:\n        /* \"tickets/tickets.sol\":1009:1018  msg.value */\n      callvalue\n        /* \"tickets/tickets.sol\":1009:1043  msg.value==(_event.price*quantity) */\n      eq\n        /* \"tickets/tickets.sol\":1001:1067  require(msg.value==(_event.price*quantity), \"Ether is not enough\") */\n      tag_66\n      jumpi\n      mload(0x40)\n      0x08c379a000000000000000000000000000000000000000000000000000000000\n      dup2\n      mstore\n      0x04\n      add\n      tag_67\n      swap1\n      tag_68\n      jump\t// in\n    tag_67:\n      mload(0x40)\n      dup1\n      swap2\n      sub\n      swap1\n      revert\n    tag_66:\n        /* \"tickets/tickets.sol\":1110:1118  quantity */\n      dup2\n        /* \"tickets/tickets.sol\":1086:1092  _event */\n      dup2\n        /* \"tickets/tickets.sol\":1086:1108  _event.ticketRemaining */\n      0x05\n      add\n      sload\n        /* \"tickets/tickets.sol\":1086:1118  _event.ticketRemaining>=quantity */\n      lt\n      iszero\n        /* \"tickets/tickets.sol\":1078:1141  require(_event.ticketRemaining>=quantity, \"Not enough tickets\") */\n      tag_69\n      jumpi\n      mload(0x40)\n      0x08c379a000000000000000000000000000000000000000000000000000000000\n      dup2\n      mstore\n      0x04\n      add\n      tag_70\n      swap1\n      tag_71\n      jump\t// in\n    tag_70:\n      mload(0x40)\n      dup1\n      swap2\n      sub\n      swap1\n      revert\n    tag_69:\n        /* \"tickets/tickets.sol\":1176:1184  quantity */\n      dup2\n        /* \"tickets/tickets.sol\":1152:1158  _event */\n      dup2\n        /* \"tickets/tickets.sol\":1152:1174  _event.ticketRemaining */\n      0x05\n      add\n      0x00\n        /* \"tickets/tickets.sol\":1152:1184  _event.ticketRemaining-=quantity */\n      dup3\n      dup3\n      sload\n      tag_72\n      swap2\n      swap1\n      tag_73\n      jump\t// in\n    tag_72:\n      swap3\n      pop\n      pop\n      dup2\n      swap1\n      sstore\n      pop\n        /* \"tickets/tickets.sol\":1220:1228  quantity */\n      dup2\n        /* \"tickets/tickets.sol\":1195:1202  tickets */\n      0x01\n        /* \"tickets/tickets.sol\":1195:1214  tickets[msg.sender] */\n      0x00\n        /* \"tickets/tickets.sol\":1203:1213  msg.sender */\n      caller\n        /* \"tickets/tickets.sol\":1195:1214  tickets[msg.sender] */\n      0xffffffffffffffffffffffffffffffffffffffff\n      and\n      0xffffffffffffffffffffffffffffffffffffffff\n      and\n      dup2\n      mstore\n      0x20\n      add\n      swap1\n      dup2\n      mstore\n      0x20\n      add\n      0x00\n      keccak256\n        /* \"tickets/tickets.sol\":1195:1218  tickets[msg.sender][id] */\n      0x00\n        /* \"tickets/tickets.sol\":1215:1217  id */\n      dup6\n        /* \"tickets/tickets.sol\":1195:1218  tickets[msg.sender][id] */\n      dup2\n      mstore\n      0x20\n      add\n      swap1\n      dup2\n      mstore\n      0x20\n      add\n      0x00\n      keccak256\n      0x00\n        /* \"tickets/tickets.sol\":1195:1228  tickets[msg.sender][id]+=quantity */\n      dup3\n      dup3\n      sload\n      tag_74\n      swap2\n      swap1\n      tag_75\n      jump\t// in\n    tag_74:\n      swap3\n      pop\n      pop\n      dup2\n      swap1\n      sstore\n      pop\n        /* \"tickets/tickets.sol\":745:1236  function buyTicket(uint id, uint quantity) external payable{\r... */\n      pop\n      pop\n      pop\n      jump\t// out\n        /* \"tickets/tickets.sol\":1242:1626  function transferTickets(uint id, uint quantity, address to)external{\r... */\n    tag_28:\n        /* \"tickets/tickets.sol\":1346:1347  0 */\n      0x00\n        /* \"tickets/tickets.sol\":1329:1335  events */\n      dup1\n        /* \"tickets/tickets.sol\":1329:1339  events[id] */\n      0x00\n        /* \"tickets/tickets.sol\":1336:1338  id */\n      dup6\n        /* \"tickets/tickets.sol\":1329:1339  events[id] */\n      dup2\n      mstore\n      0x20\n      add\n      swap1\n      dup2\n      mstore\n      0x20\n      add\n      0x00\n      keccak256\n        /* \"tickets/tickets.sol\":1329:1344  events[id].date */\n      0x02\n      add\n      sload\n        /* \"tickets/tickets.sol\":1329:1347  events[id].date!=0 */\n      eq\n      iszero\n        /* \"tickets/tickets.sol\":1321:1371  require(events[id].date!=0,\"Event does not exist\") */\n      tag_77\n      jumpi\n      mload(0x40)\n      0x08c379a000000000000000000000000000000000000000000000000000000000\n      dup2\n      mstore\n      0x04\n      add\n      tag_78\n      swap1\n      tag_60\n      jump\t// in\n    tag_78:\n      mload(0x40)\n      dup1\n      swap2\n      sub\n      swap1\n      revert\n    tag_77:\n        /* \"tickets/tickets.sol\":1406:1421  block.timestamp */\n      timestamp\n        /* \"tickets/tickets.sol\":1390:1396  events */\n      0x00\n        /* \"tickets/tickets.sol\":1390:1400  events[id] */\n      dup1\n        /* \"tickets/tickets.sol\":1397:1399  id */\n      dup6\n        /* \"tickets/tickets.sol\":1390:1400  events[id] */\n      dup2\n      mstore\n      0x20\n      add\n      swap1\n      dup2\n      mstore\n      0x20\n      add\n      0x00\n      keccak256\n        /* \"tickets/tickets.sol\":1390:1405  events[id].date */\n      0x02\n      add\n      sload\n        /* \"tickets/tickets.sol\":1390:1421  events[id].date>block.timestamp */\n      gt\n        /* \"tickets/tickets.sol\":1382:1452  require(events[id].date>block.timestamp, \"Event has already occurred\") */\n      tag_79\n      jumpi\n      mload(0x40)\n      0x08c379a000000000000000000000000000000000000000000000000000000000\n      dup2\n      mstore\n      0x04\n      add\n      tag_80\n      swap1\n      tag_63\n      jump\t// in\n    tag_80:\n      mload(0x40)\n      dup1\n      swap2\n      sub\n      swap1\n      revert\n    tag_79:\n        /* \"tickets/tickets.sol\":1495:1503  quantity */\n      dup2\n        /* \"tickets/tickets.sol\":1470:1477  tickets */\n      0x01\n        /* \"tickets/tickets.sol\":1470:1489  tickets[msg.sender] */\n      0x00\n        /* \"tickets/tickets.sol\":1478:1488  msg.sender */\n      caller\n        /* \"tickets/tickets.sol\":1470:1489  tickets[msg.sender] */\n      0xffffffffffffffffffffffffffffffffffffffff\n      and\n      0xffffffffffffffffffffffffffffffffffffffff\n      and\n      dup2\n      mstore\n      0x20\n      add\n      swap1\n      dup2\n      mstore\n      0x20\n      add\n      0x00\n      keccak256\n        /* \"tickets/tickets.sol\":1470:1493  tickets[msg.sender][id] */\n      0x00\n        /* \"tickets/tickets.sol\":1490:1492  id */\n      dup6\n        /* \"tickets/tickets.sol\":1470:1493  tickets[msg.sender][id] */\n      dup2\n      mstore\n      0x20\n      add\n      swap1\n      dup2\n      mstore\n      0x20\n      add\n      0x00\n      keccak256\n      sload\n        /* \"tickets/tickets.sol\":1470:1503  tickets[msg.sender][id]>=quantity */\n      lt\n      iszero\n        /* \"tickets/tickets.sol\":1462:1537  require(tickets[msg.sender][id]>=quantity,\"You do not have enough tickets\") */\n      tag_81\n      jumpi\n      mload(0x40)\n      0x08c379a000000000000000000000000000000000000000000000000000000000\n      dup2\n      mstore\n      0x04\n      add\n      tag_82\n      swap1\n      tag_83\n      jump\t// in\n    tag_82:\n      mload(0x40)\n      dup1\n      swap2\n      sub\n      swap1\n      revert\n    tag_81:\n        /* \"tickets/tickets.sol\":1573:1581  quantity */\n      dup2\n        /* \"tickets/tickets.sol\":1548:1555  tickets */\n      0x01\n        /* \"tickets/tickets.sol\":1548:1567  tickets[msg.sender] */\n      0x00\n        /* \"tickets/tickets.sol\":1556:1566  msg.sender */\n      caller\n        /* \"tickets/tickets.sol\":1548:1567  tickets[msg.sender] */\n      0xffffffffffffffffffffffffffffffffffffffff\n      and\n      0xffffffffffffffffffffffffffffffffffffffff\n      and\n      dup2\n      mstore\n      0x20\n      add\n      swap1\n      dup2\n      mstore\n      0x20\n      add\n      0x00\n      keccak256\n        /* \"tickets/tickets.sol\":1548:1571  tickets[msg.sender][id] */\n      0x00\n        /* \"tickets/tickets.sol\":1568:1570  id */\n      dup6\n        /* \"tickets/tickets.sol\":1548:1571  tickets[msg.sender][id] */\n      dup2\n      mstore\n      0x20\n      add\n      swap1\n      dup2\n      mstore\n      0x20\n      add\n      0x00\n      keccak256\n      0x00\n        /* \"tickets/tickets.sol\":1548:1581  tickets[msg.sender][id]-=quantity */\n      dup3\n      dup3\n      sload\n      tag_84\n      swap2\n      swap1\n      tag_73\n      jump\t// in\n    tag_84:\n      swap3\n      pop\n      pop\n      dup2\n      swap1\n      sstore\n      pop\n        /* \"tickets/tickets.sol\":1609:1617  quantity */\n      dup2\n        /* \"tickets/tickets.sol\":1592:1599  tickets */\n      0x01\n        /* \"tickets/tickets.sol\":1592:1603  tickets[to] */\n      0x00\n        /* \"tickets/tickets.sol\":1600:1602  to */\n      dup4\n        /* \"tickets/tickets.sol\":1592:1603  tickets[to] */\n      0xffffffffffffffffffffffffffffffffffffffff\n      and\n      0xffffffffffffffffffffffffffffffffffffffff\n      and\n      dup2\n      mstore\n      0x20\n      add\n      swap1\n      dup2\n      mstore\n      0x20\n      add\n      0x00\n      keccak256\n        /* \"tickets/tickets.sol\":1592:1607  tickets[to][id] */\n      0x00\n        /* \"tickets/tickets.sol\":1604:1606  id */\n      dup6\n        /* \"tickets/tickets.sol\":1592:1607  tickets[to][id] */\n      dup2\n      mstore\n      0x20\n      add\n      swap1\n      dup2\n      mstore\n      0x20\n      add\n      0x00\n      keccak256\n      0x00\n        /* \"tickets/tickets.sol\":1592:1617  tickets[to][id]+=quantity */\n      dup3\n      dup3\n      sload\n      tag_85\n      swap2\n      swap1\n      tag_75\n      jump\t// in\n    tag_85:\n      swap3\n      pop\n      pop\n      dup2\n      swap1\n      sstore\n      pop\n        /* \"tickets/tickets.sol\":1242:1626  function transferTickets(uint id, uint quantity, address to)external{\r... */\n      pop\n      pop\n      pop\n      jump\t// out\n        /* \"tickets/tickets.sol\":328:346  uint public nextId */\n    tag_31:\n      sload(0x02)\n      dup2\n      jump\t// out\n        /* \"tickets/tickets.sol\":269:321  mapping(address=>mapping(uint=>uint)) public tickets */\n    tag_38:\n      mstore(0x20, 0x01)\n      dup2\n      0x00\n      mstore\n      mstore(0x20, keccak256(0x00, 0x40))\n      dup1\n      0x00\n      mstore\n      keccak256(0x00, 0x40)\n      0x00\n      swap2\n      pop\n      swap2\n      pop\n      pop\n      sload\n      dup2\n      jump\t// out\n    tag_48:\n      dup3\n      dup1\n      sload\n      tag_86\n      swap1\n      tag_52\n      jump\t// in\n    tag_86:\n      swap1\n      0x00\n      mstore\n      keccak256(0x00, 0x20)\n      swap1\n      0x1f\n      add\n      0x20\n      swap1\n      div\n      dup2\n      add\n      swap3\n      dup3\n      tag_88\n      jumpi\n      0x00\n      dup6\n      sstore\n      jump(tag_87)\n    tag_88:\n      dup3\n      0x1f\n      lt\n      tag_89\n      jumpi\n      dup1\n      mload\n      not(0xff)\n      and\n      dup4\n      dup1\n      add\n      or\n      dup6\n      sstore\n      jump(tag_87)\n    tag_89:\n      dup3\n      dup1\n      add\n      0x01\n      add\n      dup6\n      sstore\n      dup3\n      iszero\n      tag_87\n      jumpi\n      swap2\n      dup3\n      add\n    tag_90:\n      dup3\n      dup2\n      gt\n      iszero\n      tag_91\n      jumpi\n      dup3\n      mload\n      dup3\n      sstore\n      swap2\n      0x20\n      add\n      swap2\n      swap1\n      0x01\n      add\n      swap1\n      jump(tag_90)\n    tag_91:\n    tag_87:\n      pop\n      swap1\n      pop\n      tag_92\n      swap2\n      swap1\n      tag_93\n      jump\t// in\n    tag_92:\n      pop\n      swap1\n      jump\t// out\n    tag_93:\n    tag_94:\n      dup1\n      dup3\n      gt\n      iszero\n      tag_95\n      jumpi\n      0x00\n      dup2\n      0x00\n      swap1\n      sstore\n      pop\n      0x01\n      add\n      jump(tag_94)\n    tag_95:\n      pop\n      swap1\n      jump\t// out\n        /* \"#utility.yul\":7:351   */\n    tag_97:\n      0x00\n        /* \"#utility.yul\":110:175   */\n      tag_99\n        /* \"#utility.yul\":125:174   */\n      tag_100\n        /* \"#utility.yul\":167:173   */\n      dup5\n        /* \"#utility.yul\":125:174   */\n      tag_101\n      jump\t// in\n    tag_100:\n        /* \"#utility.yul\":110:175   */\n      tag_102\n      jump\t// in\n    tag_99:\n        /* \"#utility.yul\":101:175   */\n      swap1\n      pop\n        /* \"#utility.yul\":198:204   */\n      dup3\n        /* \"#utility.yul\":191:196   */\n      dup2\n        /* \"#utility.yul\":184:205   */\n      mstore\n        /* \"#utility.yul\":236:240   */\n      0x20\n        /* \"#utility.yul\":229:234   */\n      dup2\n        /* \"#utility.yul\":225:241   */\n      add\n        /* \"#utility.yul\":274:277   */\n      dup5\n        /* \"#utility.yul\":265:271   */\n      dup5\n        /* \"#utility.yul\":260:263   */\n      dup5\n        /* \"#utility.yul\":256:272   */\n      add\n        /* \"#utility.yul\":253:278   */\n      gt\n        /* \"#utility.yul\":250:252   */\n      iszero\n      tag_103\n      jumpi\n        /* \"#utility.yul\":291:292   */\n      0x00\n        /* \"#utility.yul\":288:289   */\n      dup1\n        /* \"#utility.yul\":281:293   */\n      revert\n        /* \"#utility.yul\":250:252   */\n    tag_103:\n        /* \"#utility.yul\":304:345   */\n      tag_104\n        /* \"#utility.yul\":338:344   */\n      dup5\n        /* \"#utility.yul\":333:336   */\n      dup3\n        /* \"#utility.yul\":328:331   */\n      dup6\n        /* \"#utility.yul\":304:345   */\n      tag_105\n      jump\t// in\n    tag_104:\n        /* \"#utility.yul\":91:351   */\n      pop\n      swap4\n      swap3\n      pop\n      pop\n      pop\n      jump\t// out\n        /* \"#utility.yul\":357:496   */\n    tag_106:\n      0x00\n        /* \"#utility.yul\":441:447   */\n      dup2\n        /* \"#utility.yul\":428:448   */\n      calldataload\n        /* \"#utility.yul\":419:448   */\n      swap1\n      pop\n        /* \"#utility.yul\":457:490   */\n      tag_108\n        /* \"#utility.yul\":484:489   */\n      dup2\n        /* \"#utility.yul\":457:490   */\n      tag_109\n      jump\t// in\n    tag_108:\n        /* \"#utility.yul\":409:496   */\n      swap3\n      swap2\n      pop\n      pop\n      jump\t// out\n        /* \"#utility.yul\":516:789   */\n    tag_110:\n      0x00\n        /* \"#utility.yul\":621:624   */\n      dup3\n        /* \"#utility.yul\":614:618   */\n      0x1f\n        /* \"#utility.yul\":606:612   */\n      dup4\n        /* \"#utility.yul\":602:619   */\n      add\n        /* \"#utility.yul\":598:625   */\n      slt\n        /* \"#utility.yul\":588:590   */\n      tag_112\n      jumpi\n        /* \"#utility.yul\":639:640   */\n      0x00\n        /* \"#utility.yul\":636:637   */\n      dup1\n        /* \"#utility.yul\":629:641   */\n      revert\n        /* \"#utility.yul\":588:590   */\n    tag_112:\n        /* \"#utility.yul\":679:685   */\n      dup2\n        /* \"#utility.yul\":666:686   */\n      calldataload\n        /* \"#utility.yul\":704:783   */\n      tag_113\n        /* \"#utility.yul\":779:782   */\n      dup5\n        /* \"#utility.yul\":771:777   */\n      dup3\n        /* \"#utility.yul\":764:768   */\n      0x20\n        /* \"#utility.yul\":756:762   */\n      dup7\n        /* \"#utility.yul\":752:769   */\n      add\n        /* \"#utility.yul\":704:783   */\n      tag_97\n      jump\t// in\n    tag_113:\n        /* \"#utility.yul\":695:783   */\n      swap2\n      pop\n        /* \"#utility.yul\":578:789   */\n      pop\n      swap3\n      swap2\n      pop\n      pop\n      jump\t// out\n        /* \"#utility.yul\":795:934   */\n    tag_114:\n      0x00\n        /* \"#utility.yul\":879:885   */\n      dup2\n        /* \"#utility.yul\":866:886   */\n      calldataload\n        /* \"#utility.yul\":857:886   */\n      swap1\n      pop\n        /* \"#utility.yul\":895:928   */\n      tag_116\n        /* \"#utility.yul\":922:927   */\n      dup2\n        /* \"#utility.yul\":895:928   */\n      tag_117\n      jump\t// in\n    tag_116:\n        /* \"#utility.yul\":847:934   */\n      swap3\n      swap2\n      pop\n      pop\n      jump\t// out\n        /* \"#utility.yul\":940:1347   */\n    tag_37:\n      0x00\n      dup1\n        /* \"#utility.yul\":1065:1067   */\n      0x40\n        /* \"#utility.yul\":1053:1062   */\n      dup4\n        /* \"#utility.yul\":1044:1051   */\n      dup6\n        /* \"#utility.yul\":1040:1063   */\n      sub\n        /* \"#utility.yul\":1036:1068   */\n      slt\n        /* \"#utility.yul\":1033:1035   */\n      iszero\n      tag_119\n      jumpi\n        /* \"#utility.yul\":1081:1082   */\n      0x00\n        /* \"#utility.yul\":1078:1079   */\n      dup1\n        /* \"#utility.yul\":1071:1083   */\n      revert\n        /* \"#utility.yul\":1033:1035   */\n    tag_119:\n        /* \"#utility.yul\":1124:1125   */\n      0x00\n        /* \"#utility.yul\":1149:1202   */\n      tag_120\n        /* \"#utility.yul\":1194:1201   */\n      dup6\n        /* \"#utility.yul\":1185:1191   */\n      dup3\n        /* \"#utility.yul\":1174:1183   */\n      dup7\n        /* \"#utility.yul\":1170:1192   */\n      add\n        /* \"#utility.yul\":1149:1202   */\n      tag_106\n      jump\t// in\n    tag_120:\n        /* \"#utility.yul\":1139:1202   */\n      swap3\n      pop\n        /* \"#utility.yul\":1095:1212   */\n      pop\n        /* \"#utility.yul\":1251:1253   */\n      0x20\n        /* \"#utility.yul\":1277:1330   */\n      tag_121\n        /* \"#utility.yul\":1322:1329   */\n      dup6\n        /* \"#utility.yul\":1313:1319   */\n      dup3\n        /* \"#utility.yul\":1302:1311   */\n      dup7\n        /* \"#utility.yul\":1298:1320   */\n      add\n        /* \"#utility.yul\":1277:1330   */\n      tag_114\n      jump\t// in\n    tag_121:\n        /* \"#utility.yul\":1267:1330   */\n      swap2\n      pop\n        /* \"#utility.yul\":1222:1340   */\n      pop\n        /* \"#utility.yul\":1023:1347   */\n      swap3\n      pop\n      swap3\n      swap1\n      pop\n      jump\t// out\n        /* \"#utility.yul\":1353:2164   */\n    tag_11:\n      0x00\n      dup1\n      0x00\n      dup1\n        /* \"#utility.yul\":1522:1525   */\n      0x80\n        /* \"#utility.yul\":1510:1519   */\n      dup6\n        /* \"#utility.yul\":1501:1508   */\n      dup8\n        /* \"#utility.yul\":1497:1520   */\n      sub\n        /* \"#utility.yul\":1493:1526   */\n      slt\n        /* \"#utility.yul\":1490:1492   */\n      iszero\n      tag_123\n      jumpi\n        /* \"#utility.yul\":1539:1540   */\n      0x00\n        /* \"#utility.yul\":1536:1537   */\n      dup1\n        /* \"#utility.yul\":1529:1541   */\n      revert\n        /* \"#utility.yul\":1490:1492   */\n    tag_123:\n        /* \"#utility.yul\":1610:1611   */\n      0x00\n        /* \"#utility.yul\":1599:1608   */\n      dup6\n        /* \"#utility.yul\":1595:1612   */\n      add\n        /* \"#utility.yul\":1582:1613   */\n      calldataload\n        /* \"#utility.yul\":1640:1658   */\n      0xffffffffffffffff\n        /* \"#utility.yul\":1632:1638   */\n      dup2\n        /* \"#utility.yul\":1629:1659   */\n      gt\n        /* \"#utility.yul\":1626:1628   */\n      iszero\n      tag_124\n      jumpi\n        /* \"#utility.yul\":1672:1673   */\n      0x00\n        /* \"#utility.yul\":1669:1670   */\n      dup1\n        /* \"#utility.yul\":1662:1674   */\n      revert\n        /* \"#utility.yul\":1626:1628   */\n    tag_124:\n        /* \"#utility.yul\":1700:1763   */\n      tag_125\n        /* \"#utility.yul\":1755:1762   */\n      dup8\n        /* \"#utility.yul\":1746:1752   */\n      dup3\n        /* \"#utility.yul\":1735:1744   */\n      dup9\n        /* \"#utility.yul\":1731:1753   */\n      add\n        /* \"#utility.yul\":1700:1763   */\n      tag_110\n      jump\t// in\n    tag_125:\n        /* \"#utility.yul\":1690:1763   */\n      swap5\n      pop\n        /* \"#utility.yul\":1553:1773   */\n      pop\n        /* \"#utility.yul\":1812:1814   */\n      0x20\n        /* \"#utility.yul\":1838:1891   */\n      tag_126\n        /* \"#utility.yul\":1883:1890   */\n      dup8\n        /* \"#utility.yul\":1874:1880   */\n      dup3\n        /* \"#utility.yul\":1863:1872   */\n      dup9\n        /* \"#utility.yul\":1859:1881   */\n      add\n        /* \"#utility.yul\":1838:1891   */\n      tag_114\n      jump\t// in\n    tag_126:\n        /* \"#utility.yul\":1828:1891   */\n      swap4\n      pop\n        /* \"#utility.yul\":1783:1901   */\n      pop\n        /* \"#utility.yul\":1940:1942   */\n      0x40\n        /* \"#utility.yul\":1966:2019   */\n      tag_127\n        /* \"#utility.yul\":2011:2018   */\n      dup8\n        /* \"#utility.yul\":2002:2008   */\n      dup3\n        /* \"#utility.yul\":1991:2000   */\n      dup9\n        /* \"#utility.yul\":1987:2009   */\n      add\n        /* \"#utility.yul\":1966:2019   */\n      tag_114\n      jump\t// in\n    tag_127:\n        /* \"#utility.yul\":1956:2019   */\n      swap3\n      pop\n        /* \"#utility.yul\":1911:2029   */\n      pop\n        /* \"#utility.yul\":2068:2070   */\n      0x60\n        /* \"#utility.yul\":2094:2147   */\n      tag_128\n        /* \"#utility.yul\":2139:2146   */\n      dup8\n        /* \"#utility.yul\":2130:2136   */\n      dup3\n        /* \"#utility.yul\":2119:2128   */\n      dup9\n        /* \"#utility.yul\":2115:2137   */\n      add\n        /* \"#utility.yul\":2094:2147   */\n      tag_114\n      jump\t// in\n    tag_128:\n        /* \"#utility.yul\":2084:2147   */\n      swap2\n      pop\n        /* \"#utility.yul\":2039:2157   */\n      pop\n        /* \"#utility.yul\":1480:2164   */\n      swap3\n      swap6\n      swap2\n      swap5\n      pop\n      swap3\n      pop\n      jump\t// out\n        /* \"#utility.yul\":2170:2432   */\n    tag_16:\n      0x00\n        /* \"#utility.yul\":2278:2280   */\n      0x20\n        /* \"#utility.yul\":2266:2275   */\n      dup3\n        /* \"#utility.yul\":2257:2264   */\n      dup5\n        /* \"#utility.yul\":2253:2276   */\n      sub\n        /* \"#utility.yul\":2249:2281   */\n      slt\n        /* \"#utility.yul\":2246:2248   */\n      iszero\n      tag_130\n      jumpi\n        /* \"#utility.yul\":2294:2295   */\n      0x00\n        /* \"#utility.yul\":2291:2292   */\n      dup1\n        /* \"#utility.yul\":2284:2296   */\n      revert\n        /* \"#utility.yul\":2246:2248   */\n    tag_130:\n        /* \"#utility.yul\":2337:2338   */\n      0x00\n        /* \"#utility.yul\":2362:2415   */\n      tag_131\n        /* \"#utility.yul\":2407:2414   */\n      dup5\n        /* \"#utility.yul\":2398:2404   */\n      dup3\n        /* \"#utility.yul\":2387:2396   */\n      dup6\n        /* \"#utility.yul\":2383:2405   */\n      add\n        /* \"#utility.yul\":2362:2415   */\n      tag_114\n      jump\t// in\n    tag_131:\n        /* \"#utility.yul\":2352:2415   */\n      swap2\n      pop\n        /* \"#utility.yul\":2308:2425   */\n      pop\n        /* \"#utility.yul\":2236:2432   */\n      swap3\n      swap2\n      pop\n      pop\n      jump\t// out\n        /* \"#utility.yul\":2438:2845   */\n    tag_22:\n      0x00\n      dup1\n        /* \"#utility.yul\":2563:2565   */\n      0x40\n        /* \"#utility.yul\":2551:2560   */\n      dup4\n        /* \"#utility.yul\":2542:2549   */\n      dup6\n        /* \"#utility.yul\":2538:2561   */\n      sub\n        /* \"#utility.yul\":2534:2566   */\n      slt\n        /* \"#utility.yul\":2531:2533   */\n      iszero\n      tag_133\n      jumpi\n        /* \"#utility.yul\":2579:2580   */\n      0x00\n        /* \"#utility.yul\":2576:2577   */\n      dup1\n        /* \"#utility.yul\":2569:2581   */\n      revert\n        /* \"#utility.yul\":2531:2533   */\n    tag_133:\n        /* \"#utility.yul\":2622:2623   */\n      0x00\n        /* \"#utility.yul\":2647:2700   */\n      tag_134\n        /* \"#utility.yul\":2692:2699   */\n      dup6\n        /* \"#utility.yul\":2683:2689   */\n      dup3\n        /* \"#utility.yul\":2672:2681   */\n      dup7\n        /* \"#utility.yul\":2668:2690   */\n      add\n        /* \"#utility.yul\":2647:2700   */\n      tag_114\n      jump\t// in\n    tag_134:\n        /* \"#utility.yul\":2637:2700   */\n      swap3\n      pop\n        /* \"#utility.yul\":2593:2710   */\n      pop\n        /* \"#utility.yul\":2749:2751   */\n      0x20\n        /* \"#utility.yul\":2775:2828   */\n      tag_135\n        /* \"#utility.yul\":2820:2827   */\n      dup6\n        /* \"#utility.yul\":2811:2817   */\n      dup3\n        /* \"#utility.yul\":2800:2809   */\n      dup7\n        /* \"#utility.yul\":2796:2818   */\n      add\n        /* \"#utility.yul\":2775:2828   */\n      tag_114\n      jump\t// in\n    tag_135:\n        /* \"#utility.yul\":2765:2828   */\n      swap2\n      pop\n        /* \"#utility.yul\":2720:2838   */\n      pop\n        /* \"#utility.yul\":2521:2845   */\n      swap3\n      pop\n      swap3\n      swap1\n      pop\n      jump\t// out\n        /* \"#utility.yul\":2851:3403   */\n    tag_27:\n      0x00\n      dup1\n      0x00\n        /* \"#utility.yul\":2993:2995   */\n      0x60\n        /* \"#utility.yul\":2981:2990   */\n      dup5\n        /* \"#utility.yul\":2972:2979   */\n      dup7\n        /* \"#utility.yul\":2968:2991   */\n      sub\n        /* \"#utility.yul\":2964:2996   */\n      slt\n        /* \"#utility.yul\":2961:2963   */\n      iszero\n      tag_137\n      jumpi\n        /* \"#utility.yul\":3009:3010   */\n      0x00\n        /* \"#utility.yul\":3006:3007   */\n      dup1\n        /* \"#utility.yul\":2999:3011   */\n      revert\n        /* \"#utility.yul\":2961:2963   */\n    tag_137:\n        /* \"#utility.yul\":3052:3053   */\n      0x00\n        /* \"#utility.yul\":3077:3130   */\n      tag_138\n        /* \"#utility.yul\":3122:3129   */\n      dup7\n        /* \"#utility.yul\":3113:3119   */\n      dup3\n        /* \"#utility.yul\":3102:3111   */\n      dup8\n        /* \"#utility.yul\":3098:3120   */\n      add\n        /* \"#utility.yul\":3077:3130   */\n      tag_114\n      jump\t// in\n    tag_138:\n        /* \"#utility.yul\":3067:3130   */\n      swap4\n      pop\n        /* \"#utility.yul\":3023:3140   */\n      pop\n        /* \"#utility.yul\":3179:3181   */\n      0x20\n        /* \"#utility.yul\":3205:3258   */\n      tag_139\n        /* \"#utility.yul\":3250:3257   */\n      dup7\n        /* \"#utility.yul\":3241:3247   */\n      dup3\n        /* \"#utility.yul\":3230:3239   */\n      dup8\n        /* \"#utility.yul\":3226:3248   */\n      add\n        /* \"#utility.yul\":3205:3258   */\n      tag_114\n      jump\t// in\n    tag_139:\n        /* \"#utility.yul\":3195:3258   */\n      swap3\n      pop\n        /* \"#utility.yul\":3150:3268   */\n      pop\n        /* \"#utility.yul\":3307:3309   */\n      0x40\n        /* \"#utility.yul\":3333:3386   */\n      tag_140\n        /* \"#utility.yul\":3378:3385   */\n      dup7\n        /* \"#utility.yul\":3369:3375   */\n      dup3\n        /* \"#utility.yul\":3358:3367   */\n      dup8\n        /* \"#utility.yul\":3354:3376   */\n      add\n        /* \"#utility.yul\":3333:3386   */\n      tag_106\n      jump\t// in\n    tag_140:\n        /* \"#utility.yul\":3323:3386   */\n      swap2\n      pop\n        /* \"#utility.yul\":3278:3396   */\n      pop\n        /* \"#utility.yul\":2951:3403   */\n      swap3\n      pop\n      swap3\n      pop\n      swap3\n      jump\t// out\n        /* \"#utility.yul\":3409:3527   */\n    tag_141:\n        /* \"#utility.yul\":3496:3520   */\n      tag_143\n        /* \"#utility.yul\":3514:3519   */\n      dup2\n        /* \"#utility.yul\":3496:3520   */\n      tag_144\n      jump\t// in\n    tag_143:\n        /* \"#utility.yul\":3491:3494   */\n      dup3\n        /* \"#utility.yul\":3484:3521   */\n      mstore\n        /* \"#utility.yul\":3474:3527   */\n      pop\n      pop\n      jump\t// out\n        /* \"#utility.yul\":3533:3897   */\n    tag_145:\n      0x00\n        /* \"#utility.yul\":3649:3688   */\n      tag_147\n        /* \"#utility.yul\":3682:3687   */\n      dup3\n        /* \"#utility.yul\":3649:3688   */\n      tag_148\n      jump\t// in\n    tag_147:\n        /* \"#utility.yul\":3704:3775   */\n      tag_149\n        /* \"#utility.yul\":3768:3774   */\n      dup2\n        /* \"#utility.yul\":3763:3766   */\n      dup6\n        /* \"#utility.yul\":3704:3775   */\n      tag_150\n      jump\t// in\n    tag_149:\n        /* \"#utility.yul\":3697:3775   */\n      swap4\n      pop\n        /* \"#utility.yul\":3784:3836   */\n      tag_151\n        /* \"#utility.yul\":3829:3835   */\n      dup2\n        /* \"#utility.yul\":3824:3827   */\n      dup6\n        /* \"#utility.yul\":3817:3821   */\n      0x20\n        /* \"#utility.yul\":3810:3815   */\n      dup7\n        /* \"#utility.yul\":3806:3822   */\n      add\n        /* \"#utility.yul\":3784:3836   */\n      tag_152\n      jump\t// in\n    tag_151:\n        /* \"#utility.yul\":3861:3890   */\n      tag_153\n        /* \"#utility.yul\":3883:3889   */\n      dup2\n        /* \"#utility.yul\":3861:3890   */\n      tag_154\n      jump\t// in\n    tag_153:\n        /* \"#utility.yul\":3856:3859   */\n      dup5\n        /* \"#utility.yul\":3852:3891   */\n      add\n        /* \"#utility.yul\":3845:3891   */\n      swap2\n      pop\n        /* \"#utility.yul\":3625:3897   */\n      pop\n      swap3\n      swap2\n      pop\n      pop\n      jump\t// out\n        /* \"#utility.yul\":3903:4273   */\n    tag_155:\n      0x00\n        /* \"#utility.yul\":4066:4133   */\n      tag_157\n        /* \"#utility.yul\":4130:4132   */\n      0x26\n        /* \"#utility.yul\":4125:4128   */\n      dup4\n        /* \"#utility.yul\":4066:4133   */\n      tag_150\n      jump\t// in\n    tag_157:\n        /* \"#utility.yul\":4059:4133   */\n      swap2\n      pop\n        /* \"#utility.yul\":4163:4197   */\n      0x596f752063616e206f7267616e697a65206576656e7420666f72206675747572\n        /* \"#utility.yul\":4159:4160   */\n      0x00\n        /* \"#utility.yul\":4154:4157   */\n      dup4\n        /* \"#utility.yul\":4150:4161   */\n      add\n        /* \"#utility.yul\":4143:4198   */\n      mstore\n        /* \"#utility.yul\":4229:4237   */\n      0x6520646174650000000000000000000000000000000000000000000000000000\n        /* \"#utility.yul\":4224:4226   */\n      0x20\n        /* \"#utility.yul\":4219:4222   */\n      dup4\n        /* \"#utility.yul\":4215:4227   */\n      add\n        /* \"#utility.yul\":4208:4238   */\n      mstore\n        /* \"#utility.yul\":4264:4266   */\n      0x40\n        /* \"#utility.yul\":4259:4262   */\n      dup3\n        /* \"#utility.yul\":4255:4267   */\n      add\n        /* \"#utility.yul\":4248:4267   */\n      swap1\n      pop\n        /* \"#utility.yul\":4049:4273   */\n      swap2\n      swap1\n      pop\n      jump\t// out\n        /* \"#utility.yul\":4279:4672   */\n    tag_158:\n      0x00\n        /* \"#utility.yul\":4442:4509   */\n      tag_160\n        /* \"#utility.yul\":4506:4508   */\n      0x3d\n        /* \"#utility.yul\":4501:4504   */\n      dup4\n        /* \"#utility.yul\":4442:4509   */\n      tag_150\n      jump\t// in\n    tag_160:\n        /* \"#utility.yul\":4435:4509   */\n      swap2\n      pop\n        /* \"#utility.yul\":4539:4573   */\n      0x596f752063616e206f7267616e697a65206576656e74206f6e6c792069662079\n        /* \"#utility.yul\":4535:4536   */\n      0x00\n        /* \"#utility.yul\":4530:4533   */\n      dup4\n        /* \"#utility.yul\":4526:4537   */\n      add\n        /* \"#utility.yul\":4519:4574   */\n      mstore\n        /* \"#utility.yul\":4605:4636   */\n      0x6f7520637265617465206d6f7265207468616e2030207469636b657473000000\n        /* \"#utility.yul\":4600:4602   */\n      0x20\n        /* \"#utility.yul\":4595:4598   */\n      dup4\n        /* \"#utility.yul\":4591:4603   */\n      add\n        /* \"#utility.yul\":4584:4637   */\n      mstore\n        /* \"#utility.yul\":4663:4665   */\n      0x40\n        /* \"#utility.yul\":4658:4661   */\n      dup3\n        /* \"#utility.yul\":4654:4666   */\n      add\n        /* \"#utility.yul\":4647:4666   */\n      swap1\n      pop\n        /* \"#utility.yul\":4425:4672   */\n      swap2\n      swap1\n      pop\n      jump\t// out\n        /* \"#utility.yul\":4678:4994   */\n    tag_161:\n      0x00\n        /* \"#utility.yul\":4841:4908   */\n      tag_163\n        /* \"#utility.yul\":4905:4907   */\n      0x12\n        /* \"#utility.yul\":4900:4903   */\n      dup4\n        /* \"#utility.yul\":4841:4908   */\n      tag_150\n      jump\t// in\n    tag_163:\n        /* \"#utility.yul\":4834:4908   */\n      swap2\n      pop\n        /* \"#utility.yul\":4938:4958   */\n      0x4e6f7420656e6f756768207469636b6574730000000000000000000000000000\n        /* \"#utility.yul\":4934:4935   */\n      0x00\n        /* \"#utility.yul\":4929:4932   */\n      dup4\n        /* \"#utility.yul\":4925:4936   */\n      add\n        /* \"#utility.yul\":4918:4959   */\n      mstore\n        /* \"#utility.yul\":4985:4987   */\n      0x20\n        /* \"#utility.yul\":4980:4983   */\n      dup3\n        /* \"#utility.yul\":4976:4988   */\n      add\n        /* \"#utility.yul\":4969:4988   */\n      swap1\n      pop\n        /* \"#utility.yul\":4824:4994   */\n      swap2\n      swap1\n      pop\n      jump\t// out\n        /* \"#utility.yul\":5000:5324   */\n    tag_164:\n      0x00\n        /* \"#utility.yul\":5163:5230   */\n      tag_166\n        /* \"#utility.yul\":5227:5229   */\n      0x1a\n        /* \"#utility.yul\":5222:5225   */\n      dup4\n        /* \"#utility.yul\":5163:5230   */\n      tag_150\n      jump\t// in\n    tag_166:\n        /* \"#utility.yul\":5156:5230   */\n      swap2\n      pop\n        /* \"#utility.yul\":5260:5288   */\n      0x4576656e742068617320616c7265616479206f63637572726564000000000000\n        /* \"#utility.yul\":5256:5257   */\n      0x00\n        /* \"#utility.yul\":5251:5254   */\n      dup4\n        /* \"#utility.yul\":5247:5258   */\n      add\n        /* \"#utility.yul\":5240:5289   */\n      mstore\n        /* \"#utility.yul\":5315:5317   */\n      0x20\n        /* \"#utility.yul\":5310:5313   */\n      dup3\n        /* \"#utility.yul\":5306:5318   */\n      add\n        /* \"#utility.yul\":5299:5318   */\n      swap1\n      pop\n        /* \"#utility.yul\":5146:5324   */\n      swap2\n      swap1\n      pop\n      jump\t// out\n        /* \"#utility.yul\":5330:5647   */\n    tag_167:\n      0x00\n        /* \"#utility.yul\":5493:5560   */\n      tag_169\n        /* \"#utility.yul\":5557:5559   */\n      0x13\n        /* \"#utility.yul\":5552:5555   */\n      dup4\n        /* \"#utility.yul\":5493:5560   */\n      tag_150\n      jump\t// in\n    tag_169:\n        /* \"#utility.yul\":5486:5560   */\n      swap2\n      pop\n        /* \"#utility.yul\":5590:5611   */\n      0x4574686572206973206e6f7420656e6f75676800000000000000000000000000\n        /* \"#utility.yul\":5586:5587   */\n      0x00\n        /* \"#utility.yul\":5581:5584   */\n      dup4\n        /* \"#utility.yul\":5577:5588   */\n      add\n        /* \"#utility.yul\":5570:5612   */\n      mstore\n        /* \"#utility.yul\":5638:5640   */\n      0x20\n        /* \"#utility.yul\":5633:5636   */\n      dup3\n        /* \"#utility.yul\":5629:5641   */\n      add\n        /* \"#utility.yul\":5622:5641   */\n      swap1\n      pop\n        /* \"#utility.yul\":5476:5647   */\n      swap2\n      swap1\n      pop\n      jump\t// out\n        /* \"#utility.yul\":5653:5971   */\n    tag_170:\n      0x00\n        /* \"#utility.yul\":5816:5883   */\n      tag_172\n        /* \"#utility.yul\":5880:5882   */\n      0x14\n        /* \"#utility.yul\":5875:5878   */\n      dup4\n        /* \"#utility.yul\":5816:5883   */\n      tag_150\n      jump\t// in\n    tag_172:\n        /* \"#utility.yul\":5809:5883   */\n      swap2\n      pop\n        /* \"#utility.yul\":5913:5935   */\n      0x4576656e7420646f6573206e6f74206578697374000000000000000000000000\n        /* \"#utility.yul\":5909:5910   */\n      0x00\n        /* \"#utility.yul\":5904:5907   */\n      dup4\n        /* \"#utility.yul\":5900:5911   */\n      add\n        /* \"#utility.yul\":5893:5936   */\n      mstore\n        /* \"#utility.yul\":5962:5964   */\n      0x20\n        /* \"#utility.yul\":5957:5960   */\n      dup3\n        /* \"#utility.yul\":5953:5965   */\n      add\n        /* \"#utility.yul\":5946:5965   */\n      swap1\n      pop\n        /* \"#utility.yul\":5799:5971   */\n      swap2\n      swap1\n      pop\n      jump\t// out\n        /* \"#utility.yul\":5977:6305   */\n    tag_173:\n      0x00\n        /* \"#utility.yul\":6140:6207   */\n      tag_175\n        /* \"#utility.yul\":6204:6206   */\n      0x1e\n        /* \"#utility.yul\":6199:6202   */\n      dup4\n        /* \"#utility.yul\":6140:6207   */\n      tag_150\n      jump\t// in\n    tag_175:\n        /* \"#utility.yul\":6133:6207   */\n      swap2\n      pop\n        /* \"#utility.yul\":6237:6269   */\n      0x596f7520646f206e6f74206861766520656e6f756768207469636b6574730000\n        /* \"#utility.yul\":6233:6234   */\n      0x00\n        /* \"#utility.yul\":6228:6231   */\n      dup4\n        /* \"#utility.yul\":6224:6235   */\n      add\n        /* \"#utility.yul\":6217:6270   */\n      mstore\n        /* \"#utility.yul\":6296:6298   */\n      0x20\n        /* \"#utility.yul\":6291:6294   */\n      dup3\n        /* \"#utility.yul\":6287:6299   */\n      add\n        /* \"#utility.yul\":6280:6299   */\n      swap1\n      pop\n        /* \"#utility.yul\":6123:6305   */\n      swap2\n      swap1\n      pop\n      jump\t// out\n        /* \"#utility.yul\":6311:6429   */\n    tag_176:\n        /* \"#utility.yul\":6398:6422   */\n      tag_178\n        /* \"#utility.yul\":6416:6421   */\n      dup2\n        /* \"#utility.yul\":6398:6422   */\n      tag_179\n      jump\t// in\n    tag_178:\n        /* \"#utility.yul\":6393:6396   */\n      dup3\n        /* \"#utility.yul\":6386:6423   */\n      mstore\n        /* \"#utility.yul\":6376:6429   */\n      pop\n      pop\n      jump\t// out\n        /* \"#utility.yul\":6435:7301   */\n    tag_19:\n      0x00\n        /* \"#utility.yul\":6726:6729   */\n      0xc0\n        /* \"#utility.yul\":6715:6724   */\n      dup3\n        /* \"#utility.yul\":6711:6730   */\n      add\n        /* \"#utility.yul\":6703:6730   */\n      swap1\n      pop\n        /* \"#utility.yul\":6740:6811   */\n      tag_181\n        /* \"#utility.yul\":6808:6809   */\n      0x00\n        /* \"#utility.yul\":6797:6806   */\n      dup4\n        /* \"#utility.yul\":6793:6810   */\n      add\n        /* \"#utility.yul\":6784:6790   */\n      dup10\n        /* \"#utility.yul\":6740:6811   */\n      tag_141\n      jump\t// in\n    tag_181:\n        /* \"#utility.yul\":6858:6867   */\n      dup2\n        /* \"#utility.yul\":6852:6856   */\n      dup2\n        /* \"#utility.yul\":6848:6868   */\n      sub\n        /* \"#utility.yul\":6843:6845   */\n      0x20\n        /* \"#utility.yul\":6832:6841   */\n      dup4\n        /* \"#utility.yul\":6828:6846   */\n      add\n        /* \"#utility.yul\":6821:6869   */\n      mstore\n        /* \"#utility.yul\":6886:6964   */\n      tag_182\n        /* \"#utility.yul\":6959:6963   */\n      dup2\n        /* \"#utility.yul\":6950:6956   */\n      dup9\n        /* \"#utility.yul\":6886:6964   */\n      tag_145\n      jump\t// in\n    tag_182:\n        /* \"#utility.yul\":6878:6964   */\n      swap1\n      pop\n        /* \"#utility.yul\":6974:7046   */\n      tag_183\n        /* \"#utility.yul\":7042:7044   */\n      0x40\n        /* \"#utility.yul\":7031:7040   */\n      dup4\n        /* \"#utility.yul\":7027:7045   */\n      add\n        /* \"#utility.yul\":7018:7024   */\n      dup8\n        /* \"#utility.yul\":6974:7046   */\n      tag_176\n      jump\t// in\n    tag_183:\n        /* \"#utility.yul\":7056:7128   */\n      tag_184\n        /* \"#utility.yul\":7124:7126   */\n      0x60\n        /* \"#utility.yul\":7113:7122   */\n      dup4\n        /* \"#utility.yul\":7109:7127   */\n      add\n        /* \"#utility.yul\":7100:7106   */\n      dup7\n        /* \"#utility.yul\":7056:7128   */\n      tag_176\n      jump\t// in\n    tag_184:\n        /* \"#utility.yul\":7138:7211   */\n      tag_185\n        /* \"#utility.yul\":7206:7209   */\n      0x80\n        /* \"#utility.yul\":7195:7204   */\n      dup4\n        /* \"#utility.yul\":7191:7210   */\n      add\n        /* \"#utility.yul\":7182:7188   */\n      dup6\n        /* \"#utility.yul\":7138:7211   */\n      tag_176\n      jump\t// in\n    tag_185:\n        /* \"#utility.yul\":7221:7294   */\n      tag_186\n        /* \"#utility.yul\":7289:7292   */\n      0xa0\n        /* \"#utility.yul\":7278:7287   */\n      dup4\n        /* \"#utility.yul\":7274:7293   */\n      add\n        /* \"#utility.yul\":7265:7271   */\n      dup5\n        /* \"#utility.yul\":7221:7294   */\n      tag_176\n      jump\t// in\n    tag_186:\n        /* \"#utility.yul\":6693:7301   */\n      swap8\n      swap7\n      pop\n      pop\n      pop\n      pop\n      pop\n      pop\n      pop\n      jump\t// out\n        /* \"#utility.yul\":7307:7726   */\n    tag_43:\n      0x00\n        /* \"#utility.yul\":7511:7513   */\n      0x20\n        /* \"#utility.yul\":7500:7509   */\n      dup3\n        /* \"#utility.yul\":7496:7514   */\n      add\n        /* \"#utility.yul\":7488:7514   */\n      swap1\n      pop\n        /* \"#utility.yul\":7560:7569   */\n      dup2\n        /* \"#utility.yul\":7554:7558   */\n      dup2\n        /* \"#utility.yul\":7550:7570   */\n      sub\n        /* \"#utility.yul\":7546:7547   */\n      0x00\n        /* \"#utility.yul\":7535:7544   */\n      dup4\n        /* \"#utility.yul\":7531:7548   */\n      add\n        /* \"#utility.yul\":7524:7571   */\n      mstore\n        /* \"#utility.yul\":7588:7719   */\n      tag_188\n        /* \"#utility.yul\":7714:7718   */\n      dup2\n        /* \"#utility.yul\":7588:7719   */\n      tag_155\n      jump\t// in\n    tag_188:\n        /* \"#utility.yul\":7580:7719   */\n      swap1\n      pop\n        /* \"#utility.yul\":7478:7726   */\n      swap2\n      swap1\n      pop\n      jump\t// out\n        /* \"#utility.yul\":7732:8151   */\n    tag_46:\n      0x00\n        /* \"#utility.yul\":7936:7938   */\n      0x20\n        /* \"#utility.yul\":7925:7934   */\n      dup3\n        /* \"#utility.yul\":7921:7939   */\n      add\n        /* \"#utility.yul\":7913:7939   */\n      swap1\n      pop\n        /* \"#utility.yul\":7985:7994   */\n      dup2\n        /* \"#utility.yul\":7979:7983   */\n      dup2\n        /* \"#utility.yul\":7975:7995   */\n      sub\n        /* \"#utility.yul\":7971:7972   */\n      0x00\n        /* \"#utility.yul\":7960:7969   */\n      dup4\n        /* \"#utility.yul\":7956:7973   */\n      add\n        /* \"#utility.yul\":7949:7996   */\n      mstore\n        /* \"#utility.yul\":8013:8144   */\n      tag_190\n        /* \"#utility.yul\":8139:8143   */\n      dup2\n        /* \"#utility.yul\":8013:8144   */\n      tag_158\n      jump\t// in\n    tag_190:\n        /* \"#utility.yul\":8005:8144   */\n      swap1\n      pop\n        /* \"#utility.yul\":7903:8151   */\n      swap2\n      swap1\n      pop\n      jump\t// out\n        /* \"#utility.yul\":8157:8576   */\n    tag_71:\n      0x00\n        /* \"#utility.yul\":8361:8363   */\n      0x20\n        /* \"#utility.yul\":8350:8359   */\n      dup3\n        /* \"#utility.yul\":8346:8364   */\n      add\n        /* \"#utility.yul\":8338:8364   */\n      swap1\n      pop\n        /* \"#utility.yul\":8410:8419   */\n      dup2\n        /* \"#utility.yul\":8404:8408   */\n      dup2\n        /* \"#utility.yul\":8400:8420   */\n      sub\n        /* \"#utility.yul\":8396:8397   */\n      0x00\n        /* \"#utility.yul\":8385:8394   */\n      dup4\n        /* \"#utility.yul\":8381:8398   */\n      add\n        /* \"#utility.yul\":8374:8421   */\n      mstore\n        /* \"#utility.yul\":8438:8569   */\n      tag_192\n        /* \"#utility.yul\":8564:8568   */\n      dup2\n        /* \"#utility.yul\":8438:8569   */\n      tag_161\n      jump\t// in\n    tag_192:\n        /* \"#utility.yul\":8430:8569   */\n      swap1\n      pop\n        /* \"#utility.yul\":8328:8576   */\n      swap2\n      swap1\n      pop\n      jump\t// out\n        /* \"#utility.yul\":8582:9001   */\n    tag_63:\n      0x00\n        /* \"#utility.yul\":8786:8788   */\n      0x20\n        /* \"#utility.yul\":8775:8784   */\n      dup3\n        /* \"#utility.yul\":8771:8789   */\n      add\n        /* \"#utility.yul\":8763:8789   */\n      swap1\n      pop\n        /* \"#utility.yul\":8835:8844   */\n      dup2\n        /* \"#utility.yul\":8829:8833   */\n      dup2\n        /* \"#utility.yul\":8825:8845   */\n      sub\n        /* \"#utility.yul\":8821:8822   */\n      0x00\n        /* \"#utility.yul\":8810:8819   */\n      dup4\n        /* \"#utility.yul\":8806:8823   */\n      add\n        /* \"#utility.yul\":8799:8846   */\n      mstore\n        /* \"#utility.yul\":8863:8994   */\n      tag_194\n        /* \"#utility.yul\":8989:8993   */\n      dup2\n        /* \"#utility.yul\":8863:8994   */\n      tag_164\n      jump\t// in\n    tag_194:\n        /* \"#utility.yul\":8855:8994   */\n      swap1\n      pop\n        /* \"#utility.yul\":8753:9001   */\n      swap2\n      swap1\n      pop\n      jump\t// out\n        /* \"#utility.yul\":9007:9426   */\n    tag_68:\n      0x00\n        /* \"#utility.yul\":9211:9213   */\n      0x20\n        /* \"#utility.yul\":9200:9209   */\n      dup3\n        /* \"#utility.yul\":9196:9214   */\n      add\n        /* \"#utility.yul\":9188:9214   */\n      swap1\n      pop\n        /* \"#utility.yul\":9260:9269   */\n      dup2\n        /* \"#utility.yul\":9254:9258   */\n      dup2\n        /* \"#utility.yul\":9250:9270   */\n      sub\n        /* \"#utility.yul\":9246:9247   */\n      0x00\n        /* \"#utility.yul\":9235:9244   */\n      dup4\n        /* \"#utility.yul\":9231:9248   */\n      add\n        /* \"#utility.yul\":9224:9271   */\n      mstore\n        /* \"#utility.yul\":9288:9419   */\n      tag_196\n        /* \"#utility.yul\":9414:9418   */\n      dup2\n        /* \"#utility.yul\":9288:9419   */\n      tag_167\n      jump\t// in\n    tag_196:\n        /* \"#utility.yul\":9280:9419   */\n      swap1\n      pop\n        /* \"#utility.yul\":9178:9426   */\n      swap2\n      swap1\n      pop\n      jump\t// out\n        /* \"#utility.yul\":9432:9851   */\n    tag_60:\n      0x00\n        /* \"#utility.yul\":9636:9638   */\n      0x20\n        /* \"#utility.yul\":9625:9634   */\n      dup3\n        /* \"#utility.yul\":9621:9639   */\n      add\n        /* \"#utility.yul\":9613:9639   */\n      swap1\n      pop\n        /* \"#utility.yul\":9685:9694   */\n      dup2\n        /* \"#utility.yul\":9679:9683   */\n      dup2\n        /* \"#utility.yul\":9675:9695   */\n      sub\n        /* \"#utility.yul\":9671:9672   */\n      0x00\n        /* \"#utility.yul\":9660:9669   */\n      dup4\n        /* \"#utility.yul\":9656:9673   */\n      add\n        /* \"#utility.yul\":9649:9696   */\n      mstore\n        /* \"#utility.yul\":9713:9844   */\n      tag_198\n        /* \"#utility.yul\":9839:9843   */\n      dup2\n        /* \"#utility.yul\":9713:9844   */\n      tag_170\n      jump\t// in\n    tag_198:\n        /* \"#utility.yul\":9705:9844   */\n      swap1\n      pop\n        /* \"#utility.yul\":9603:9851   */\n      swap2\n      swap1\n      pop\n      jump\t// out\n        /* \"#utility.yul\":9857:10276   */\n    tag_83:\n      0x00\n        /* \"#utility.yul\":10061:10063   */\n      0x20\n        /* \"#utility.yul\":10050:10059   */\n      dup3\n        /* \"#utility.yul\":10046:10064   */\n      add\n        /* \"#utility.yul\":10038:10064   */\n      swap1\n      pop\n        /* \"#utility.yul\":10110:10119   */\n      dup2\n        /* \"#utility.yul\":10104:10108   */\n      dup2\n        /* \"#utility.yul\":10100:10120   */\n      sub\n        /* \"#utility.yul\":10096:10097   */\n      0x00\n        /* \"#utility.yul\":10085:10094   */\n      dup4\n        /* \"#utility.yul\":10081:10098   */\n      add\n        /* \"#utility.yul\":10074:10121   */\n      mstore\n        /* \"#utility.yul\":10138:10269   */\n      tag_200\n        /* \"#utility.yul\":10264:10268   */\n      dup2\n        /* \"#utility.yul\":10138:10269   */\n      tag_173\n      jump\t// in\n    tag_200:\n        /* \"#utility.yul\":10130:10269   */\n      swap1\n      pop\n        /* \"#utility.yul\":10028:10276   */\n      swap2\n      swap1\n      pop\n      jump\t// out\n        /* \"#utility.yul\":10282:10504   */\n    tag_33:\n      0x00\n        /* \"#utility.yul\":10413:10415   */\n      0x20\n        /* \"#utility.yul\":10402:10411   */\n      dup3\n        /* \"#utility.yul\":10398:10416   */\n      add\n        /* \"#utility.yul\":10390:10416   */\n      swap1\n      pop\n        /* \"#utility.yul\":10426:10497   */\n      tag_202\n        /* \"#utility.yul\":10494:10495   */\n      0x00\n        /* \"#utility.yul\":10483:10492   */\n      dup4\n        /* \"#utility.yul\":10479:10496   */\n      add\n        /* \"#utility.yul\":10470:10476   */\n      dup5\n        /* \"#utility.yul\":10426:10497   */\n      tag_176\n      jump\t// in\n    tag_202:\n        /* \"#utility.yul\":10380:10504   */\n      swap3\n      swap2\n      pop\n      pop\n      jump\t// out\n        /* \"#utility.yul\":10510:10793   */\n    tag_102:\n      0x00\n        /* \"#utility.yul\":10576:10578   */\n      0x40\n        /* \"#utility.yul\":10570:10579   */\n      mload\n        /* \"#utility.yul\":10560:10579   */\n      swap1\n      pop\n        /* \"#utility.yul\":10618:10622   */\n      dup2\n        /* \"#utility.yul\":10610:10616   */\n      dup2\n        /* \"#utility.yul\":10606:10623   */\n      add\n        /* \"#utility.yul\":10725:10731   */\n      dup2\n        /* \"#utility.yul\":10713:10723   */\n      dup2\n        /* \"#utility.yul\":10710:10732   */\n      lt\n        /* \"#utility.yul\":10689:10707   */\n      0xffffffffffffffff\n        /* \"#utility.yul\":10677:10687   */\n      dup3\n        /* \"#utility.yul\":10674:10708   */\n      gt\n        /* \"#utility.yul\":10671:10733   */\n      or\n        /* \"#utility.yul\":10668:10670   */\n      iszero\n      tag_204\n      jumpi\n        /* \"#utility.yul\":10736:10754   */\n      tag_205\n      tag_206\n      jump\t// in\n    tag_205:\n        /* \"#utility.yul\":10668:10670   */\n    tag_204:\n        /* \"#utility.yul\":10776:10786   */\n      dup1\n        /* \"#utility.yul\":10772:10774   */\n      0x40\n        /* \"#utility.yul\":10765:10787   */\n      mstore\n        /* \"#utility.yul\":10550:10793   */\n      pop\n      swap2\n      swap1\n      pop\n      jump\t// out\n        /* \"#utility.yul\":10799:11131   */\n    tag_101:\n      0x00\n        /* \"#utility.yul\":10951:10969   */\n      0xffffffffffffffff\n        /* \"#utility.yul\":10943:10949   */\n      dup3\n        /* \"#utility.yul\":10940:10970   */\n      gt\n        /* \"#utility.yul\":10937:10939   */\n      iszero\n      tag_208\n      jumpi\n        /* \"#utility.yul\":10973:10991   */\n      tag_209\n      tag_206\n      jump\t// in\n    tag_209:\n        /* \"#utility.yul\":10937:10939   */\n    tag_208:\n        /* \"#utility.yul\":11058:11062   */\n      0x1f\n        /* \"#utility.yul\":11054:11063   */\n      not\n        /* \"#utility.yul\":11047:11051   */\n      0x1f\n        /* \"#utility.yul\":11039:11045   */\n      dup4\n        /* \"#utility.yul\":11035:11052   */\n      add\n        /* \"#utility.yul\":11031:11064   */\n      and\n        /* \"#utility.yul\":11023:11064   */\n      swap1\n      pop\n        /* \"#utility.yul\":11119:11123   */\n      0x20\n        /* \"#utility.yul\":11113:11117   */\n      dup2\n        /* \"#utility.yul\":11109:11124   */\n      add\n        /* \"#utility.yul\":11101:11124   */\n      swap1\n      pop\n        /* \"#utility.yul\":10866:11131   */\n      swap2\n      swap1\n      pop\n      jump\t// out\n        /* \"#utility.yul\":11137:11236   */\n    tag_148:\n      0x00\n        /* \"#utility.yul\":11223:11228   */\n      dup2\n        /* \"#utility.yul\":11217:11229   */\n      mload\n        /* \"#utility.yul\":11207:11229   */\n      swap1\n      pop\n        /* \"#utility.yul\":11196:11236   */\n      swap2\n      swap1\n      pop\n      jump\t// out\n        /* \"#utility.yul\":11242:11411   */\n    tag_150:\n      0x00\n        /* \"#utility.yul\":11360:11366   */\n      dup3\n        /* \"#utility.yul\":11355:11358   */\n      dup3\n        /* \"#utility.yul\":11348:11367   */\n      mstore\n        /* \"#utility.yul\":11400:11404   */\n      0x20\n        /* \"#utility.yul\":11395:11398   */\n      dup3\n        /* \"#utility.yul\":11391:11405   */\n      add\n        /* \"#utility.yul\":11376:11405   */\n      swap1\n      pop\n        /* \"#utility.yul\":11338:11411   */\n      swap3\n      swap2\n      pop\n      pop\n      jump\t// out\n        /* \"#utility.yul\":11417:11722   */\n    tag_75:\n      0x00\n        /* \"#utility.yul\":11476:11496   */\n      tag_213\n        /* \"#utility.yul\":11494:11495   */\n      dup3\n        /* \"#utility.yul\":11476:11496   */\n      tag_179\n      jump\t// in\n    tag_213:\n        /* \"#utility.yul\":11471:11496   */\n      swap2\n      pop\n        /* \"#utility.yul\":11510:11530   */\n      tag_214\n        /* \"#utility.yul\":11528:11529   */\n      dup4\n        /* \"#utility.yul\":11510:11530   */\n      tag_179\n      jump\t// in\n    tag_214:\n        /* \"#utility.yul\":11505:11530   */\n      swap3\n      pop\n        /* \"#utility.yul\":11664:11665   */\n      dup3\n        /* \"#utility.yul\":11596:11662   */\n      0xffffffffffffffffffffffffffffffffffffffffffffffffffffffffffffffff\n        /* \"#utility.yul\":11592:11666   */\n      sub\n        /* \"#utility.yul\":11589:11590   */\n      dup3\n        /* \"#utility.yul\":11586:11667   */\n      gt\n        /* \"#utility.yul\":11583:11585   */\n      iszero\n      tag_215\n      jumpi\n        /* \"#utility.yul\":11670:11688   */\n      tag_216\n      tag_217\n      jump\t// in\n    tag_216:\n        /* \"#utility.yul\":11583:11585   */\n    tag_215:\n        /* \"#utility.yul\":11714:11715   */\n      dup3\n        /* \"#utility.yul\":11711:11712   */\n      dup3\n        /* \"#utility.yul\":11707:11716   */\n      add\n        /* \"#utility.yul\":11700:11716   */\n      swap1\n      pop\n        /* \"#utility.yul\":11461:11722   */\n      swap3\n      swap2\n      pop\n      pop\n      jump\t// out\n        /* \"#utility.yul\":11728:12076   */\n    tag_65:\n      0x00\n        /* \"#utility.yul\":11791:11811   */\n      tag_219\n        /* \"#utility.yul\":11809:11810   */\n      dup3\n        /* \"#utility.yul\":11791:11811   */\n      tag_179\n      jump\t// in\n    tag_219:\n        /* \"#utility.yul\":11786:11811   */\n      swap2\n      pop\n        /* \"#utility.yul\":11825:11845   */\n      tag_220\n        /* \"#utility.yul\":11843:11844   */\n      dup4\n        /* \"#utility.yul\":11825:11845   */\n      tag_179\n      jump\t// in\n    tag_220:\n        /* \"#utility.yul\":11820:11845   */\n      swap3\n      pop\n        /* \"#utility.yul\":12013:12014   */\n      dup2\n        /* \"#utility.yul\":11945:12011   */\n      0xffffffffffffffffffffffffffffffffffffffffffffffffffffffffffffffff\n        /* \"#utility.yul\":11941:12015   */\n      div\n        /* \"#utility.yul\":11938:11939   */\n      dup4\n        /* \"#utility.yul\":11935:12016   */\n      gt\n        /* \"#utility.yul\":11930:11931   */\n      dup3\n        /* \"#utility.yul\":11923:11932   */\n      iszero\n        /* \"#utility.yul\":11916:11933   */\n      iszero\n        /* \"#utility.yul\":11912:12017   */\n      and\n        /* \"#utility.yul\":11909:11911   */\n      iszero\n      tag_221\n      jumpi\n        /* \"#utility.yul\":12020:12038   */\n      tag_222\n      tag_217\n      jump\t// in\n    tag_222:\n        /* \"#utility.yul\":11909:11911   */\n    tag_221:\n        /* \"#utility.yul\":12068:12069   */\n      dup3\n        /* \"#utility.yul\":12065:12066   */\n      dup3\n        /* \"#utility.yul\":12061:12070   */\n      mul\n        /* \"#utility.yul\":12050:12070   */\n      swap1\n      pop\n        /* \"#utility.yul\":11776:12076   */\n      swap3\n      swap2\n      pop\n      pop\n      jump\t// out\n        /* \"#utility.yul\":12082:12273   */\n    tag_73:\n      0x00\n        /* \"#utility.yul\":12142:12162   */\n      tag_224\n        /* \"#utility.yul\":12160:12161   */\n      dup3\n        /* \"#utility.yul\":12142:12162   */\n      tag_179\n      jump\t// in\n    tag_224:\n        /* \"#utility.yul\":12137:12162   */\n      swap2\n      pop\n        /* \"#utility.yul\":12176:12196   */\n      tag_225\n        /* \"#utility.yul\":12194:12195   */\n      dup4\n        /* \"#utility.yul\":12176:12196   */\n      tag_179\n      jump\t// in\n    tag_225:\n        /* \"#utility.yul\":12171:12196   */\n      swap3\n      pop\n        /* \"#utility.yul\":12215:12216   */\n      dup3\n        /* \"#utility.yul\":12212:12213   */\n      dup3\n        /* \"#utility.yul\":12209:12217   */\n      lt\n        /* \"#utility.yul\":12206:12208   */\n      iszero\n      tag_226\n      jumpi\n        /* \"#utility.yul\":12220:12238   */\n      tag_227\n      tag_217\n      jump\t// in\n    tag_227:\n        /* \"#utility.yul\":12206:12208   */\n    tag_226:\n        /* \"#utility.yul\":12265:12266   */\n      dup3\n        /* \"#utility.yul\":12262:12263   */\n      dup3\n        /* \"#utility.yul\":12258:12267   */\n      sub\n        /* \"#utility.yul\":12250:12267   */\n      swap1\n      pop\n        /* \"#utility.yul\":12127:12273   */\n      swap3\n      swap2\n      pop\n      pop\n      jump\t// out\n        /* \"#utility.yul\":12279:12375   */\n    tag_144:\n      0x00\n        /* \"#utility.yul\":12345:12369   */\n      tag_229\n        /* \"#utility.yul\":12363:12368   */\n      dup3\n        /* \"#utility.yul\":12345:12369   */\n      tag_230\n      jump\t// in\n    tag_229:\n        /* \"#utility.yul\":12334:12369   */\n      swap1\n      pop\n        /* \"#utility.yul\":12324:12375   */\n      swap2\n      swap1\n      pop\n      jump\t// out\n        /* \"#utility.yul\":12381:12507   */\n    tag_230:\n      0x00\n        /* \"#utility.yul\":12458:12500   */\n      0xffffffffffffffffffffffffffffffffffffffff\n        /* \"#utility.yul\":12451:12456   */\n      dup3\n        /* \"#utility.yul\":12447:12501   */\n      and\n        /* \"#utility.yul\":12436:12501   */\n      swap1\n      pop\n        /* \"#utility.yul\":12426:12507   */\n      swap2\n      swap1\n      pop\n      jump\t// out\n        /* \"#utility.yul\":12513:12590   */\n    tag_179:\n      0x00\n        /* \"#utility.yul\":12579:12584   */\n      dup2\n        /* \"#utility.yul\":12568:12584   */\n      swap1\n      pop\n        /* \"#utility.yul\":12558:12590   */\n      swap2\n      swap1\n      pop\n      jump\t// out\n        /* \"#utility.yul\":12596:12750   */\n    tag_105:\n        /* \"#utility.yul\":12680:12686   */\n      dup3\n        /* \"#utility.yul\":12675:12678   */\n      dup2\n        /* \"#utility.yul\":12670:12673   */\n      dup4\n        /* \"#utility.yul\":12657:12687   */\n      calldatacopy\n        /* \"#utility.yul\":12742:12743   */\n      0x00\n        /* \"#utility.yul\":12733:12739   */\n      dup4\n        /* \"#utility.yul\":12728:12731   */\n      dup4\n        /* \"#utility.yul\":12724:12740   */\n      add\n        /* \"#utility.yul\":12717:12744   */\n      mstore\n        /* \"#utility.yul\":12647:12750   */\n      pop\n      pop\n      pop\n      jump\t// out\n        /* \"#utility.yul\":12756:13063   */\n    tag_152:\n        /* \"#utility.yul\":12824:12825   */\n      0x00\n        /* \"#utility.yul\":12834:12947   */\n    tag_235:\n        /* \"#utility.yul\":12848:12854   */\n      dup4\n        /* \"#utility.yul\":12845:12846   */\n      dup2\n        /* \"#utility.yul\":12842:12855   */\n      lt\n        /* \"#utility.yul\":12834:12947   */\n      iszero\n      tag_237\n      jumpi\n        /* \"#utility.yul\":12933:12934   */\n      dup1\n        /* \"#utility.yul\":12928:12931   */\n      dup3\n        /* \"#utility.yul\":12924:12935   */\n      add\n        /* \"#utility.yul\":12918:12936   */\n      mload\n        /* \"#utility.yul\":12914:12915   */\n      dup2\n        /* \"#utility.yul\":12909:12912   */\n      dup5\n        /* \"#utility.yul\":12905:12916   */\n      add\n        /* \"#utility.yul\":12898:12937   */\n      mstore\n        /* \"#utility.yul\":12870:12872   */\n      0x20\n        /* \"#utility.yul\":12867:12868   */\n      dup2\n        /* \"#utility.yul\":12863:12873   */\n      add\n        /* \"#utility.yul\":12858:12873   */\n      swap1\n      pop\n        /* \"#utility.yul\":12834:12947   */\n      jump(tag_235)\n    tag_237:\n        /* \"#utility.yul\":12965:12971   */\n      dup4\n        /* \"#utility.yul\":12962:12963   */\n      dup2\n        /* \"#utility.yul\":12959:12972   */\n      gt\n        /* \"#utility.yul\":12956:12958   */\n      iszero\n      tag_238\n      jumpi\n        /* \"#utility.yul\":13045:13046   */\n      0x00\n        /* \"#utility.yul\":13036:13042   */\n      dup5\n        /* \"#utility.yul\":13031:13034   */\n      dup5\n        /* \"#utility.yul\":13027:13043   */\n      add\n        /* \"#utility.yul\":13020:13047   */\n      mstore\n        /* \"#utility.yul\":12956:12958   */\n    tag_238:\n        /* \"#utility.yul\":12805:13063   */\n      pop\n      pop\n      pop\n      pop\n      jump\t// out\n        /* \"#utility.yul\":13069:13389   */\n    tag_52:\n      0x00\n        /* \"#utility.yul\":13150:13151   */\n      0x02\n        /* \"#utility.yul\":13144:13148   */\n      dup3\n        /* \"#utility.yul\":13140:13152   */\n      div\n        /* \"#utility.yul\":13130:13152   */\n      swap1\n      pop\n        /* \"#utility.yul\":13197:13198   */\n      0x01\n        /* \"#utility.yul\":13191:13195   */\n      dup3\n        /* \"#utility.yul\":13187:13199   */\n      and\n        /* \"#utility.yul\":13218:13236   */\n      dup1\n        /* \"#utility.yul\":13208:13210   */\n      tag_240\n      jumpi\n        /* \"#utility.yul\":13274:13278   */\n      0x7f\n        /* \"#utility.yul\":13266:13272   */\n      dup3\n        /* \"#utility.yul\":13262:13279   */\n      and\n        /* \"#utility.yul\":13252:13279   */\n      swap2\n      pop\n        /* \"#utility.yul\":13208:13210   */\n    tag_240:\n        /* \"#utility.yul\":13336:13338   */\n      0x20\n        /* \"#utility.yul\":13328:13334   */\n      dup3\n        /* \"#utility.yul\":13325:13339   */\n      lt\n        /* \"#utility.yul\":13305:13323   */\n      dup2\n        /* \"#utility.yul\":13302:13340   */\n      eq\n        /* \"#utility.yul\":13299:13301   */\n      iszero\n      tag_241\n      jumpi\n        /* \"#utility.yul\":13355:13373   */\n      tag_242\n      tag_243\n      jump\t// in\n    tag_242:\n        /* \"#utility.yul\":13299:13301   */\n    tag_241:\n        /* \"#utility.yul\":13120:13389   */\n      pop\n      swap2\n      swap1\n      pop\n      jump\t// out\n        /* \"#utility.yul\":13395:13628   */\n    tag_50:\n      0x00\n        /* \"#utility.yul\":13457:13481   */\n      tag_245\n        /* \"#utility.yul\":13475:13480   */\n      dup3\n        /* \"#utility.yul\":13457:13481   */\n      tag_179\n      jump\t// in\n    tag_245:\n        /* \"#utility.yul\":13448:13481   */\n      swap2\n      pop\n        /* \"#utility.yul\":13503:13569   */\n      0xffffffffffffffffffffffffffffffffffffffffffffffffffffffffffffffff\n        /* \"#utility.yul\":13496:13501   */\n      dup3\n        /* \"#utility.yul\":13493:13570   */\n      eq\n        /* \"#utility.yul\":13490:13492   */\n      iszero\n      tag_246\n      jumpi\n        /* \"#utility.yul\":13573:13591   */\n      tag_247\n      tag_217\n      jump\t// in\n    tag_247:\n        /* \"#utility.yul\":13490:13492   */\n    tag_246:\n        /* \"#utility.yul\":13620:13621   */\n      0x01\n        /* \"#utility.yul\":13613:13618   */\n      dup3\n        /* \"#utility.yul\":13609:13622   */\n      add\n        /* \"#utility.yul\":13602:13622   */\n      swap1\n      pop\n        /* \"#utility.yul\":13438:13628   */\n      swap2\n      swap1\n      pop\n      jump\t// out\n        /* \"#utility.yul\":13634:13814   */\n    tag_217:\n        /* \"#utility.yul\":13682:13759   */\n      0x4e487b7100000000000000000000000000000000000000000000000000000000\n        /* \"#utility.yul\":13679:13680   */\n      0x00\n        /* \"#utility.yul\":13672:13760   */\n      mstore\n        /* \"#utility.yul\":13779:13783   */\n      0x11\n        /* \"#utility.yul\":13776:13777   */\n      0x04\n        /* \"#utility.yul\":13769:13784   */\n      mstore\n        /* \"#utility.yul\":13803:13807   */\n      0x24\n        /* \"#utility.yul\":13800:13801   */\n      0x00\n        /* \"#utility.yul\":13793:13808   */\n      revert\n        /* \"#utility.yul\":13820:14000   */\n    tag_243:\n        /* \"#utility.yul\":13868:13945   */\n      0x4e487b7100000000000000000000000000000000000000000000000000000000\n        /* \"#utility.yul\":13865:13866   */\n      0x00\n        /* \"#utility.yul\":13858:13946   */\n      mstore\n        /* \"#utility.yul\":13965:13969   */\n      0x22\n        /* \"#utility.yul\":13962:13963   */\n      0x04\n        /* \"#utility.yul\":13955:13970   */\n      mstore\n        /* \"#utility.yul\":13989:13993   */\n      0x24\n        /* \"#utility.yul\":13986:13987   */\n      0x00\n        /* \"#utility.yul\":13979:13994   */\n      revert\n        /* \"#utility.yul\":14006:14186   */\n    tag_206:\n        /* \"#utility.yul\":14054:14131   */\n      0x4e487b7100000000000000000000000000000000000000000000000000000000\n        /* \"#utility.yul\":14051:14052   */\n      0x00\n        /* \"#utility.yul\":14044:14132   */\n      mstore\n        /* \"#utility.yul\":14151:14155   */\n      0x41\n        /* \"#utility.yul\":14148:14149   */\n      0x04\n        /* \"#utility.yul\":14141:14156   */\n      mstore\n        /* \"#utility.yul\":14175:14179   */\n      0x24\n        /* \"#utility.yul\":14172:14173   */\n      0x00\n        /* \"#utility.yul\":14165:14180   */\n      revert\n        /* \"#utility.yul\":14192:14294   */\n    tag_154:\n      0x00\n        /* \"#utility.yul\":14284:14286   */\n      0x1f\n        /* \"#utility.yul\":14280:14287   */\n      not\n        /* \"#utility.yul\":14275:14277   */\n      0x1f\n        /* \"#utility.yul\":14268:14273   */\n      dup4\n        /* \"#utility.yul\":14264:14278   */\n      add\n        /* \"#utility.yul\":14260:14288   */\n      and\n        /* \"#utility.yul\":14250:14288   */\n      swap1\n      pop\n        /* \"#utility.yul\":14240:14294   */\n      swap2\n      swap1\n      pop\n      jump\t// out\n        /* \"#utility.yul\":14300:14422   */\n    tag_109:\n        /* \"#utility.yul\":14373:14397   */\n      tag_253\n        /* \"#utility.yul\":14391:14396   */\n      dup2\n        /* \"#utility.yul\":14373:14397   */\n      tag_144\n      jump\t// in\n    tag_253:\n        /* \"#utility.yul\":14366:14371   */\n      dup2\n        /* \"#utility.yul\":14363:14398   */\n      eq\n        /* \"#utility.yul\":14353:14355   */\n      tag_254\n      jumpi\n        /* \"#utility.yul\":14412:14413   */\n      0x00\n        /* \"#utility.yul\":14409:14410   */\n      dup1\n        /* \"#utility.yul\":14402:14414   */\n      revert\n        /* \"#utility.yul\":14353:14355   */\n    tag_254:\n        /* \"#utility.yul\":14343:14422   */\n      pop\n      jump\t// out\n        /* \"#utility.yul\":14428:14550   */\n    tag_117:\n        /* \"#utility.yul\":14501:14525   */\n      tag_256\n        /* \"#utility.yul\":14519:14524   */\n      dup2\n        /* \"#utility.yul\":14501:14525   */\n      tag_179\n      jump\t// in\n    tag_256:\n        /* \"#utility.yul\":14494:14499   */\n      dup2\n        /* \"#utility.yul\":14491:14526   */\n      eq\n        /* \"#utility.yul\":14481:14483   */\n      tag_257\n      jumpi\n        /* \"#utility.yul\":14540:14541   */\n      0x00\n        /* \"#utility.yul\":14537:14538   */\n      dup1\n        /* \"#utility.yul\":14530:14542   */\n      revert\n        /* \"#utility.yul\":14481:14483   */\n    tag_257:\n        /* \"#utility.yul\":14471:14550   */\n      pop\n      jump\t// out\n\n    auxdata: 0xa264697066735822122039f66317bef5617fbd5a959b0f5113af83728005f0b13ea4bb32aafa52b7d63064736f6c63430008000033\n}\n",
				"bytecode": {
					"linkReferences": {},
					"object": "608060405234801561001057600080fd5b506111c7806100206000396000f3fe6080604052600436106100555760003560e01c80630374ab0b1461005a5780630b79143014610083578063298ec208146100c55780633d23eed9146100e157806361b8ce8c1461010a578063dae7a13c14610135575b600080fd5b34801561006657600080fd5b50610081600480360381019061007c9190610976565b610172565b005b34801561008f57600080fd5b506100aa60048036038101906100a591906109f1565b6102fb565b6040516100bc96959493929190610d08565b60405180910390f35b6100df60048036038101906100da9190610a1a565b6103df565b005b3480156100ed57600080fd5b5061010860048036038101906101039190610a56565b6105c4565b005b34801561011657600080fd5b5061011f6107da565b60405161012c9190610e50565b60405180910390f35b34801561014157600080fd5b5061015c6004803603810190610157919061093a565b6107e0565b6040516101699190610e50565b60405180910390f35b4283116101b4576040517f08c379a00000000000000000000000000000000000000000000000000000000081526004016101ab90610d70565b60405180910390fd5b600081116101f7576040517f08c379a00000000000000000000000000000000000000000000000000000000081526004016101ee90610d90565b60405180910390fd5b6040518060c001604052803373ffffffffffffffffffffffffffffffffffffffff16815260200185815260200184815260200183815260200182815260200182815250600080600254815260200190815260200160002060008201518160000160006101000a81548173ffffffffffffffffffffffffffffffffffffffff021916908373ffffffffffffffffffffffffffffffffffffffff16021790555060208201518160010190805190602001906102b1929190610805565b5060408201518160020155606082015181600301556080820151816004015560a08201518160050155905050600260008154809291906102f09061107c565b919050555050505050565b60006020528060005260406000206000915090508060000160009054906101000a900473ffffffffffffffffffffffffffffffffffffffff16908060010180546103449061104a565b80601f01602080910402602001604051908101604052809291908181526020018280546103709061104a565b80156103bd5780601f10610392576101008083540402835291602001916103bd565b820191906000526020600020905b8154815290600101906020018083116103a057829003601f168201915b5050505050908060020154908060030154908060040154908060050154905086565b6000806000848152602001908152602001600020600201541415610438576040517f08c379a000000000000000000000000000000000000000000000000000000000815260040161042f90610e10565b60405180910390fd5b42600080848152602001908152602001600020600201541161048f576040517f08c379a000000000000000000000000000000000000000000000000000000000815260040161048690610dd0565b60405180910390fd5b600080600084815260200190815260200160002090508181600301546104b59190610f3e565b34146104f6576040517f08c379a00000000000000000000000000000000000000000000000000000000081526004016104ed90610df0565b60405180910390fd5b818160050154101561053d576040517f08c379a000000000000000000000000000000000000000000000000000000000815260040161053490610db0565b60405180910390fd5b818160050160008282546105519190610f98565b9250508190555081600160003373ffffffffffffffffffffffffffffffffffffffff1673ffffffffffffffffffffffffffffffffffffffff168152602001908152602001600020600085815260200190815260200160002060008282546105b89190610ee8565b92505081905550505050565b600080600085815260200190815260200160002060020154141561061d576040517f08c379a000000000000000000000000000000000000000000000000000000000815260040161061490610e10565b60405180910390fd5b426000808581526020019081526020016000206002015411610674576040517f08c379a000000000000000000000000000000000000000000000000000000000815260040161066b90610dd0565b60405180910390fd5b81600160003373ffffffffffffffffffffffffffffffffffffffff1673ffffffffffffffffffffffffffffffffffffffff1681526020019081526020016000206000858152602001908152602001600020541015610707576040517f08c379a00000000000000000000000000000000000000000000000000000000081526004016106fe90610e30565b60405180910390fd5b81600160003373ffffffffffffffffffffffffffffffffffffffff1673ffffffffffffffffffffffffffffffffffffffff168152602001908152602001600020600085815260200190815260200160002060008282546107679190610f98565b9250508190555081600160008373ffffffffffffffffffffffffffffffffffffffff1673ffffffffffffffffffffffffffffffffffffffff168152602001908152602001600020600085815260200190815260200160002060008282546107ce9190610ee8565b92505081905550505050565b60025481565b6001602052816000526040600020602052806000526040600020600091509150505481565b8280546108119061104a565b90600052602060002090601f016020900481019282610833576000855561087a565b82601f1061084c57805160ff191683800117855561087a565b8280016001018555821561087a579182015b8281111561087957825182559160200191906001019061085e565b5b509050610887919061088b565b5090565b5b808211156108a457600081600090555060010161088c565b5090565b60006108bb6108b684610e9c565b610e6b565b9050828152602081018484840111156108d357600080fd5b6108de848285611008565b509392505050565b6000813590506108f581611163565b92915050565b600082601f83011261090c57600080fd5b813561091c8482602086016108a8565b91505092915050565b6000813590506109348161117a565b92915050565b6000806040838503121561094d57600080fd5b600061095b858286016108e6565b925050602061096c85828601610925565b9150509250929050565b6000806000806080858703121561098c57600080fd5b600085013567ffffffffffffffff8111156109a657600080fd5b6109b2878288016108fb565b94505060206109c387828801610925565b93505060406109d487828801610925565b92505060606109e587828801610925565b91505092959194509250565b600060208284031215610a0357600080fd5b6000610a1184828501610925565b91505092915050565b60008060408385031215610a2d57600080fd5b6000610a3b85828601610925565b9250506020610a4c85828601610925565b9150509250929050565b600080600060608486031215610a6b57600080fd5b6000610a7986828701610925565b9350506020610a8a86828701610925565b9250506040610a9b868287016108e6565b9150509250925092565b610aae81610fcc565b82525050565b6000610abf82610ecc565b610ac98185610ed7565b9350610ad9818560208601611017565b610ae281611152565b840191505092915050565b6000610afa602683610ed7565b91507f596f752063616e206f7267616e697a65206576656e7420666f7220667574757260008301527f65206461746500000000000000000000000000000000000000000000000000006020830152604082019050919050565b6000610b60603d83610ed7565b91507f596f752063616e206f7267616e697a65206576656e74206f6e6c79206966207960008301527f6f7520637265617465206d6f7265207468616e2030207469636b6574730000006020830152604082019050919050565b6000610bc6601283610ed7565b91507f4e6f7420656e6f756768207469636b65747300000000000000000000000000006000830152602082019050919050565b6000610c06601a83610ed7565b91507f4576656e742068617320616c7265616479206f636375727265640000000000006000830152602082019050919050565b6000610c46601383610ed7565b91507f4574686572206973206e6f7420656e6f756768000000000000000000000000006000830152602082019050919050565b6000610c86601483610ed7565b91507f4576656e7420646f6573206e6f742065786973740000000000000000000000006000830152602082019050919050565b6000610cc6601e83610ed7565b91507f596f7520646f206e6f74206861766520656e6f756768207469636b65747300006000830152602082019050919050565b610d0281610ffe565b82525050565b600060c082019050610d1d6000830189610aa5565b8181036020830152610d2f8188610ab4565b9050610d3e6040830187610cf9565b610d4b6060830186610cf9565b610d586080830185610cf9565b610d6560a0830184610cf9565b979650505050505050565b60006020820190508181036000830152610d8981610aed565b9050919050565b60006020820190508181036000830152610da981610b53565b9050919050565b60006020820190508181036000830152610dc981610bb9565b9050919050565b60006020820190508181036000830152610de981610bf9565b9050919050565b60006020820190508181036000830152610e0981610c39565b9050919050565b60006020820190508181036000830152610e2981610c79565b9050919050565b60006020820190508181036000830152610e4981610cb9565b9050919050565b6000602082019050610e656000830184610cf9565b92915050565b6000604051905081810181811067ffffffffffffffff82111715610e9257610e91611123565b5b8060405250919050565b600067ffffffffffffffff821115610eb757610eb6611123565b5b601f19601f8301169050602081019050919050565b600081519050919050565b600082825260208201905092915050565b6000610ef382610ffe565b9150610efe83610ffe565b9250827fffffffffffffffffffffffffffffffffffffffffffffffffffffffffffffffff03821115610f3357610f326110c5565b5b828201905092915050565b6000610f4982610ffe565b9150610f5483610ffe565b9250817fffffffffffffffffffffffffffffffffffffffffffffffffffffffffffffffff0483118215151615610f8d57610f8c6110c5565b5b828202905092915050565b6000610fa382610ffe565b9150610fae83610ffe565b925082821015610fc157610fc06110c5565b5b828203905092915050565b6000610fd782610fde565b9050919050565b600073ffffffffffffffffffffffffffffffffffffffff82169050919050565b6000819050919050565b82818337600083830152505050565b60005b8381101561103557808201518184015260208101905061101a565b83811115611044576000848401525b50505050565b6000600282049050600182168061106257607f821691505b60208210811415611076576110756110f4565b5b50919050565b600061108782610ffe565b91507fffffffffffffffffffffffffffffffffffffffffffffffffffffffffffffffff8214156110ba576110b96110c5565b5b600182019050919050565b7f4e487b7100000000000000000000000000000000000000000000000000000000600052601160045260246000fd5b7f4e487b7100000000000000000000000000000000000000000000000000000000600052602260045260246000fd5b7f4e487b7100000000000000000000000000000000000000000000000000000000600052604160045260246000fd5b6000601f19601f8301169050919050565b61116c81610fcc565b811461117757600080fd5b50565b61118381610ffe565b811461118e57600080fd5b5056fea264697066735822122039f66317bef5617fbd5a959b0f5113af83728005f0b13ea4bb32aafa52b7d63064736f6c63430008000033",
					"opcodes": "PUSH1 0x80 PUSH1 0x40 MSTORE CALLVALUE DUP1 ISZERO PUSH2 0x10 JUMPI PUSH1 0x0 DUP1 REVERT JUMPDEST POP PUSH2 0x11C7 DUP1 PUSH2 0x20 PUSH1 0x0 CODECOPY PUSH1 0x0 RETURN INVALID PUSH1 0x80 PUSH1 0x40 MSTORE PUSH1 0x4 CALLDATASIZE LT PUSH2 0x55 JUMPI PUSH1 0x0 CALLDATALOAD PUSH1 0xE0 SHR DUP1 PUSH4 0x374AB0B EQ PUSH2 0x5A JUMPI DUP1 PUSH4 0xB791430 EQ PUSH2 0x83 JUMPI DUP1 PUSH4 0x298EC208 EQ PUSH2 0xC5 JUMPI DUP1 PUSH4 0x3D23EED9 EQ PUSH2 0xE1 JUMPI DUP1 PUSH4 0x61B8CE8C EQ PUSH2 0x10A JUMPI DUP1 PUSH4 0xDAE7A13C EQ PUSH2 0x135 JUMPI JUMPDEST PUSH1 0x0 DUP1 REVERT JUMPDEST CALLVALUE DUP1 ISZERO PUSH2 0x66 JUMPI PUSH1 0x0 DUP1 REVERT JUMPDEST POP PUSH2 0x81 PUSH1 0x4 DUP1 CALLDATASIZE SUB DUP2 ADD SWAP1 PUSH2 0x7C SWAP2 SWAP1 PUSH2 0x976 JUMP JUMPDEST PUSH2 0x172 JUMP JUMPDEST STOP JUMPDEST CALLVALUE DUP1 ISZERO PUSH2 0x8F JUMPI PUSH1 0x0 DUP1 REVERT JUMPDEST POP PUSH2 0xAA PUSH1 0x4 DUP1 CALLDATASIZE SUB DUP2 ADD SWAP1 PUSH2 0xA5 SWAP2 SWAP1 PUSH2 0x9F1 JUMP JUMPDEST PUSH2 0x2FB JUMP JUMPDEST PUSH1 0x40 MLOAD PUSH2 0xBC SWAP7 SWAP6 SWAP5 SWAP4 SWAP3 SWAP2 SWAP1 PUSH2 0xD08 JUMP JUMPDEST PUSH1 0x40 MLOAD DUP1 SWAP2 SUB SWAP1 RETURN JUMPDEST PUSH2 0xDF PUSH1 0x4 DUP1 CALLDATASIZE SUB DUP2 ADD SWAP1 PUSH2 0xDA SWAP2 SWAP1 PUSH2 0xA1A JUMP JUMPDEST PUSH2 0x3DF JUMP JUMPDEST STOP JUMPDEST CALLVALUE DUP1 ISZERO PUSH2 0xED JUMPI PUSH1 0x0 DUP1 REVERT JUMPDEST POP PUSH2 0x108 PUSH1 0x4 DUP1 CALLDATASIZE SUB DUP2 ADD SWAP1 PUSH2 0x103 SWAP2 SWAP1 PUSH2 0xA56 JUMP JUMPDEST PUSH2 0x5C4 JUMP JUMPDEST STOP JUMPDEST CALLVALUE DUP1 ISZERO PUSH2 0x116 JUMPI PUSH1 0x0 DUP1 REVERT JUMPDEST POP PUSH2 0x11F PUSH2 0x7DA JUMP JUMPDEST PUSH1 0x40 MLOAD PUSH2 0x12C SWAP2 SWAP1 PUSH2 0xE50 JUMP JUMPDEST PUSH1 0x40 MLOAD DUP1 SWAP2 SUB SWAP1 RETURN JUMPDEST CALLVALUE DUP1 ISZERO PUSH2 0x141 JUMPI PUSH1 0x0 DUP1 REVERT JUMPDEST POP PUSH2 0x15C PUSH1 0x4 DUP1 CALLDATASIZE SUB DUP2 ADD SWAP1 PUSH2 0x157 SWAP2 SWAP1 PUSH2 0x93A JUMP JUMPDEST PUSH2 0x7E0 JUMP JUMPDEST PUSH1 0x40 MLOAD PUSH2 0x169 SWAP2 SWAP1 PUSH2 0xE50 JUMP JUMPDEST PUSH1 0x40 MLOAD DUP1 SWAP2 SUB SWAP1 RETURN JUMPDEST TIMESTAMP DUP4 GT PUSH2 0x1B4 JUMPI PUSH1 0x40 MLOAD PUSH32 0x8C379A000000000000000000000000000000000000000000000000000000000 DUP2 MSTORE PUSH1 0x4 ADD PUSH2 0x1AB SWAP1 PUSH2 0xD70 JUMP JUMPDEST PUSH1 0x40 MLOAD DUP1 SWAP2 SUB SWAP1 REVERT JUMPDEST PUSH1 0x0 DUP2 GT PUSH2 0x1F7 JUMPI PUSH1 0x40 MLOAD PUSH32 0x8C379A000000000000000000000000000000000000000000000000000000000 DUP2 MSTORE PUSH1 0x4 ADD PUSH2 0x1EE SWAP1 PUSH2 0xD90 JUMP JUMPDEST PUSH1 0x40 MLOAD DUP1 SWAP2 SUB SWAP1 REVERT JUMPDEST PUSH1 0x40 MLOAD DUP1 PUSH1 0xC0 ADD PUSH1 0x40 MSTORE DUP1 CALLER PUSH20 0xFFFFFFFFFFFFFFFFFFFFFFFFFFFFFFFFFFFFFFFF AND DUP2 MSTORE PUSH1 0x20 ADD DUP6 DUP2 MSTORE PUSH1 0x20 ADD DUP5 DUP2 MSTORE PUSH1 0x20 ADD DUP4 DUP2 MSTORE PUSH1 0x20 ADD DUP3 DUP2 MSTORE PUSH1 0x20 ADD DUP3 DUP2 MSTORE POP PUSH1 0x0 DUP1 PUSH1 0x2 SLOAD DUP2 MSTORE PUSH1 0x20 ADD SWAP1 DUP2 MSTORE PUSH1 0x20 ADD PUSH1 0x0 KECCAK256 PUSH1 0x0 DUP3 ADD MLOAD DUP2 PUSH1 0x0 ADD PUSH1 0x0 PUSH2 0x100 EXP DUP2 SLOAD DUP2 PUSH20 0xFFFFFFFFFFFFFFFFFFFFFFFFFFFFFFFFFFFFFFFF MUL NOT AND SWAP1 DUP4 PUSH20 0xFFFFFFFFFFFFFFFFFFFFFFFFFFFFFFFFFFFFFFFF AND MUL OR SWAP1 SSTORE POP PUSH1 0x20 DUP3 ADD MLOAD DUP2 PUSH1 0x1 ADD SWAP1 DUP1 MLOAD SWAP1 PUSH1 0x20 ADD SWAP1 PUSH2 0x2B1 SWAP3 SWAP2 SWAP1 PUSH2 0x805 JUMP JUMPDEST POP PUSH1 0x40 DUP3 ADD MLOAD DUP2 PUSH1 0x2 ADD SSTORE PUSH1 0x60 DUP3 ADD MLOAD DUP2 PUSH1 0x3 ADD SSTORE PUSH1 0x80 DUP3 ADD MLOAD DUP2 PUSH1 0x4 ADD SSTORE PUSH1 0xA0 DUP3 ADD MLOAD DUP2 PUSH1 0x5 ADD SSTORE SWAP1 POP POP PUSH1 0x2 PUSH1 0x0 DUP2 SLOAD DUP1 SWAP3 SWAP2 SWAP1 PUSH2 0x2F0 SWAP1 PUSH2 0x107C JUMP JUMPDEST SWAP2 SWAP1 POP SSTORE POP POP POP POP POP JUMP JUMPDEST PUSH1 0x0 PUSH1 0x20 MSTORE DUP1 PUSH1 0x0 MSTORE PUSH1 0x40 PUSH1 0x0 KECCAK256 PUSH1 0x0 SWAP2 POP SWAP1 POP DUP1 PUSH1 0x0 ADD PUSH1 0x0 SWAP1 SLOAD SWAP1 PUSH2 0x100 EXP SWAP1 DIV PUSH20 0xFFFFFFFFFFFFFFFFFFFFFFFFFFFFFFFFFFFFFFFF AND SWAP1 DUP1 PUSH1 0x1 ADD DUP1 SLOAD PUSH2 0x344 SWAP1 PUSH2 0x104A JUMP JUMPDEST DUP1 PUSH1 0x1F ADD PUSH1 0x20 DUP1 SWAP2 DIV MUL PUSH1 0x20 ADD PUSH1 0x40 MLOAD SWAP1 DUP2 ADD PUSH1 0x40 MSTORE DUP1 SWAP3 SWAP2 SWAP1 DUP2 DUP2 MSTORE PUSH1 0x20 ADD DUP3 DUP1 SLOAD PUSH2 0x370 SWAP1 PUSH2 0x104A JUMP JUMPDEST DUP1 ISZERO PUSH2 0x3BD JUMPI DUP1 PUSH1 0x1F LT PUSH2 0x392 JUMPI PUSH2 0x100 DUP1 DUP4 SLOAD DIV MUL DUP4 MSTORE SWAP2 PUSH1 0x20 ADD SWAP2 PUSH2 0x3BD JUMP JUMPDEST DUP3 ADD SWAP2 SWAP1 PUSH1 0x0 MSTORE PUSH1 0x20 PUSH1 0x0 KECCAK256 SWAP1 JUMPDEST DUP2 SLOAD DUP2 MSTORE SWAP1 PUSH1 0x1 ADD SWAP1 PUSH1 0x20 ADD DUP1 DUP4 GT PUSH2 0x3A0 JUMPI DUP3 SWAP1 SUB PUSH1 0x1F AND DUP3 ADD SWAP2 JUMPDEST POP POP POP POP POP SWAP1 DUP1 PUSH1 0x2 ADD SLOAD SWAP1 DUP1 PUSH1 0x3 ADD SLOAD SWAP1 DUP1 PUSH1 0x4 ADD SLOAD SWAP1 DUP1 PUSH1 0x5 ADD SLOAD SWAP1 POP DUP7 JUMP JUMPDEST PUSH1 0x0 DUP1 PUSH1 0x0 DUP5 DUP2 MSTORE PUSH1 0x20 ADD SWAP1 DUP2 MSTORE PUSH1 0x20 ADD PUSH1 0x0 KECCAK256 PUSH1 0x2 ADD SLOAD EQ ISZERO PUSH2 0x438 JUMPI PUSH1 0x40 MLOAD PUSH32 0x8C379A000000000000000000000000000000000000000000000000000000000 DUP2 MSTORE PUSH1 0x4 ADD PUSH2 0x42F SWAP1 PUSH2 0xE10 JUMP JUMPDEST PUSH1 0x40 MLOAD DUP1 SWAP2 SUB SWAP1 REVERT JUMPDEST TIMESTAMP PUSH1 0x0 DUP1 DUP5 DUP2 MSTORE PUSH1 0x20 ADD SWAP1 DUP2 MSTORE PUSH1 0x20 ADD PUSH1 0x0 KECCAK256 PUSH1 0x2 ADD SLOAD GT PUSH2 0x48F JUMPI PUSH1 0x40 MLOAD PUSH32 0x8C379A000000000000000000000000000000000000000000000000000000000 DUP2 MSTORE PUSH1 0x4 ADD PUSH2 0x486 SWAP1 PUSH2 0xDD0 JUMP JUMPDEST PUSH1 0x40 MLOAD DUP1 SWAP2 SUB SWAP1 REVERT JUMPDEST PUSH1 0x0 DUP1 PUSH1 0x0 DUP5 DUP2 MSTORE PUSH1 0x20 ADD SWAP1 DUP2 MSTORE PUSH1 0x20 ADD PUSH1 0x0 KECCAK256 SWAP1 POP DUP2 DUP2 PUSH1 0x3 ADD SLOAD PUSH2 0x4B5 SWAP2 SWAP1 PUSH2 0xF3E JUMP JUMPDEST CALLVALUE EQ PUSH2 0x4F6 JUMPI PUSH1 0x40 MLOAD PUSH32 0x8C379A000000000000000000000000000000000000000000000000000000000 DUP2 MSTORE PUSH1 0x4 ADD PUSH2 0x4ED SWAP1 PUSH2 0xDF0 JUMP JUMPDEST PUSH1 0x40 MLOAD DUP1 SWAP2 SUB SWAP1 REVERT JUMPDEST DUP2 DUP2 PUSH1 0x5 ADD SLOAD LT ISZERO PUSH2 0x53D JUMPI PUSH1 0x40 MLOAD PUSH32 0x8C379A000000000000000000000000000000000000000000000000000000000 DUP2 MSTORE PUSH1 0x4 ADD PUSH2 0x534 SWAP1 PUSH2 0xDB0 JUMP JUMPDEST PUSH1 0x40 MLOAD DUP1 SWAP2 SUB SWAP1 REVERT JUMPDEST DUP2 DUP2 PUSH1 0x5 ADD PUSH1 0x0 DUP3 DUP3 SLOAD PUSH2 0x551 SWAP2 SWAP1 PUSH2 0xF98 JUMP JUMPDEST SWAP3 POP POP DUP2 SWAP1 SSTORE POP DUP2 PUSH1 0x1 PUSH1 0x0 CALLER PUSH20 0xFFFFFFFFFFFFFFFFFFFFFFFFFFFFFFFFFFFFFFFF AND PUSH20 0xFFFFFFFFFFFFFFFFFFFFFFFFFFFFFFFFFFFFFFFF AND DUP2 MSTORE PUSH1 0x20 ADD SWAP1 DUP2 MSTORE PUSH1 0x20 ADD PUSH1 0x0 KECCAK256 PUSH1 0x0 DUP6 DUP2 MSTORE PUSH1 0x20 ADD SWAP1 DUP2 MSTORE PUSH1 0x20 ADD PUSH1 0x0 KECCAK256 PUSH1 0x0 DUP3 DUP3 SLOAD PUSH2 0x5B8 SWAP2 SWAP1 PUSH2 0xEE8 JUMP JUMPDEST SWAP3 POP POP DUP2 SWAP1 SSTORE POP POP POP POP JUMP JUMPDEST PUSH1 0x0 DUP1 PUSH1 0x0 DUP6 DUP2 MSTORE PUSH1 0x20 ADD SWAP1 DUP2 MSTORE PUSH1 0x20 ADD PUSH1 0x0 KECCAK256 PUSH1 0x2 ADD SLOAD EQ ISZERO PUSH2 0x61D JUMPI PUSH1 0x40 MLOAD PUSH32 0x8C379A000000000000000000000000000000000000000000000000000000000 DUP2 MSTORE PUSH1 0x4 ADD PUSH2 0x614 SWAP1 PUSH2 0xE10 JUMP JUMPDEST PUSH1 0x40 MLOAD DUP1 SWAP2 SUB SWAP1 REVERT JUMPDEST TIMESTAMP PUSH1 0x0 DUP1 DUP6 DUP2 MSTORE PUSH1 0x20 ADD SWAP1 DUP2 MSTORE PUSH1 0x20 ADD PUSH1 0x0 KECCAK256 PUSH1 0x2 ADD SLOAD GT PUSH2 0x674 JUMPI PUSH1 0x40 MLOAD PUSH32 0x8C379A000000000000000000000000000000000000000000000000000000000 DUP2 MSTORE PUSH1 0x4 ADD PUSH2 0x66B SWAP1 PUSH2 0xDD0 JUMP JUMPDEST PUSH1 0x40 MLOAD DUP1 SWAP2 SUB SWAP1 REVERT JUMPDEST DUP2 PUSH1 0x1 PUSH1 0x0 CALLER PUSH20 0xFFFFFFFFFFFFFFFFFFFFFFFFFFFFFFFFFFFFFFFF AND PUSH20 0xFFFFFFFFFFFFFFFFFFFFFFFFFFFFFFFFFFFFFFFF AND DUP2 MSTORE PUSH1 0x20 ADD SWAP1 DUP2 MSTORE PUSH1 0x20 ADD PUSH1 0x0 KECCAK256 PUSH1 0x0 DUP6 DUP2 MSTORE PUSH1 0x20 ADD SWAP1 DUP2 MSTORE PUSH1 0x20 ADD PUSH1 0x0 KECCAK256 SLOAD LT ISZERO PUSH2 0x707 JUMPI PUSH1 0x40 MLOAD PUSH32 0x8C379A000000000000000000000000000000000000000000000000000000000 DUP2 MSTORE PUSH1 0x4 ADD PUSH2 0x6FE SWAP1 PUSH2 0xE30 JUMP JUMPDEST PUSH1 0x40 MLOAD DUP1 SWAP2 SUB SWAP1 REVERT JUMPDEST DUP2 PUSH1 0x1 PUSH1 0x0 CALLER PUSH20 0xFFFFFFFFFFFFFFFFFFFFFFFFFFFFFFFFFFFFFFFF AND PUSH20 0xFFFFFFFFFFFFFFFFFFFFFFFFFFFFFFFFFFFFFFFF AND DUP2 MSTORE PUSH1 0x20 ADD SWAP1 DUP2 MSTORE PUSH1 0x20 ADD PUSH1 0x0 KECCAK256 PUSH1 0x0 DUP6 DUP2 MSTORE PUSH1 0x20 ADD SWAP1 DUP2 MSTORE PUSH1 0x20 ADD PUSH1 0x0 KECCAK256 PUSH1 0x0 DUP3 DUP3 SLOAD PUSH2 0x767 SWAP2 SWAP1 PUSH2 0xF98 JUMP JUMPDEST SWAP3 POP POP DUP2 SWAP1 SSTORE POP DUP2 PUSH1 0x1 PUSH1 0x0 DUP4 PUSH20 0xFFFFFFFFFFFFFFFFFFFFFFFFFFFFFFFFFFFFFFFF AND PUSH20 0xFFFFFFFFFFFFFFFFFFFFFFFFFFFFFFFFFFFFFFFF AND DUP2 MSTORE PUSH1 0x20 ADD SWAP1 DUP2 MSTORE PUSH1 0x20 ADD PUSH1 0x0 KECCAK256 PUSH1 0x0 DUP6 DUP2 MSTORE PUSH1 0x20 ADD SWAP1 DUP2 MSTORE PUSH1 0x20 ADD PUSH1 0x0 KECCAK256 PUSH1 0x0 DUP3 DUP3 SLOAD PUSH2 0x7CE SWAP2 SWAP1 PUSH2 0xEE8 JUMP JUMPDEST SWAP3 POP POP DUP2 SWAP1 SSTORE POP POP POP POP JUMP JUMPDEST PUSH1 0x2 SLOAD DUP2 JUMP JUMPDEST PUSH1 0x1 PUSH1 0x20 MSTORE DUP2 PUSH1 0x0 MSTORE PUSH1 0x40 PUSH1 0x0 KECCAK256 PUSH1 0x20 MSTORE DUP1 PUSH1 0x0 MSTORE PUSH1 0x40 PUSH1 0x0 KECCAK256 PUSH1 0x0 SWAP2 POP SWAP2 POP POP SLOAD DUP2 JUMP JUMPDEST DUP3 DUP1 SLOAD PUSH2 0x811 SWAP1 PUSH2 0x104A JUMP JUMPDEST SWAP1 PUSH1 0x0 MSTORE PUSH1 0x20 PUSH1 0x0 KECCAK256 SWAP1 PUSH1 0x1F ADD PUSH1 0x20 SWAP1 DIV DUP2 ADD SWAP3 DUP3 PUSH2 0x833 JUMPI PUSH1 0x0 DUP6 SSTORE PUSH2 0x87A JUMP JUMPDEST DUP3 PUSH1 0x1F LT PUSH2 0x84C JUMPI DUP1 MLOAD PUSH1 0xFF NOT AND DUP4 DUP1 ADD OR DUP6 SSTORE PUSH2 0x87A JUMP JUMPDEST DUP3 DUP1 ADD PUSH1 0x1 ADD DUP6 SSTORE DUP3 ISZERO PUSH2 0x87A JUMPI SWAP2 DUP3 ADD JUMPDEST DUP3 DUP2 GT ISZERO PUSH2 0x879 JUMPI DUP3 MLOAD DUP3 SSTORE SWAP2 PUSH1 0x20 ADD SWAP2 SWAP1 PUSH1 0x1 ADD SWAP1 PUSH2 0x85E JUMP JUMPDEST JUMPDEST POP SWAP1 POP PUSH2 0x887 SWAP2 SWAP1 PUSH2 0x88B JUMP JUMPDEST POP SWAP1 JUMP JUMPDEST JUMPDEST DUP1 DUP3 GT ISZERO PUSH2 0x8A4 JUMPI PUSH1 0x0 DUP2 PUSH1 0x0 SWAP1 SSTORE POP PUSH1 0x1 ADD PUSH2 0x88C JUMP JUMPDEST POP SWAP1 JUMP JUMPDEST PUSH1 0x0 PUSH2 0x8BB PUSH2 0x8B6 DUP5 PUSH2 0xE9C JUMP JUMPDEST PUSH2 0xE6B JUMP JUMPDEST SWAP1 POP DUP3 DUP2 MSTORE PUSH1 0x20 DUP2 ADD DUP5 DUP5 DUP5 ADD GT ISZERO PUSH2 0x8D3 JUMPI PUSH1 0x0 DUP1 REVERT JUMPDEST PUSH2 0x8DE DUP5 DUP3 DUP6 PUSH2 0x1008 JUMP JUMPDEST POP SWAP4 SWAP3 POP POP POP JUMP JUMPDEST PUSH1 0x0 DUP2 CALLDATALOAD SWAP1 POP PUSH2 0x8F5 DUP2 PUSH2 0x1163 JUMP JUMPDEST SWAP3 SWAP2 POP POP JUMP JUMPDEST PUSH1 0x0 DUP3 PUSH1 0x1F DUP4 ADD SLT PUSH2 0x90C JUMPI PUSH1 0x0 DUP1 REVERT JUMPDEST DUP2 CALLDATALOAD PUSH2 0x91C DUP5 DUP3 PUSH1 0x20 DUP7 ADD PUSH2 0x8A8 JUMP JUMPDEST SWAP2 POP POP SWAP3 SWAP2 POP POP JUMP JUMPDEST PUSH1 0x0 DUP2 CALLDATALOAD SWAP1 POP PUSH2 0x934 DUP2 PUSH2 0x117A JUMP JUMPDEST SWAP3 SWAP2 POP POP JUMP JUMPDEST PUSH1 0x0 DUP1 PUSH1 0x40 DUP4 DUP6 SUB SLT ISZERO PUSH2 0x94D JUMPI PUSH1 0x0 DUP1 REVERT JUMPDEST PUSH1 0x0 PUSH2 0x95B DUP6 DUP3 DUP7 ADD PUSH2 0x8E6 JUMP JUMPDEST SWAP3 POP POP PUSH1 0x20 PUSH2 0x96C DUP6 DUP3 DUP7 ADD PUSH2 0x925 JUMP JUMPDEST SWAP2 POP POP SWAP3 POP SWAP3 SWAP1 POP JUMP JUMPDEST PUSH1 0x0 DUP1 PUSH1 0x0 DUP1 PUSH1 0x80 DUP6 DUP8 SUB SLT ISZERO PUSH2 0x98C JUMPI PUSH1 0x0 DUP1 REVERT JUMPDEST PUSH1 0x0 DUP6 ADD CALLDATALOAD PUSH8 0xFFFFFFFFFFFFFFFF DUP2 GT ISZERO PUSH2 0x9A6 JUMPI PUSH1 0x0 DUP1 REVERT JUMPDEST PUSH2 0x9B2 DUP8 DUP3 DUP9 ADD PUSH2 0x8FB JUMP JUMPDEST SWAP5 POP POP PUSH1 0x20 PUSH2 0x9C3 DUP8 DUP3 DUP9 ADD PUSH2 0x925 JUMP JUMPDEST SWAP4 POP POP PUSH1 0x40 PUSH2 0x9D4 DUP8 DUP3 DUP9 ADD PUSH2 0x925 JUMP JUMPDEST SWAP3 POP POP PUSH1 0x60 PUSH2 0x9E5 DUP8 DUP3 DUP9 ADD PUSH2 0x925 JUMP JUMPDEST SWAP2 POP POP SWAP3 SWAP6 SWAP2 SWAP5 POP SWAP3 POP JUMP JUMPDEST PUSH1 0x0 PUSH1 0x20 DUP3 DUP5 SUB SLT ISZERO PUSH2 0xA03 JUMPI PUSH1 0x0 DUP1 REVERT JUMPDEST PUSH1 0x0 PUSH2 0xA11 DUP5 DUP3 DUP6 ADD PUSH2 0x925 JUMP JUMPDEST SWAP2 POP POP SWAP3 SWAP2 POP POP JUMP JUMPDEST PUSH1 0x0 DUP1 PUSH1 0x40 DUP4 DUP6 SUB SLT ISZERO PUSH2 0xA2D JUMPI PUSH1 0x0 DUP1 REVERT JUMPDEST PUSH1 0x0 PUSH2 0xA3B DUP6 DUP3 DUP7 ADD PUSH2 0x925 JUMP JUMPDEST SWAP3 POP POP PUSH1 0x20 PUSH2 0xA4C DUP6 DUP3 DUP7 ADD PUSH2 0x925 JUMP JUMPDEST SWAP2 POP POP SWAP3 POP SWAP3 SWAP1 POP JUMP JUMPDEST PUSH1 0x0 DUP1 PUSH1 0x0 PUSH1 0x60 DUP5 DUP7 SUB SLT ISZERO PUSH2 0xA6B JUMPI PUSH1 0x0 DUP1 REVERT JUMPDEST PUSH1 0x0 PUSH2 0xA79 DUP7 DUP3 DUP8 ADD PUSH2 0x925 JUMP JUMPDEST SWAP4 POP POP PUSH1 0x20 PUSH2 0xA8A DUP7 DUP3 DUP8 ADD PUSH2 0x925 JUMP JUMPDEST SWAP3 POP POP PUSH1 0x40 PUSH2 0xA9B DUP7 DUP3 DUP8 ADD PUSH2 0x8E6 JUMP JUMPDEST SWAP2 POP POP SWAP3 POP SWAP3 POP SWAP3 JUMP JUMPDEST PUSH2 0xAAE DUP2 PUSH2 0xFCC JUMP JUMPDEST DUP3 MSTORE POP POP JUMP JUMPDEST PUSH1 0x0 PUSH2 0xABF DUP3 PUSH2 0xECC JUMP JUMPDEST PUSH2 0xAC9 DUP2 DUP6 PUSH2 0xED7 JUMP JUMPDEST SWAP4 POP PUSH2 0xAD9 DUP2 DUP6 PUSH1 0x20 DUP7 ADD PUSH2 0x1017 JUMP JUMPDEST PUSH2 0xAE2 DUP2 PUSH2 0x1152 JUMP JUMPDEST DUP5 ADD SWAP2 POP POP SWAP3 SWAP2 POP POP JUMP JUMPDEST PUSH1 0x0 PUSH2 0xAFA PUSH1 0x26 DUP4 PUSH2 0xED7 JUMP JUMPDEST SWAP2 POP PUSH32 0x596F752063616E206F7267616E697A65206576656E7420666F72206675747572 PUSH1 0x0 DUP4 ADD MSTORE PUSH32 0x6520646174650000000000000000000000000000000000000000000000000000 PUSH1 0x20 DUP4 ADD MSTORE PUSH1 0x40 DUP3 ADD SWAP1 POP SWAP2 SWAP1 POP JUMP JUMPDEST PUSH1 0x0 PUSH2 0xB60 PUSH1 0x3D DUP4 PUSH2 0xED7 JUMP JUMPDEST SWAP2 POP PUSH32 0x596F752063616E206F7267616E697A65206576656E74206F6E6C792069662079 PUSH1 0x0 DUP4 ADD MSTORE PUSH32 0x6F7520637265617465206D6F7265207468616E2030207469636B657473000000 PUSH1 0x20 DUP4 ADD MSTORE PUSH1 0x40 DUP3 ADD SWAP1 POP SWAP2 SWAP1 POP JUMP JUMPDEST PUSH1 0x0 PUSH2 0xBC6 PUSH1 0x12 DUP4 PUSH2 0xED7 JUMP JUMPDEST SWAP2 POP PUSH32 0x4E6F7420656E6F756768207469636B6574730000000000000000000000000000 PUSH1 0x0 DUP4 ADD MSTORE PUSH1 0x20 DUP3 ADD SWAP1 POP SWAP2 SWAP1 POP JUMP JUMPDEST PUSH1 0x0 PUSH2 0xC06 PUSH1 0x1A DUP4 PUSH2 0xED7 JUMP JUMPDEST SWAP2 POP PUSH32 0x4576656E742068617320616C7265616479206F63637572726564000000000000 PUSH1 0x0 DUP4 ADD MSTORE PUSH1 0x20 DUP3 ADD SWAP1 POP SWAP2 SWAP1 POP JUMP JUMPDEST PUSH1 0x0 PUSH2 0xC46 PUSH1 0x13 DUP4 PUSH2 0xED7 JUMP JUMPDEST SWAP2 POP PUSH32 0x4574686572206973206E6F7420656E6F75676800000000000000000000000000 PUSH1 0x0 DUP4 ADD MSTORE PUSH1 0x20 DUP3 ADD SWAP1 POP SWAP2 SWAP1 POP JUMP JUMPDEST PUSH1 0x0 PUSH2 0xC86 PUSH1 0x14 DUP4 PUSH2 0xED7 JUMP JUMPDEST SWAP2 POP PUSH32 0x4576656E7420646F6573206E6F74206578697374000000000000000000000000 PUSH1 0x0 DUP4 ADD MSTORE PUSH1 0x20 DUP3 ADD SWAP1 POP SWAP2 SWAP1 POP JUMP JUMPDEST PUSH1 0x0 PUSH2 0xCC6 PUSH1 0x1E DUP4 PUSH2 0xED7 JUMP JUMPDEST SWAP2 POP PUSH32 0x596F7520646F206E6F74206861766520656E6F756768207469636B6574730000 PUSH1 0x0 DUP4 ADD MSTORE PUSH1 0x20 DUP3 ADD SWAP1 POP SWAP2 SWAP1 POP JUMP JUMPDEST PUSH2 0xD02 DUP2 PUSH2 0xFFE JUMP JUMPDEST DUP3 MSTORE POP POP JUMP JUMPDEST PUSH1 0x0 PUSH1 0xC0 DUP3 ADD SWAP1 POP PUSH2 0xD1D PUSH1 0x0 DUP4 ADD DUP10 PUSH2 0xAA5 JUMP JUMPDEST DUP2 DUP2 SUB PUSH1 0x20 DUP4 ADD MSTORE PUSH2 0xD2F DUP2 DUP9 PUSH2 0xAB4 JUMP JUMPDEST SWAP1 POP PUSH2 0xD3E PUSH1 0x40 DUP4 ADD DUP8 PUSH2 0xCF9 JUMP JUMPDEST PUSH2 0xD4B PUSH1 0x60 DUP4 ADD DUP7 PUSH2 0xCF9 JUMP JUMPDEST PUSH2 0xD58 PUSH1 0x80 DUP4 ADD DUP6 PUSH2 0xCF9 JUMP JUMPDEST PUSH2 0xD65 PUSH1 0xA0 DUP4 ADD DUP5 PUSH2 0xCF9 JUMP JUMPDEST SWAP8 SWAP7 POP POP POP POP POP POP POP JUMP JUMPDEST PUSH1 0x0 PUSH1 0x20 DUP3 ADD SWAP1 POP DUP2 DUP2 SUB PUSH1 0x0 DUP4 ADD MSTORE PUSH2 0xD89 DUP2 PUSH2 0xAED JUMP JUMPDEST SWAP1 POP SWAP2 SWAP1 POP JUMP JUMPDEST PUSH1 0x0 PUSH1 0x20 DUP3 ADD SWAP1 POP DUP2 DUP2 SUB PUSH1 0x0 DUP4 ADD MSTORE PUSH2 0xDA9 DUP2 PUSH2 0xB53 JUMP JUMPDEST SWAP1 POP SWAP2 SWAP1 POP JUMP JUMPDEST PUSH1 0x0 PUSH1 0x20 DUP3 ADD SWAP1 POP DUP2 DUP2 SUB PUSH1 0x0 DUP4 ADD MSTORE PUSH2 0xDC9 DUP2 PUSH2 0xBB9 JUMP JUMPDEST SWAP1 POP SWAP2 SWAP1 POP JUMP JUMPDEST PUSH1 0x0 PUSH1 0x20 DUP3 ADD SWAP1 POP DUP2 DUP2 SUB PUSH1 0x0 DUP4 ADD MSTORE PUSH2 0xDE9 DUP2 PUSH2 0xBF9 JUMP JUMPDEST SWAP1 POP SWAP2 SWAP1 POP JUMP JUMPDEST PUSH1 0x0 PUSH1 0x20 DUP3 ADD SWAP1 POP DUP2 DUP2 SUB PUSH1 0x0 DUP4 ADD MSTORE PUSH2 0xE09 DUP2 PUSH2 0xC39 JUMP JUMPDEST SWAP1 POP SWAP2 SWAP1 POP JUMP JUMPDEST PUSH1 0x0 PUSH1 0x20 DUP3 ADD SWAP1 POP DUP2 DUP2 SUB PUSH1 0x0 DUP4 ADD MSTORE PUSH2 0xE29 DUP2 PUSH2 0xC79 JUMP JUMPDEST SWAP1 POP SWAP2 SWAP1 POP JUMP JUMPDEST PUSH1 0x0 PUSH1 0x20 DUP3 ADD SWAP1 POP DUP2 DUP2 SUB PUSH1 0x0 DUP4 ADD MSTORE PUSH2 0xE49 DUP2 PUSH2 0xCB9 JUMP JUMPDEST SWAP1 POP SWAP2 SWAP1 POP JUMP JUMPDEST PUSH1 0x0 PUSH1 0x20 DUP3 ADD SWAP1 POP PUSH2 0xE65 PUSH1 0x0 DUP4 ADD DUP5 PUSH2 0xCF9 JUMP JUMPDEST SWAP3 SWAP2 POP POP JUMP JUMPDEST PUSH1 0x0 PUSH1 0x40 MLOAD SWAP1 POP DUP2 DUP2 ADD DUP2 DUP2 LT PUSH8 0xFFFFFFFFFFFFFFFF DUP3 GT OR ISZERO PUSH2 0xE92 JUMPI PUSH2 0xE91 PUSH2 0x1123 JUMP JUMPDEST JUMPDEST DUP1 PUSH1 0x40 MSTORE POP SWAP2 SWAP1 POP JUMP JUMPDEST PUSH1 0x0 PUSH8 0xFFFFFFFFFFFFFFFF DUP3 GT ISZERO PUSH2 0xEB7 JUMPI PUSH2 0xEB6 PUSH2 0x1123 JUMP JUMPDEST JUMPDEST PUSH1 0x1F NOT PUSH1 0x1F DUP4 ADD AND SWAP1 POP PUSH1 0x20 DUP2 ADD SWAP1 POP SWAP2 SWAP1 POP JUMP JUMPDEST PUSH1 0x0 DUP2 MLOAD SWAP1 POP SWAP2 SWAP1 POP JUMP JUMPDEST PUSH1 0x0 DUP3 DUP3 MSTORE PUSH1 0x20 DUP3 ADD SWAP1 POP SWAP3 SWAP2 POP POP JUMP JUMPDEST PUSH1 0x0 PUSH2 0xEF3 DUP3 PUSH2 0xFFE JUMP JUMPDEST SWAP2 POP PUSH2 0xEFE DUP4 PUSH2 0xFFE JUMP JUMPDEST SWAP3 POP DUP3 PUSH32 0xFFFFFFFFFFFFFFFFFFFFFFFFFFFFFFFFFFFFFFFFFFFFFFFFFFFFFFFFFFFFFFFF SUB DUP3 GT ISZERO PUSH2 0xF33 JUMPI PUSH2 0xF32 PUSH2 0x10C5 JUMP JUMPDEST JUMPDEST DUP3 DUP3 ADD SWAP1 POP SWAP3 SWAP2 POP POP JUMP JUMPDEST PUSH1 0x0 PUSH2 0xF49 DUP3 PUSH2 0xFFE JUMP JUMPDEST SWAP2 POP PUSH2 0xF54 DUP4 PUSH2 0xFFE JUMP JUMPDEST SWAP3 POP DUP2 PUSH32 0xFFFFFFFFFFFFFFFFFFFFFFFFFFFFFFFFFFFFFFFFFFFFFFFFFFFFFFFFFFFFFFFF DIV DUP4 GT DUP3 ISZERO ISZERO AND ISZERO PUSH2 0xF8D JUMPI PUSH2 0xF8C PUSH2 0x10C5 JUMP JUMPDEST JUMPDEST DUP3 DUP3 MUL SWAP1 POP SWAP3 SWAP2 POP POP JUMP JUMPDEST PUSH1 0x0 PUSH2 0xFA3 DUP3 PUSH2 0xFFE JUMP JUMPDEST SWAP2 POP PUSH2 0xFAE DUP4 PUSH2 0xFFE JUMP JUMPDEST SWAP3 POP DUP3 DUP3 LT ISZERO PUSH2 0xFC1 JUMPI PUSH2 0xFC0 PUSH2 0x10C5 JUMP JUMPDEST JUMPDEST DUP3 DUP3 SUB SWAP1 POP SWAP3 SWAP2 POP POP JUMP JUMPDEST PUSH1 0x0 PUSH2 0xFD7 DUP3 PUSH2 0xFDE JUMP JUMPDEST SWAP1 POP SWAP2 SWAP1 POP JUMP JUMPDEST PUSH1 0x0 PUSH20 0xFFFFFFFFFFFFFFFFFFFFFFFFFFFFFFFFFFFFFFFF DUP3 AND SWAP1 POP SWAP2 SWAP1 POP JUMP JUMPDEST PUSH1 0x0 DUP2 SWAP1 POP SWAP2 SWAP1 POP JUMP JUMPDEST DUP3 DUP2 DUP4 CALLDATACOPY PUSH1 0x0 DUP4 DUP4 ADD MSTORE POP POP POP JUMP JUMPDEST PUSH1 0x0 JUMPDEST DUP4 DUP2 LT ISZERO PUSH2 0x1035 JUMPI DUP1 DUP3 ADD MLOAD DUP2 DUP5 ADD MSTORE PUSH1 0x20 DUP2 ADD SWAP1 POP PUSH2 0x101A JUMP JUMPDEST DUP4 DUP2 GT ISZERO PUSH2 0x1044 JUMPI PUSH1 0x0 DUP5 DUP5 ADD MSTORE JUMPDEST POP POP POP POP JUMP JUMPDEST PUSH1 0x0 PUSH1 0x2 DUP3 DIV SWAP1 POP PUSH1 0x1 DUP3 AND DUP1 PUSH2 0x1062 JUMPI PUSH1 0x7F DUP3 AND SWAP2 POP JUMPDEST PUSH1 0x20 DUP3 LT DUP2 EQ ISZERO PUSH2 0x1076 JUMPI PUSH2 0x1075 PUSH2 0x10F4 JUMP JUMPDEST JUMPDEST POP SWAP2 SWAP1 POP JUMP JUMPDEST PUSH1 0x0 PUSH2 0x1087 DUP3 PUSH2 0xFFE JUMP JUMPDEST SWAP2 POP PUSH32 0xFFFFFFFFFFFFFFFFFFFFFFFFFFFFFFFFFFFFFFFFFFFFFFFFFFFFFFFFFFFFFFFF DUP3 EQ ISZERO PUSH2 0x10BA JUMPI PUSH2 0x10B9 PUSH2 0x10C5 JUMP JUMPDEST JUMPDEST PUSH1 0x1 DUP3 ADD SWAP1 POP SWAP2 SWAP1 POP JUMP JUMPDEST PUSH32 0x4E487B7100000000000000000000000000000000000000000000000000000000 PUSH1 0x0 MSTORE PUSH1 0x11 PUSH1 0x4 MSTORE PUSH1 0x24 PUSH1 0x0 REVERT JUMPDEST PUSH32 0x4E487B7100000000000000000000000000000000000000000000000000000000 PUSH1 0x0 MSTORE PUSH1 0x22 PUSH1 0x4 MSTORE PUSH1 0x24 PUSH1 0x0 REVERT JUMPDEST PUSH32 0x4E487B7100000000000000000000000000000000000000000000000000000000 PUSH1 0x0 MSTORE PUSH1 0x41 PUSH1 0x4 MSTORE PUSH1 0x24 PUSH1 0x0 REVERT JUMPDEST PUSH1 0x0 PUSH1 0x1F NOT PUSH1 0x1F DUP4 ADD AND SWAP1 POP SWAP2 SWAP1 POP JUMP JUMPDEST PUSH2 0x116C DUP2 PUSH2 0xFCC JUMP JUMPDEST DUP2 EQ PUSH2 0x1177 JUMPI PUSH1 0x0 DUP1 REVERT JUMPDEST POP JUMP JUMPDEST PUSH2 0x1183 DUP2 PUSH2 0xFFE JUMP JUMPDEST DUP2 EQ PUSH2 0x118E JUMPI PUSH1 0x0 DUP1 REVERT JUMPDEST POP JUMP INVALID LOG2 PUSH5 0x6970667358 0x22 SLT KECCAK256 CODECOPY 0xF6 PUSH4 0x17BEF561 PUSH32 0xBD5A959B0F5113AF83728005F0B13EA4BB32AAFA52B7D63064736F6C63430008 STOP STOP CALLER "
				},
				"gasEstimates": {
					"creation": {
						"codeDepositCost": "910200",
						"executionCost": "948",
						"totalCost": "911148"
					},
					"external": {
						"buyTicket(uint256,uint256)": "infinite",
						"createEvent(string,uint256,uint256,uint256)": "infinite",
						"events(uint256)": "infinite",
						"nextId()": "1195",
						"tickets(address,uint256)": "infinite",
						"transferTickets(uint256,uint256,address)": "infinite"
					}
				},
				"methodIdentifiers": {
					"buyTicket(uint256,uint256)": "298ec208",
					"createEvent(string,uint256,uint256,uint256)": "0374ab0b",
					"events(uint256)": "0b791430",
					"nextId()": "61b8ce8c",
					"tickets(address,uint256)": "dae7a13c",
					"transferTickets(uint256,uint256,address)": "3d23eed9"
				}
			},
			"storageLayout": {
				"storage": [
					{
						"astId": 19,
						"contract": "tickets/tickets.sol:ticket",
						"label": "events",
						"offset": 0,
						"slot": "0",
						"type": "t_mapping(t_uint256,t_struct(Event)14_storage)"
					},
					{
						"astId": 25,
						"contract": "tickets/tickets.sol:ticket",
						"label": "tickets",
						"offset": 0,
						"slot": "1",
						"type": "t_mapping(t_address,t_mapping(t_uint256,t_uint256))"
					},
					{
						"astId": 27,
						"contract": "tickets/tickets.sol:ticket",
						"label": "nextId",
						"offset": 0,
						"slot": "2",
						"type": "t_uint256"
					}
				],
				"types": {
					"t_address": {
						"encoding": "inplace",
						"label": "address",
						"numberOfBytes": "20"
					},
					"t_mapping(t_address,t_mapping(t_uint256,t_uint256))": {
						"encoding": "mapping",
						"key": "t_address",
						"label": "mapping(address => mapping(uint256 => uint256))",
						"numberOfBytes": "32",
						"value": "t_mapping(t_uint256,t_uint256)"
					},
					"t_mapping(t_uint256,t_struct(Event)14_storage)": {
						"encoding": "mapping",
						"key": "t_uint256",
						"label": "mapping(uint256 => struct ticket.Event)",
						"numberOfBytes": "32",
						"value": "t_struct(Event)14_storage"
					},
					"t_mapping(t_uint256,t_uint256)": {
						"encoding": "mapping",
						"key": "t_uint256",
						"label": "mapping(uint256 => uint256)",
						"numberOfBytes": "32",
						"value": "t_uint256"
					},
					"t_string_storage": {
						"encoding": "bytes",
						"label": "string",
						"numberOfBytes": "32"
					},
					"t_struct(Event)14_storage": {
						"encoding": "inplace",
						"label": "struct ticket.Event",
						"members": [
							{
								"astId": 3,
								"contract": "tickets/tickets.sol:ticket",
								"label": "organizer",
								"offset": 0,
								"slot": "0",
								"type": "t_address"
							},
							{
								"astId": 5,
								"contract": "tickets/tickets.sol:ticket",
								"label": "name",
								"offset": 0,
								"slot": "1",
								"type": "t_string_storage"
							},
							{
								"astId": 7,
								"contract": "tickets/tickets.sol:ticket",
								"label": "date",
								"offset": 0,
								"slot": "2",
								"type": "t_uint256"
							},
							{
								"astId": 9,
								"contract": "tickets/tickets.sol:ticket",
								"label": "price",
								"offset": 0,
								"slot": "3",
								"type": "t_uint256"
							},
							{
								"astId": 11,
								"contract": "tickets/tickets.sol:ticket",
								"label": "ticketCount",
								"offset": 0,
								"slot": "4",
								"type": "t_uint256"
							},
							{
								"astId": 13,
								"contract": "tickets/tickets.sol:ticket",
								"label": "ticketRemaining",
								"offset": 0,
								"slot": "5",
								"type": "t_uint256"
							}
						],
						"numberOfBytes": "192"
					},
					"t_uint256": {
						"encoding": "inplace",
						"label": "uint256",
						"numberOfBytes": "32"
					}
				}
			},
			"userdoc": {
				"kind": "user",
				"methods": {},
				"version": 1
			}
		}
	}
}