{
	"tickets/tickets.sol": {
		"ticket": {
			"abi": [
				{
					"inputs": [
						{
							"internalType": "string",
							"name": "name",
							"type": "string"
						},
						{
							"internalType": "uint256",
							"name": "date",
							"type": "uint256"
						},
						{
							"internalType": "uint256",
							"name": "price",
							"type": "uint256"
						},
						{
							"internalType": "uint256",
							"name": "ticketCount",
							"type": "uint256"
						}
					],
					"name": "createEvent",
					"outputs": [],
					"stateMutability": "nonpayable",
					"type": "function"
				},
				{
					"inputs": [
						{
							"internalType": "uint256",
							"name": "",
							"type": "uint256"
						}
					],
					"name": "events",
					"outputs": [
						{
							"internalType": "address",
							"name": "organizer",
							"type": "address"
						},
						{
							"internalType": "string",
							"name": "name",
							"type": "string"
						},
						{
							"internalType": "uint256",
							"name": "date",
							"type": "uint256"
						},
						{
							"internalType": "uint256",
							"name": "price",
							"type": "uint256"
						},
						{
							"internalType": "uint256",
							"name": "ticketCount",
							"type": "uint256"
						},
						{
							"internalType": "uint256",
							"name": "ticketRemaining",
							"type": "uint256"
						}
					],
					"stateMutability": "view",
					"type": "function"
				},
				{
					"inputs": [],
					"name": "nextId",
					"outputs": [
						{
							"internalType": "uint256",
							"name": "",
							"type": "uint256"
						}
					],
					"stateMutability": "view",
					"type": "function"
				},
				{
					"inputs": [
						{
							"internalType": "address",
							"name": "",
							"type": "address"
						},
						{
							"internalType": "uint256",
							"name": "",
							"type": "uint256"
						}
					],
					"name": "tickets",
					"outputs": [
						{
							"internalType": "uint256",
							"name": "",
							"type": "uint256"
						}
					],
					"stateMutability": "view",
					"type": "function"
				}
			],
			"devdoc": {
				"kind": "dev",
				"methods": {},
				"version": 1
			},
			"evm": {
				"assembly": "    /* \"tickets/tickets.sol\":27:466  contract ticket {\r... */\n  mstore(0x40, 0x80)\n  callvalue\n  dup1\n  iszero\n  tag_1\n  jumpi\n  0x00\n  dup1\n  revert\ntag_1:\n  pop\n  dataSize(sub_0)\n  dup1\n  dataOffset(sub_0)\n  0x00\n  codecopy\n  0x00\n  return\nstop\n\nsub_0: assembly {\n        /* \"tickets/tickets.sol\":27:466  contract ticket {\r... */\n      mstore(0x40, 0x80)\n      callvalue\n      dup1\n      iszero\n      tag_1\n      jumpi\n      0x00\n      dup1\n      revert\n    tag_1:\n      pop\n      jumpi(tag_2, lt(calldatasize, 0x04))\n      shr(0xe0, calldataload(0x00))\n      dup1\n      0x0374ab0b\n      eq\n      tag_3\n      jumpi\n      dup1\n      0x0b791430\n      eq\n      tag_4\n      jumpi\n      dup1\n      0x61b8ce8c\n      eq\n      tag_5\n      jumpi\n      dup1\n      0xdae7a13c\n      eq\n      tag_6\n      jumpi\n    tag_2:\n      0x00\n      dup1\n      revert\n        /* \"tickets/tickets.sol\":355:463  function createEvent(string memory name, uint date, uint price, uint ticketCount) external{\r... */\n    tag_3:\n      tag_7\n      0x04\n      dup1\n      calldatasize\n      sub\n      dup2\n      add\n      swap1\n      tag_8\n      swap2\n      swap1\n      tag_9\n      jump\t// in\n    tag_8:\n      tag_10\n      jump\t// in\n    tag_7:\n      stop\n        /* \"tickets/tickets.sol\":228:262  mapping(uint=>Event) public events */\n    tag_4:\n      tag_11\n      0x04\n      dup1\n      calldatasize\n      sub\n      dup2\n      add\n      swap1\n      tag_12\n      swap2\n      swap1\n      tag_13\n      jump\t// in\n    tag_12:\n      tag_14\n      jump\t// in\n    tag_11:\n      mload(0x40)\n      tag_15\n      swap7\n      swap6\n      swap5\n      swap4\n      swap3\n      swap2\n      swap1\n      tag_16\n      jump\t// in\n    tag_15:\n      mload(0x40)\n      dup1\n      swap2\n      sub\n      swap1\n      return\n        /* \"tickets/tickets.sol\":328:346  uint public nextId */\n    tag_5:\n      tag_17\n      tag_18\n      jump\t// in\n    tag_17:\n      mload(0x40)\n      tag_19\n      swap2\n      swap1\n      tag_20\n      jump\t// in\n    tag_19:\n      mload(0x40)\n      dup1\n      swap2\n      sub\n      swap1\n      return\n        /* \"tickets/tickets.sol\":269:321  mapping(address=>mapping(uint=>uint)) public tickets */\n    tag_6:\n      tag_21\n      0x04\n      dup1\n      calldatasize\n      sub\n      dup2\n      add\n      swap1\n      tag_22\n      swap2\n      swap1\n      tag_23\n      jump\t// in\n    tag_22:\n      tag_24\n      jump\t// in\n    tag_21:\n      mload(0x40)\n      tag_25\n      swap2\n      swap1\n      tag_20\n      jump\t// in\n    tag_25:\n      mload(0x40)\n      dup1\n      swap2\n      sub\n      swap1\n      return\n        /* \"tickets/tickets.sol\":355:463  function createEvent(string memory name, uint date, uint price, uint ticketCount) external{\r... */\n    tag_10:\n      pop\n      pop\n      pop\n      pop\n      jump\t// out\n        /* \"tickets/tickets.sol\":228:262  mapping(uint=>Event) public events */\n    tag_14:\n      mstore(0x20, 0x00)\n      dup1\n      0x00\n      mstore\n      keccak256(0x00, 0x40)\n      0x00\n      swap2\n      pop\n      swap1\n      pop\n      dup1\n      0x00\n      add\n      0x00\n      swap1\n      sload\n      swap1\n      0x0100\n      exp\n      swap1\n      div\n      0xffffffffffffffffffffffffffffffffffffffff\n      and\n      swap1\n      dup1\n      0x01\n      add\n      dup1\n      sload\n      tag_27\n      swap1\n      tag_28\n      jump\t// in\n    tag_27:\n      dup1\n      0x1f\n      add\n      0x20\n      dup1\n      swap2\n      div\n      mul\n      0x20\n      add\n      mload(0x40)\n      swap1\n      dup2\n      add\n      0x40\n      mstore\n      dup1\n      swap3\n      swap2\n      swap1\n      dup2\n      dup2\n      mstore\n      0x20\n      add\n      dup3\n      dup1\n      sload\n      tag_29\n      swap1\n      tag_28\n      jump\t// in\n    tag_29:\n      dup1\n      iszero\n      tag_30\n      jumpi\n      dup1\n      0x1f\n      lt\n      tag_31\n      jumpi\n      0x0100\n      dup1\n      dup4\n      sload\n      div\n      mul\n      dup4\n      mstore\n      swap2\n      0x20\n      add\n      swap2\n      jump(tag_30)\n    tag_31:\n      dup3\n      add\n      swap2\n      swap1\n      0x00\n      mstore\n      keccak256(0x00, 0x20)\n      swap1\n    tag_32:\n      dup2\n      sload\n      dup2\n      mstore\n      swap1\n      0x01\n      add\n      swap1\n      0x20\n      add\n      dup1\n      dup4\n      gt\n      tag_32\n      jumpi\n      dup3\n      swap1\n      sub\n      0x1f\n      and\n      dup3\n      add\n      swap2\n    tag_30:\n      pop\n      pop\n      pop\n      pop\n      pop\n      swap1\n      dup1\n      0x02\n      add\n      sload\n      swap1\n      dup1\n      0x03\n      add\n      sload\n      swap1\n      dup1\n      0x04\n      add\n      sload\n      swap1\n      dup1\n      0x05\n      add\n      sload\n      swap1\n      pop\n      dup7\n      jump\t// out\n        /* \"tickets/tickets.sol\":328:346  uint public nextId */\n    tag_18:\n      sload(0x02)\n      dup2\n      jump\t// out\n        /* \"tickets/tickets.sol\":269:321  mapping(address=>mapping(uint=>uint)) public tickets */\n    tag_24:\n      mstore(0x20, 0x01)\n      dup2\n      0x00\n      mstore\n      mstore(0x20, keccak256(0x00, 0x40))\n      dup1\n      0x00\n      mstore\n      keccak256(0x00, 0x40)\n      0x00\n      swap2\n      pop\n      swap2\n      pop\n      pop\n      sload\n      dup2\n      jump\t// out\n        /* \"#utility.yul\":7:351   */\n    tag_34:\n      0x00\n        /* \"#utility.yul\":110:175   */\n      tag_36\n        /* \"#utility.yul\":125:174   */\n      tag_37\n        /* \"#utility.yul\":167:173   */\n      dup5\n        /* \"#utility.yul\":125:174   */\n      tag_38\n      jump\t// in\n    tag_37:\n        /* \"#utility.yul\":110:175   */\n      tag_39\n      jump\t// in\n    tag_36:\n        /* \"#utility.yul\":101:175   */\n      swap1\n      pop\n        /* \"#utility.yul\":198:204   */\n      dup3\n        /* \"#utility.yul\":191:196   */\n      dup2\n        /* \"#utility.yul\":184:205   */\n      mstore\n        /* \"#utility.yul\":236:240   */\n      0x20\n        /* \"#utility.yul\":229:234   */\n      dup2\n        /* \"#utility.yul\":225:241   */\n      add\n        /* \"#utility.yul\":274:277   */\n      dup5\n        /* \"#utility.yul\":265:271   */\n      dup5\n        /* \"#utility.yul\":260:263   */\n      dup5\n        /* \"#utility.yul\":256:272   */\n      add\n        /* \"#utility.yul\":253:278   */\n      gt\n        /* \"#utility.yul\":250:252   */\n      iszero\n      tag_40\n      jumpi\n        /* \"#utility.yul\":291:292   */\n      0x00\n        /* \"#utility.yul\":288:289   */\n      dup1\n        /* \"#utility.yul\":281:293   */\n      revert\n        /* \"#utility.yul\":250:252   */\n    tag_40:\n        /* \"#utility.yul\":304:345   */\n      tag_41\n        /* \"#utility.yul\":338:344   */\n      dup5\n        /* \"#utility.yul\":333:336   */\n      dup3\n        /* \"#utility.yul\":328:331   */\n      dup6\n        /* \"#utility.yul\":304:345   */\n      tag_42\n      jump\t// in\n    tag_41:\n        /* \"#utility.yul\":91:351   */\n      pop\n      swap4\n      swap3\n      pop\n      pop\n      pop\n      jump\t// out\n        /* \"#utility.yul\":357:496   */\n    tag_43:\n      0x00\n        /* \"#utility.yul\":441:447   */\n      dup2\n        /* \"#utility.yul\":428:448   */\n      calldataload\n        /* \"#utility.yul\":419:448   */\n      swap1\n      pop\n        /* \"#utility.yul\":457:490   */\n      tag_45\n        /* \"#utility.yul\":484:489   */\n      dup2\n        /* \"#utility.yul\":457:490   */\n      tag_46\n      jump\t// in\n    tag_45:\n        /* \"#utility.yul\":409:496   */\n      swap3\n      swap2\n      pop\n      pop\n      jump\t// out\n        /* \"#utility.yul\":516:789   */\n    tag_47:\n      0x00\n        /* \"#utility.yul\":621:624   */\n      dup3\n        /* \"#utility.yul\":614:618   */\n      0x1f\n        /* \"#utility.yul\":606:612   */\n      dup4\n        /* \"#utility.yul\":602:619   */\n      add\n        /* \"#utility.yul\":598:625   */\n      slt\n        /* \"#utility.yul\":588:590   */\n      tag_49\n      jumpi\n        /* \"#utility.yul\":639:640   */\n      0x00\n        /* \"#utility.yul\":636:637   */\n      dup1\n        /* \"#utility.yul\":629:641   */\n      revert\n        /* \"#utility.yul\":588:590   */\n    tag_49:\n        /* \"#utility.yul\":679:685   */\n      dup2\n        /* \"#utility.yul\":666:686   */\n      calldataload\n        /* \"#utility.yul\":704:783   */\n      tag_50\n        /* \"#utility.yul\":779:782   */\n      dup5\n        /* \"#utility.yul\":771:777   */\n      dup3\n        /* \"#utility.yul\":764:768   */\n      0x20\n        /* \"#utility.yul\":756:762   */\n      dup7\n        /* \"#utility.yul\":752:769   */\n      add\n        /* \"#utility.yul\":704:783   */\n      tag_34\n      jump\t// in\n    tag_50:\n        /* \"#utility.yul\":695:783   */\n      swap2\n      pop\n        /* \"#utility.yul\":578:789   */\n      pop\n      swap3\n      swap2\n      pop\n      pop\n      jump\t// out\n        /* \"#utility.yul\":795:934   */\n    tag_51:\n      0x00\n        /* \"#utility.yul\":879:885   */\n      dup2\n        /* \"#utility.yul\":866:886   */\n      calldataload\n        /* \"#utility.yul\":857:886   */\n      swap1\n      pop\n        /* \"#utility.yul\":895:928   */\n      tag_53\n        /* \"#utility.yul\":922:927   */\n      dup2\n        /* \"#utility.yul\":895:928   */\n      tag_54\n      jump\t// in\n    tag_53:\n        /* \"#utility.yul\":847:934   */\n      swap3\n      swap2\n      pop\n      pop\n      jump\t// out\n        /* \"#utility.yul\":940:1347   */\n    tag_23:\n      0x00\n      dup1\n        /* \"#utility.yul\":1065:1067   */\n      0x40\n        /* \"#utility.yul\":1053:1062   */\n      dup4\n        /* \"#utility.yul\":1044:1051   */\n      dup6\n        /* \"#utility.yul\":1040:1063   */\n      sub\n        /* \"#utility.yul\":1036:1068   */\n      slt\n        /* \"#utility.yul\":1033:1035   */\n      iszero\n      tag_56\n      jumpi\n        /* \"#utility.yul\":1081:1082   */\n      0x00\n        /* \"#utility.yul\":1078:1079   */\n      dup1\n        /* \"#utility.yul\":1071:1083   */\n      revert\n        /* \"#utility.yul\":1033:1035   */\n    tag_56:\n        /* \"#utility.yul\":1124:1125   */\n      0x00\n        /* \"#utility.yul\":1149:1202   */\n      tag_57\n        /* \"#utility.yul\":1194:1201   */\n      dup6\n        /* \"#utility.yul\":1185:1191   */\n      dup3\n        /* \"#utility.yul\":1174:1183   */\n      dup7\n        /* \"#utility.yul\":1170:1192   */\n      add\n        /* \"#utility.yul\":1149:1202   */\n      tag_43\n      jump\t// in\n    tag_57:\n        /* \"#utility.yul\":1139:1202   */\n      swap3\n      pop\n        /* \"#utility.yul\":1095:1212   */\n      pop\n        /* \"#utility.yul\":1251:1253   */\n      0x20\n        /* \"#utility.yul\":1277:1330   */\n      tag_58\n        /* \"#utility.yul\":1322:1329   */\n      dup6\n        /* \"#utility.yul\":1313:1319   */\n      dup3\n        /* \"#utility.yul\":1302:1311   */\n      dup7\n        /* \"#utility.yul\":1298:1320   */\n      add\n        /* \"#utility.yul\":1277:1330   */\n      tag_51\n      jump\t// in\n    tag_58:\n        /* \"#utility.yul\":1267:1330   */\n      swap2\n      pop\n        /* \"#utility.yul\":1222:1340   */\n      pop\n        /* \"#utility.yul\":1023:1347   */\n      swap3\n      pop\n      swap3\n      swap1\n      pop\n      jump\t// out\n        /* \"#utility.yul\":1353:2164   */\n    tag_9:\n      0x00\n      dup1\n      0x00\n      dup1\n        /* \"#utility.yul\":1522:1525   */\n      0x80\n        /* \"#utility.yul\":1510:1519   */\n      dup6\n        /* \"#utility.yul\":1501:1508   */\n      dup8\n        /* \"#utility.yul\":1497:1520   */\n      sub\n        /* \"#utility.yul\":1493:1526   */\n      slt\n        /* \"#utility.yul\":1490:1492   */\n      iszero\n      tag_60\n      jumpi\n        /* \"#utility.yul\":1539:1540   */\n      0x00\n        /* \"#utility.yul\":1536:1537   */\n      dup1\n        /* \"#utility.yul\":1529:1541   */\n      revert\n        /* \"#utility.yul\":1490:1492   */\n    tag_60:\n        /* \"#utility.yul\":1610:1611   */\n      0x00\n        /* \"#utility.yul\":1599:1608   */\n      dup6\n        /* \"#utility.yul\":1595:1612   */\n      add\n        /* \"#utility.yul\":1582:1613   */\n      calldataload\n        /* \"#utility.yul\":1640:1658   */\n      0xffffffffffffffff\n        /* \"#utility.yul\":1632:1638   */\n      dup2\n        /* \"#utility.yul\":1629:1659   */\n      gt\n        /* \"#utility.yul\":1626:1628   */\n      iszero\n      tag_61\n      jumpi\n        /* \"#utility.yul\":1672:1673   */\n      0x00\n        /* \"#utility.yul\":1669:1670   */\n      dup1\n        /* \"#utility.yul\":1662:1674   */\n      revert\n        /* \"#utility.yul\":1626:1628   */\n    tag_61:\n        /* \"#utility.yul\":1700:1763   */\n      tag_62\n        /* \"#utility.yul\":1755:1762   */\n      dup8\n        /* \"#utility.yul\":1746:1752   */\n      dup3\n        /* \"#utility.yul\":1735:1744   */\n      dup9\n        /* \"#utility.yul\":1731:1753   */\n      add\n        /* \"#utility.yul\":1700:1763   */\n      tag_47\n      jump\t// in\n    tag_62:\n        /* \"#utility.yul\":1690:1763   */\n      swap5\n      pop\n        /* \"#utility.yul\":1553:1773   */\n      pop\n        /* \"#utility.yul\":1812:1814   */\n      0x20\n        /* \"#utility.yul\":1838:1891   */\n      tag_63\n        /* \"#utility.yul\":1883:1890   */\n      dup8\n        /* \"#utility.yul\":1874:1880   */\n      dup3\n        /* \"#utility.yul\":1863:1872   */\n      dup9\n        /* \"#utility.yul\":1859:1881   */\n      add\n        /* \"#utility.yul\":1838:1891   */\n      tag_51\n      jump\t// in\n    tag_63:\n        /* \"#utility.yul\":1828:1891   */\n      swap4\n      pop\n        /* \"#utility.yul\":1783:1901   */\n      pop\n        /* \"#utility.yul\":1940:1942   */\n      0x40\n        /* \"#utility.yul\":1966:2019   */\n      tag_64\n        /* \"#utility.yul\":2011:2018   */\n      dup8\n        /* \"#utility.yul\":2002:2008   */\n      dup3\n        /* \"#utility.yul\":1991:2000   */\n      dup9\n        /* \"#utility.yul\":1987:2009   */\n      add\n        /* \"#utility.yul\":1966:2019   */\n      tag_51\n      jump\t// in\n    tag_64:\n        /* \"#utility.yul\":1956:2019   */\n      swap3\n      pop\n        /* \"#utility.yul\":1911:2029   */\n      pop\n        /* \"#utility.yul\":2068:2070   */\n      0x60\n        /* \"#utility.yul\":2094:2147   */\n      tag_65\n        /* \"#utility.yul\":2139:2146   */\n      dup8\n        /* \"#utility.yul\":2130:2136   */\n      dup3\n        /* \"#utility.yul\":2119:2128   */\n      dup9\n        /* \"#utility.yul\":2115:2137   */\n      add\n        /* \"#utility.yul\":2094:2147   */\n      tag_51\n      jump\t// in\n    tag_65:\n        /* \"#utility.yul\":2084:2147   */\n      swap2\n      pop\n        /* \"#utility.yul\":2039:2157   */\n      pop\n        /* \"#utility.yul\":1480:2164   */\n      swap3\n      swap6\n      swap2\n      swap5\n      pop\n      swap3\n      pop\n      jump\t// out\n        /* \"#utility.yul\":2170:2432   */\n    tag_13:\n      0x00\n        /* \"#utility.yul\":2278:2280   */\n      0x20\n        /* \"#utility.yul\":2266:2275   */\n      dup3\n        /* \"#utility.yul\":2257:2264   */\n      dup5\n        /* \"#utility.yul\":2253:2276   */\n      sub\n        /* \"#utility.yul\":2249:2281   */\n      slt\n        /* \"#utility.yul\":2246:2248   */\n      iszero\n      tag_67\n      jumpi\n        /* \"#utility.yul\":2294:2295   */\n      0x00\n        /* \"#utility.yul\":2291:2292   */\n      dup1\n        /* \"#utility.yul\":2284:2296   */\n      revert\n        /* \"#utility.yul\":2246:2248   */\n    tag_67:\n        /* \"#utility.yul\":2337:2338   */\n      0x00\n        /* \"#utility.yul\":2362:2415   */\n      tag_68\n        /* \"#utility.yul\":2407:2414   */\n      dup5\n        /* \"#utility.yul\":2398:2404   */\n      dup3\n        /* \"#utility.yul\":2387:2396   */\n      dup6\n        /* \"#utility.yul\":2383:2405   */\n      add\n        /* \"#utility.yul\":2362:2415   */\n      tag_51\n      jump\t// in\n    tag_68:\n        /* \"#utility.yul\":2352:2415   */\n      swap2\n      pop\n        /* \"#utility.yul\":2308:2425   */\n      pop\n        /* \"#utility.yul\":2236:2432   */\n      swap3\n      swap2\n      pop\n      pop\n      jump\t// out\n        /* \"#utility.yul\":2438:2556   */\n    tag_69:\n        /* \"#utility.yul\":2525:2549   */\n      tag_71\n        /* \"#utility.yul\":2543:2548   */\n      dup2\n        /* \"#utility.yul\":2525:2549   */\n      tag_72\n      jump\t// in\n    tag_71:\n        /* \"#utility.yul\":2520:2523   */\n      dup3\n        /* \"#utility.yul\":2513:2550   */\n      mstore\n        /* \"#utility.yul\":2503:2556   */\n      pop\n      pop\n      jump\t// out\n        /* \"#utility.yul\":2562:2926   */\n    tag_73:\n      0x00\n        /* \"#utility.yul\":2678:2717   */\n      tag_75\n        /* \"#utility.yul\":2711:2716   */\n      dup3\n        /* \"#utility.yul\":2678:2717   */\n      tag_76\n      jump\t// in\n    tag_75:\n        /* \"#utility.yul\":2733:2804   */\n      tag_77\n        /* \"#utility.yul\":2797:2803   */\n      dup2\n        /* \"#utility.yul\":2792:2795   */\n      dup6\n        /* \"#utility.yul\":2733:2804   */\n      tag_78\n      jump\t// in\n    tag_77:\n        /* \"#utility.yul\":2726:2804   */\n      swap4\n      pop\n        /* \"#utility.yul\":2813:2865   */\n      tag_79\n        /* \"#utility.yul\":2858:2864   */\n      dup2\n        /* \"#utility.yul\":2853:2856   */\n      dup6\n        /* \"#utility.yul\":2846:2850   */\n      0x20\n        /* \"#utility.yul\":2839:2844   */\n      dup7\n        /* \"#utility.yul\":2835:2851   */\n      add\n        /* \"#utility.yul\":2813:2865   */\n      tag_80\n      jump\t// in\n    tag_79:\n        /* \"#utility.yul\":2890:2919   */\n      tag_81\n        /* \"#utility.yul\":2912:2918   */\n      dup2\n        /* \"#utility.yul\":2890:2919   */\n      tag_82\n      jump\t// in\n    tag_81:\n        /* \"#utility.yul\":2885:2888   */\n      dup5\n        /* \"#utility.yul\":2881:2920   */\n      add\n        /* \"#utility.yul\":2874:2920   */\n      swap2\n      pop\n        /* \"#utility.yul\":2654:2926   */\n      pop\n      swap3\n      swap2\n      pop\n      pop\n      jump\t// out\n        /* \"#utility.yul\":2932:3050   */\n    tag_83:\n        /* \"#utility.yul\":3019:3043   */\n      tag_85\n        /* \"#utility.yul\":3037:3042   */\n      dup2\n        /* \"#utility.yul\":3019:3043   */\n      tag_86\n      jump\t// in\n    tag_85:\n        /* \"#utility.yul\":3014:3017   */\n      dup3\n        /* \"#utility.yul\":3007:3044   */\n      mstore\n        /* \"#utility.yul\":2997:3050   */\n      pop\n      pop\n      jump\t// out\n        /* \"#utility.yul\":3056:3922   */\n    tag_16:\n      0x00\n        /* \"#utility.yul\":3347:3350   */\n      0xc0\n        /* \"#utility.yul\":3336:3345   */\n      dup3\n        /* \"#utility.yul\":3332:3351   */\n      add\n        /* \"#utility.yul\":3324:3351   */\n      swap1\n      pop\n        /* \"#utility.yul\":3361:3432   */\n      tag_88\n        /* \"#utility.yul\":3429:3430   */\n      0x00\n        /* \"#utility.yul\":3418:3427   */\n      dup4\n        /* \"#utility.yul\":3414:3431   */\n      add\n        /* \"#utility.yul\":3405:3411   */\n      dup10\n        /* \"#utility.yul\":3361:3432   */\n      tag_69\n      jump\t// in\n    tag_88:\n        /* \"#utility.yul\":3479:3488   */\n      dup2\n        /* \"#utility.yul\":3473:3477   */\n      dup2\n        /* \"#utility.yul\":3469:3489   */\n      sub\n        /* \"#utility.yul\":3464:3466   */\n      0x20\n        /* \"#utility.yul\":3453:3462   */\n      dup4\n        /* \"#utility.yul\":3449:3467   */\n      add\n        /* \"#utility.yul\":3442:3490   */\n      mstore\n        /* \"#utility.yul\":3507:3585   */\n      tag_89\n        /* \"#utility.yul\":3580:3584   */\n      dup2\n        /* \"#utility.yul\":3571:3577   */\n      dup9\n        /* \"#utility.yul\":3507:3585   */\n      tag_73\n      jump\t// in\n    tag_89:\n        /* \"#utility.yul\":3499:3585   */\n      swap1\n      pop\n        /* \"#utility.yul\":3595:3667   */\n      tag_90\n        /* \"#utility.yul\":3663:3665   */\n      0x40\n        /* \"#utility.yul\":3652:3661   */\n      dup4\n        /* \"#utility.yul\":3648:3666   */\n      add\n        /* \"#utility.yul\":3639:3645   */\n      dup8\n        /* \"#utility.yul\":3595:3667   */\n      tag_83\n      jump\t// in\n    tag_90:\n        /* \"#utility.yul\":3677:3749   */\n      tag_91\n        /* \"#utility.yul\":3745:3747   */\n      0x60\n        /* \"#utility.yul\":3734:3743   */\n      dup4\n        /* \"#utility.yul\":3730:3748   */\n      add\n        /* \"#utility.yul\":3721:3727   */\n      dup7\n        /* \"#utility.yul\":3677:3749   */\n      tag_83\n      jump\t// in\n    tag_91:\n        /* \"#utility.yul\":3759:3832   */\n      tag_92\n        /* \"#utility.yul\":3827:3830   */\n      0x80\n        /* \"#utility.yul\":3816:3825   */\n      dup4\n        /* \"#utility.yul\":3812:3831   */\n      add\n        /* \"#utility.yul\":3803:3809   */\n      dup6\n        /* \"#utility.yul\":3759:3832   */\n      tag_83\n      jump\t// in\n    tag_92:\n        /* \"#utility.yul\":3842:3915   */\n      tag_93\n        /* \"#utility.yul\":3910:3913   */\n      0xa0\n        /* \"#utility.yul\":3899:3908   */\n      dup4\n        /* \"#utility.yul\":3895:3914   */\n      add\n        /* \"#utility.yul\":3886:3892   */\n      dup5\n        /* \"#utility.yul\":3842:3915   */\n      tag_83\n      jump\t// in\n    tag_93:\n        /* \"#utility.yul\":3314:3922   */\n      swap8\n      swap7\n      pop\n      pop\n      pop\n      pop\n      pop\n      pop\n      pop\n      jump\t// out\n        /* \"#utility.yul\":3928:4150   */\n    tag_20:\n      0x00\n        /* \"#utility.yul\":4059:4061   */\n      0x20\n        /* \"#utility.yul\":4048:4057   */\n      dup3\n        /* \"#utility.yul\":4044:4062   */\n      add\n        /* \"#utility.yul\":4036:4062   */\n      swap1\n      pop\n        /* \"#utility.yul\":4072:4143   */\n      tag_95\n        /* \"#utility.yul\":4140:4141   */\n      0x00\n        /* \"#utility.yul\":4129:4138   */\n      dup4\n        /* \"#utility.yul\":4125:4142   */\n      add\n        /* \"#utility.yul\":4116:4122   */\n      dup5\n        /* \"#utility.yul\":4072:4143   */\n      tag_83\n      jump\t// in\n    tag_95:\n        /* \"#utility.yul\":4026:4150   */\n      swap3\n      swap2\n      pop\n      pop\n      jump\t// out\n        /* \"#utility.yul\":4156:4439   */\n    tag_39:\n      0x00\n        /* \"#utility.yul\":4222:4224   */\n      0x40\n        /* \"#utility.yul\":4216:4225   */\n      mload\n        /* \"#utility.yul\":4206:4225   */\n      swap1\n      pop\n        /* \"#utility.yul\":4264:4268   */\n      dup2\n        /* \"#utility.yul\":4256:4262   */\n      dup2\n        /* \"#utility.yul\":4252:4269   */\n      add\n        /* \"#utility.yul\":4371:4377   */\n      dup2\n        /* \"#utility.yul\":4359:4369   */\n      dup2\n        /* \"#utility.yul\":4356:4378   */\n      lt\n        /* \"#utility.yul\":4335:4353   */\n      0xffffffffffffffff\n        /* \"#utility.yul\":4323:4333   */\n      dup3\n        /* \"#utility.yul\":4320:4354   */\n      gt\n        /* \"#utility.yul\":4317:4379   */\n      or\n        /* \"#utility.yul\":4314:4316   */\n      iszero\n      tag_97\n      jumpi\n        /* \"#utility.yul\":4382:4400   */\n      tag_98\n      tag_99\n      jump\t// in\n    tag_98:\n        /* \"#utility.yul\":4314:4316   */\n    tag_97:\n        /* \"#utility.yul\":4422:4432   */\n      dup1\n        /* \"#utility.yul\":4418:4420   */\n      0x40\n        /* \"#utility.yul\":4411:4433   */\n      mstore\n        /* \"#utility.yul\":4196:4439   */\n      pop\n      swap2\n      swap1\n      pop\n      jump\t// out\n        /* \"#utility.yul\":4445:4777   */\n    tag_38:\n      0x00\n        /* \"#utility.yul\":4597:4615   */\n      0xffffffffffffffff\n        /* \"#utility.yul\":4589:4595   */\n      dup3\n        /* \"#utility.yul\":4586:4616   */\n      gt\n        /* \"#utility.yul\":4583:4585   */\n      iszero\n      tag_101\n      jumpi\n        /* \"#utility.yul\":4619:4637   */\n      tag_102\n      tag_99\n      jump\t// in\n    tag_102:\n        /* \"#utility.yul\":4583:4585   */\n    tag_101:\n        /* \"#utility.yul\":4704:4708   */\n      0x1f\n        /* \"#utility.yul\":4700:4709   */\n      not\n        /* \"#utility.yul\":4693:4697   */\n      0x1f\n        /* \"#utility.yul\":4685:4691   */\n      dup4\n        /* \"#utility.yul\":4681:4698   */\n      add\n        /* \"#utility.yul\":4677:4710   */\n      and\n        /* \"#utility.yul\":4669:4710   */\n      swap1\n      pop\n        /* \"#utility.yul\":4765:4769   */\n      0x20\n        /* \"#utility.yul\":4759:4763   */\n      dup2\n        /* \"#utility.yul\":4755:4770   */\n      add\n        /* \"#utility.yul\":4747:4770   */\n      swap1\n      pop\n        /* \"#utility.yul\":4512:4777   */\n      swap2\n      swap1\n      pop\n      jump\t// out\n        /* \"#utility.yul\":4783:4882   */\n    tag_76:\n      0x00\n        /* \"#utility.yul\":4869:4874   */\n      dup2\n        /* \"#utility.yul\":4863:4875   */\n      mload\n        /* \"#utility.yul\":4853:4875   */\n      swap1\n      pop\n        /* \"#utility.yul\":4842:4882   */\n      swap2\n      swap1\n      pop\n      jump\t// out\n        /* \"#utility.yul\":4888:5057   */\n    tag_78:\n      0x00\n        /* \"#utility.yul\":5006:5012   */\n      dup3\n        /* \"#utility.yul\":5001:5004   */\n      dup3\n        /* \"#utility.yul\":4994:5013   */\n      mstore\n        /* \"#utility.yul\":5046:5050   */\n      0x20\n        /* \"#utility.yul\":5041:5044   */\n      dup3\n        /* \"#utility.yul\":5037:5051   */\n      add\n        /* \"#utility.yul\":5022:5051   */\n      swap1\n      pop\n        /* \"#utility.yul\":4984:5057   */\n      swap3\n      swap2\n      pop\n      pop\n      jump\t// out\n        /* \"#utility.yul\":5063:5159   */\n    tag_72:\n      0x00\n        /* \"#utility.yul\":5129:5153   */\n      tag_106\n        /* \"#utility.yul\":5147:5152   */\n      dup3\n        /* \"#utility.yul\":5129:5153   */\n      tag_107\n      jump\t// in\n    tag_106:\n        /* \"#utility.yul\":5118:5153   */\n      swap1\n      pop\n        /* \"#utility.yul\":5108:5159   */\n      swap2\n      swap1\n      pop\n      jump\t// out\n        /* \"#utility.yul\":5165:5291   */\n    tag_107:\n      0x00\n        /* \"#utility.yul\":5242:5284   */\n      0xffffffffffffffffffffffffffffffffffffffff\n        /* \"#utility.yul\":5235:5240   */\n      dup3\n        /* \"#utility.yul\":5231:5285   */\n      and\n        /* \"#utility.yul\":5220:5285   */\n      swap1\n      pop\n        /* \"#utility.yul\":5210:5291   */\n      swap2\n      swap1\n      pop\n      jump\t// out\n        /* \"#utility.yul\":5297:5374   */\n    tag_86:\n      0x00\n        /* \"#utility.yul\":5363:5368   */\n      dup2\n        /* \"#utility.yul\":5352:5368   */\n      swap1\n      pop\n        /* \"#utility.yul\":5342:5374   */\n      swap2\n      swap1\n      pop\n      jump\t// out\n        /* \"#utility.yul\":5380:5534   */\n    tag_42:\n        /* \"#utility.yul\":5464:5470   */\n      dup3\n        /* \"#utility.yul\":5459:5462   */\n      dup2\n        /* \"#utility.yul\":5454:5457   */\n      dup4\n        /* \"#utility.yul\":5441:5471   */\n      calldatacopy\n        /* \"#utility.yul\":5526:5527   */\n      0x00\n        /* \"#utility.yul\":5517:5523   */\n      dup4\n        /* \"#utility.yul\":5512:5515   */\n      dup4\n        /* \"#utility.yul\":5508:5524   */\n      add\n        /* \"#utility.yul\":5501:5528   */\n      mstore\n        /* \"#utility.yul\":5431:5534   */\n      pop\n      pop\n      pop\n      jump\t// out\n        /* \"#utility.yul\":5540:5847   */\n    tag_80:\n        /* \"#utility.yul\":5608:5609   */\n      0x00\n        /* \"#utility.yul\":5618:5731   */\n    tag_112:\n        /* \"#utility.yul\":5632:5638   */\n      dup4\n        /* \"#utility.yul\":5629:5630   */\n      dup2\n        /* \"#utility.yul\":5626:5639   */\n      lt\n        /* \"#utility.yul\":5618:5731   */\n      iszero\n      tag_114\n      jumpi\n        /* \"#utility.yul\":5717:5718   */\n      dup1\n        /* \"#utility.yul\":5712:5715   */\n      dup3\n        /* \"#utility.yul\":5708:5719   */\n      add\n        /* \"#utility.yul\":5702:5720   */\n      mload\n        /* \"#utility.yul\":5698:5699   */\n      dup2\n        /* \"#utility.yul\":5693:5696   */\n      dup5\n        /* \"#utility.yul\":5689:5700   */\n      add\n        /* \"#utility.yul\":5682:5721   */\n      mstore\n        /* \"#utility.yul\":5654:5656   */\n      0x20\n        /* \"#utility.yul\":5651:5652   */\n      dup2\n        /* \"#utility.yul\":5647:5657   */\n      add\n        /* \"#utility.yul\":5642:5657   */\n      swap1\n      pop\n        /* \"#utility.yul\":5618:5731   */\n      jump(tag_112)\n    tag_114:\n        /* \"#utility.yul\":5749:5755   */\n      dup4\n        /* \"#utility.yul\":5746:5747   */\n      dup2\n        /* \"#utility.yul\":5743:5756   */\n      gt\n        /* \"#utility.yul\":5740:5742   */\n      iszero\n      tag_115\n      jumpi\n        /* \"#utility.yul\":5829:5830   */\n      0x00\n        /* \"#utility.yul\":5820:5826   */\n      dup5\n        /* \"#utility.yul\":5815:5818   */\n      dup5\n        /* \"#utility.yul\":5811:5827   */\n      add\n        /* \"#utility.yul\":5804:5831   */\n      mstore\n        /* \"#utility.yul\":5740:5742   */\n    tag_115:\n        /* \"#utility.yul\":5589:5847   */\n      pop\n      pop\n      pop\n      pop\n      jump\t// out\n        /* \"#utility.yul\":5853:6173   */\n    tag_28:\n      0x00\n        /* \"#utility.yul\":5934:5935   */\n      0x02\n        /* \"#utility.yul\":5928:5932   */\n      dup3\n        /* \"#utility.yul\":5924:5936   */\n      div\n        /* \"#utility.yul\":5914:5936   */\n      swap1\n      pop\n        /* \"#utility.yul\":5981:5982   */\n      0x01\n        /* \"#utility.yul\":5975:5979   */\n      dup3\n        /* \"#utility.yul\":5971:5983   */\n      and\n        /* \"#utility.yul\":6002:6020   */\n      dup1\n        /* \"#utility.yul\":5992:5994   */\n      tag_117\n      jumpi\n        /* \"#utility.yul\":6058:6062   */\n      0x7f\n        /* \"#utility.yul\":6050:6056   */\n      dup3\n        /* \"#utility.yul\":6046:6063   */\n      and\n        /* \"#utility.yul\":6036:6063   */\n      swap2\n      pop\n        /* \"#utility.yul\":5992:5994   */\n    tag_117:\n        /* \"#utility.yul\":6120:6122   */\n      0x20\n        /* \"#utility.yul\":6112:6118   */\n      dup3\n        /* \"#utility.yul\":6109:6123   */\n      lt\n        /* \"#utility.yul\":6089:6107   */\n      dup2\n        /* \"#utility.yul\":6086:6124   */\n      eq\n        /* \"#utility.yul\":6083:6085   */\n      iszero\n      tag_118\n      jumpi\n        /* \"#utility.yul\":6139:6157   */\n      tag_119\n      tag_120\n      jump\t// in\n    tag_119:\n        /* \"#utility.yul\":6083:6085   */\n    tag_118:\n        /* \"#utility.yul\":5904:6173   */\n      pop\n      swap2\n      swap1\n      pop\n      jump\t// out\n        /* \"#utility.yul\":6179:6359   */\n    tag_120:\n        /* \"#utility.yul\":6227:6304   */\n      0x4e487b7100000000000000000000000000000000000000000000000000000000\n        /* \"#utility.yul\":6224:6225   */\n      0x00\n        /* \"#utility.yul\":6217:6305   */\n      mstore\n        /* \"#utility.yul\":6324:6328   */\n      0x22\n        /* \"#utility.yul\":6321:6322   */\n      0x04\n        /* \"#utility.yul\":6314:6329   */\n      mstore\n        /* \"#utility.yul\":6348:6352   */\n      0x24\n        /* \"#utility.yul\":6345:6346   */\n      0x00\n        /* \"#utility.yul\":6338:6353   */\n      revert\n        /* \"#utility.yul\":6365:6545   */\n    tag_99:\n        /* \"#utility.yul\":6413:6490   */\n      0x4e487b7100000000000000000000000000000000000000000000000000000000\n        /* \"#utility.yul\":6410:6411   */\n      0x00\n        /* \"#utility.yul\":6403:6491   */\n      mstore\n        /* \"#utility.yul\":6510:6514   */\n      0x41\n        /* \"#utility.yul\":6507:6508   */\n      0x04\n        /* \"#utility.yul\":6500:6515   */\n      mstore\n        /* \"#utility.yul\":6534:6538   */\n      0x24\n        /* \"#utility.yul\":6531:6532   */\n      0x00\n        /* \"#utility.yul\":6524:6539   */\n      revert\n        /* \"#utility.yul\":6551:6653   */\n    tag_82:\n      0x00\n        /* \"#utility.yul\":6643:6645   */\n      0x1f\n        /* \"#utility.yul\":6639:6646   */\n      not\n        /* \"#utility.yul\":6634:6636   */\n      0x1f\n        /* \"#utility.yul\":6627:6632   */\n      dup4\n        /* \"#utility.yul\":6623:6637   */\n      add\n        /* \"#utility.yul\":6619:6647   */\n      and\n        /* \"#utility.yul\":6609:6647   */\n      swap1\n      pop\n        /* \"#utility.yul\":6599:6653   */\n      swap2\n      swap1\n      pop\n      jump\t// out\n        /* \"#utility.yul\":6659:6781   */\n    tag_46:\n        /* \"#utility.yul\":6732:6756   */\n      tag_125\n        /* \"#utility.yul\":6750:6755   */\n      dup2\n        /* \"#utility.yul\":6732:6756   */\n      tag_72\n      jump\t// in\n    tag_125:\n        /* \"#utility.yul\":6725:6730   */\n      dup2\n        /* \"#utility.yul\":6722:6757   */\n      eq\n        /* \"#utility.yul\":6712:6714   */\n      tag_126\n      jumpi\n        /* \"#utility.yul\":6771:6772   */\n      0x00\n        /* \"#utility.yul\":6768:6769   */\n      dup1\n        /* \"#utility.yul\":6761:6773   */\n      revert\n        /* \"#utility.yul\":6712:6714   */\n    tag_126:\n        /* \"#utility.yul\":6702:6781   */\n      pop\n      jump\t// out\n        /* \"#utility.yul\":6787:6909   */\n    tag_54:\n        /* \"#utility.yul\":6860:6884   */\n      tag_128\n        /* \"#utility.yul\":6878:6883   */\n      dup2\n        /* \"#utility.yul\":6860:6884   */\n      tag_86\n      jump\t// in\n    tag_128:\n        /* \"#utility.yul\":6853:6858   */\n      dup2\n        /* \"#utility.yul\":6850:6885   */\n      eq\n        /* \"#utility.yul\":6840:6842   */\n      tag_129\n      jumpi\n        /* \"#utility.yul\":6899:6900   */\n      0x00\n        /* \"#utility.yul\":6896:6897   */\n      dup1\n        /* \"#utility.yul\":6889:6901   */\n      revert\n        /* \"#utility.yul\":6840:6842   */\n    tag_129:\n        /* \"#utility.yul\":6830:6909   */\n      pop\n      jump\t// out\n\n    auxdata: 0xa2646970667358221220395fb68db3424cf8391ae523eb8a59374a17c7e355d273864b0f6ef5c73fc18a64736f6c63430008000033\n}\n",
				"bytecode": {
					"linkReferences": {},
					"object": "608060405234801561001057600080fd5b50610651806100206000396000f3fe608060405234801561001057600080fd5b506004361061004c5760003560e01c80630374ab0b146100515780630b7914301461006d57806361b8ce8c146100a2578063dae7a13c146100c0575b600080fd5b61006b600480360381019061006691906102d3565b6100f0565b005b6100876004803603810190610082919061034e565b6100f6565b604051610099969594939291906103ce565b60405180910390f35b6100aa6101da565b6040516100b79190610436565b60405180910390f35b6100da60048036038101906100d59190610297565b6101e0565b6040516100e79190610436565b60405180910390f35b50505050565b60006020528060005260406000206000915090508060000160009054906101000a900473ffffffffffffffffffffffffffffffffffffffff169080600101805461013f9061054c565b80601f016020809104026020016040519081016040528092919081815260200182805461016b9061054c565b80156101b85780601f1061018d576101008083540402835291602001916101b8565b820191906000526020600020905b81548152906001019060200180831161019b57829003601f168201915b5050505050908060020154908060030154908060040154908060050154905086565b60025481565b6001602052816000526040600020602052806000526040600020600091509150505481565b600061021861021384610482565b610451565b90508281526020810184848401111561023057600080fd5b61023b84828561050a565b509392505050565b600081359050610252816105ed565b92915050565b600082601f83011261026957600080fd5b8135610279848260208601610205565b91505092915050565b60008135905061029181610604565b92915050565b600080604083850312156102aa57600080fd5b60006102b885828601610243565b92505060206102c985828601610282565b9150509250929050565b600080600080608085870312156102e957600080fd5b600085013567ffffffffffffffff81111561030357600080fd5b61030f87828801610258565b945050602061032087828801610282565b935050604061033187828801610282565b925050606061034287828801610282565b91505092959194509250565b60006020828403121561036057600080fd5b600061036e84828501610282565b91505092915050565b610380816104ce565b82525050565b6000610391826104b2565b61039b81856104bd565b93506103ab818560208601610519565b6103b4816105dc565b840191505092915050565b6103c881610500565b82525050565b600060c0820190506103e36000830189610377565b81810360208301526103f58188610386565b905061040460408301876103bf565b61041160608301866103bf565b61041e60808301856103bf565b61042b60a08301846103bf565b979650505050505050565b600060208201905061044b60008301846103bf565b92915050565b6000604051905081810181811067ffffffffffffffff82111715610478576104776105ad565b5b8060405250919050565b600067ffffffffffffffff82111561049d5761049c6105ad565b5b601f19601f8301169050602081019050919050565b600081519050919050565b600082825260208201905092915050565b60006104d9826104e0565b9050919050565b600073ffffffffffffffffffffffffffffffffffffffff82169050919050565b6000819050919050565b82818337600083830152505050565b60005b8381101561053757808201518184015260208101905061051c565b83811115610546576000848401525b50505050565b6000600282049050600182168061056457607f821691505b602082108114156105785761057761057e565b5b50919050565b7f4e487b7100000000000000000000000000000000000000000000000000000000600052602260045260246000fd5b7f4e487b7100000000000000000000000000000000000000000000000000000000600052604160045260246000fd5b6000601f19601f8301169050919050565b6105f6816104ce565b811461060157600080fd5b50565b61060d81610500565b811461061857600080fd5b5056fea2646970667358221220395fb68db3424cf8391ae523eb8a59374a17c7e355d273864b0f6ef5c73fc18a64736f6c63430008000033",
					"opcodes": "PUSH1 0x80 PUSH1 0x40 MSTORE CALLVALUE DUP1 ISZERO PUSH2 0x10 JUMPI PUSH1 0x0 DUP1 REVERT JUMPDEST POP PUSH2 0x651 DUP1 PUSH2 0x20 PUSH1 0x0 CODECOPY PUSH1 0x0 RETURN INVALID PUSH1 0x80 PUSH1 0x40 MSTORE CALLVALUE DUP1 ISZERO PUSH2 0x10 JUMPI PUSH1 0x0 DUP1 REVERT JUMPDEST POP PUSH1 0x4 CALLDATASIZE LT PUSH2 0x4C JUMPI PUSH1 0x0 CALLDATALOAD PUSH1 0xE0 SHR DUP1 PUSH4 0x374AB0B EQ PUSH2 0x51 JUMPI DUP1 PUSH4 0xB791430 EQ PUSH2 0x6D JUMPI DUP1 PUSH4 0x61B8CE8C EQ PUSH2 0xA2 JUMPI DUP1 PUSH4 0xDAE7A13C EQ PUSH2 0xC0 JUMPI JUMPDEST PUSH1 0x0 DUP1 REVERT JUMPDEST PUSH2 0x6B PUSH1 0x4 DUP1 CALLDATASIZE SUB DUP2 ADD SWAP1 PUSH2 0x66 SWAP2 SWAP1 PUSH2 0x2D3 JUMP JUMPDEST PUSH2 0xF0 JUMP JUMPDEST STOP JUMPDEST PUSH2 0x87 PUSH1 0x4 DUP1 CALLDATASIZE SUB DUP2 ADD SWAP1 PUSH2 0x82 SWAP2 SWAP1 PUSH2 0x34E JUMP JUMPDEST PUSH2 0xF6 JUMP JUMPDEST PUSH1 0x40 MLOAD PUSH2 0x99 SWAP7 SWAP6 SWAP5 SWAP4 SWAP3 SWAP2 SWAP1 PUSH2 0x3CE JUMP JUMPDEST PUSH1 0x40 MLOAD DUP1 SWAP2 SUB SWAP1 RETURN JUMPDEST PUSH2 0xAA PUSH2 0x1DA JUMP JUMPDEST PUSH1 0x40 MLOAD PUSH2 0xB7 SWAP2 SWAP1 PUSH2 0x436 JUMP JUMPDEST PUSH1 0x40 MLOAD DUP1 SWAP2 SUB SWAP1 RETURN JUMPDEST PUSH2 0xDA PUSH1 0x4 DUP1 CALLDATASIZE SUB DUP2 ADD SWAP1 PUSH2 0xD5 SWAP2 SWAP1 PUSH2 0x297 JUMP JUMPDEST PUSH2 0x1E0 JUMP JUMPDEST PUSH1 0x40 MLOAD PUSH2 0xE7 SWAP2 SWAP1 PUSH2 0x436 JUMP JUMPDEST PUSH1 0x40 MLOAD DUP1 SWAP2 SUB SWAP1 RETURN JUMPDEST POP POP POP POP JUMP JUMPDEST PUSH1 0x0 PUSH1 0x20 MSTORE DUP1 PUSH1 0x0 MSTORE PUSH1 0x40 PUSH1 0x0 KECCAK256 PUSH1 0x0 SWAP2 POP SWAP1 POP DUP1 PUSH1 0x0 ADD PUSH1 0x0 SWAP1 SLOAD SWAP1 PUSH2 0x100 EXP SWAP1 DIV PUSH20 0xFFFFFFFFFFFFFFFFFFFFFFFFFFFFFFFFFFFFFFFF AND SWAP1 DUP1 PUSH1 0x1 ADD DUP1 SLOAD PUSH2 0x13F SWAP1 PUSH2 0x54C JUMP JUMPDEST DUP1 PUSH1 0x1F ADD PUSH1 0x20 DUP1 SWAP2 DIV MUL PUSH1 0x20 ADD PUSH1 0x40 MLOAD SWAP1 DUP2 ADD PUSH1 0x40 MSTORE DUP1 SWAP3 SWAP2 SWAP1 DUP2 DUP2 MSTORE PUSH1 0x20 ADD DUP3 DUP1 SLOAD PUSH2 0x16B SWAP1 PUSH2 0x54C JUMP JUMPDEST DUP1 ISZERO PUSH2 0x1B8 JUMPI DUP1 PUSH1 0x1F LT PUSH2 0x18D JUMPI PUSH2 0x100 DUP1 DUP4 SLOAD DIV MUL DUP4 MSTORE SWAP2 PUSH1 0x20 ADD SWAP2 PUSH2 0x1B8 JUMP JUMPDEST DUP3 ADD SWAP2 SWAP1 PUSH1 0x0 MSTORE PUSH1 0x20 PUSH1 0x0 KECCAK256 SWAP1 JUMPDEST DUP2 SLOAD DUP2 MSTORE SWAP1 PUSH1 0x1 ADD SWAP1 PUSH1 0x20 ADD DUP1 DUP4 GT PUSH2 0x19B JUMPI DUP3 SWAP1 SUB PUSH1 0x1F AND DUP3 ADD SWAP2 JUMPDEST POP POP POP POP POP SWAP1 DUP1 PUSH1 0x2 ADD SLOAD SWAP1 DUP1 PUSH1 0x3 ADD SLOAD SWAP1 DUP1 PUSH1 0x4 ADD SLOAD SWAP1 DUP1 PUSH1 0x5 ADD SLOAD SWAP1 POP DUP7 JUMP JUMPDEST PUSH1 0x2 SLOAD DUP2 JUMP JUMPDEST PUSH1 0x1 PUSH1 0x20 MSTORE DUP2 PUSH1 0x0 MSTORE PUSH1 0x40 PUSH1 0x0 KECCAK256 PUSH1 0x20 MSTORE DUP1 PUSH1 0x0 MSTORE PUSH1 0x40 PUSH1 0x0 KECCAK256 PUSH1 0x0 SWAP2 POP SWAP2 POP POP SLOAD DUP2 JUMP JUMPDEST PUSH1 0x0 PUSH2 0x218 PUSH2 0x213 DUP5 PUSH2 0x482 JUMP JUMPDEST PUSH2 0x451 JUMP JUMPDEST SWAP1 POP DUP3 DUP2 MSTORE PUSH1 0x20 DUP2 ADD DUP5 DUP5 DUP5 ADD GT ISZERO PUSH2 0x230 JUMPI PUSH1 0x0 DUP1 REVERT JUMPDEST PUSH2 0x23B DUP5 DUP3 DUP6 PUSH2 0x50A JUMP JUMPDEST POP SWAP4 SWAP3 POP POP POP JUMP JUMPDEST PUSH1 0x0 DUP2 CALLDATALOAD SWAP1 POP PUSH2 0x252 DUP2 PUSH2 0x5ED JUMP JUMPDEST SWAP3 SWAP2 POP POP JUMP JUMPDEST PUSH1 0x0 DUP3 PUSH1 0x1F DUP4 ADD SLT PUSH2 0x269 JUMPI PUSH1 0x0 DUP1 REVERT JUMPDEST DUP2 CALLDATALOAD PUSH2 0x279 DUP5 DUP3 PUSH1 0x20 DUP7 ADD PUSH2 0x205 JUMP JUMPDEST SWAP2 POP POP SWAP3 SWAP2 POP POP JUMP JUMPDEST PUSH1 0x0 DUP2 CALLDATALOAD SWAP1 POP PUSH2 0x291 DUP2 PUSH2 0x604 JUMP JUMPDEST SWAP3 SWAP2 POP POP JUMP JUMPDEST PUSH1 0x0 DUP1 PUSH1 0x40 DUP4 DUP6 SUB SLT ISZERO PUSH2 0x2AA JUMPI PUSH1 0x0 DUP1 REVERT JUMPDEST PUSH1 0x0 PUSH2 0x2B8 DUP6 DUP3 DUP7 ADD PUSH2 0x243 JUMP JUMPDEST SWAP3 POP POP PUSH1 0x20 PUSH2 0x2C9 DUP6 DUP3 DUP7 ADD PUSH2 0x282 JUMP JUMPDEST SWAP2 POP POP SWAP3 POP SWAP3 SWAP1 POP JUMP JUMPDEST PUSH1 0x0 DUP1 PUSH1 0x0 DUP1 PUSH1 0x80 DUP6 DUP8 SUB SLT ISZERO PUSH2 0x2E9 JUMPI PUSH1 0x0 DUP1 REVERT JUMPDEST PUSH1 0x0 DUP6 ADD CALLDATALOAD PUSH8 0xFFFFFFFFFFFFFFFF DUP2 GT ISZERO PUSH2 0x303 JUMPI PUSH1 0x0 DUP1 REVERT JUMPDEST PUSH2 0x30F DUP8 DUP3 DUP9 ADD PUSH2 0x258 JUMP JUMPDEST SWAP5 POP POP PUSH1 0x20 PUSH2 0x320 DUP8 DUP3 DUP9 ADD PUSH2 0x282 JUMP JUMPDEST SWAP4 POP POP PUSH1 0x40 PUSH2 0x331 DUP8 DUP3 DUP9 ADD PUSH2 0x282 JUMP JUMPDEST SWAP3 POP POP PUSH1 0x60 PUSH2 0x342 DUP8 DUP3 DUP9 ADD PUSH2 0x282 JUMP JUMPDEST SWAP2 POP POP SWAP3 SWAP6 SWAP2 SWAP5 POP SWAP3 POP JUMP JUMPDEST PUSH1 0x0 PUSH1 0x20 DUP3 DUP5 SUB SLT ISZERO PUSH2 0x360 JUMPI PUSH1 0x0 DUP1 REVERT JUMPDEST PUSH1 0x0 PUSH2 0x36E DUP5 DUP3 DUP6 ADD PUSH2 0x282 JUMP JUMPDEST SWAP2 POP POP SWAP3 SWAP2 POP POP JUMP JUMPDEST PUSH2 0x380 DUP2 PUSH2 0x4CE JUMP JUMPDEST DUP3 MSTORE POP POP JUMP JUMPDEST PUSH1 0x0 PUSH2 0x391 DUP3 PUSH2 0x4B2 JUMP JUMPDEST PUSH2 0x39B DUP2 DUP6 PUSH2 0x4BD JUMP JUMPDEST SWAP4 POP PUSH2 0x3AB DUP2 DUP6 PUSH1 0x20 DUP7 ADD PUSH2 0x519 JUMP JUMPDEST PUSH2 0x3B4 DUP2 PUSH2 0x5DC JUMP JUMPDEST DUP5 ADD SWAP2 POP POP SWAP3 SWAP2 POP POP JUMP JUMPDEST PUSH2 0x3C8 DUP2 PUSH2 0x500 JUMP JUMPDEST DUP3 MSTORE POP POP JUMP JUMPDEST PUSH1 0x0 PUSH1 0xC0 DUP3 ADD SWAP1 POP PUSH2 0x3E3 PUSH1 0x0 DUP4 ADD DUP10 PUSH2 0x377 JUMP JUMPDEST DUP2 DUP2 SUB PUSH1 0x20 DUP4 ADD MSTORE PUSH2 0x3F5 DUP2 DUP9 PUSH2 0x386 JUMP JUMPDEST SWAP1 POP PUSH2 0x404 PUSH1 0x40 DUP4 ADD DUP8 PUSH2 0x3BF JUMP JUMPDEST PUSH2 0x411 PUSH1 0x60 DUP4 ADD DUP7 PUSH2 0x3BF JUMP JUMPDEST PUSH2 0x41E PUSH1 0x80 DUP4 ADD DUP6 PUSH2 0x3BF JUMP JUMPDEST PUSH2 0x42B PUSH1 0xA0 DUP4 ADD DUP5 PUSH2 0x3BF JUMP JUMPDEST SWAP8 SWAP7 POP POP POP POP POP POP POP JUMP JUMPDEST PUSH1 0x0 PUSH1 0x20 DUP3 ADD SWAP1 POP PUSH2 0x44B PUSH1 0x0 DUP4 ADD DUP5 PUSH2 0x3BF JUMP JUMPDEST SWAP3 SWAP2 POP POP JUMP JUMPDEST PUSH1 0x0 PUSH1 0x40 MLOAD SWAP1 POP DUP2 DUP2 ADD DUP2 DUP2 LT PUSH8 0xFFFFFFFFFFFFFFFF DUP3 GT OR ISZERO PUSH2 0x478 JUMPI PUSH2 0x477 PUSH2 0x5AD JUMP JUMPDEST JUMPDEST DUP1 PUSH1 0x40 MSTORE POP SWAP2 SWAP1 POP JUMP JUMPDEST PUSH1 0x0 PUSH8 0xFFFFFFFFFFFFFFFF DUP3 GT ISZERO PUSH2 0x49D JUMPI PUSH2 0x49C PUSH2 0x5AD JUMP JUMPDEST JUMPDEST PUSH1 0x1F NOT PUSH1 0x1F DUP4 ADD AND SWAP1 POP PUSH1 0x20 DUP2 ADD SWAP1 POP SWAP2 SWAP1 POP JUMP JUMPDEST PUSH1 0x0 DUP2 MLOAD SWAP1 POP SWAP2 SWAP1 POP JUMP JUMPDEST PUSH1 0x0 DUP3 DUP3 MSTORE PUSH1 0x20 DUP3 ADD SWAP1 POP SWAP3 SWAP2 POP POP JUMP JUMPDEST PUSH1 0x0 PUSH2 0x4D9 DUP3 PUSH2 0x4E0 JUMP JUMPDEST SWAP1 POP SWAP2 SWAP1 POP JUMP JUMPDEST PUSH1 0x0 PUSH20 0xFFFFFFFFFFFFFFFFFFFFFFFFFFFFFFFFFFFFFFFF DUP3 AND SWAP1 POP SWAP2 SWAP1 POP JUMP JUMPDEST PUSH1 0x0 DUP2 SWAP1 POP SWAP2 SWAP1 POP JUMP JUMPDEST DUP3 DUP2 DUP4 CALLDATACOPY PUSH1 0x0 DUP4 DUP4 ADD MSTORE POP POP POP JUMP JUMPDEST PUSH1 0x0 JUMPDEST DUP4 DUP2 LT ISZERO PUSH2 0x537 JUMPI DUP1 DUP3 ADD MLOAD DUP2 DUP5 ADD MSTORE PUSH1 0x20 DUP2 ADD SWAP1 POP PUSH2 0x51C JUMP JUMPDEST DUP4 DUP2 GT ISZERO PUSH2 0x546 JUMPI PUSH1 0x0 DUP5 DUP5 ADD MSTORE JUMPDEST POP POP POP POP JUMP JUMPDEST PUSH1 0x0 PUSH1 0x2 DUP3 DIV SWAP1 POP PUSH1 0x1 DUP3 AND DUP1 PUSH2 0x564 JUMPI PUSH1 0x7F DUP3 AND SWAP2 POP JUMPDEST PUSH1 0x20 DUP3 LT DUP2 EQ ISZERO PUSH2 0x578 JUMPI PUSH2 0x577 PUSH2 0x57E JUMP JUMPDEST JUMPDEST POP SWAP2 SWAP1 POP JUMP JUMPDEST PUSH32 0x4E487B7100000000000000000000000000000000000000000000000000000000 PUSH1 0x0 MSTORE PUSH1 0x22 PUSH1 0x4 MSTORE PUSH1 0x24 PUSH1 0x0 REVERT JUMPDEST PUSH32 0x4E487B7100000000000000000000000000000000000000000000000000000000 PUSH1 0x0 MSTORE PUSH1 0x41 PUSH1 0x4 MSTORE PUSH1 0x24 PUSH1 0x0 REVERT JUMPDEST PUSH1 0x0 PUSH1 0x1F NOT PUSH1 0x1F DUP4 ADD AND SWAP1 POP SWAP2 SWAP1 POP JUMP JUMPDEST PUSH2 0x5F6 DUP2 PUSH2 0x4CE JUMP JUMPDEST DUP2 EQ PUSH2 0x601 JUMPI PUSH1 0x0 DUP1 REVERT JUMPDEST POP JUMP JUMPDEST PUSH2 0x60D DUP2 PUSH2 0x500 JUMP JUMPDEST DUP2 EQ PUSH2 0x618 JUMPI PUSH1 0x0 DUP1 REVERT JUMPDEST POP JUMP INVALID LOG2 PUSH5 0x6970667358 0x22 SLT KECCAK256 CODECOPY 0x5F 0xB6 DUP14 0xB3 TIMESTAMP 0x4C 0xF8 CODECOPY BYTE 0xE5 0x23 0xEB DUP11 MSIZE CALLDATACOPY 0x4A OR 0xC7 0xE3 SSTORE 0xD2 PUSH20 0x864B0F6EF5C73FC18A64736F6C63430008000033 "
				},
				"gasEstimates": {
					"creation": {
						"codeDepositCost": "323400",
						"executionCost": "362",
						"totalCost": "323762"
					},
					"external": {
						"createEvent(string,uint256,uint256,uint256)": "infinite",
						"events(uint256)": "infinite",
						"nextId()": "1151",
						"tickets(address,uint256)": "infinite"
					}
				},
				"methodIdentifiers": {
					"createEvent(string,uint256,uint256,uint256)": "0374ab0b",
					"events(uint256)": "0b791430",
					"nextId()": "61b8ce8c",
					"tickets(address,uint256)": "dae7a13c"
				}
			},
			"storageLayout": {
				"storage": [
					{
						"astId": 19,
						"contract": "tickets/tickets.sol:ticket",
						"label": "events",
						"offset": 0,
						"slot": "0",
						"type": "t_mapping(t_uint256,t_struct(Event)14_storage)"
					},
					{
						"astId": 25,
						"contract": "tickets/tickets.sol:ticket",
						"label": "tickets",
						"offset": 0,
						"slot": "1",
						"type": "t_mapping(t_address,t_mapping(t_uint256,t_uint256))"
					},
					{
						"astId": 27,
						"contract": "tickets/tickets.sol:ticket",
						"label": "nextId",
						"offset": 0,
						"slot": "2",
						"type": "t_uint256"
					}
				],
				"types": {
					"t_address": {
						"encoding": "inplace",
						"label": "address",
						"numberOfBytes": "20"
					},
					"t_mapping(t_address,t_mapping(t_uint256,t_uint256))": {
						"encoding": "mapping",
						"key": "t_address",
						"label": "mapping(address => mapping(uint256 => uint256))",
						"numberOfBytes": "32",
						"value": "t_mapping(t_uint256,t_uint256)"
					},
					"t_mapping(t_uint256,t_struct(Event)14_storage)": {
						"encoding": "mapping",
						"key": "t_uint256",
						"label": "mapping(uint256 => struct ticket.Event)",
						"numberOfBytes": "32",
						"value": "t_struct(Event)14_storage"
					},
					"t_mapping(t_uint256,t_uint256)": {
						"encoding": "mapping",
						"key": "t_uint256",
						"label": "mapping(uint256 => uint256)",
						"numberOfBytes": "32",
						"value": "t_uint256"
					},
					"t_string_storage": {
						"encoding": "bytes",
						"label": "string",
						"numberOfBytes": "32"
					},
					"t_struct(Event)14_storage": {
						"encoding": "inplace",
						"label": "struct ticket.Event",
						"members": [
							{
								"astId": 3,
								"contract": "tickets/tickets.sol:ticket",
								"label": "organizer",
								"offset": 0,
								"slot": "0",
								"type": "t_address"
							},
							{
								"astId": 5,
								"contract": "tickets/tickets.sol:ticket",
								"label": "name",
								"offset": 0,
								"slot": "1",
								"type": "t_string_storage"
							},
							{
								"astId": 7,
								"contract": "tickets/tickets.sol:ticket",
								"label": "date",
								"offset": 0,
								"slot": "2",
								"type": "t_uint256"
							},
							{
								"astId": 9,
								"contract": "tickets/tickets.sol:ticket",
								"label": "price",
								"offset": 0,
								"slot": "3",
								"type": "t_uint256"
							},
							{
								"astId": 11,
								"contract": "tickets/tickets.sol:ticket",
								"label": "ticketCount",
								"offset": 0,
								"slot": "4",
								"type": "t_uint256"
							},
							{
								"astId": 13,
								"contract": "tickets/tickets.sol:ticket",
								"label": "ticketRemaining",
								"offset": 0,
								"slot": "5",
								"type": "t_uint256"
							}
						],
						"numberOfBytes": "192"
					},
					"t_uint256": {
						"encoding": "inplace",
						"label": "uint256",
						"numberOfBytes": "32"
					}
				}
			},
			"userdoc": {
				"kind": "user",
				"methods": {},
				"version": 1
			}
		}
	}
}