{
	"tickets/tickets.sol": {
		"ticket": {
			"abi": [
				{
					"inputs": [
						{
							"internalType": "uint256",
							"name": "",
							"type": "uint256"
						}
					],
					"name": "events",
					"outputs": [
						{
							"internalType": "address",
							"name": "organizer",
							"type": "address"
						},
						{
							"internalType": "string",
							"name": "name",
							"type": "string"
						},
						{
							"internalType": "uint256",
							"name": "date",
							"type": "uint256"
						},
						{
							"internalType": "uint256",
							"name": "price",
							"type": "uint256"
						},
						{
							"internalType": "uint256",
							"name": "ticketCount",
							"type": "uint256"
						},
						{
							"internalType": "uint256",
							"name": "ticketRemaining",
							"type": "uint256"
						}
					],
					"stateMutability": "view",
					"type": "function"
				},
				{
					"inputs": [],
					"name": "nextId",
					"outputs": [
						{
							"internalType": "uint256",
							"name": "",
							"type": "uint256"
						}
					],
					"stateMutability": "view",
					"type": "function"
				},
				{
					"inputs": [
						{
							"internalType": "address",
							"name": "",
							"type": "address"
						},
						{
							"internalType": "uint256",
							"name": "",
							"type": "uint256"
						}
					],
					"name": "tickets",
					"outputs": [
						{
							"internalType": "uint256",
							"name": "",
							"type": "uint256"
						}
					],
					"stateMutability": "view",
					"type": "function"
				}
			],
			"devdoc": {
				"kind": "dev",
				"methods": {},
				"version": 1
			},
			"evm": {
				"assembly": "    /* \"tickets/tickets.sol\":27:350  contract ticket {\r... */\n  mstore(0x40, 0x80)\n  callvalue\n  dup1\n  iszero\n  tag_1\n  jumpi\n  0x00\n  dup1\n  revert\ntag_1:\n  pop\n  dataSize(sub_0)\n  dup1\n  dataOffset(sub_0)\n  0x00\n  codecopy\n  0x00\n  return\nstop\n\nsub_0: assembly {\n        /* \"tickets/tickets.sol\":27:350  contract ticket {\r... */\n      mstore(0x40, 0x80)\n      callvalue\n      dup1\n      iszero\n      tag_1\n      jumpi\n      0x00\n      dup1\n      revert\n    tag_1:\n      pop\n      jumpi(tag_2, lt(calldatasize, 0x04))\n      shr(0xe0, calldataload(0x00))\n      dup1\n      0x0b791430\n      eq\n      tag_3\n      jumpi\n      dup1\n      0x61b8ce8c\n      eq\n      tag_4\n      jumpi\n      dup1\n      0xdae7a13c\n      eq\n      tag_5\n      jumpi\n    tag_2:\n      0x00\n      dup1\n      revert\n        /* \"tickets/tickets.sol\":228:262  mapping(uint=>Event) public events */\n    tag_3:\n      tag_6\n      0x04\n      dup1\n      calldatasize\n      sub\n      dup2\n      add\n      swap1\n      tag_7\n      swap2\n      swap1\n      tag_8\n      jump\t// in\n    tag_7:\n      tag_9\n      jump\t// in\n    tag_6:\n      mload(0x40)\n      tag_10\n      swap7\n      swap6\n      swap5\n      swap4\n      swap3\n      swap2\n      swap1\n      tag_11\n      jump\t// in\n    tag_10:\n      mload(0x40)\n      dup1\n      swap2\n      sub\n      swap1\n      return\n        /* \"tickets/tickets.sol\":328:346  uint public nextId */\n    tag_4:\n      tag_12\n      tag_13\n      jump\t// in\n    tag_12:\n      mload(0x40)\n      tag_14\n      swap2\n      swap1\n      tag_15\n      jump\t// in\n    tag_14:\n      mload(0x40)\n      dup1\n      swap2\n      sub\n      swap1\n      return\n        /* \"tickets/tickets.sol\":269:321  mapping(address=>mapping(uint=>uint)) public tickets */\n    tag_5:\n      tag_16\n      0x04\n      dup1\n      calldatasize\n      sub\n      dup2\n      add\n      swap1\n      tag_17\n      swap2\n      swap1\n      tag_18\n      jump\t// in\n    tag_17:\n      tag_19\n      jump\t// in\n    tag_16:\n      mload(0x40)\n      tag_20\n      swap2\n      swap1\n      tag_15\n      jump\t// in\n    tag_20:\n      mload(0x40)\n      dup1\n      swap2\n      sub\n      swap1\n      return\n        /* \"tickets/tickets.sol\":228:262  mapping(uint=>Event) public events */\n    tag_9:\n      mstore(0x20, 0x00)\n      dup1\n      0x00\n      mstore\n      keccak256(0x00, 0x40)\n      0x00\n      swap2\n      pop\n      swap1\n      pop\n      dup1\n      0x00\n      add\n      0x00\n      swap1\n      sload\n      swap1\n      0x0100\n      exp\n      swap1\n      div\n      0xffffffffffffffffffffffffffffffffffffffff\n      and\n      swap1\n      dup1\n      0x01\n      add\n      dup1\n      sload\n      tag_21\n      swap1\n      tag_22\n      jump\t// in\n    tag_21:\n      dup1\n      0x1f\n      add\n      0x20\n      dup1\n      swap2\n      div\n      mul\n      0x20\n      add\n      mload(0x40)\n      swap1\n      dup2\n      add\n      0x40\n      mstore\n      dup1\n      swap3\n      swap2\n      swap1\n      dup2\n      dup2\n      mstore\n      0x20\n      add\n      dup3\n      dup1\n      sload\n      tag_23\n      swap1\n      tag_22\n      jump\t// in\n    tag_23:\n      dup1\n      iszero\n      tag_24\n      jumpi\n      dup1\n      0x1f\n      lt\n      tag_25\n      jumpi\n      0x0100\n      dup1\n      dup4\n      sload\n      div\n      mul\n      dup4\n      mstore\n      swap2\n      0x20\n      add\n      swap2\n      jump(tag_24)\n    tag_25:\n      dup3\n      add\n      swap2\n      swap1\n      0x00\n      mstore\n      keccak256(0x00, 0x20)\n      swap1\n    tag_26:\n      dup2\n      sload\n      dup2\n      mstore\n      swap1\n      0x01\n      add\n      swap1\n      0x20\n      add\n      dup1\n      dup4\n      gt\n      tag_26\n      jumpi\n      dup3\n      swap1\n      sub\n      0x1f\n      and\n      dup3\n      add\n      swap2\n    tag_24:\n      pop\n      pop\n      pop\n      pop\n      pop\n      swap1\n      dup1\n      0x02\n      add\n      sload\n      swap1\n      dup1\n      0x03\n      add\n      sload\n      swap1\n      dup1\n      0x04\n      add\n      sload\n      swap1\n      dup1\n      0x05\n      add\n      sload\n      swap1\n      pop\n      dup7\n      jump\t// out\n        /* \"tickets/tickets.sol\":328:346  uint public nextId */\n    tag_13:\n      sload(0x02)\n      dup2\n      jump\t// out\n        /* \"tickets/tickets.sol\":269:321  mapping(address=>mapping(uint=>uint)) public tickets */\n    tag_19:\n      mstore(0x20, 0x01)\n      dup2\n      0x00\n      mstore\n      mstore(0x20, keccak256(0x00, 0x40))\n      dup1\n      0x00\n      mstore\n      keccak256(0x00, 0x40)\n      0x00\n      swap2\n      pop\n      swap2\n      pop\n      pop\n      sload\n      dup2\n      jump\t// out\n        /* \"#utility.yul\":7:146   */\n    tag_28:\n      0x00\n        /* \"#utility.yul\":91:97   */\n      dup2\n        /* \"#utility.yul\":78:98   */\n      calldataload\n        /* \"#utility.yul\":69:98   */\n      swap1\n      pop\n        /* \"#utility.yul\":107:140   */\n      tag_30\n        /* \"#utility.yul\":134:139   */\n      dup2\n        /* \"#utility.yul\":107:140   */\n      tag_31\n      jump\t// in\n    tag_30:\n        /* \"#utility.yul\":59:146   */\n      swap3\n      swap2\n      pop\n      pop\n      jump\t// out\n        /* \"#utility.yul\":152:291   */\n    tag_32:\n      0x00\n        /* \"#utility.yul\":236:242   */\n      dup2\n        /* \"#utility.yul\":223:243   */\n      calldataload\n        /* \"#utility.yul\":214:243   */\n      swap1\n      pop\n        /* \"#utility.yul\":252:285   */\n      tag_34\n        /* \"#utility.yul\":279:284   */\n      dup2\n        /* \"#utility.yul\":252:285   */\n      tag_35\n      jump\t// in\n    tag_34:\n        /* \"#utility.yul\":204:291   */\n      swap3\n      swap2\n      pop\n      pop\n      jump\t// out\n        /* \"#utility.yul\":297:704   */\n    tag_18:\n      0x00\n      dup1\n        /* \"#utility.yul\":422:424   */\n      0x40\n        /* \"#utility.yul\":410:419   */\n      dup4\n        /* \"#utility.yul\":401:408   */\n      dup6\n        /* \"#utility.yul\":397:420   */\n      sub\n        /* \"#utility.yul\":393:425   */\n      slt\n        /* \"#utility.yul\":390:392   */\n      iszero\n      tag_37\n      jumpi\n        /* \"#utility.yul\":438:439   */\n      0x00\n        /* \"#utility.yul\":435:436   */\n      dup1\n        /* \"#utility.yul\":428:440   */\n      revert\n        /* \"#utility.yul\":390:392   */\n    tag_37:\n        /* \"#utility.yul\":481:482   */\n      0x00\n        /* \"#utility.yul\":506:559   */\n      tag_38\n        /* \"#utility.yul\":551:558   */\n      dup6\n        /* \"#utility.yul\":542:548   */\n      dup3\n        /* \"#utility.yul\":531:540   */\n      dup7\n        /* \"#utility.yul\":527:549   */\n      add\n        /* \"#utility.yul\":506:559   */\n      tag_28\n      jump\t// in\n    tag_38:\n        /* \"#utility.yul\":496:559   */\n      swap3\n      pop\n        /* \"#utility.yul\":452:569   */\n      pop\n        /* \"#utility.yul\":608:610   */\n      0x20\n        /* \"#utility.yul\":634:687   */\n      tag_39\n        /* \"#utility.yul\":679:686   */\n      dup6\n        /* \"#utility.yul\":670:676   */\n      dup3\n        /* \"#utility.yul\":659:668   */\n      dup7\n        /* \"#utility.yul\":655:677   */\n      add\n        /* \"#utility.yul\":634:687   */\n      tag_32\n      jump\t// in\n    tag_39:\n        /* \"#utility.yul\":624:687   */\n      swap2\n      pop\n        /* \"#utility.yul\":579:697   */\n      pop\n        /* \"#utility.yul\":380:704   */\n      swap3\n      pop\n      swap3\n      swap1\n      pop\n      jump\t// out\n        /* \"#utility.yul\":710:972   */\n    tag_8:\n      0x00\n        /* \"#utility.yul\":818:820   */\n      0x20\n        /* \"#utility.yul\":806:815   */\n      dup3\n        /* \"#utility.yul\":797:804   */\n      dup5\n        /* \"#utility.yul\":793:816   */\n      sub\n        /* \"#utility.yul\":789:821   */\n      slt\n        /* \"#utility.yul\":786:788   */\n      iszero\n      tag_41\n      jumpi\n        /* \"#utility.yul\":834:835   */\n      0x00\n        /* \"#utility.yul\":831:832   */\n      dup1\n        /* \"#utility.yul\":824:836   */\n      revert\n        /* \"#utility.yul\":786:788   */\n    tag_41:\n        /* \"#utility.yul\":877:878   */\n      0x00\n        /* \"#utility.yul\":902:955   */\n      tag_42\n        /* \"#utility.yul\":947:954   */\n      dup5\n        /* \"#utility.yul\":938:944   */\n      dup3\n        /* \"#utility.yul\":927:936   */\n      dup6\n        /* \"#utility.yul\":923:945   */\n      add\n        /* \"#utility.yul\":902:955   */\n      tag_32\n      jump\t// in\n    tag_42:\n        /* \"#utility.yul\":892:955   */\n      swap2\n      pop\n        /* \"#utility.yul\":848:965   */\n      pop\n        /* \"#utility.yul\":776:972   */\n      swap3\n      swap2\n      pop\n      pop\n      jump\t// out\n        /* \"#utility.yul\":978:1096   */\n    tag_43:\n        /* \"#utility.yul\":1065:1089   */\n      tag_45\n        /* \"#utility.yul\":1083:1088   */\n      dup2\n        /* \"#utility.yul\":1065:1089   */\n      tag_46\n      jump\t// in\n    tag_45:\n        /* \"#utility.yul\":1060:1063   */\n      dup3\n        /* \"#utility.yul\":1053:1090   */\n      mstore\n        /* \"#utility.yul\":1043:1096   */\n      pop\n      pop\n      jump\t// out\n        /* \"#utility.yul\":1102:1466   */\n    tag_47:\n      0x00\n        /* \"#utility.yul\":1218:1257   */\n      tag_49\n        /* \"#utility.yul\":1251:1256   */\n      dup3\n        /* \"#utility.yul\":1218:1257   */\n      tag_50\n      jump\t// in\n    tag_49:\n        /* \"#utility.yul\":1273:1344   */\n      tag_51\n        /* \"#utility.yul\":1337:1343   */\n      dup2\n        /* \"#utility.yul\":1332:1335   */\n      dup6\n        /* \"#utility.yul\":1273:1344   */\n      tag_52\n      jump\t// in\n    tag_51:\n        /* \"#utility.yul\":1266:1344   */\n      swap4\n      pop\n        /* \"#utility.yul\":1353:1405   */\n      tag_53\n        /* \"#utility.yul\":1398:1404   */\n      dup2\n        /* \"#utility.yul\":1393:1396   */\n      dup6\n        /* \"#utility.yul\":1386:1390   */\n      0x20\n        /* \"#utility.yul\":1379:1384   */\n      dup7\n        /* \"#utility.yul\":1375:1391   */\n      add\n        /* \"#utility.yul\":1353:1405   */\n      tag_54\n      jump\t// in\n    tag_53:\n        /* \"#utility.yul\":1430:1459   */\n      tag_55\n        /* \"#utility.yul\":1452:1458   */\n      dup2\n        /* \"#utility.yul\":1430:1459   */\n      tag_56\n      jump\t// in\n    tag_55:\n        /* \"#utility.yul\":1425:1428   */\n      dup5\n        /* \"#utility.yul\":1421:1460   */\n      add\n        /* \"#utility.yul\":1414:1460   */\n      swap2\n      pop\n        /* \"#utility.yul\":1194:1466   */\n      pop\n      swap3\n      swap2\n      pop\n      pop\n      jump\t// out\n        /* \"#utility.yul\":1472:1590   */\n    tag_57:\n        /* \"#utility.yul\":1559:1583   */\n      tag_59\n        /* \"#utility.yul\":1577:1582   */\n      dup2\n        /* \"#utility.yul\":1559:1583   */\n      tag_60\n      jump\t// in\n    tag_59:\n        /* \"#utility.yul\":1554:1557   */\n      dup3\n        /* \"#utility.yul\":1547:1584   */\n      mstore\n        /* \"#utility.yul\":1537:1590   */\n      pop\n      pop\n      jump\t// out\n        /* \"#utility.yul\":1596:2462   */\n    tag_11:\n      0x00\n        /* \"#utility.yul\":1887:1890   */\n      0xc0\n        /* \"#utility.yul\":1876:1885   */\n      dup3\n        /* \"#utility.yul\":1872:1891   */\n      add\n        /* \"#utility.yul\":1864:1891   */\n      swap1\n      pop\n        /* \"#utility.yul\":1901:1972   */\n      tag_62\n        /* \"#utility.yul\":1969:1970   */\n      0x00\n        /* \"#utility.yul\":1958:1967   */\n      dup4\n        /* \"#utility.yul\":1954:1971   */\n      add\n        /* \"#utility.yul\":1945:1951   */\n      dup10\n        /* \"#utility.yul\":1901:1972   */\n      tag_43\n      jump\t// in\n    tag_62:\n        /* \"#utility.yul\":2019:2028   */\n      dup2\n        /* \"#utility.yul\":2013:2017   */\n      dup2\n        /* \"#utility.yul\":2009:2029   */\n      sub\n        /* \"#utility.yul\":2004:2006   */\n      0x20\n        /* \"#utility.yul\":1993:2002   */\n      dup4\n        /* \"#utility.yul\":1989:2007   */\n      add\n        /* \"#utility.yul\":1982:2030   */\n      mstore\n        /* \"#utility.yul\":2047:2125   */\n      tag_63\n        /* \"#utility.yul\":2120:2124   */\n      dup2\n        /* \"#utility.yul\":2111:2117   */\n      dup9\n        /* \"#utility.yul\":2047:2125   */\n      tag_47\n      jump\t// in\n    tag_63:\n        /* \"#utility.yul\":2039:2125   */\n      swap1\n      pop\n        /* \"#utility.yul\":2135:2207   */\n      tag_64\n        /* \"#utility.yul\":2203:2205   */\n      0x40\n        /* \"#utility.yul\":2192:2201   */\n      dup4\n        /* \"#utility.yul\":2188:2206   */\n      add\n        /* \"#utility.yul\":2179:2185   */\n      dup8\n        /* \"#utility.yul\":2135:2207   */\n      tag_57\n      jump\t// in\n    tag_64:\n        /* \"#utility.yul\":2217:2289   */\n      tag_65\n        /* \"#utility.yul\":2285:2287   */\n      0x60\n        /* \"#utility.yul\":2274:2283   */\n      dup4\n        /* \"#utility.yul\":2270:2288   */\n      add\n        /* \"#utility.yul\":2261:2267   */\n      dup7\n        /* \"#utility.yul\":2217:2289   */\n      tag_57\n      jump\t// in\n    tag_65:\n        /* \"#utility.yul\":2299:2372   */\n      tag_66\n        /* \"#utility.yul\":2367:2370   */\n      0x80\n        /* \"#utility.yul\":2356:2365   */\n      dup4\n        /* \"#utility.yul\":2352:2371   */\n      add\n        /* \"#utility.yul\":2343:2349   */\n      dup6\n        /* \"#utility.yul\":2299:2372   */\n      tag_57\n      jump\t// in\n    tag_66:\n        /* \"#utility.yul\":2382:2455   */\n      tag_67\n        /* \"#utility.yul\":2450:2453   */\n      0xa0\n        /* \"#utility.yul\":2439:2448   */\n      dup4\n        /* \"#utility.yul\":2435:2454   */\n      add\n        /* \"#utility.yul\":2426:2432   */\n      dup5\n        /* \"#utility.yul\":2382:2455   */\n      tag_57\n      jump\t// in\n    tag_67:\n        /* \"#utility.yul\":1854:2462   */\n      swap8\n      swap7\n      pop\n      pop\n      pop\n      pop\n      pop\n      pop\n      pop\n      jump\t// out\n        /* \"#utility.yul\":2468:2690   */\n    tag_15:\n      0x00\n        /* \"#utility.yul\":2599:2601   */\n      0x20\n        /* \"#utility.yul\":2588:2597   */\n      dup3\n        /* \"#utility.yul\":2584:2602   */\n      add\n        /* \"#utility.yul\":2576:2602   */\n      swap1\n      pop\n        /* \"#utility.yul\":2612:2683   */\n      tag_69\n        /* \"#utility.yul\":2680:2681   */\n      0x00\n        /* \"#utility.yul\":2669:2678   */\n      dup4\n        /* \"#utility.yul\":2665:2682   */\n      add\n        /* \"#utility.yul\":2656:2662   */\n      dup5\n        /* \"#utility.yul\":2612:2683   */\n      tag_57\n      jump\t// in\n    tag_69:\n        /* \"#utility.yul\":2566:2690   */\n      swap3\n      swap2\n      pop\n      pop\n      jump\t// out\n        /* \"#utility.yul\":2696:2795   */\n    tag_50:\n      0x00\n        /* \"#utility.yul\":2782:2787   */\n      dup2\n        /* \"#utility.yul\":2776:2788   */\n      mload\n        /* \"#utility.yul\":2766:2788   */\n      swap1\n      pop\n        /* \"#utility.yul\":2755:2795   */\n      swap2\n      swap1\n      pop\n      jump\t// out\n        /* \"#utility.yul\":2801:2970   */\n    tag_52:\n      0x00\n        /* \"#utility.yul\":2919:2925   */\n      dup3\n        /* \"#utility.yul\":2914:2917   */\n      dup3\n        /* \"#utility.yul\":2907:2926   */\n      mstore\n        /* \"#utility.yul\":2959:2963   */\n      0x20\n        /* \"#utility.yul\":2954:2957   */\n      dup3\n        /* \"#utility.yul\":2950:2964   */\n      add\n        /* \"#utility.yul\":2935:2964   */\n      swap1\n      pop\n        /* \"#utility.yul\":2897:2970   */\n      swap3\n      swap2\n      pop\n      pop\n      jump\t// out\n        /* \"#utility.yul\":2976:3072   */\n    tag_46:\n      0x00\n        /* \"#utility.yul\":3042:3066   */\n      tag_73\n        /* \"#utility.yul\":3060:3065   */\n      dup3\n        /* \"#utility.yul\":3042:3066   */\n      tag_74\n      jump\t// in\n    tag_73:\n        /* \"#utility.yul\":3031:3066   */\n      swap1\n      pop\n        /* \"#utility.yul\":3021:3072   */\n      swap2\n      swap1\n      pop\n      jump\t// out\n        /* \"#utility.yul\":3078:3204   */\n    tag_74:\n      0x00\n        /* \"#utility.yul\":3155:3197   */\n      0xffffffffffffffffffffffffffffffffffffffff\n        /* \"#utility.yul\":3148:3153   */\n      dup3\n        /* \"#utility.yul\":3144:3198   */\n      and\n        /* \"#utility.yul\":3133:3198   */\n      swap1\n      pop\n        /* \"#utility.yul\":3123:3204   */\n      swap2\n      swap1\n      pop\n      jump\t// out\n        /* \"#utility.yul\":3210:3287   */\n    tag_60:\n      0x00\n        /* \"#utility.yul\":3276:3281   */\n      dup2\n        /* \"#utility.yul\":3265:3281   */\n      swap1\n      pop\n        /* \"#utility.yul\":3255:3287   */\n      swap2\n      swap1\n      pop\n      jump\t// out\n        /* \"#utility.yul\":3293:3600   */\n    tag_54:\n        /* \"#utility.yul\":3361:3362   */\n      0x00\n        /* \"#utility.yul\":3371:3484   */\n    tag_78:\n        /* \"#utility.yul\":3385:3391   */\n      dup4\n        /* \"#utility.yul\":3382:3383   */\n      dup2\n        /* \"#utility.yul\":3379:3392   */\n      lt\n        /* \"#utility.yul\":3371:3484   */\n      iszero\n      tag_80\n      jumpi\n        /* \"#utility.yul\":3470:3471   */\n      dup1\n        /* \"#utility.yul\":3465:3468   */\n      dup3\n        /* \"#utility.yul\":3461:3472   */\n      add\n        /* \"#utility.yul\":3455:3473   */\n      mload\n        /* \"#utility.yul\":3451:3452   */\n      dup2\n        /* \"#utility.yul\":3446:3449   */\n      dup5\n        /* \"#utility.yul\":3442:3453   */\n      add\n        /* \"#utility.yul\":3435:3474   */\n      mstore\n        /* \"#utility.yul\":3407:3409   */\n      0x20\n        /* \"#utility.yul\":3404:3405   */\n      dup2\n        /* \"#utility.yul\":3400:3410   */\n      add\n        /* \"#utility.yul\":3395:3410   */\n      swap1\n      pop\n        /* \"#utility.yul\":3371:3484   */\n      jump(tag_78)\n    tag_80:\n        /* \"#utility.yul\":3502:3508   */\n      dup4\n        /* \"#utility.yul\":3499:3500   */\n      dup2\n        /* \"#utility.yul\":3496:3509   */\n      gt\n        /* \"#utility.yul\":3493:3495   */\n      iszero\n      tag_81\n      jumpi\n        /* \"#utility.yul\":3582:3583   */\n      0x00\n        /* \"#utility.yul\":3573:3579   */\n      dup5\n        /* \"#utility.yul\":3568:3571   */\n      dup5\n        /* \"#utility.yul\":3564:3580   */\n      add\n        /* \"#utility.yul\":3557:3584   */\n      mstore\n        /* \"#utility.yul\":3493:3495   */\n    tag_81:\n        /* \"#utility.yul\":3342:3600   */\n      pop\n      pop\n      pop\n      pop\n      jump\t// out\n        /* \"#utility.yul\":3606:3926   */\n    tag_22:\n      0x00\n        /* \"#utility.yul\":3687:3688   */\n      0x02\n        /* \"#utility.yul\":3681:3685   */\n      dup3\n        /* \"#utility.yul\":3677:3689   */\n      div\n        /* \"#utility.yul\":3667:3689   */\n      swap1\n      pop\n        /* \"#utility.yul\":3734:3735   */\n      0x01\n        /* \"#utility.yul\":3728:3732   */\n      dup3\n        /* \"#utility.yul\":3724:3736   */\n      and\n        /* \"#utility.yul\":3755:3773   */\n      dup1\n        /* \"#utility.yul\":3745:3747   */\n      tag_83\n      jumpi\n        /* \"#utility.yul\":3811:3815   */\n      0x7f\n        /* \"#utility.yul\":3803:3809   */\n      dup3\n        /* \"#utility.yul\":3799:3816   */\n      and\n        /* \"#utility.yul\":3789:3816   */\n      swap2\n      pop\n        /* \"#utility.yul\":3745:3747   */\n    tag_83:\n        /* \"#utility.yul\":3873:3875   */\n      0x20\n        /* \"#utility.yul\":3865:3871   */\n      dup3\n        /* \"#utility.yul\":3862:3876   */\n      lt\n        /* \"#utility.yul\":3842:3860   */\n      dup2\n        /* \"#utility.yul\":3839:3877   */\n      eq\n        /* \"#utility.yul\":3836:3838   */\n      iszero\n      tag_84\n      jumpi\n        /* \"#utility.yul\":3892:3910   */\n      tag_85\n      tag_86\n      jump\t// in\n    tag_85:\n        /* \"#utility.yul\":3836:3838   */\n    tag_84:\n        /* \"#utility.yul\":3657:3926   */\n      pop\n      swap2\n      swap1\n      pop\n      jump\t// out\n        /* \"#utility.yul\":3932:4112   */\n    tag_86:\n        /* \"#utility.yul\":3980:4057   */\n      0x4e487b7100000000000000000000000000000000000000000000000000000000\n        /* \"#utility.yul\":3977:3978   */\n      0x00\n        /* \"#utility.yul\":3970:4058   */\n      mstore\n        /* \"#utility.yul\":4077:4081   */\n      0x22\n        /* \"#utility.yul\":4074:4075   */\n      0x04\n        /* \"#utility.yul\":4067:4082   */\n      mstore\n        /* \"#utility.yul\":4101:4105   */\n      0x24\n        /* \"#utility.yul\":4098:4099   */\n      0x00\n        /* \"#utility.yul\":4091:4106   */\n      revert\n        /* \"#utility.yul\":4118:4220   */\n    tag_56:\n      0x00\n        /* \"#utility.yul\":4210:4212   */\n      0x1f\n        /* \"#utility.yul\":4206:4213   */\n      not\n        /* \"#utility.yul\":4201:4203   */\n      0x1f\n        /* \"#utility.yul\":4194:4199   */\n      dup4\n        /* \"#utility.yul\":4190:4204   */\n      add\n        /* \"#utility.yul\":4186:4214   */\n      and\n        /* \"#utility.yul\":4176:4214   */\n      swap1\n      pop\n        /* \"#utility.yul\":4166:4220   */\n      swap2\n      swap1\n      pop\n      jump\t// out\n        /* \"#utility.yul\":4226:4348   */\n    tag_31:\n        /* \"#utility.yul\":4299:4323   */\n      tag_90\n        /* \"#utility.yul\":4317:4322   */\n      dup2\n        /* \"#utility.yul\":4299:4323   */\n      tag_46\n      jump\t// in\n    tag_90:\n        /* \"#utility.yul\":4292:4297   */\n      dup2\n        /* \"#utility.yul\":4289:4324   */\n      eq\n        /* \"#utility.yul\":4279:4281   */\n      tag_91\n      jumpi\n        /* \"#utility.yul\":4338:4339   */\n      0x00\n        /* \"#utility.yul\":4335:4336   */\n      dup1\n        /* \"#utility.yul\":4328:4340   */\n      revert\n        /* \"#utility.yul\":4279:4281   */\n    tag_91:\n        /* \"#utility.yul\":4269:4348   */\n      pop\n      jump\t// out\n        /* \"#utility.yul\":4354:4476   */\n    tag_35:\n        /* \"#utility.yul\":4427:4451   */\n      tag_93\n        /* \"#utility.yul\":4445:4450   */\n      dup2\n        /* \"#utility.yul\":4427:4451   */\n      tag_60\n      jump\t// in\n    tag_93:\n        /* \"#utility.yul\":4420:4425   */\n      dup2\n        /* \"#utility.yul\":4417:4452   */\n      eq\n        /* \"#utility.yul\":4407:4409   */\n      tag_94\n      jumpi\n        /* \"#utility.yul\":4466:4467   */\n      0x00\n        /* \"#utility.yul\":4463:4464   */\n      dup1\n        /* \"#utility.yul\":4456:4468   */\n      revert\n        /* \"#utility.yul\":4407:4409   */\n    tag_94:\n        /* \"#utility.yul\":4397:4476   */\n      pop\n      jump\t// out\n\n    auxdata: 0xa26469706673582212200430f3f96fbc91a0d4de772f273ae74434fd0b2788226cb6cfdfbbb1dc1cddd064736f6c63430008000033\n}\n",
				"bytecode": {
					"linkReferences": {},
					"object": "608060405234801561001057600080fd5b506104a2806100206000396000f3fe608060405234801561001057600080fd5b50600436106100415760003560e01c80630b7914301461004657806361b8ce8c1461007b578063dae7a13c14610099575b600080fd5b610060600480360381019061005b919061023e565b6100c9565b604051610072969594939291906102be565b60405180910390f35b6100836101ad565b6040516100909190610326565b60405180910390f35b6100b360048036038101906100ae9190610202565b6101b3565b6040516100c09190610326565b60405180910390f35b60006020528060005260406000206000915090508060000160009054906101000a900473ffffffffffffffffffffffffffffffffffffffff1690806001018054610112906103cc565b80601f016020809104026020016040519081016040528092919081815260200182805461013e906103cc565b801561018b5780601f106101605761010080835404028352916020019161018b565b820191906000526020600020905b81548152906001019060200180831161016e57829003601f168201915b5050505050908060020154908060030154908060040154908060050154905086565b60025481565b6001602052816000526040600020602052806000526040600020600091509150505481565b6000813590506101e78161043e565b92915050565b6000813590506101fc81610455565b92915050565b6000806040838503121561021557600080fd5b6000610223858286016101d8565b9250506020610234858286016101ed565b9150509250929050565b60006020828403121561025057600080fd5b600061025e848285016101ed565b91505092915050565b6102708161035d565b82525050565b600061028182610341565b61028b818561034c565b935061029b818560208601610399565b6102a48161042d565b840191505092915050565b6102b88161038f565b82525050565b600060c0820190506102d36000830189610267565b81810360208301526102e58188610276565b90506102f460408301876102af565b61030160608301866102af565b61030e60808301856102af565b61031b60a08301846102af565b979650505050505050565b600060208201905061033b60008301846102af565b92915050565b600081519050919050565b600082825260208201905092915050565b60006103688261036f565b9050919050565b600073ffffffffffffffffffffffffffffffffffffffff82169050919050565b6000819050919050565b60005b838110156103b757808201518184015260208101905061039c565b838111156103c6576000848401525b50505050565b600060028204905060018216806103e457607f821691505b602082108114156103f8576103f76103fe565b5b50919050565b7f4e487b7100000000000000000000000000000000000000000000000000000000600052602260045260246000fd5b6000601f19601f8301169050919050565b6104478161035d565b811461045257600080fd5b50565b61045e8161038f565b811461046957600080fd5b5056fea26469706673582212200430f3f96fbc91a0d4de772f273ae74434fd0b2788226cb6cfdfbbb1dc1cddd064736f6c63430008000033",
					"opcodes": "PUSH1 0x80 PUSH1 0x40 MSTORE CALLVALUE DUP1 ISZERO PUSH2 0x10 JUMPI PUSH1 0x0 DUP1 REVERT JUMPDEST POP PUSH2 0x4A2 DUP1 PUSH2 0x20 PUSH1 0x0 CODECOPY PUSH1 0x0 RETURN INVALID PUSH1 0x80 PUSH1 0x40 MSTORE CALLVALUE DUP1 ISZERO PUSH2 0x10 JUMPI PUSH1 0x0 DUP1 REVERT JUMPDEST POP PUSH1 0x4 CALLDATASIZE LT PUSH2 0x41 JUMPI PUSH1 0x0 CALLDATALOAD PUSH1 0xE0 SHR DUP1 PUSH4 0xB791430 EQ PUSH2 0x46 JUMPI DUP1 PUSH4 0x61B8CE8C EQ PUSH2 0x7B JUMPI DUP1 PUSH4 0xDAE7A13C EQ PUSH2 0x99 JUMPI JUMPDEST PUSH1 0x0 DUP1 REVERT JUMPDEST PUSH2 0x60 PUSH1 0x4 DUP1 CALLDATASIZE SUB DUP2 ADD SWAP1 PUSH2 0x5B SWAP2 SWAP1 PUSH2 0x23E JUMP JUMPDEST PUSH2 0xC9 JUMP JUMPDEST PUSH1 0x40 MLOAD PUSH2 0x72 SWAP7 SWAP6 SWAP5 SWAP4 SWAP3 SWAP2 SWAP1 PUSH2 0x2BE JUMP JUMPDEST PUSH1 0x40 MLOAD DUP1 SWAP2 SUB SWAP1 RETURN JUMPDEST PUSH2 0x83 PUSH2 0x1AD JUMP JUMPDEST PUSH1 0x40 MLOAD PUSH2 0x90 SWAP2 SWAP1 PUSH2 0x326 JUMP JUMPDEST PUSH1 0x40 MLOAD DUP1 SWAP2 SUB SWAP1 RETURN JUMPDEST PUSH2 0xB3 PUSH1 0x4 DUP1 CALLDATASIZE SUB DUP2 ADD SWAP1 PUSH2 0xAE SWAP2 SWAP1 PUSH2 0x202 JUMP JUMPDEST PUSH2 0x1B3 JUMP JUMPDEST PUSH1 0x40 MLOAD PUSH2 0xC0 SWAP2 SWAP1 PUSH2 0x326 JUMP JUMPDEST PUSH1 0x40 MLOAD DUP1 SWAP2 SUB SWAP1 RETURN JUMPDEST PUSH1 0x0 PUSH1 0x20 MSTORE DUP1 PUSH1 0x0 MSTORE PUSH1 0x40 PUSH1 0x0 KECCAK256 PUSH1 0x0 SWAP2 POP SWAP1 POP DUP1 PUSH1 0x0 ADD PUSH1 0x0 SWAP1 SLOAD SWAP1 PUSH2 0x100 EXP SWAP1 DIV PUSH20 0xFFFFFFFFFFFFFFFFFFFFFFFFFFFFFFFFFFFFFFFF AND SWAP1 DUP1 PUSH1 0x1 ADD DUP1 SLOAD PUSH2 0x112 SWAP1 PUSH2 0x3CC JUMP JUMPDEST DUP1 PUSH1 0x1F ADD PUSH1 0x20 DUP1 SWAP2 DIV MUL PUSH1 0x20 ADD PUSH1 0x40 MLOAD SWAP1 DUP2 ADD PUSH1 0x40 MSTORE DUP1 SWAP3 SWAP2 SWAP1 DUP2 DUP2 MSTORE PUSH1 0x20 ADD DUP3 DUP1 SLOAD PUSH2 0x13E SWAP1 PUSH2 0x3CC JUMP JUMPDEST DUP1 ISZERO PUSH2 0x18B JUMPI DUP1 PUSH1 0x1F LT PUSH2 0x160 JUMPI PUSH2 0x100 DUP1 DUP4 SLOAD DIV MUL DUP4 MSTORE SWAP2 PUSH1 0x20 ADD SWAP2 PUSH2 0x18B JUMP JUMPDEST DUP3 ADD SWAP2 SWAP1 PUSH1 0x0 MSTORE PUSH1 0x20 PUSH1 0x0 KECCAK256 SWAP1 JUMPDEST DUP2 SLOAD DUP2 MSTORE SWAP1 PUSH1 0x1 ADD SWAP1 PUSH1 0x20 ADD DUP1 DUP4 GT PUSH2 0x16E JUMPI DUP3 SWAP1 SUB PUSH1 0x1F AND DUP3 ADD SWAP2 JUMPDEST POP POP POP POP POP SWAP1 DUP1 PUSH1 0x2 ADD SLOAD SWAP1 DUP1 PUSH1 0x3 ADD SLOAD SWAP1 DUP1 PUSH1 0x4 ADD SLOAD SWAP1 DUP1 PUSH1 0x5 ADD SLOAD SWAP1 POP DUP7 JUMP JUMPDEST PUSH1 0x2 SLOAD DUP2 JUMP JUMPDEST PUSH1 0x1 PUSH1 0x20 MSTORE DUP2 PUSH1 0x0 MSTORE PUSH1 0x40 PUSH1 0x0 KECCAK256 PUSH1 0x20 MSTORE DUP1 PUSH1 0x0 MSTORE PUSH1 0x40 PUSH1 0x0 KECCAK256 PUSH1 0x0 SWAP2 POP SWAP2 POP POP SLOAD DUP2 JUMP JUMPDEST PUSH1 0x0 DUP2 CALLDATALOAD SWAP1 POP PUSH2 0x1E7 DUP2 PUSH2 0x43E JUMP JUMPDEST SWAP3 SWAP2 POP POP JUMP JUMPDEST PUSH1 0x0 DUP2 CALLDATALOAD SWAP1 POP PUSH2 0x1FC DUP2 PUSH2 0x455 JUMP JUMPDEST SWAP3 SWAP2 POP POP JUMP JUMPDEST PUSH1 0x0 DUP1 PUSH1 0x40 DUP4 DUP6 SUB SLT ISZERO PUSH2 0x215 JUMPI PUSH1 0x0 DUP1 REVERT JUMPDEST PUSH1 0x0 PUSH2 0x223 DUP6 DUP3 DUP7 ADD PUSH2 0x1D8 JUMP JUMPDEST SWAP3 POP POP PUSH1 0x20 PUSH2 0x234 DUP6 DUP3 DUP7 ADD PUSH2 0x1ED JUMP JUMPDEST SWAP2 POP POP SWAP3 POP SWAP3 SWAP1 POP JUMP JUMPDEST PUSH1 0x0 PUSH1 0x20 DUP3 DUP5 SUB SLT ISZERO PUSH2 0x250 JUMPI PUSH1 0x0 DUP1 REVERT JUMPDEST PUSH1 0x0 PUSH2 0x25E DUP5 DUP3 DUP6 ADD PUSH2 0x1ED JUMP JUMPDEST SWAP2 POP POP SWAP3 SWAP2 POP POP JUMP JUMPDEST PUSH2 0x270 DUP2 PUSH2 0x35D JUMP JUMPDEST DUP3 MSTORE POP POP JUMP JUMPDEST PUSH1 0x0 PUSH2 0x281 DUP3 PUSH2 0x341 JUMP JUMPDEST PUSH2 0x28B DUP2 DUP6 PUSH2 0x34C JUMP JUMPDEST SWAP4 POP PUSH2 0x29B DUP2 DUP6 PUSH1 0x20 DUP7 ADD PUSH2 0x399 JUMP JUMPDEST PUSH2 0x2A4 DUP2 PUSH2 0x42D JUMP JUMPDEST DUP5 ADD SWAP2 POP POP SWAP3 SWAP2 POP POP JUMP JUMPDEST PUSH2 0x2B8 DUP2 PUSH2 0x38F JUMP JUMPDEST DUP3 MSTORE POP POP JUMP JUMPDEST PUSH1 0x0 PUSH1 0xC0 DUP3 ADD SWAP1 POP PUSH2 0x2D3 PUSH1 0x0 DUP4 ADD DUP10 PUSH2 0x267 JUMP JUMPDEST DUP2 DUP2 SUB PUSH1 0x20 DUP4 ADD MSTORE PUSH2 0x2E5 DUP2 DUP9 PUSH2 0x276 JUMP JUMPDEST SWAP1 POP PUSH2 0x2F4 PUSH1 0x40 DUP4 ADD DUP8 PUSH2 0x2AF JUMP JUMPDEST PUSH2 0x301 PUSH1 0x60 DUP4 ADD DUP7 PUSH2 0x2AF JUMP JUMPDEST PUSH2 0x30E PUSH1 0x80 DUP4 ADD DUP6 PUSH2 0x2AF JUMP JUMPDEST PUSH2 0x31B PUSH1 0xA0 DUP4 ADD DUP5 PUSH2 0x2AF JUMP JUMPDEST SWAP8 SWAP7 POP POP POP POP POP POP POP JUMP JUMPDEST PUSH1 0x0 PUSH1 0x20 DUP3 ADD SWAP1 POP PUSH2 0x33B PUSH1 0x0 DUP4 ADD DUP5 PUSH2 0x2AF JUMP JUMPDEST SWAP3 SWAP2 POP POP JUMP JUMPDEST PUSH1 0x0 DUP2 MLOAD SWAP1 POP SWAP2 SWAP1 POP JUMP JUMPDEST PUSH1 0x0 DUP3 DUP3 MSTORE PUSH1 0x20 DUP3 ADD SWAP1 POP SWAP3 SWAP2 POP POP JUMP JUMPDEST PUSH1 0x0 PUSH2 0x368 DUP3 PUSH2 0x36F JUMP JUMPDEST SWAP1 POP SWAP2 SWAP1 POP JUMP JUMPDEST PUSH1 0x0 PUSH20 0xFFFFFFFFFFFFFFFFFFFFFFFFFFFFFFFFFFFFFFFF DUP3 AND SWAP1 POP SWAP2 SWAP1 POP JUMP JUMPDEST PUSH1 0x0 DUP2 SWAP1 POP SWAP2 SWAP1 POP JUMP JUMPDEST PUSH1 0x0 JUMPDEST DUP4 DUP2 LT ISZERO PUSH2 0x3B7 JUMPI DUP1 DUP3 ADD MLOAD DUP2 DUP5 ADD MSTORE PUSH1 0x20 DUP2 ADD SWAP1 POP PUSH2 0x39C JUMP JUMPDEST DUP4 DUP2 GT ISZERO PUSH2 0x3C6 JUMPI PUSH1 0x0 DUP5 DUP5 ADD MSTORE JUMPDEST POP POP POP POP JUMP JUMPDEST PUSH1 0x0 PUSH1 0x2 DUP3 DIV SWAP1 POP PUSH1 0x1 DUP3 AND DUP1 PUSH2 0x3E4 JUMPI PUSH1 0x7F DUP3 AND SWAP2 POP JUMPDEST PUSH1 0x20 DUP3 LT DUP2 EQ ISZERO PUSH2 0x3F8 JUMPI PUSH2 0x3F7 PUSH2 0x3FE JUMP JUMPDEST JUMPDEST POP SWAP2 SWAP1 POP JUMP JUMPDEST PUSH32 0x4E487B7100000000000000000000000000000000000000000000000000000000 PUSH1 0x0 MSTORE PUSH1 0x22 PUSH1 0x4 MSTORE PUSH1 0x24 PUSH1 0x0 REVERT JUMPDEST PUSH1 0x0 PUSH1 0x1F NOT PUSH1 0x1F DUP4 ADD AND SWAP1 POP SWAP2 SWAP1 POP JUMP JUMPDEST PUSH2 0x447 DUP2 PUSH2 0x35D JUMP JUMPDEST DUP2 EQ PUSH2 0x452 JUMPI PUSH1 0x0 DUP1 REVERT JUMPDEST POP JUMP JUMPDEST PUSH2 0x45E DUP2 PUSH2 0x38F JUMP JUMPDEST DUP2 EQ PUSH2 0x469 JUMPI PUSH1 0x0 DUP1 REVERT JUMPDEST POP JUMP INVALID LOG2 PUSH5 0x6970667358 0x22 SLT KECCAK256 DIV ADDRESS RETURN 0xF9 PUSH16 0xBC91A0D4DE772F273AE74434FD0B2788 0x22 PUSH13 0xB6CFDFBBB1DC1CDDD064736F6C PUSH4 0x43000800 STOP CALLER "
				},
				"gasEstimates": {
					"creation": {
						"codeDepositCost": "237200",
						"executionCost": "281",
						"totalCost": "237481"
					},
					"external": {
						"events(uint256)": "infinite",
						"nextId()": "1129",
						"tickets(address,uint256)": "infinite"
					}
				},
				"methodIdentifiers": {
					"events(uint256)": "0b791430",
					"nextId()": "61b8ce8c",
					"tickets(address,uint256)": "dae7a13c"
				}
			},
			"storageLayout": {
				"storage": [
					{
						"astId": 19,
						"contract": "tickets/tickets.sol:ticket",
						"label": "events",
						"offset": 0,
						"slot": "0",
						"type": "t_mapping(t_uint256,t_struct(Event)14_storage)"
					},
					{
						"astId": 25,
						"contract": "tickets/tickets.sol:ticket",
						"label": "tickets",
						"offset": 0,
						"slot": "1",
						"type": "t_mapping(t_address,t_mapping(t_uint256,t_uint256))"
					},
					{
						"astId": 27,
						"contract": "tickets/tickets.sol:ticket",
						"label": "nextId",
						"offset": 0,
						"slot": "2",
						"type": "t_uint256"
					}
				],
				"types": {
					"t_address": {
						"encoding": "inplace",
						"label": "address",
						"numberOfBytes": "20"
					},
					"t_mapping(t_address,t_mapping(t_uint256,t_uint256))": {
						"encoding": "mapping",
						"key": "t_address",
						"label": "mapping(address => mapping(uint256 => uint256))",
						"numberOfBytes": "32",
						"value": "t_mapping(t_uint256,t_uint256)"
					},
					"t_mapping(t_uint256,t_struct(Event)14_storage)": {
						"encoding": "mapping",
						"key": "t_uint256",
						"label": "mapping(uint256 => struct ticket.Event)",
						"numberOfBytes": "32",
						"value": "t_struct(Event)14_storage"
					},
					"t_mapping(t_uint256,t_uint256)": {
						"encoding": "mapping",
						"key": "t_uint256",
						"label": "mapping(uint256 => uint256)",
						"numberOfBytes": "32",
						"value": "t_uint256"
					},
					"t_string_storage": {
						"encoding": "bytes",
						"label": "string",
						"numberOfBytes": "32"
					},
					"t_struct(Event)14_storage": {
						"encoding": "inplace",
						"label": "struct ticket.Event",
						"members": [
							{
								"astId": 3,
								"contract": "tickets/tickets.sol:ticket",
								"label": "organizer",
								"offset": 0,
								"slot": "0",
								"type": "t_address"
							},
							{
								"astId": 5,
								"contract": "tickets/tickets.sol:ticket",
								"label": "name",
								"offset": 0,
								"slot": "1",
								"type": "t_string_storage"
							},
							{
								"astId": 7,
								"contract": "tickets/tickets.sol:ticket",
								"label": "date",
								"offset": 0,
								"slot": "2",
								"type": "t_uint256"
							},
							{
								"astId": 9,
								"contract": "tickets/tickets.sol:ticket",
								"label": "price",
								"offset": 0,
								"slot": "3",
								"type": "t_uint256"
							},
							{
								"astId": 11,
								"contract": "tickets/tickets.sol:ticket",
								"label": "ticketCount",
								"offset": 0,
								"slot": "4",
								"type": "t_uint256"
							},
							{
								"astId": 13,
								"contract": "tickets/tickets.sol:ticket",
								"label": "ticketRemaining",
								"offset": 0,
								"slot": "5",
								"type": "t_uint256"
							}
						],
						"numberOfBytes": "192"
					},
					"t_uint256": {
						"encoding": "inplace",
						"label": "uint256",
						"numberOfBytes": "32"
					}
				}
			},
			"userdoc": {
				"kind": "user",
				"methods": {},
				"version": 1
			}
		}
	}
}