{
	"tickets/tickets.sol": {
		"ticket": {
			"abi": [
				{
					"inputs": [
						{
							"internalType": "string",
							"name": "name",
							"type": "string"
						},
						{
							"internalType": "uint256",
							"name": "date",
							"type": "uint256"
						},
						{
							"internalType": "uint256",
							"name": "price",
							"type": "uint256"
						},
						{
							"internalType": "uint256",
							"name": "ticketCount",
							"type": "uint256"
						}
					],
					"name": "createEvent",
					"outputs": [],
					"stateMutability": "nonpayable",
					"type": "function"
				},
				{
					"inputs": [
						{
							"internalType": "uint256",
							"name": "",
							"type": "uint256"
						}
					],
					"name": "events",
					"outputs": [
						{
							"internalType": "address",
							"name": "organizer",
							"type": "address"
						},
						{
							"internalType": "string",
							"name": "name",
							"type": "string"
						},
						{
							"internalType": "uint256",
							"name": "date",
							"type": "uint256"
						},
						{
							"internalType": "uint256",
							"name": "price",
							"type": "uint256"
						},
						{
							"internalType": "uint256",
							"name": "ticketCount",
							"type": "uint256"
						},
						{
							"internalType": "uint256",
							"name": "ticketRemaining",
							"type": "uint256"
						}
					],
					"stateMutability": "view",
					"type": "function"
				},
				{
					"inputs": [],
					"name": "nextId",
					"outputs": [
						{
							"internalType": "uint256",
							"name": "",
							"type": "uint256"
						}
					],
					"stateMutability": "view",
					"type": "function"
				},
				{
					"inputs": [
						{
							"internalType": "address",
							"name": "",
							"type": "address"
						},
						{
							"internalType": "uint256",
							"name": "",
							"type": "uint256"
						}
					],
					"name": "tickets",
					"outputs": [
						{
							"internalType": "uint256",
							"name": "",
							"type": "uint256"
						}
					],
					"stateMutability": "view",
					"type": "function"
				}
			],
			"devdoc": {
				"kind": "dev",
				"methods": {},
				"version": 1
			},
			"evm": {
				"assembly": "    /* \"tickets/tickets.sol\":27:646  contract ticket {\r... */\n  mstore(0x40, 0x80)\n  callvalue\n  dup1\n  iszero\n  tag_1\n  jumpi\n  0x00\n  dup1\n  revert\ntag_1:\n  pop\n  dataSize(sub_0)\n  dup1\n  dataOffset(sub_0)\n  0x00\n  codecopy\n  0x00\n  return\nstop\n\nsub_0: assembly {\n        /* \"tickets/tickets.sol\":27:646  contract ticket {\r... */\n      mstore(0x40, 0x80)\n      callvalue\n      dup1\n      iszero\n      tag_1\n      jumpi\n      0x00\n      dup1\n      revert\n    tag_1:\n      pop\n      jumpi(tag_2, lt(calldatasize, 0x04))\n      shr(0xe0, calldataload(0x00))\n      dup1\n      0x0374ab0b\n      eq\n      tag_3\n      jumpi\n      dup1\n      0x0b791430\n      eq\n      tag_4\n      jumpi\n      dup1\n      0x61b8ce8c\n      eq\n      tag_5\n      jumpi\n      dup1\n      0xdae7a13c\n      eq\n      tag_6\n      jumpi\n    tag_2:\n      0x00\n      dup1\n      revert\n        /* \"tickets/tickets.sol\":355:643  function createEvent(string memory name, uint date, uint price, uint ticketCount) external{\r... */\n    tag_3:\n      tag_7\n      0x04\n      dup1\n      calldatasize\n      sub\n      dup2\n      add\n      swap1\n      tag_8\n      swap2\n      swap1\n      tag_9\n      jump\t// in\n    tag_8:\n      tag_10\n      jump\t// in\n    tag_7:\n      stop\n        /* \"tickets/tickets.sol\":228:262  mapping(uint=>Event) public events */\n    tag_4:\n      tag_11\n      0x04\n      dup1\n      calldatasize\n      sub\n      dup2\n      add\n      swap1\n      tag_12\n      swap2\n      swap1\n      tag_13\n      jump\t// in\n    tag_12:\n      tag_14\n      jump\t// in\n    tag_11:\n      mload(0x40)\n      tag_15\n      swap7\n      swap6\n      swap5\n      swap4\n      swap3\n      swap2\n      swap1\n      tag_16\n      jump\t// in\n    tag_15:\n      mload(0x40)\n      dup1\n      swap2\n      sub\n      swap1\n      return\n        /* \"tickets/tickets.sol\":328:346  uint public nextId */\n    tag_5:\n      tag_17\n      tag_18\n      jump\t// in\n    tag_17:\n      mload(0x40)\n      tag_19\n      swap2\n      swap1\n      tag_20\n      jump\t// in\n    tag_19:\n      mload(0x40)\n      dup1\n      swap2\n      sub\n      swap1\n      return\n        /* \"tickets/tickets.sol\":269:321  mapping(address=>mapping(uint=>uint)) public tickets */\n    tag_6:\n      tag_21\n      0x04\n      dup1\n      calldatasize\n      sub\n      dup2\n      add\n      swap1\n      tag_22\n      swap2\n      swap1\n      tag_23\n      jump\t// in\n    tag_22:\n      tag_24\n      jump\t// in\n    tag_21:\n      mload(0x40)\n      tag_25\n      swap2\n      swap1\n      tag_20\n      jump\t// in\n    tag_25:\n      mload(0x40)\n      dup1\n      swap2\n      sub\n      swap1\n      return\n        /* \"tickets/tickets.sol\":355:643  function createEvent(string memory name, uint date, uint price, uint ticketCount) external{\r... */\n    tag_10:\n        /* \"tickets/tickets.sol\":469:484  block.timestamp */\n      timestamp\n        /* \"tickets/tickets.sol\":464:468  date */\n      dup4\n        /* \"tickets/tickets.sol\":464:484  date>block.timestamp */\n      gt\n        /* \"tickets/tickets.sol\":456:527  require(date>block.timestamp, \"You can organize event for future date\") */\n      tag_27\n      jumpi\n      mload(0x40)\n      0x08c379a000000000000000000000000000000000000000000000000000000000\n      dup2\n      mstore\n      0x04\n      add\n      tag_28\n      swap1\n      tag_29\n      jump\t// in\n    tag_28:\n      mload(0x40)\n      dup1\n      swap2\n      sub\n      swap1\n      revert\n    tag_27:\n        /* \"tickets/tickets.sol\":558:559  0 */\n      0x00\n        /* \"tickets/tickets.sol\":546:557  ticketCount */\n      dup2\n        /* \"tickets/tickets.sol\":546:559  ticketCount>0 */\n      gt\n        /* \"tickets/tickets.sol\":538:625  require(ticketCount>0, \"You can organize event only if you create more than 0 tickets\") */\n      tag_30\n      jumpi\n      mload(0x40)\n      0x08c379a000000000000000000000000000000000000000000000000000000000\n      dup2\n      mstore\n      0x04\n      add\n      tag_31\n      swap1\n      tag_32\n      jump\t// in\n    tag_31:\n      mload(0x40)\n      dup1\n      swap2\n      sub\n      swap1\n      revert\n    tag_30:\n        /* \"tickets/tickets.sol\":355:643  function createEvent(string memory name, uint date, uint price, uint ticketCount) external{\r... */\n      pop\n      pop\n      pop\n      pop\n      jump\t// out\n        /* \"tickets/tickets.sol\":228:262  mapping(uint=>Event) public events */\n    tag_14:\n      mstore(0x20, 0x00)\n      dup1\n      0x00\n      mstore\n      keccak256(0x00, 0x40)\n      0x00\n      swap2\n      pop\n      swap1\n      pop\n      dup1\n      0x00\n      add\n      0x00\n      swap1\n      sload\n      swap1\n      0x0100\n      exp\n      swap1\n      div\n      0xffffffffffffffffffffffffffffffffffffffff\n      and\n      swap1\n      dup1\n      0x01\n      add\n      dup1\n      sload\n      tag_33\n      swap1\n      tag_34\n      jump\t// in\n    tag_33:\n      dup1\n      0x1f\n      add\n      0x20\n      dup1\n      swap2\n      div\n      mul\n      0x20\n      add\n      mload(0x40)\n      swap1\n      dup2\n      add\n      0x40\n      mstore\n      dup1\n      swap3\n      swap2\n      swap1\n      dup2\n      dup2\n      mstore\n      0x20\n      add\n      dup3\n      dup1\n      sload\n      tag_35\n      swap1\n      tag_34\n      jump\t// in\n    tag_35:\n      dup1\n      iszero\n      tag_36\n      jumpi\n      dup1\n      0x1f\n      lt\n      tag_37\n      jumpi\n      0x0100\n      dup1\n      dup4\n      sload\n      div\n      mul\n      dup4\n      mstore\n      swap2\n      0x20\n      add\n      swap2\n      jump(tag_36)\n    tag_37:\n      dup3\n      add\n      swap2\n      swap1\n      0x00\n      mstore\n      keccak256(0x00, 0x20)\n      swap1\n    tag_38:\n      dup2\n      sload\n      dup2\n      mstore\n      swap1\n      0x01\n      add\n      swap1\n      0x20\n      add\n      dup1\n      dup4\n      gt\n      tag_38\n      jumpi\n      dup3\n      swap1\n      sub\n      0x1f\n      and\n      dup3\n      add\n      swap2\n    tag_36:\n      pop\n      pop\n      pop\n      pop\n      pop\n      swap1\n      dup1\n      0x02\n      add\n      sload\n      swap1\n      dup1\n      0x03\n      add\n      sload\n      swap1\n      dup1\n      0x04\n      add\n      sload\n      swap1\n      dup1\n      0x05\n      add\n      sload\n      swap1\n      pop\n      dup7\n      jump\t// out\n        /* \"tickets/tickets.sol\":328:346  uint public nextId */\n    tag_18:\n      sload(0x02)\n      dup2\n      jump\t// out\n        /* \"tickets/tickets.sol\":269:321  mapping(address=>mapping(uint=>uint)) public tickets */\n    tag_24:\n      mstore(0x20, 0x01)\n      dup2\n      0x00\n      mstore\n      mstore(0x20, keccak256(0x00, 0x40))\n      dup1\n      0x00\n      mstore\n      keccak256(0x00, 0x40)\n      0x00\n      swap2\n      pop\n      swap2\n      pop\n      pop\n      sload\n      dup2\n      jump\t// out\n        /* \"#utility.yul\":7:351   */\n    tag_40:\n      0x00\n        /* \"#utility.yul\":110:175   */\n      tag_42\n        /* \"#utility.yul\":125:174   */\n      tag_43\n        /* \"#utility.yul\":167:173   */\n      dup5\n        /* \"#utility.yul\":125:174   */\n      tag_44\n      jump\t// in\n    tag_43:\n        /* \"#utility.yul\":110:175   */\n      tag_45\n      jump\t// in\n    tag_42:\n        /* \"#utility.yul\":101:175   */\n      swap1\n      pop\n        /* \"#utility.yul\":198:204   */\n      dup3\n        /* \"#utility.yul\":191:196   */\n      dup2\n        /* \"#utility.yul\":184:205   */\n      mstore\n        /* \"#utility.yul\":236:240   */\n      0x20\n        /* \"#utility.yul\":229:234   */\n      dup2\n        /* \"#utility.yul\":225:241   */\n      add\n        /* \"#utility.yul\":274:277   */\n      dup5\n        /* \"#utility.yul\":265:271   */\n      dup5\n        /* \"#utility.yul\":260:263   */\n      dup5\n        /* \"#utility.yul\":256:272   */\n      add\n        /* \"#utility.yul\":253:278   */\n      gt\n        /* \"#utility.yul\":250:252   */\n      iszero\n      tag_46\n      jumpi\n        /* \"#utility.yul\":291:292   */\n      0x00\n        /* \"#utility.yul\":288:289   */\n      dup1\n        /* \"#utility.yul\":281:293   */\n      revert\n        /* \"#utility.yul\":250:252   */\n    tag_46:\n        /* \"#utility.yul\":304:345   */\n      tag_47\n        /* \"#utility.yul\":338:344   */\n      dup5\n        /* \"#utility.yul\":333:336   */\n      dup3\n        /* \"#utility.yul\":328:331   */\n      dup6\n        /* \"#utility.yul\":304:345   */\n      tag_48\n      jump\t// in\n    tag_47:\n        /* \"#utility.yul\":91:351   */\n      pop\n      swap4\n      swap3\n      pop\n      pop\n      pop\n      jump\t// out\n        /* \"#utility.yul\":357:496   */\n    tag_49:\n      0x00\n        /* \"#utility.yul\":441:447   */\n      dup2\n        /* \"#utility.yul\":428:448   */\n      calldataload\n        /* \"#utility.yul\":419:448   */\n      swap1\n      pop\n        /* \"#utility.yul\":457:490   */\n      tag_51\n        /* \"#utility.yul\":484:489   */\n      dup2\n        /* \"#utility.yul\":457:490   */\n      tag_52\n      jump\t// in\n    tag_51:\n        /* \"#utility.yul\":409:496   */\n      swap3\n      swap2\n      pop\n      pop\n      jump\t// out\n        /* \"#utility.yul\":516:789   */\n    tag_53:\n      0x00\n        /* \"#utility.yul\":621:624   */\n      dup3\n        /* \"#utility.yul\":614:618   */\n      0x1f\n        /* \"#utility.yul\":606:612   */\n      dup4\n        /* \"#utility.yul\":602:619   */\n      add\n        /* \"#utility.yul\":598:625   */\n      slt\n        /* \"#utility.yul\":588:590   */\n      tag_55\n      jumpi\n        /* \"#utility.yul\":639:640   */\n      0x00\n        /* \"#utility.yul\":636:637   */\n      dup1\n        /* \"#utility.yul\":629:641   */\n      revert\n        /* \"#utility.yul\":588:590   */\n    tag_55:\n        /* \"#utility.yul\":679:685   */\n      dup2\n        /* \"#utility.yul\":666:686   */\n      calldataload\n        /* \"#utility.yul\":704:783   */\n      tag_56\n        /* \"#utility.yul\":779:782   */\n      dup5\n        /* \"#utility.yul\":771:777   */\n      dup3\n        /* \"#utility.yul\":764:768   */\n      0x20\n        /* \"#utility.yul\":756:762   */\n      dup7\n        /* \"#utility.yul\":752:769   */\n      add\n        /* \"#utility.yul\":704:783   */\n      tag_40\n      jump\t// in\n    tag_56:\n        /* \"#utility.yul\":695:783   */\n      swap2\n      pop\n        /* \"#utility.yul\":578:789   */\n      pop\n      swap3\n      swap2\n      pop\n      pop\n      jump\t// out\n        /* \"#utility.yul\":795:934   */\n    tag_57:\n      0x00\n        /* \"#utility.yul\":879:885   */\n      dup2\n        /* \"#utility.yul\":866:886   */\n      calldataload\n        /* \"#utility.yul\":857:886   */\n      swap1\n      pop\n        /* \"#utility.yul\":895:928   */\n      tag_59\n        /* \"#utility.yul\":922:927   */\n      dup2\n        /* \"#utility.yul\":895:928   */\n      tag_60\n      jump\t// in\n    tag_59:\n        /* \"#utility.yul\":847:934   */\n      swap3\n      swap2\n      pop\n      pop\n      jump\t// out\n        /* \"#utility.yul\":940:1347   */\n    tag_23:\n      0x00\n      dup1\n        /* \"#utility.yul\":1065:1067   */\n      0x40\n        /* \"#utility.yul\":1053:1062   */\n      dup4\n        /* \"#utility.yul\":1044:1051   */\n      dup6\n        /* \"#utility.yul\":1040:1063   */\n      sub\n        /* \"#utility.yul\":1036:1068   */\n      slt\n        /* \"#utility.yul\":1033:1035   */\n      iszero\n      tag_62\n      jumpi\n        /* \"#utility.yul\":1081:1082   */\n      0x00\n        /* \"#utility.yul\":1078:1079   */\n      dup1\n        /* \"#utility.yul\":1071:1083   */\n      revert\n        /* \"#utility.yul\":1033:1035   */\n    tag_62:\n        /* \"#utility.yul\":1124:1125   */\n      0x00\n        /* \"#utility.yul\":1149:1202   */\n      tag_63\n        /* \"#utility.yul\":1194:1201   */\n      dup6\n        /* \"#utility.yul\":1185:1191   */\n      dup3\n        /* \"#utility.yul\":1174:1183   */\n      dup7\n        /* \"#utility.yul\":1170:1192   */\n      add\n        /* \"#utility.yul\":1149:1202   */\n      tag_49\n      jump\t// in\n    tag_63:\n        /* \"#utility.yul\":1139:1202   */\n      swap3\n      pop\n        /* \"#utility.yul\":1095:1212   */\n      pop\n        /* \"#utility.yul\":1251:1253   */\n      0x20\n        /* \"#utility.yul\":1277:1330   */\n      tag_64\n        /* \"#utility.yul\":1322:1329   */\n      dup6\n        /* \"#utility.yul\":1313:1319   */\n      dup3\n        /* \"#utility.yul\":1302:1311   */\n      dup7\n        /* \"#utility.yul\":1298:1320   */\n      add\n        /* \"#utility.yul\":1277:1330   */\n      tag_57\n      jump\t// in\n    tag_64:\n        /* \"#utility.yul\":1267:1330   */\n      swap2\n      pop\n        /* \"#utility.yul\":1222:1340   */\n      pop\n        /* \"#utility.yul\":1023:1347   */\n      swap3\n      pop\n      swap3\n      swap1\n      pop\n      jump\t// out\n        /* \"#utility.yul\":1353:2164   */\n    tag_9:\n      0x00\n      dup1\n      0x00\n      dup1\n        /* \"#utility.yul\":1522:1525   */\n      0x80\n        /* \"#utility.yul\":1510:1519   */\n      dup6\n        /* \"#utility.yul\":1501:1508   */\n      dup8\n        /* \"#utility.yul\":1497:1520   */\n      sub\n        /* \"#utility.yul\":1493:1526   */\n      slt\n        /* \"#utility.yul\":1490:1492   */\n      iszero\n      tag_66\n      jumpi\n        /* \"#utility.yul\":1539:1540   */\n      0x00\n        /* \"#utility.yul\":1536:1537   */\n      dup1\n        /* \"#utility.yul\":1529:1541   */\n      revert\n        /* \"#utility.yul\":1490:1492   */\n    tag_66:\n        /* \"#utility.yul\":1610:1611   */\n      0x00\n        /* \"#utility.yul\":1599:1608   */\n      dup6\n        /* \"#utility.yul\":1595:1612   */\n      add\n        /* \"#utility.yul\":1582:1613   */\n      calldataload\n        /* \"#utility.yul\":1640:1658   */\n      0xffffffffffffffff\n        /* \"#utility.yul\":1632:1638   */\n      dup2\n        /* \"#utility.yul\":1629:1659   */\n      gt\n        /* \"#utility.yul\":1626:1628   */\n      iszero\n      tag_67\n      jumpi\n        /* \"#utility.yul\":1672:1673   */\n      0x00\n        /* \"#utility.yul\":1669:1670   */\n      dup1\n        /* \"#utility.yul\":1662:1674   */\n      revert\n        /* \"#utility.yul\":1626:1628   */\n    tag_67:\n        /* \"#utility.yul\":1700:1763   */\n      tag_68\n        /* \"#utility.yul\":1755:1762   */\n      dup8\n        /* \"#utility.yul\":1746:1752   */\n      dup3\n        /* \"#utility.yul\":1735:1744   */\n      dup9\n        /* \"#utility.yul\":1731:1753   */\n      add\n        /* \"#utility.yul\":1700:1763   */\n      tag_53\n      jump\t// in\n    tag_68:\n        /* \"#utility.yul\":1690:1763   */\n      swap5\n      pop\n        /* \"#utility.yul\":1553:1773   */\n      pop\n        /* \"#utility.yul\":1812:1814   */\n      0x20\n        /* \"#utility.yul\":1838:1891   */\n      tag_69\n        /* \"#utility.yul\":1883:1890   */\n      dup8\n        /* \"#utility.yul\":1874:1880   */\n      dup3\n        /* \"#utility.yul\":1863:1872   */\n      dup9\n        /* \"#utility.yul\":1859:1881   */\n      add\n        /* \"#utility.yul\":1838:1891   */\n      tag_57\n      jump\t// in\n    tag_69:\n        /* \"#utility.yul\":1828:1891   */\n      swap4\n      pop\n        /* \"#utility.yul\":1783:1901   */\n      pop\n        /* \"#utility.yul\":1940:1942   */\n      0x40\n        /* \"#utility.yul\":1966:2019   */\n      tag_70\n        /* \"#utility.yul\":2011:2018   */\n      dup8\n        /* \"#utility.yul\":2002:2008   */\n      dup3\n        /* \"#utility.yul\":1991:2000   */\n      dup9\n        /* \"#utility.yul\":1987:2009   */\n      add\n        /* \"#utility.yul\":1966:2019   */\n      tag_57\n      jump\t// in\n    tag_70:\n        /* \"#utility.yul\":1956:2019   */\n      swap3\n      pop\n        /* \"#utility.yul\":1911:2029   */\n      pop\n        /* \"#utility.yul\":2068:2070   */\n      0x60\n        /* \"#utility.yul\":2094:2147   */\n      tag_71\n        /* \"#utility.yul\":2139:2146   */\n      dup8\n        /* \"#utility.yul\":2130:2136   */\n      dup3\n        /* \"#utility.yul\":2119:2128   */\n      dup9\n        /* \"#utility.yul\":2115:2137   */\n      add\n        /* \"#utility.yul\":2094:2147   */\n      tag_57\n      jump\t// in\n    tag_71:\n        /* \"#utility.yul\":2084:2147   */\n      swap2\n      pop\n        /* \"#utility.yul\":2039:2157   */\n      pop\n        /* \"#utility.yul\":1480:2164   */\n      swap3\n      swap6\n      swap2\n      swap5\n      pop\n      swap3\n      pop\n      jump\t// out\n        /* \"#utility.yul\":2170:2432   */\n    tag_13:\n      0x00\n        /* \"#utility.yul\":2278:2280   */\n      0x20\n        /* \"#utility.yul\":2266:2275   */\n      dup3\n        /* \"#utility.yul\":2257:2264   */\n      dup5\n        /* \"#utility.yul\":2253:2276   */\n      sub\n        /* \"#utility.yul\":2249:2281   */\n      slt\n        /* \"#utility.yul\":2246:2248   */\n      iszero\n      tag_73\n      jumpi\n        /* \"#utility.yul\":2294:2295   */\n      0x00\n        /* \"#utility.yul\":2291:2292   */\n      dup1\n        /* \"#utility.yul\":2284:2296   */\n      revert\n        /* \"#utility.yul\":2246:2248   */\n    tag_73:\n        /* \"#utility.yul\":2337:2338   */\n      0x00\n        /* \"#utility.yul\":2362:2415   */\n      tag_74\n        /* \"#utility.yul\":2407:2414   */\n      dup5\n        /* \"#utility.yul\":2398:2404   */\n      dup3\n        /* \"#utility.yul\":2387:2396   */\n      dup6\n        /* \"#utility.yul\":2383:2405   */\n      add\n        /* \"#utility.yul\":2362:2415   */\n      tag_57\n      jump\t// in\n    tag_74:\n        /* \"#utility.yul\":2352:2415   */\n      swap2\n      pop\n        /* \"#utility.yul\":2308:2425   */\n      pop\n        /* \"#utility.yul\":2236:2432   */\n      swap3\n      swap2\n      pop\n      pop\n      jump\t// out\n        /* \"#utility.yul\":2438:2556   */\n    tag_75:\n        /* \"#utility.yul\":2525:2549   */\n      tag_77\n        /* \"#utility.yul\":2543:2548   */\n      dup2\n        /* \"#utility.yul\":2525:2549   */\n      tag_78\n      jump\t// in\n    tag_77:\n        /* \"#utility.yul\":2520:2523   */\n      dup3\n        /* \"#utility.yul\":2513:2550   */\n      mstore\n        /* \"#utility.yul\":2503:2556   */\n      pop\n      pop\n      jump\t// out\n        /* \"#utility.yul\":2562:2926   */\n    tag_79:\n      0x00\n        /* \"#utility.yul\":2678:2717   */\n      tag_81\n        /* \"#utility.yul\":2711:2716   */\n      dup3\n        /* \"#utility.yul\":2678:2717   */\n      tag_82\n      jump\t// in\n    tag_81:\n        /* \"#utility.yul\":2733:2804   */\n      tag_83\n        /* \"#utility.yul\":2797:2803   */\n      dup2\n        /* \"#utility.yul\":2792:2795   */\n      dup6\n        /* \"#utility.yul\":2733:2804   */\n      tag_84\n      jump\t// in\n    tag_83:\n        /* \"#utility.yul\":2726:2804   */\n      swap4\n      pop\n        /* \"#utility.yul\":2813:2865   */\n      tag_85\n        /* \"#utility.yul\":2858:2864   */\n      dup2\n        /* \"#utility.yul\":2853:2856   */\n      dup6\n        /* \"#utility.yul\":2846:2850   */\n      0x20\n        /* \"#utility.yul\":2839:2844   */\n      dup7\n        /* \"#utility.yul\":2835:2851   */\n      add\n        /* \"#utility.yul\":2813:2865   */\n      tag_86\n      jump\t// in\n    tag_85:\n        /* \"#utility.yul\":2890:2919   */\n      tag_87\n        /* \"#utility.yul\":2912:2918   */\n      dup2\n        /* \"#utility.yul\":2890:2919   */\n      tag_88\n      jump\t// in\n    tag_87:\n        /* \"#utility.yul\":2885:2888   */\n      dup5\n        /* \"#utility.yul\":2881:2920   */\n      add\n        /* \"#utility.yul\":2874:2920   */\n      swap2\n      pop\n        /* \"#utility.yul\":2654:2926   */\n      pop\n      swap3\n      swap2\n      pop\n      pop\n      jump\t// out\n        /* \"#utility.yul\":2932:3302   */\n    tag_89:\n      0x00\n        /* \"#utility.yul\":3095:3162   */\n      tag_91\n        /* \"#utility.yul\":3159:3161   */\n      0x26\n        /* \"#utility.yul\":3154:3157   */\n      dup4\n        /* \"#utility.yul\":3095:3162   */\n      tag_84\n      jump\t// in\n    tag_91:\n        /* \"#utility.yul\":3088:3162   */\n      swap2\n      pop\n        /* \"#utility.yul\":3192:3226   */\n      0x596f752063616e206f7267616e697a65206576656e7420666f72206675747572\n        /* \"#utility.yul\":3188:3189   */\n      0x00\n        /* \"#utility.yul\":3183:3186   */\n      dup4\n        /* \"#utility.yul\":3179:3190   */\n      add\n        /* \"#utility.yul\":3172:3227   */\n      mstore\n        /* \"#utility.yul\":3258:3266   */\n      0x6520646174650000000000000000000000000000000000000000000000000000\n        /* \"#utility.yul\":3253:3255   */\n      0x20\n        /* \"#utility.yul\":3248:3251   */\n      dup4\n        /* \"#utility.yul\":3244:3256   */\n      add\n        /* \"#utility.yul\":3237:3267   */\n      mstore\n        /* \"#utility.yul\":3293:3295   */\n      0x40\n        /* \"#utility.yul\":3288:3291   */\n      dup3\n        /* \"#utility.yul\":3284:3296   */\n      add\n        /* \"#utility.yul\":3277:3296   */\n      swap1\n      pop\n        /* \"#utility.yul\":3078:3302   */\n      swap2\n      swap1\n      pop\n      jump\t// out\n        /* \"#utility.yul\":3308:3701   */\n    tag_92:\n      0x00\n        /* \"#utility.yul\":3471:3538   */\n      tag_94\n        /* \"#utility.yul\":3535:3537   */\n      0x3d\n        /* \"#utility.yul\":3530:3533   */\n      dup4\n        /* \"#utility.yul\":3471:3538   */\n      tag_84\n      jump\t// in\n    tag_94:\n        /* \"#utility.yul\":3464:3538   */\n      swap2\n      pop\n        /* \"#utility.yul\":3568:3602   */\n      0x596f752063616e206f7267616e697a65206576656e74206f6e6c792069662079\n        /* \"#utility.yul\":3564:3565   */\n      0x00\n        /* \"#utility.yul\":3559:3562   */\n      dup4\n        /* \"#utility.yul\":3555:3566   */\n      add\n        /* \"#utility.yul\":3548:3603   */\n      mstore\n        /* \"#utility.yul\":3634:3665   */\n      0x6f7520637265617465206d6f7265207468616e2030207469636b657473000000\n        /* \"#utility.yul\":3629:3631   */\n      0x20\n        /* \"#utility.yul\":3624:3627   */\n      dup4\n        /* \"#utility.yul\":3620:3632   */\n      add\n        /* \"#utility.yul\":3613:3666   */\n      mstore\n        /* \"#utility.yul\":3692:3694   */\n      0x40\n        /* \"#utility.yul\":3687:3690   */\n      dup3\n        /* \"#utility.yul\":3683:3695   */\n      add\n        /* \"#utility.yul\":3676:3695   */\n      swap1\n      pop\n        /* \"#utility.yul\":3454:3701   */\n      swap2\n      swap1\n      pop\n      jump\t// out\n        /* \"#utility.yul\":3707:3825   */\n    tag_95:\n        /* \"#utility.yul\":3794:3818   */\n      tag_97\n        /* \"#utility.yul\":3812:3817   */\n      dup2\n        /* \"#utility.yul\":3794:3818   */\n      tag_98\n      jump\t// in\n    tag_97:\n        /* \"#utility.yul\":3789:3792   */\n      dup3\n        /* \"#utility.yul\":3782:3819   */\n      mstore\n        /* \"#utility.yul\":3772:3825   */\n      pop\n      pop\n      jump\t// out\n        /* \"#utility.yul\":3831:4697   */\n    tag_16:\n      0x00\n        /* \"#utility.yul\":4122:4125   */\n      0xc0\n        /* \"#utility.yul\":4111:4120   */\n      dup3\n        /* \"#utility.yul\":4107:4126   */\n      add\n        /* \"#utility.yul\":4099:4126   */\n      swap1\n      pop\n        /* \"#utility.yul\":4136:4207   */\n      tag_100\n        /* \"#utility.yul\":4204:4205   */\n      0x00\n        /* \"#utility.yul\":4193:4202   */\n      dup4\n        /* \"#utility.yul\":4189:4206   */\n      add\n        /* \"#utility.yul\":4180:4186   */\n      dup10\n        /* \"#utility.yul\":4136:4207   */\n      tag_75\n      jump\t// in\n    tag_100:\n        /* \"#utility.yul\":4254:4263   */\n      dup2\n        /* \"#utility.yul\":4248:4252   */\n      dup2\n        /* \"#utility.yul\":4244:4264   */\n      sub\n        /* \"#utility.yul\":4239:4241   */\n      0x20\n        /* \"#utility.yul\":4228:4237   */\n      dup4\n        /* \"#utility.yul\":4224:4242   */\n      add\n        /* \"#utility.yul\":4217:4265   */\n      mstore\n        /* \"#utility.yul\":4282:4360   */\n      tag_101\n        /* \"#utility.yul\":4355:4359   */\n      dup2\n        /* \"#utility.yul\":4346:4352   */\n      dup9\n        /* \"#utility.yul\":4282:4360   */\n      tag_79\n      jump\t// in\n    tag_101:\n        /* \"#utility.yul\":4274:4360   */\n      swap1\n      pop\n        /* \"#utility.yul\":4370:4442   */\n      tag_102\n        /* \"#utility.yul\":4438:4440   */\n      0x40\n        /* \"#utility.yul\":4427:4436   */\n      dup4\n        /* \"#utility.yul\":4423:4441   */\n      add\n        /* \"#utility.yul\":4414:4420   */\n      dup8\n        /* \"#utility.yul\":4370:4442   */\n      tag_95\n      jump\t// in\n    tag_102:\n        /* \"#utility.yul\":4452:4524   */\n      tag_103\n        /* \"#utility.yul\":4520:4522   */\n      0x60\n        /* \"#utility.yul\":4509:4518   */\n      dup4\n        /* \"#utility.yul\":4505:4523   */\n      add\n        /* \"#utility.yul\":4496:4502   */\n      dup7\n        /* \"#utility.yul\":4452:4524   */\n      tag_95\n      jump\t// in\n    tag_103:\n        /* \"#utility.yul\":4534:4607   */\n      tag_104\n        /* \"#utility.yul\":4602:4605   */\n      0x80\n        /* \"#utility.yul\":4591:4600   */\n      dup4\n        /* \"#utility.yul\":4587:4606   */\n      add\n        /* \"#utility.yul\":4578:4584   */\n      dup6\n        /* \"#utility.yul\":4534:4607   */\n      tag_95\n      jump\t// in\n    tag_104:\n        /* \"#utility.yul\":4617:4690   */\n      tag_105\n        /* \"#utility.yul\":4685:4688   */\n      0xa0\n        /* \"#utility.yul\":4674:4683   */\n      dup4\n        /* \"#utility.yul\":4670:4689   */\n      add\n        /* \"#utility.yul\":4661:4667   */\n      dup5\n        /* \"#utility.yul\":4617:4690   */\n      tag_95\n      jump\t// in\n    tag_105:\n        /* \"#utility.yul\":4089:4697   */\n      swap8\n      swap7\n      pop\n      pop\n      pop\n      pop\n      pop\n      pop\n      pop\n      jump\t// out\n        /* \"#utility.yul\":4703:5122   */\n    tag_29:\n      0x00\n        /* \"#utility.yul\":4907:4909   */\n      0x20\n        /* \"#utility.yul\":4896:4905   */\n      dup3\n        /* \"#utility.yul\":4892:4910   */\n      add\n        /* \"#utility.yul\":4884:4910   */\n      swap1\n      pop\n        /* \"#utility.yul\":4956:4965   */\n      dup2\n        /* \"#utility.yul\":4950:4954   */\n      dup2\n        /* \"#utility.yul\":4946:4966   */\n      sub\n        /* \"#utility.yul\":4942:4943   */\n      0x00\n        /* \"#utility.yul\":4931:4940   */\n      dup4\n        /* \"#utility.yul\":4927:4944   */\n      add\n        /* \"#utility.yul\":4920:4967   */\n      mstore\n        /* \"#utility.yul\":4984:5115   */\n      tag_107\n        /* \"#utility.yul\":5110:5114   */\n      dup2\n        /* \"#utility.yul\":4984:5115   */\n      tag_89\n      jump\t// in\n    tag_107:\n        /* \"#utility.yul\":4976:5115   */\n      swap1\n      pop\n        /* \"#utility.yul\":4874:5122   */\n      swap2\n      swap1\n      pop\n      jump\t// out\n        /* \"#utility.yul\":5128:5547   */\n    tag_32:\n      0x00\n        /* \"#utility.yul\":5332:5334   */\n      0x20\n        /* \"#utility.yul\":5321:5330   */\n      dup3\n        /* \"#utility.yul\":5317:5335   */\n      add\n        /* \"#utility.yul\":5309:5335   */\n      swap1\n      pop\n        /* \"#utility.yul\":5381:5390   */\n      dup2\n        /* \"#utility.yul\":5375:5379   */\n      dup2\n        /* \"#utility.yul\":5371:5391   */\n      sub\n        /* \"#utility.yul\":5367:5368   */\n      0x00\n        /* \"#utility.yul\":5356:5365   */\n      dup4\n        /* \"#utility.yul\":5352:5369   */\n      add\n        /* \"#utility.yul\":5345:5392   */\n      mstore\n        /* \"#utility.yul\":5409:5540   */\n      tag_109\n        /* \"#utility.yul\":5535:5539   */\n      dup2\n        /* \"#utility.yul\":5409:5540   */\n      tag_92\n      jump\t// in\n    tag_109:\n        /* \"#utility.yul\":5401:5540   */\n      swap1\n      pop\n        /* \"#utility.yul\":5299:5547   */\n      swap2\n      swap1\n      pop\n      jump\t// out\n        /* \"#utility.yul\":5553:5775   */\n    tag_20:\n      0x00\n        /* \"#utility.yul\":5684:5686   */\n      0x20\n        /* \"#utility.yul\":5673:5682   */\n      dup3\n        /* \"#utility.yul\":5669:5687   */\n      add\n        /* \"#utility.yul\":5661:5687   */\n      swap1\n      pop\n        /* \"#utility.yul\":5697:5768   */\n      tag_111\n        /* \"#utility.yul\":5765:5766   */\n      0x00\n        /* \"#utility.yul\":5754:5763   */\n      dup4\n        /* \"#utility.yul\":5750:5767   */\n      add\n        /* \"#utility.yul\":5741:5747   */\n      dup5\n        /* \"#utility.yul\":5697:5768   */\n      tag_95\n      jump\t// in\n    tag_111:\n        /* \"#utility.yul\":5651:5775   */\n      swap3\n      swap2\n      pop\n      pop\n      jump\t// out\n        /* \"#utility.yul\":5781:6064   */\n    tag_45:\n      0x00\n        /* \"#utility.yul\":5847:5849   */\n      0x40\n        /* \"#utility.yul\":5841:5850   */\n      mload\n        /* \"#utility.yul\":5831:5850   */\n      swap1\n      pop\n        /* \"#utility.yul\":5889:5893   */\n      dup2\n        /* \"#utility.yul\":5881:5887   */\n      dup2\n        /* \"#utility.yul\":5877:5894   */\n      add\n        /* \"#utility.yul\":5996:6002   */\n      dup2\n        /* \"#utility.yul\":5984:5994   */\n      dup2\n        /* \"#utility.yul\":5981:6003   */\n      lt\n        /* \"#utility.yul\":5960:5978   */\n      0xffffffffffffffff\n        /* \"#utility.yul\":5948:5958   */\n      dup3\n        /* \"#utility.yul\":5945:5979   */\n      gt\n        /* \"#utility.yul\":5942:6004   */\n      or\n        /* \"#utility.yul\":5939:5941   */\n      iszero\n      tag_113\n      jumpi\n        /* \"#utility.yul\":6007:6025   */\n      tag_114\n      tag_115\n      jump\t// in\n    tag_114:\n        /* \"#utility.yul\":5939:5941   */\n    tag_113:\n        /* \"#utility.yul\":6047:6057   */\n      dup1\n        /* \"#utility.yul\":6043:6045   */\n      0x40\n        /* \"#utility.yul\":6036:6058   */\n      mstore\n        /* \"#utility.yul\":5821:6064   */\n      pop\n      swap2\n      swap1\n      pop\n      jump\t// out\n        /* \"#utility.yul\":6070:6402   */\n    tag_44:\n      0x00\n        /* \"#utility.yul\":6222:6240   */\n      0xffffffffffffffff\n        /* \"#utility.yul\":6214:6220   */\n      dup3\n        /* \"#utility.yul\":6211:6241   */\n      gt\n        /* \"#utility.yul\":6208:6210   */\n      iszero\n      tag_117\n      jumpi\n        /* \"#utility.yul\":6244:6262   */\n      tag_118\n      tag_115\n      jump\t// in\n    tag_118:\n        /* \"#utility.yul\":6208:6210   */\n    tag_117:\n        /* \"#utility.yul\":6329:6333   */\n      0x1f\n        /* \"#utility.yul\":6325:6334   */\n      not\n        /* \"#utility.yul\":6318:6322   */\n      0x1f\n        /* \"#utility.yul\":6310:6316   */\n      dup4\n        /* \"#utility.yul\":6306:6323   */\n      add\n        /* \"#utility.yul\":6302:6335   */\n      and\n        /* \"#utility.yul\":6294:6335   */\n      swap1\n      pop\n        /* \"#utility.yul\":6390:6394   */\n      0x20\n        /* \"#utility.yul\":6384:6388   */\n      dup2\n        /* \"#utility.yul\":6380:6395   */\n      add\n        /* \"#utility.yul\":6372:6395   */\n      swap1\n      pop\n        /* \"#utility.yul\":6137:6402   */\n      swap2\n      swap1\n      pop\n      jump\t// out\n        /* \"#utility.yul\":6408:6507   */\n    tag_82:\n      0x00\n        /* \"#utility.yul\":6494:6499   */\n      dup2\n        /* \"#utility.yul\":6488:6500   */\n      mload\n        /* \"#utility.yul\":6478:6500   */\n      swap1\n      pop\n        /* \"#utility.yul\":6467:6507   */\n      swap2\n      swap1\n      pop\n      jump\t// out\n        /* \"#utility.yul\":6513:6682   */\n    tag_84:\n      0x00\n        /* \"#utility.yul\":6631:6637   */\n      dup3\n        /* \"#utility.yul\":6626:6629   */\n      dup3\n        /* \"#utility.yul\":6619:6638   */\n      mstore\n        /* \"#utility.yul\":6671:6675   */\n      0x20\n        /* \"#utility.yul\":6666:6669   */\n      dup3\n        /* \"#utility.yul\":6662:6676   */\n      add\n        /* \"#utility.yul\":6647:6676   */\n      swap1\n      pop\n        /* \"#utility.yul\":6609:6682   */\n      swap3\n      swap2\n      pop\n      pop\n      jump\t// out\n        /* \"#utility.yul\":6688:6784   */\n    tag_78:\n      0x00\n        /* \"#utility.yul\":6754:6778   */\n      tag_122\n        /* \"#utility.yul\":6772:6777   */\n      dup3\n        /* \"#utility.yul\":6754:6778   */\n      tag_123\n      jump\t// in\n    tag_122:\n        /* \"#utility.yul\":6743:6778   */\n      swap1\n      pop\n        /* \"#utility.yul\":6733:6784   */\n      swap2\n      swap1\n      pop\n      jump\t// out\n        /* \"#utility.yul\":6790:6916   */\n    tag_123:\n      0x00\n        /* \"#utility.yul\":6867:6909   */\n      0xffffffffffffffffffffffffffffffffffffffff\n        /* \"#utility.yul\":6860:6865   */\n      dup3\n        /* \"#utility.yul\":6856:6910   */\n      and\n        /* \"#utility.yul\":6845:6910   */\n      swap1\n      pop\n        /* \"#utility.yul\":6835:6916   */\n      swap2\n      swap1\n      pop\n      jump\t// out\n        /* \"#utility.yul\":6922:6999   */\n    tag_98:\n      0x00\n        /* \"#utility.yul\":6988:6993   */\n      dup2\n        /* \"#utility.yul\":6977:6993   */\n      swap1\n      pop\n        /* \"#utility.yul\":6967:6999   */\n      swap2\n      swap1\n      pop\n      jump\t// out\n        /* \"#utility.yul\":7005:7159   */\n    tag_48:\n        /* \"#utility.yul\":7089:7095   */\n      dup3\n        /* \"#utility.yul\":7084:7087   */\n      dup2\n        /* \"#utility.yul\":7079:7082   */\n      dup4\n        /* \"#utility.yul\":7066:7096   */\n      calldatacopy\n        /* \"#utility.yul\":7151:7152   */\n      0x00\n        /* \"#utility.yul\":7142:7148   */\n      dup4\n        /* \"#utility.yul\":7137:7140   */\n      dup4\n        /* \"#utility.yul\":7133:7149   */\n      add\n        /* \"#utility.yul\":7126:7153   */\n      mstore\n        /* \"#utility.yul\":7056:7159   */\n      pop\n      pop\n      pop\n      jump\t// out\n        /* \"#utility.yul\":7165:7472   */\n    tag_86:\n        /* \"#utility.yul\":7233:7234   */\n      0x00\n        /* \"#utility.yul\":7243:7356   */\n    tag_128:\n        /* \"#utility.yul\":7257:7263   */\n      dup4\n        /* \"#utility.yul\":7254:7255   */\n      dup2\n        /* \"#utility.yul\":7251:7264   */\n      lt\n        /* \"#utility.yul\":7243:7356   */\n      iszero\n      tag_130\n      jumpi\n        /* \"#utility.yul\":7342:7343   */\n      dup1\n        /* \"#utility.yul\":7337:7340   */\n      dup3\n        /* \"#utility.yul\":7333:7344   */\n      add\n        /* \"#utility.yul\":7327:7345   */\n      mload\n        /* \"#utility.yul\":7323:7324   */\n      dup2\n        /* \"#utility.yul\":7318:7321   */\n      dup5\n        /* \"#utility.yul\":7314:7325   */\n      add\n        /* \"#utility.yul\":7307:7346   */\n      mstore\n        /* \"#utility.yul\":7279:7281   */\n      0x20\n        /* \"#utility.yul\":7276:7277   */\n      dup2\n        /* \"#utility.yul\":7272:7282   */\n      add\n        /* \"#utility.yul\":7267:7282   */\n      swap1\n      pop\n        /* \"#utility.yul\":7243:7356   */\n      jump(tag_128)\n    tag_130:\n        /* \"#utility.yul\":7374:7380   */\n      dup4\n        /* \"#utility.yul\":7371:7372   */\n      dup2\n        /* \"#utility.yul\":7368:7381   */\n      gt\n        /* \"#utility.yul\":7365:7367   */\n      iszero\n      tag_131\n      jumpi\n        /* \"#utility.yul\":7454:7455   */\n      0x00\n        /* \"#utility.yul\":7445:7451   */\n      dup5\n        /* \"#utility.yul\":7440:7443   */\n      dup5\n        /* \"#utility.yul\":7436:7452   */\n      add\n        /* \"#utility.yul\":7429:7456   */\n      mstore\n        /* \"#utility.yul\":7365:7367   */\n    tag_131:\n        /* \"#utility.yul\":7214:7472   */\n      pop\n      pop\n      pop\n      pop\n      jump\t// out\n        /* \"#utility.yul\":7478:7798   */\n    tag_34:\n      0x00\n        /* \"#utility.yul\":7559:7560   */\n      0x02\n        /* \"#utility.yul\":7553:7557   */\n      dup3\n        /* \"#utility.yul\":7549:7561   */\n      div\n        /* \"#utility.yul\":7539:7561   */\n      swap1\n      pop\n        /* \"#utility.yul\":7606:7607   */\n      0x01\n        /* \"#utility.yul\":7600:7604   */\n      dup3\n        /* \"#utility.yul\":7596:7608   */\n      and\n        /* \"#utility.yul\":7627:7645   */\n      dup1\n        /* \"#utility.yul\":7617:7619   */\n      tag_133\n      jumpi\n        /* \"#utility.yul\":7683:7687   */\n      0x7f\n        /* \"#utility.yul\":7675:7681   */\n      dup3\n        /* \"#utility.yul\":7671:7688   */\n      and\n        /* \"#utility.yul\":7661:7688   */\n      swap2\n      pop\n        /* \"#utility.yul\":7617:7619   */\n    tag_133:\n        /* \"#utility.yul\":7745:7747   */\n      0x20\n        /* \"#utility.yul\":7737:7743   */\n      dup3\n        /* \"#utility.yul\":7734:7748   */\n      lt\n        /* \"#utility.yul\":7714:7732   */\n      dup2\n        /* \"#utility.yul\":7711:7749   */\n      eq\n        /* \"#utility.yul\":7708:7710   */\n      iszero\n      tag_134\n      jumpi\n        /* \"#utility.yul\":7764:7782   */\n      tag_135\n      tag_136\n      jump\t// in\n    tag_135:\n        /* \"#utility.yul\":7708:7710   */\n    tag_134:\n        /* \"#utility.yul\":7529:7798   */\n      pop\n      swap2\n      swap1\n      pop\n      jump\t// out\n        /* \"#utility.yul\":7804:7984   */\n    tag_136:\n        /* \"#utility.yul\":7852:7929   */\n      0x4e487b7100000000000000000000000000000000000000000000000000000000\n        /* \"#utility.yul\":7849:7850   */\n      0x00\n        /* \"#utility.yul\":7842:7930   */\n      mstore\n        /* \"#utility.yul\":7949:7953   */\n      0x22\n        /* \"#utility.yul\":7946:7947   */\n      0x04\n        /* \"#utility.yul\":7939:7954   */\n      mstore\n        /* \"#utility.yul\":7973:7977   */\n      0x24\n        /* \"#utility.yul\":7970:7971   */\n      0x00\n        /* \"#utility.yul\":7963:7978   */\n      revert\n        /* \"#utility.yul\":7990:8170   */\n    tag_115:\n        /* \"#utility.yul\":8038:8115   */\n      0x4e487b7100000000000000000000000000000000000000000000000000000000\n        /* \"#utility.yul\":8035:8036   */\n      0x00\n        /* \"#utility.yul\":8028:8116   */\n      mstore\n        /* \"#utility.yul\":8135:8139   */\n      0x41\n        /* \"#utility.yul\":8132:8133   */\n      0x04\n        /* \"#utility.yul\":8125:8140   */\n      mstore\n        /* \"#utility.yul\":8159:8163   */\n      0x24\n        /* \"#utility.yul\":8156:8157   */\n      0x00\n        /* \"#utility.yul\":8149:8164   */\n      revert\n        /* \"#utility.yul\":8176:8278   */\n    tag_88:\n      0x00\n        /* \"#utility.yul\":8268:8270   */\n      0x1f\n        /* \"#utility.yul\":8264:8271   */\n      not\n        /* \"#utility.yul\":8259:8261   */\n      0x1f\n        /* \"#utility.yul\":8252:8257   */\n      dup4\n        /* \"#utility.yul\":8248:8262   */\n      add\n        /* \"#utility.yul\":8244:8272   */\n      and\n        /* \"#utility.yul\":8234:8272   */\n      swap1\n      pop\n        /* \"#utility.yul\":8224:8278   */\n      swap2\n      swap1\n      pop\n      jump\t// out\n        /* \"#utility.yul\":8284:8406   */\n    tag_52:\n        /* \"#utility.yul\":8357:8381   */\n      tag_141\n        /* \"#utility.yul\":8375:8380   */\n      dup2\n        /* \"#utility.yul\":8357:8381   */\n      tag_78\n      jump\t// in\n    tag_141:\n        /* \"#utility.yul\":8350:8355   */\n      dup2\n        /* \"#utility.yul\":8347:8382   */\n      eq\n        /* \"#utility.yul\":8337:8339   */\n      tag_142\n      jumpi\n        /* \"#utility.yul\":8396:8397   */\n      0x00\n        /* \"#utility.yul\":8393:8394   */\n      dup1\n        /* \"#utility.yul\":8386:8398   */\n      revert\n        /* \"#utility.yul\":8337:8339   */\n    tag_142:\n        /* \"#utility.yul\":8327:8406   */\n      pop\n      jump\t// out\n        /* \"#utility.yul\":8412:8534   */\n    tag_60:\n        /* \"#utility.yul\":8485:8509   */\n      tag_144\n        /* \"#utility.yul\":8503:8508   */\n      dup2\n        /* \"#utility.yul\":8485:8509   */\n      tag_98\n      jump\t// in\n    tag_144:\n        /* \"#utility.yul\":8478:8483   */\n      dup2\n        /* \"#utility.yul\":8475:8510   */\n      eq\n        /* \"#utility.yul\":8465:8467   */\n      tag_145\n      jumpi\n        /* \"#utility.yul\":8524:8525   */\n      0x00\n        /* \"#utility.yul\":8521:8522   */\n      dup1\n        /* \"#utility.yul\":8514:8526   */\n      revert\n        /* \"#utility.yul\":8465:8467   */\n    tag_145:\n        /* \"#utility.yul\":8455:8534   */\n      pop\n      jump\t// out\n\n    auxdata: 0xa2646970667358221220d8cb2853a1ca716bc90fb23a2a7580e2a7aa76098c7cf411a5bc9897307c030d64736f6c63430008000033\n}\n",
				"bytecode": {
					"linkReferences": {},
					"object": "608060405234801561001057600080fd5b506107e2806100206000396000f3fe608060405234801561001057600080fd5b506004361061004c5760003560e01c80630374ab0b146100515780630b7914301461006d57806361b8ce8c146100a2578063dae7a13c146100c0575b600080fd5b61006b60048036038101906100669190610358565b6100f0565b005b610087600480360381019061008291906103d3565b61017b565b6040516100999695949392919061051f565b60405180910390f35b6100aa61025f565b6040516100b791906105c7565b60405180910390f35b6100da60048036038101906100d5919061031c565b610265565b6040516100e791906105c7565b60405180910390f35b428311610132576040517f08c379a000000000000000000000000000000000000000000000000000000000815260040161012990610587565b60405180910390fd5b60008111610175576040517f08c379a000000000000000000000000000000000000000000000000000000000815260040161016c906105a7565b60405180910390fd5b50505050565b60006020528060005260406000206000915090508060000160009054906101000a900473ffffffffffffffffffffffffffffffffffffffff16908060010180546101c4906106dd565b80601f01602080910402602001604051908101604052809291908181526020018280546101f0906106dd565b801561023d5780601f106102125761010080835404028352916020019161023d565b820191906000526020600020905b81548152906001019060200180831161022057829003601f168201915b5050505050908060020154908060030154908060040154908060050154905086565b60025481565b6001602052816000526040600020602052806000526040600020600091509150505481565b600061029d61029884610613565b6105e2565b9050828152602081018484840111156102b557600080fd5b6102c084828561069b565b509392505050565b6000813590506102d78161077e565b92915050565b600082601f8301126102ee57600080fd5b81356102fe84826020860161028a565b91505092915050565b60008135905061031681610795565b92915050565b6000806040838503121561032f57600080fd5b600061033d858286016102c8565b925050602061034e85828601610307565b9150509250929050565b6000806000806080858703121561036e57600080fd5b600085013567ffffffffffffffff81111561038857600080fd5b610394878288016102dd565b94505060206103a587828801610307565b93505060406103b687828801610307565b92505060606103c787828801610307565b91505092959194509250565b6000602082840312156103e557600080fd5b60006103f384828501610307565b91505092915050565b6104058161065f565b82525050565b600061041682610643565b610420818561064e565b93506104308185602086016106aa565b6104398161076d565b840191505092915050565b600061045160268361064e565b91507f596f752063616e206f7267616e697a65206576656e7420666f7220667574757260008301527f65206461746500000000000000000000000000000000000000000000000000006020830152604082019050919050565b60006104b7603d8361064e565b91507f596f752063616e206f7267616e697a65206576656e74206f6e6c79206966207960008301527f6f7520637265617465206d6f7265207468616e2030207469636b6574730000006020830152604082019050919050565b61051981610691565b82525050565b600060c08201905061053460008301896103fc565b8181036020830152610546818861040b565b90506105556040830187610510565b6105626060830186610510565b61056f6080830185610510565b61057c60a0830184610510565b979650505050505050565b600060208201905081810360008301526105a081610444565b9050919050565b600060208201905081810360008301526105c0816104aa565b9050919050565b60006020820190506105dc6000830184610510565b92915050565b6000604051905081810181811067ffffffffffffffff821117156106095761060861073e565b5b8060405250919050565b600067ffffffffffffffff82111561062e5761062d61073e565b5b601f19601f8301169050602081019050919050565b600081519050919050565b600082825260208201905092915050565b600061066a82610671565b9050919050565b600073ffffffffffffffffffffffffffffffffffffffff82169050919050565b6000819050919050565b82818337600083830152505050565b60005b838110156106c85780820151818401526020810190506106ad565b838111156106d7576000848401525b50505050565b600060028204905060018216806106f557607f821691505b602082108114156107095761070861070f565b5b50919050565b7f4e487b7100000000000000000000000000000000000000000000000000000000600052602260045260246000fd5b7f4e487b7100000000000000000000000000000000000000000000000000000000600052604160045260246000fd5b6000601f19601f8301169050919050565b6107878161065f565b811461079257600080fd5b50565b61079e81610691565b81146107a957600080fd5b5056fea2646970667358221220d8cb2853a1ca716bc90fb23a2a7580e2a7aa76098c7cf411a5bc9897307c030d64736f6c63430008000033",
					"opcodes": "PUSH1 0x80 PUSH1 0x40 MSTORE CALLVALUE DUP1 ISZERO PUSH2 0x10 JUMPI PUSH1 0x0 DUP1 REVERT JUMPDEST POP PUSH2 0x7E2 DUP1 PUSH2 0x20 PUSH1 0x0 CODECOPY PUSH1 0x0 RETURN INVALID PUSH1 0x80 PUSH1 0x40 MSTORE CALLVALUE DUP1 ISZERO PUSH2 0x10 JUMPI PUSH1 0x0 DUP1 REVERT JUMPDEST POP PUSH1 0x4 CALLDATASIZE LT PUSH2 0x4C JUMPI PUSH1 0x0 CALLDATALOAD PUSH1 0xE0 SHR DUP1 PUSH4 0x374AB0B EQ PUSH2 0x51 JUMPI DUP1 PUSH4 0xB791430 EQ PUSH2 0x6D JUMPI DUP1 PUSH4 0x61B8CE8C EQ PUSH2 0xA2 JUMPI DUP1 PUSH4 0xDAE7A13C EQ PUSH2 0xC0 JUMPI JUMPDEST PUSH1 0x0 DUP1 REVERT JUMPDEST PUSH2 0x6B PUSH1 0x4 DUP1 CALLDATASIZE SUB DUP2 ADD SWAP1 PUSH2 0x66 SWAP2 SWAP1 PUSH2 0x358 JUMP JUMPDEST PUSH2 0xF0 JUMP JUMPDEST STOP JUMPDEST PUSH2 0x87 PUSH1 0x4 DUP1 CALLDATASIZE SUB DUP2 ADD SWAP1 PUSH2 0x82 SWAP2 SWAP1 PUSH2 0x3D3 JUMP JUMPDEST PUSH2 0x17B JUMP JUMPDEST PUSH1 0x40 MLOAD PUSH2 0x99 SWAP7 SWAP6 SWAP5 SWAP4 SWAP3 SWAP2 SWAP1 PUSH2 0x51F JUMP JUMPDEST PUSH1 0x40 MLOAD DUP1 SWAP2 SUB SWAP1 RETURN JUMPDEST PUSH2 0xAA PUSH2 0x25F JUMP JUMPDEST PUSH1 0x40 MLOAD PUSH2 0xB7 SWAP2 SWAP1 PUSH2 0x5C7 JUMP JUMPDEST PUSH1 0x40 MLOAD DUP1 SWAP2 SUB SWAP1 RETURN JUMPDEST PUSH2 0xDA PUSH1 0x4 DUP1 CALLDATASIZE SUB DUP2 ADD SWAP1 PUSH2 0xD5 SWAP2 SWAP1 PUSH2 0x31C JUMP JUMPDEST PUSH2 0x265 JUMP JUMPDEST PUSH1 0x40 MLOAD PUSH2 0xE7 SWAP2 SWAP1 PUSH2 0x5C7 JUMP JUMPDEST PUSH1 0x40 MLOAD DUP1 SWAP2 SUB SWAP1 RETURN JUMPDEST TIMESTAMP DUP4 GT PUSH2 0x132 JUMPI PUSH1 0x40 MLOAD PUSH32 0x8C379A000000000000000000000000000000000000000000000000000000000 DUP2 MSTORE PUSH1 0x4 ADD PUSH2 0x129 SWAP1 PUSH2 0x587 JUMP JUMPDEST PUSH1 0x40 MLOAD DUP1 SWAP2 SUB SWAP1 REVERT JUMPDEST PUSH1 0x0 DUP2 GT PUSH2 0x175 JUMPI PUSH1 0x40 MLOAD PUSH32 0x8C379A000000000000000000000000000000000000000000000000000000000 DUP2 MSTORE PUSH1 0x4 ADD PUSH2 0x16C SWAP1 PUSH2 0x5A7 JUMP JUMPDEST PUSH1 0x40 MLOAD DUP1 SWAP2 SUB SWAP1 REVERT JUMPDEST POP POP POP POP JUMP JUMPDEST PUSH1 0x0 PUSH1 0x20 MSTORE DUP1 PUSH1 0x0 MSTORE PUSH1 0x40 PUSH1 0x0 KECCAK256 PUSH1 0x0 SWAP2 POP SWAP1 POP DUP1 PUSH1 0x0 ADD PUSH1 0x0 SWAP1 SLOAD SWAP1 PUSH2 0x100 EXP SWAP1 DIV PUSH20 0xFFFFFFFFFFFFFFFFFFFFFFFFFFFFFFFFFFFFFFFF AND SWAP1 DUP1 PUSH1 0x1 ADD DUP1 SLOAD PUSH2 0x1C4 SWAP1 PUSH2 0x6DD JUMP JUMPDEST DUP1 PUSH1 0x1F ADD PUSH1 0x20 DUP1 SWAP2 DIV MUL PUSH1 0x20 ADD PUSH1 0x40 MLOAD SWAP1 DUP2 ADD PUSH1 0x40 MSTORE DUP1 SWAP3 SWAP2 SWAP1 DUP2 DUP2 MSTORE PUSH1 0x20 ADD DUP3 DUP1 SLOAD PUSH2 0x1F0 SWAP1 PUSH2 0x6DD JUMP JUMPDEST DUP1 ISZERO PUSH2 0x23D JUMPI DUP1 PUSH1 0x1F LT PUSH2 0x212 JUMPI PUSH2 0x100 DUP1 DUP4 SLOAD DIV MUL DUP4 MSTORE SWAP2 PUSH1 0x20 ADD SWAP2 PUSH2 0x23D JUMP JUMPDEST DUP3 ADD SWAP2 SWAP1 PUSH1 0x0 MSTORE PUSH1 0x20 PUSH1 0x0 KECCAK256 SWAP1 JUMPDEST DUP2 SLOAD DUP2 MSTORE SWAP1 PUSH1 0x1 ADD SWAP1 PUSH1 0x20 ADD DUP1 DUP4 GT PUSH2 0x220 JUMPI DUP3 SWAP1 SUB PUSH1 0x1F AND DUP3 ADD SWAP2 JUMPDEST POP POP POP POP POP SWAP1 DUP1 PUSH1 0x2 ADD SLOAD SWAP1 DUP1 PUSH1 0x3 ADD SLOAD SWAP1 DUP1 PUSH1 0x4 ADD SLOAD SWAP1 DUP1 PUSH1 0x5 ADD SLOAD SWAP1 POP DUP7 JUMP JUMPDEST PUSH1 0x2 SLOAD DUP2 JUMP JUMPDEST PUSH1 0x1 PUSH1 0x20 MSTORE DUP2 PUSH1 0x0 MSTORE PUSH1 0x40 PUSH1 0x0 KECCAK256 PUSH1 0x20 MSTORE DUP1 PUSH1 0x0 MSTORE PUSH1 0x40 PUSH1 0x0 KECCAK256 PUSH1 0x0 SWAP2 POP SWAP2 POP POP SLOAD DUP2 JUMP JUMPDEST PUSH1 0x0 PUSH2 0x29D PUSH2 0x298 DUP5 PUSH2 0x613 JUMP JUMPDEST PUSH2 0x5E2 JUMP JUMPDEST SWAP1 POP DUP3 DUP2 MSTORE PUSH1 0x20 DUP2 ADD DUP5 DUP5 DUP5 ADD GT ISZERO PUSH2 0x2B5 JUMPI PUSH1 0x0 DUP1 REVERT JUMPDEST PUSH2 0x2C0 DUP5 DUP3 DUP6 PUSH2 0x69B JUMP JUMPDEST POP SWAP4 SWAP3 POP POP POP JUMP JUMPDEST PUSH1 0x0 DUP2 CALLDATALOAD SWAP1 POP PUSH2 0x2D7 DUP2 PUSH2 0x77E JUMP JUMPDEST SWAP3 SWAP2 POP POP JUMP JUMPDEST PUSH1 0x0 DUP3 PUSH1 0x1F DUP4 ADD SLT PUSH2 0x2EE JUMPI PUSH1 0x0 DUP1 REVERT JUMPDEST DUP2 CALLDATALOAD PUSH2 0x2FE DUP5 DUP3 PUSH1 0x20 DUP7 ADD PUSH2 0x28A JUMP JUMPDEST SWAP2 POP POP SWAP3 SWAP2 POP POP JUMP JUMPDEST PUSH1 0x0 DUP2 CALLDATALOAD SWAP1 POP PUSH2 0x316 DUP2 PUSH2 0x795 JUMP JUMPDEST SWAP3 SWAP2 POP POP JUMP JUMPDEST PUSH1 0x0 DUP1 PUSH1 0x40 DUP4 DUP6 SUB SLT ISZERO PUSH2 0x32F JUMPI PUSH1 0x0 DUP1 REVERT JUMPDEST PUSH1 0x0 PUSH2 0x33D DUP6 DUP3 DUP7 ADD PUSH2 0x2C8 JUMP JUMPDEST SWAP3 POP POP PUSH1 0x20 PUSH2 0x34E DUP6 DUP3 DUP7 ADD PUSH2 0x307 JUMP JUMPDEST SWAP2 POP POP SWAP3 POP SWAP3 SWAP1 POP JUMP JUMPDEST PUSH1 0x0 DUP1 PUSH1 0x0 DUP1 PUSH1 0x80 DUP6 DUP8 SUB SLT ISZERO PUSH2 0x36E JUMPI PUSH1 0x0 DUP1 REVERT JUMPDEST PUSH1 0x0 DUP6 ADD CALLDATALOAD PUSH8 0xFFFFFFFFFFFFFFFF DUP2 GT ISZERO PUSH2 0x388 JUMPI PUSH1 0x0 DUP1 REVERT JUMPDEST PUSH2 0x394 DUP8 DUP3 DUP9 ADD PUSH2 0x2DD JUMP JUMPDEST SWAP5 POP POP PUSH1 0x20 PUSH2 0x3A5 DUP8 DUP3 DUP9 ADD PUSH2 0x307 JUMP JUMPDEST SWAP4 POP POP PUSH1 0x40 PUSH2 0x3B6 DUP8 DUP3 DUP9 ADD PUSH2 0x307 JUMP JUMPDEST SWAP3 POP POP PUSH1 0x60 PUSH2 0x3C7 DUP8 DUP3 DUP9 ADD PUSH2 0x307 JUMP JUMPDEST SWAP2 POP POP SWAP3 SWAP6 SWAP2 SWAP5 POP SWAP3 POP JUMP JUMPDEST PUSH1 0x0 PUSH1 0x20 DUP3 DUP5 SUB SLT ISZERO PUSH2 0x3E5 JUMPI PUSH1 0x0 DUP1 REVERT JUMPDEST PUSH1 0x0 PUSH2 0x3F3 DUP5 DUP3 DUP6 ADD PUSH2 0x307 JUMP JUMPDEST SWAP2 POP POP SWAP3 SWAP2 POP POP JUMP JUMPDEST PUSH2 0x405 DUP2 PUSH2 0x65F JUMP JUMPDEST DUP3 MSTORE POP POP JUMP JUMPDEST PUSH1 0x0 PUSH2 0x416 DUP3 PUSH2 0x643 JUMP JUMPDEST PUSH2 0x420 DUP2 DUP6 PUSH2 0x64E JUMP JUMPDEST SWAP4 POP PUSH2 0x430 DUP2 DUP6 PUSH1 0x20 DUP7 ADD PUSH2 0x6AA JUMP JUMPDEST PUSH2 0x439 DUP2 PUSH2 0x76D JUMP JUMPDEST DUP5 ADD SWAP2 POP POP SWAP3 SWAP2 POP POP JUMP JUMPDEST PUSH1 0x0 PUSH2 0x451 PUSH1 0x26 DUP4 PUSH2 0x64E JUMP JUMPDEST SWAP2 POP PUSH32 0x596F752063616E206F7267616E697A65206576656E7420666F72206675747572 PUSH1 0x0 DUP4 ADD MSTORE PUSH32 0x6520646174650000000000000000000000000000000000000000000000000000 PUSH1 0x20 DUP4 ADD MSTORE PUSH1 0x40 DUP3 ADD SWAP1 POP SWAP2 SWAP1 POP JUMP JUMPDEST PUSH1 0x0 PUSH2 0x4B7 PUSH1 0x3D DUP4 PUSH2 0x64E JUMP JUMPDEST SWAP2 POP PUSH32 0x596F752063616E206F7267616E697A65206576656E74206F6E6C792069662079 PUSH1 0x0 DUP4 ADD MSTORE PUSH32 0x6F7520637265617465206D6F7265207468616E2030207469636B657473000000 PUSH1 0x20 DUP4 ADD MSTORE PUSH1 0x40 DUP3 ADD SWAP1 POP SWAP2 SWAP1 POP JUMP JUMPDEST PUSH2 0x519 DUP2 PUSH2 0x691 JUMP JUMPDEST DUP3 MSTORE POP POP JUMP JUMPDEST PUSH1 0x0 PUSH1 0xC0 DUP3 ADD SWAP1 POP PUSH2 0x534 PUSH1 0x0 DUP4 ADD DUP10 PUSH2 0x3FC JUMP JUMPDEST DUP2 DUP2 SUB PUSH1 0x20 DUP4 ADD MSTORE PUSH2 0x546 DUP2 DUP9 PUSH2 0x40B JUMP JUMPDEST SWAP1 POP PUSH2 0x555 PUSH1 0x40 DUP4 ADD DUP8 PUSH2 0x510 JUMP JUMPDEST PUSH2 0x562 PUSH1 0x60 DUP4 ADD DUP7 PUSH2 0x510 JUMP JUMPDEST PUSH2 0x56F PUSH1 0x80 DUP4 ADD DUP6 PUSH2 0x510 JUMP JUMPDEST PUSH2 0x57C PUSH1 0xA0 DUP4 ADD DUP5 PUSH2 0x510 JUMP JUMPDEST SWAP8 SWAP7 POP POP POP POP POP POP POP JUMP JUMPDEST PUSH1 0x0 PUSH1 0x20 DUP3 ADD SWAP1 POP DUP2 DUP2 SUB PUSH1 0x0 DUP4 ADD MSTORE PUSH2 0x5A0 DUP2 PUSH2 0x444 JUMP JUMPDEST SWAP1 POP SWAP2 SWAP1 POP JUMP JUMPDEST PUSH1 0x0 PUSH1 0x20 DUP3 ADD SWAP1 POP DUP2 DUP2 SUB PUSH1 0x0 DUP4 ADD MSTORE PUSH2 0x5C0 DUP2 PUSH2 0x4AA JUMP JUMPDEST SWAP1 POP SWAP2 SWAP1 POP JUMP JUMPDEST PUSH1 0x0 PUSH1 0x20 DUP3 ADD SWAP1 POP PUSH2 0x5DC PUSH1 0x0 DUP4 ADD DUP5 PUSH2 0x510 JUMP JUMPDEST SWAP3 SWAP2 POP POP JUMP JUMPDEST PUSH1 0x0 PUSH1 0x40 MLOAD SWAP1 POP DUP2 DUP2 ADD DUP2 DUP2 LT PUSH8 0xFFFFFFFFFFFFFFFF DUP3 GT OR ISZERO PUSH2 0x609 JUMPI PUSH2 0x608 PUSH2 0x73E JUMP JUMPDEST JUMPDEST DUP1 PUSH1 0x40 MSTORE POP SWAP2 SWAP1 POP JUMP JUMPDEST PUSH1 0x0 PUSH8 0xFFFFFFFFFFFFFFFF DUP3 GT ISZERO PUSH2 0x62E JUMPI PUSH2 0x62D PUSH2 0x73E JUMP JUMPDEST JUMPDEST PUSH1 0x1F NOT PUSH1 0x1F DUP4 ADD AND SWAP1 POP PUSH1 0x20 DUP2 ADD SWAP1 POP SWAP2 SWAP1 POP JUMP JUMPDEST PUSH1 0x0 DUP2 MLOAD SWAP1 POP SWAP2 SWAP1 POP JUMP JUMPDEST PUSH1 0x0 DUP3 DUP3 MSTORE PUSH1 0x20 DUP3 ADD SWAP1 POP SWAP3 SWAP2 POP POP JUMP JUMPDEST PUSH1 0x0 PUSH2 0x66A DUP3 PUSH2 0x671 JUMP JUMPDEST SWAP1 POP SWAP2 SWAP1 POP JUMP JUMPDEST PUSH1 0x0 PUSH20 0xFFFFFFFFFFFFFFFFFFFFFFFFFFFFFFFFFFFFFFFF DUP3 AND SWAP1 POP SWAP2 SWAP1 POP JUMP JUMPDEST PUSH1 0x0 DUP2 SWAP1 POP SWAP2 SWAP1 POP JUMP JUMPDEST DUP3 DUP2 DUP4 CALLDATACOPY PUSH1 0x0 DUP4 DUP4 ADD MSTORE POP POP POP JUMP JUMPDEST PUSH1 0x0 JUMPDEST DUP4 DUP2 LT ISZERO PUSH2 0x6C8 JUMPI DUP1 DUP3 ADD MLOAD DUP2 DUP5 ADD MSTORE PUSH1 0x20 DUP2 ADD SWAP1 POP PUSH2 0x6AD JUMP JUMPDEST DUP4 DUP2 GT ISZERO PUSH2 0x6D7 JUMPI PUSH1 0x0 DUP5 DUP5 ADD MSTORE JUMPDEST POP POP POP POP JUMP JUMPDEST PUSH1 0x0 PUSH1 0x2 DUP3 DIV SWAP1 POP PUSH1 0x1 DUP3 AND DUP1 PUSH2 0x6F5 JUMPI PUSH1 0x7F DUP3 AND SWAP2 POP JUMPDEST PUSH1 0x20 DUP3 LT DUP2 EQ ISZERO PUSH2 0x709 JUMPI PUSH2 0x708 PUSH2 0x70F JUMP JUMPDEST JUMPDEST POP SWAP2 SWAP1 POP JUMP JUMPDEST PUSH32 0x4E487B7100000000000000000000000000000000000000000000000000000000 PUSH1 0x0 MSTORE PUSH1 0x22 PUSH1 0x4 MSTORE PUSH1 0x24 PUSH1 0x0 REVERT JUMPDEST PUSH32 0x4E487B7100000000000000000000000000000000000000000000000000000000 PUSH1 0x0 MSTORE PUSH1 0x41 PUSH1 0x4 MSTORE PUSH1 0x24 PUSH1 0x0 REVERT JUMPDEST PUSH1 0x0 PUSH1 0x1F NOT PUSH1 0x1F DUP4 ADD AND SWAP1 POP SWAP2 SWAP1 POP JUMP JUMPDEST PUSH2 0x787 DUP2 PUSH2 0x65F JUMP JUMPDEST DUP2 EQ PUSH2 0x792 JUMPI PUSH1 0x0 DUP1 REVERT JUMPDEST POP JUMP JUMPDEST PUSH2 0x79E DUP2 PUSH2 0x691 JUMP JUMPDEST DUP2 EQ PUSH2 0x7A9 JUMPI PUSH1 0x0 DUP1 REVERT JUMPDEST POP JUMP INVALID LOG2 PUSH5 0x6970667358 0x22 SLT KECCAK256 0xD8 0xCB 0x28 MSTORE8 LOG1 0xCA PUSH18 0x6BC90FB23A2A7580E2A7AA76098C7CF411A5 0xBC SWAP9 SWAP8 ADDRESS PUSH29 0x30D64736F6C6343000800003300000000000000000000000000000000 "
				},
				"gasEstimates": {
					"creation": {
						"codeDepositCost": "403600",
						"executionCost": "443",
						"totalCost": "404043"
					},
					"external": {
						"createEvent(string,uint256,uint256,uint256)": "infinite",
						"events(uint256)": "infinite",
						"nextId()": "1151",
						"tickets(address,uint256)": "infinite"
					}
				},
				"methodIdentifiers": {
					"createEvent(string,uint256,uint256,uint256)": "0374ab0b",
					"events(uint256)": "0b791430",
					"nextId()": "61b8ce8c",
					"tickets(address,uint256)": "dae7a13c"
				}
			},
			"storageLayout": {
				"storage": [
					{
						"astId": 19,
						"contract": "tickets/tickets.sol:ticket",
						"label": "events",
						"offset": 0,
						"slot": "0",
						"type": "t_mapping(t_uint256,t_struct(Event)14_storage)"
					},
					{
						"astId": 25,
						"contract": "tickets/tickets.sol:ticket",
						"label": "tickets",
						"offset": 0,
						"slot": "1",
						"type": "t_mapping(t_address,t_mapping(t_uint256,t_uint256))"
					},
					{
						"astId": 27,
						"contract": "tickets/tickets.sol:ticket",
						"label": "nextId",
						"offset": 0,
						"slot": "2",
						"type": "t_uint256"
					}
				],
				"types": {
					"t_address": {
						"encoding": "inplace",
						"label": "address",
						"numberOfBytes": "20"
					},
					"t_mapping(t_address,t_mapping(t_uint256,t_uint256))": {
						"encoding": "mapping",
						"key": "t_address",
						"label": "mapping(address => mapping(uint256 => uint256))",
						"numberOfBytes": "32",
						"value": "t_mapping(t_uint256,t_uint256)"
					},
					"t_mapping(t_uint256,t_struct(Event)14_storage)": {
						"encoding": "mapping",
						"key": "t_uint256",
						"label": "mapping(uint256 => struct ticket.Event)",
						"numberOfBytes": "32",
						"value": "t_struct(Event)14_storage"
					},
					"t_mapping(t_uint256,t_uint256)": {
						"encoding": "mapping",
						"key": "t_uint256",
						"label": "mapping(uint256 => uint256)",
						"numberOfBytes": "32",
						"value": "t_uint256"
					},
					"t_string_storage": {
						"encoding": "bytes",
						"label": "string",
						"numberOfBytes": "32"
					},
					"t_struct(Event)14_storage": {
						"encoding": "inplace",
						"label": "struct ticket.Event",
						"members": [
							{
								"astId": 3,
								"contract": "tickets/tickets.sol:ticket",
								"label": "organizer",
								"offset": 0,
								"slot": "0",
								"type": "t_address"
							},
							{
								"astId": 5,
								"contract": "tickets/tickets.sol:ticket",
								"label": "name",
								"offset": 0,
								"slot": "1",
								"type": "t_string_storage"
							},
							{
								"astId": 7,
								"contract": "tickets/tickets.sol:ticket",
								"label": "date",
								"offset": 0,
								"slot": "2",
								"type": "t_uint256"
							},
							{
								"astId": 9,
								"contract": "tickets/tickets.sol:ticket",
								"label": "price",
								"offset": 0,
								"slot": "3",
								"type": "t_uint256"
							},
							{
								"astId": 11,
								"contract": "tickets/tickets.sol:ticket",
								"label": "ticketCount",
								"offset": 0,
								"slot": "4",
								"type": "t_uint256"
							},
							{
								"astId": 13,
								"contract": "tickets/tickets.sol:ticket",
								"label": "ticketRemaining",
								"offset": 0,
								"slot": "5",
								"type": "t_uint256"
							}
						],
						"numberOfBytes": "192"
					},
					"t_uint256": {
						"encoding": "inplace",
						"label": "uint256",
						"numberOfBytes": "32"
					}
				}
			},
			"userdoc": {
				"kind": "user",
				"methods": {},
				"version": 1
			}
		}
	}
}