{
	"data": {
		"bytecode": {
			"linkReferences": {},
			"object": "6080604052600a60005534801561001557600080fd5b50610176806100256000396000f3fe608060405234801561001057600080fd5b50600436106100415760003560e01c8063262a9dff14610046578063993a04b714610064578063d423740b14610082575b600080fd5b61004e61009e565b60405161005b9190610104565b60405180910390f35b61006c6100a4565b6040516100799190610104565b60405180910390f35b61009c600480360381019061009791906100cc565b6100ad565b005b60005481565b60008054905090565b8060008190555050565b6000813590506100c681610129565b92915050565b6000602082840312156100de57600080fd5b60006100ec848285016100b7565b91505092915050565b6100fe8161011f565b82525050565b600060208201905061011960008301846100f5565b92915050565b6000819050919050565b6101328161011f565b811461013d57600080fd5b5056fea2646970667358221220d72b38235d79defafe4aa4fe0de9ac2925375b3b03e1ab4f62e2214eef0f8da464736f6c63430008000033",
			"opcodes": "PUSH1 0x80 PUSH1 0x40 MSTORE PUSH1 0xA PUSH1 0x0 SSTORE CALLVALUE DUP1 ISZERO PUSH2 0x15 JUMPI PUSH1 0x0 DUP1 REVERT JUMPDEST POP PUSH2 0x176 DUP1 PUSH2 0x25 PUSH1 0x0 CODECOPY PUSH1 0x0 RETURN INVALID PUSH1 0x80 PUSH1 0x40 MSTORE CALLVALUE DUP1 ISZERO PUSH2 0x10 JUMPI PUSH1 0x0 DUP1 REVERT JUMPDEST POP PUSH1 0x4 CALLDATASIZE LT PUSH2 0x41 JUMPI PUSH1 0x0 CALLDATALOAD PUSH1 0xE0 SHR DUP1 PUSH4 0x262A9DFF EQ PUSH2 0x46 JUMPI DUP1 PUSH4 0x993A04B7 EQ PUSH2 0x64 JUMPI DUP1 PUSH4 0xD423740B EQ PUSH2 0x82 JUMPI JUMPDEST PUSH1 0x0 DUP1 REVERT JUMPDEST PUSH2 0x4E PUSH2 0x9E JUMP JUMPDEST PUSH1 0x40 MLOAD PUSH2 0x5B SWAP2 SWAP1 PUSH2 0x104 JUMP JUMPDEST PUSH1 0x40 MLOAD DUP1 SWAP2 SUB SWAP1 RETURN JUMPDEST PUSH2 0x6C PUSH2 0xA4 JUMP JUMPDEST PUSH1 0x40 MLOAD PUSH2 0x79 SWAP2 SWAP1 PUSH2 0x104 JUMP JUMPDEST PUSH1 0x40 MLOAD DUP1 SWAP2 SUB SWAP1 RETURN JUMPDEST PUSH2 0x9C PUSH1 0x4 DUP1 CALLDATASIZE SUB DUP2 ADD SWAP1 PUSH2 0x97 SWAP2 SWAP1 PUSH2 0xCC JUMP JUMPDEST PUSH2 0xAD JUMP JUMPDEST STOP JUMPDEST PUSH1 0x0 SLOAD DUP2 JUMP JUMPDEST PUSH1 0x0 DUP1 SLOAD SWAP1 POP SWAP1 JUMP JUMPDEST DUP1 PUSH1 0x0 DUP2 SWAP1 SSTORE POP POP JUMP JUMPDEST PUSH1 0x0 DUP2 CALLDATALOAD SWAP1 POP PUSH2 0xC6 DUP2 PUSH2 0x129 JUMP JUMPDEST SWAP3 SWAP2 POP POP JUMP JUMPDEST PUSH1 0x0 PUSH1 0x20 DUP3 DUP5 SUB SLT ISZERO PUSH2 0xDE JUMPI PUSH1 0x0 DUP1 REVERT JUMPDEST PUSH1 0x0 PUSH2 0xEC DUP5 DUP3 DUP6 ADD PUSH2 0xB7 JUMP JUMPDEST SWAP2 POP POP SWAP3 SWAP2 POP POP JUMP JUMPDEST PUSH2 0xFE DUP2 PUSH2 0x11F JUMP JUMPDEST DUP3 MSTORE POP POP JUMP JUMPDEST PUSH1 0x0 PUSH1 0x20 DUP3 ADD SWAP1 POP PUSH2 0x119 PUSH1 0x0 DUP4 ADD DUP5 PUSH2 0xF5 JUMP JUMPDEST SWAP3 SWAP2 POP POP JUMP JUMPDEST PUSH1 0x0 DUP2 SWAP1 POP SWAP2 SWAP1 POP JUMP JUMPDEST PUSH2 0x132 DUP2 PUSH2 0x11F JUMP JUMPDEST DUP2 EQ PUSH2 0x13D JUMPI PUSH1 0x0 DUP1 REVERT JUMPDEST POP JUMP INVALID LOG2 PUSH5 0x6970667358 0x22 SLT KECCAK256 0xD7 0x2B CODESIZE 0x23 0x5D PUSH26 0xDEFAFE4AA4FE0DE9AC2925375B3B03E1AB4F62E2214EEF0F8DA4 PUSH5 0x736F6C6343 STOP ADDMOD STOP STOP CALLER "
		},
		"gasEstimates": {
			"creation": {
				"codeDepositCost": "74800",
				"executionCost": "20129",
				"totalCost": "94929"
			},
			"external": {
				"age()": "1107",
				"getter()": "1137",
				"setter(uint256)": "20442"
			}
		},
		"methodIdentifiers": {
			"age()": "262a9dff",
			"getter()": "993a04b7",
			"setter(uint256)": "d423740b"
		}
	},
	"abi": [
		{
			"inputs": [],
			"name": "age",
			"outputs": [
				{
					"internalType": "uint256",
					"name": "",
					"type": "uint256"
				}
			],
			"stateMutability": "view",
			"type": "function"
		},
		{
			"inputs": [],
			"name": "getter",
			"outputs": [
				{
					"internalType": "uint256",
					"name": "",
					"type": "uint256"
				}
			],
			"stateMutability": "view",
			"type": "function"
		},
		{
			"inputs": [
				{
					"internalType": "uint256",
					"name": "newAge",
					"type": "uint256"
				}
			],
			"name": "setter",
			"outputs": [],
			"stateMutability": "nonpayable",
			"type": "function"
		}
	]
}